:020000040800F2
:10000000580A0020C9010008971D00087918000847
:10001000951D0008130300087D250008000000005E
:100020000000000000000000000000008B2100081C
:100030005703000800000000892100088D210008F6
:10004000E3010008E3010008E3010008E301000800
:10005000E3010008E3010008E3010008E3010008F0
:10006000E3010008E3010008E3010008E3010008E0
:10007000E3010008E3010008E3010008E3010008D0
:100080001503000821030008E3010008E30100084C
:10009000E3010008E3010008E30100086103000830
:1000A000E3010008E3010008E3010008E3010008A0
:1000B000F9210008E3010008E3010008E30100085A
:1000C000E3010008E3010008E3010008E301000880
:1000D000E3010008E3010008E3010008E301000870
:1000E00059030008E3010008E301000800F002F8EA
:1000F00000F05AF80AA090E8000C82448344AAF168
:100100000107DA4501D100F04FF8AFF2090EBAE865
:100110000F0013F0010F18BFFB1A43F0010318473B
:10012000C0480000E04800000A444FF0000C10F8FE
:10013000013B13F0070408BF10F8014B1D1108BF65
:1001400010F8015B641E05D010F8016B641E01F805
:10015000016BF9D113F0080F1EBF10F8014BAD1C55
:100160000C1B09D16D1E58BF01F801CBFAD505E073
:1001700014F8016B01F8016B6D1EF9D59142D6D3CD
:10018000704700000023002400250026103A28BFF5
:1001900078C1FBD8520728BF30C148BF0B607047F9
:1001A0001FB51FBD10B510BD00F07AF81146FFF75E
:1001B000F7FF02F00BFA00F098F803B4FFF7F2FF34
:1001C00003BC00F09FF80000094880470948004739
:1001D000FEE7FEE7FEE7FEE7FEE7FEE7FEE7FEE7F7
:1001E000FEE7FEE704480549054A064B7047000054
:1001F000F5210008ED00000858040020580A0020EE
:1002000058060020580600204FF000020429C0F0D4
:10021000128010F0030C00F01B80CCF1040CBCF138
:10022000020F18BF00F8012BA8BF20F8022BA1EB8A
:100230000C0100F00DB85FEAC17C24BF00F8012B6F
:1002400000F8012B48BF00F8012B70474FF0000267
:1002500000B5134694469646203922BFA0E80C50BC
:10026000A0E80C50B1F12001BFF4F7AF090728BF97
:10027000A0E80C5048BF0CC05DF804EB890028BF13
:1002800040F8042B08BF704748BF20F8022B11F03C
:10029000804F18BF00F8012B7047704770477047B8
:1002A000754600F02BF8AE4605006946534620F02F
:1002B0000700854618B020B5FFF794FFBDE8204041
:1002C0004FF000064FF000074FF000084FF0000B12
:1002D00021F00701AC46ACE8C009ACE8C009ACE8C5
:1002E000C009ACE8C0098D46704710B50446AFF3AD
:1002F00000802046BDE81040FFF75FBF0048704710
:10030000F403002001491820ABBEFEE726000200DE
:100310007047FEE7014800F029B800006C03002098
:10032000014800F023B80000B003002030B590F879
:1003300040500124AC40C56B6C6004686360436846
:10034000102B036803D099600068C26030BD9A60CA
:100350000068C16030BD70474FF4004000F058B9EC
:10036000402000F055B972B6FEE700002DE9F05FBD
:10037000C16B0C6801680B68D0F840C0042202FA17
:100380000CF2494DDFF824A1494E4A4FDFF828B15D
:10039000DFF828E122422CD05A072AD50A689206B3
:1003A00003D40A6822F004020A600168A94201D15C
:1003B000042219E0514501D1402215E0B14202D199
:1003C0004FF4806210E0B94202D14FF480420BE05A
:1003D000594502D14FF4802206E0714502D14FF415
:1003E000800201E04FF080622F4908394A60C16AFB
:1003F0003BE04FF0020808FA0CF818EA040F4FF03F
:1004000000094FF0010235D05FEA837832D50B68DE
:100410009B0605D40B6823F00A030B6080F82120AB
:100420000168A94201D1022219E0514501D12022DF
:1004300015E0B14202D14FF4007210E0B94202D18E
:100440004FF400520BE0594502D14FF4003206E060
:10045000714502D14FF4001201E04FF000721249D1
:1004600008394A6080F82090816A00291AD0BDE8D6
:10047000F05F0847082505FA0CF5254212D01B0746
:1004800010D50B6823F00E030B6090F84010C36B7F
:1004900002FA01F15960826380F8212080F82090EF
:1004A000016BE2E7BDE8F09F080002401C0002403B
:1004B0003000024044000240580002406C000240FC
:1004C00030B528B308C8134914221944B1FBF2F11E
:1004D0008900C16310498163022141771A6843F69C
:1004E000F0718A43D0E900142143D0E902452C433E
:1004F0002143046921434469214384692143114311
:10050000196000214163012242770177084630BD1E
:10051000012030BDF8FFFDBF0000024070B5044669
:1005200090F82000002501280CD0012084F820003C
:1005300094F821600020012E06D084F820000225C6
:10054000284670BD022070BD022684F82160A06399
:100550002068066826F0010606602046FFF7E6FEE2
:10056000E06A00282068016802D041F00E0106E030
:1005700021F0040101602068016841F00A01016076
:100580002068016841F001010160D9E770B50446B7
:1005900000F044F90546601C02D004480078044489
:1005A00000F03CF9401BA042FAD370BD300200209D
:1005B00070B54021134800F027F9134C4FF48065C3
:1005C00001280CD101222946204600F022F9012001
:1005D00002F01AFB00222946204600F01AF94FF4D7
:1005E0000041204600F010F9002809D100222946D8
:1005F000204600F00EF90548018841F00401018011
:1006000070BD000000080140000C01409001002076
:10061000044910B50A68024202D00860FFF7C8FF1B
:1006200010BD0000140401402DE9F84FDFF8B89127
:100630000024A9F1040B23460F2709F1040AABF1AA
:10064000040EC9E00125A5402A40AA427DD1674E8B
:10065000D1F804C0ACEB0608B44532D014DCBCF1D0
:10066000030F3AD009DCBCF1000F2AD0BCF1010F16
:100670001CD0BCF1020F31D11DE0BCF1110F17D01D
:10068000BCF1120F2AD119E0B8F5881F19D006DC89
:10069000B8F5803F15D0B8F5801F1FD111E0B8F52F
:1006A000001F0ED0B8F5041F18D10AE0CB6815E082
:1006B000CB681B1D12E0CB6808330FE0CB680C330E
:1006C0000CE08B682BB1012B4FF0080303D0456180
:1006D00004E0042302E0056100E00023FF2A01D8C2
:1006E000064601E000F104064FEA840501D9A5F1B0
:1006F0002005D6F8008007FA05FC28EA0C0803FA62
:1007000005F548EA0508C6F800804D68ED0062D599
:10071000374DAE6946F00106AE61AD6924F00306BF
:1007200005F001050095334D06EB050CDCF808508B
:10073000A607360F07FA06F825EA0805DFF8B8809D
:10074000404503D14FF0000817E044E0DFF8AC80EB
:10075000404502D14FF001080FE0DFF8A48040458A
:1007600002D14FF0020808E0DFF89880404502D13E
:100770004FF0030801E04FF0040808FA06F848EAD1
:100780000508CCF808804D68D9F80060ED024D46A8
:1007900001D5164300E096432E604D68DAF80060FC
:1007A000AD02554601D5164300E096432E604D68D4
:1007B000DBF80060AD035D4601D5164300E09643CB
:1007C0002E604D68DEF80060ED03754601D51643D6
:1007D00000E096432E60641C0D682A46E5407FF4D5
:1007E00031AFBDE8F88F000008040140000011108F
:1007F000001002400000014000080140000C0140D0
:1008000000100140001401408068084000D0012021
:1008100070470AB1016170470904FBE7014880682D
:10082000704700003002002070B5040025D094F815
:100830003D00002520B984F83C50204600F050F9D6
:10084000242084F83D002068016821F00101016046
:100850002068016841F4004101602068016821F4CA
:100860000041016000F098FA4D4A6168914201D858
:100870004C4900E04C49884201D2012070BD4B49EF
:100880002368B0FBF1F15E6826F03F060E435E6020
:100890006368934206D94FF4967359434FF47A73C1
:1008A000B1FBF3F12368491C1E6A26F03F06314371
:1008B00019626168914210D84900401EB0FBF1F204
:1008C000521CC2F30B02042A01D2042022E0B0FB26
:1008D000F1F0401CC0F30B001CE0A268F2B301EB86
:1008E000C10303EB0116431EB3FBF6F35B1C43F499
:1008F00080431B0549D092B301EBC10202EB011109
:10090000401EB0FBF1F0401CC0F30B0040F48040EF
:1009100040F400402168CA694CF6FF739A431043C3
:10092000C861D4E9071001432068026822F0C002C0
:1009300011430160D4E9030101432068826848F251
:10094000FF339A4311438160D4E9050108432168CC
:10095000CA6822F0FF021043C86001E00EE016E012
:100960002068016841F0010101602564202084F8BD
:100970003D00256384F83E50002070BD01EB410628
:10098000431EB3FBF6F35B1CB3E70120C2E701EBA8
:100990004101401EB0FBF1F0401CC0F30B00B7E773
:1009A000A086010080841E0000093D0040420F0027
:1009B0002DE9FF4F83B09A46DDE91197934604462F
:1009C000DDF84080FFF72AFF054694F83D00202817
:1009D0007FD11923012240492046009500F0E4FF11
:1009E000002876D194F83C00012872D0012084F8C8
:1009F0003C0020680168C90703D1016841F001018A
:100A000001602068016821F400610160212084F800
:100A10003D00402084F83E0000262664C4F824806F
:100A2000A4F82A90608D20852C48E062CDE90075FD
:100A300053465A462046049900F036FF70B930E01C
:100A40002A463946204601F055F858B1206C042852
:100A500004D12068016841F400710160012007B0F1
:100A6000BDE8F08F606A216800780861606A401C08
:100A70006062218D491E89B22185628D521E628578
:100A800022685369DB435B070BD469B100781061BE
:100A9000606A401C6062208D401E2085608D401E73
:100AA0006085208D0028CBD12A463946204600F0AB
:100AB0004FFF0028CAD154F83D0B016841F4007182
:100AC0000160202004F81E09E67766770020C6E75B
:100AD000FFE70220C3E70000020010000000FFFF54
:100AE00010B586B000210091019102910391006838
:100AF0000F4988421AD10F4CA06940F00800A0614C
:100B0000A069694600F008000490C02000901220FF
:100B10000190032003900848FFF786FDE06940F448
:100B20000010E061E06900F40010049006B010BD10
:100B30000054004000100240000C0140024881684F
:100B4000027811448160704730020020074810B5D8
:100B5000016841F010010160032000F075F80A20DF
:100B600000F006F800F024F8002010BD002002403C
:100B700070B50D4D04464FF47A712878B1FBF0F052
:100B80000A490968B1FBF0F000F0DCFA48B9102C12
:100B900007D200222146501E00F036F800206C607B
:100BA00070BD012070BD0000300200203C0200201A
:100BB0000C4808B5816941F001018161816901F04A
:100BC00001010091C16941F08051C161C06900F02B
:100BD000805000900448416821F0E06141F00071CC
:100BE000416008BD0010024000000140002809DB00
:100BF00000F01F02012191404009800000F1E02037
:100C0000C0F8001170470000F0B40E4B1B680C4692
:100C1000C3F30223C3F10705042D00D90425191DD0
:100C2000072901D2002300E0DB1E012606FA05F1A8
:100C3000491E214099409E40761E16403143F0BC2B
:100C400001F09DBC0CED00E0064900F007020868C9
:100C50004FF6FF03184040EA0220034A10430860A1
:100C6000704700000CED00E00000FA052DE9F047A8
:100C70000F46050061D0434E306800F00700B842CF
:100C800009D2306820F0070038433060306800F047
:100C90000700B84251D128683B4C810712D5400764
:100CA00003D5606840F4E06060602878000703D5F1
:100CB000606840F4605060606068A96820F0F000EF
:100CC000084360602878C00728D06868012810D0E1
:100CD0002168022810D0890700292EDA616821F0E6
:100CE000030101436160FFF799FD804641F28839B5
:100CF0000DE021688903EFE78901EDE7FFF78EFD3D
:100D0000A0EB0801494502D90320BDE8F0876068DF
:100D1000696800F00C00B0EB810FEFD1306800F093
:100D20000700B8420BD9306820F007003843306024
:100D3000306800F00700B84201D00120E5E72878CC
:100D4000400705D56068E96820F4E060084360600A
:100D50002878000706D56068296920F4605040EAC9
:100D6000C100606000F038F86168084AC1F30311FF
:100D7000515CC8400649086006480068FFF7F8FE65
:100D80000020C2E70020024000100240C8490008CD
:100D90003C020020340200200448054900684968EC
:100DA000044AC1F30221515CC84070473C02002054
:100DB00000100240D8490008044805490068496805
:100DC000044AC1F3C221515CC84070473C02002074
:100DD00000100240D84900080E4A51680E4801F040
:100DE0000C03042B11D0082B0FD10C48C1F3834303
:100DF000C903C05C0AD55168084AC1F34041921E3C
:100E0000515C054A5043B0FBF1F070470449484338
:100E1000704700000010024000127A00B849000834
:100E200000093D002DE9F84F040070D02078C04D36
:100E3000C00749D06868C0F38100012807D06868FE
:100E4000C0F38100022809D16868C00306D528686C
:100E5000800339D560680028E7D035E06068B0F5D8
:100E6000803F0BD010B1B0F5A02F11D0286820F42E
:100E700080302860286820F4802002E0286840F450
:100E800080302860606890B1FFF7C8FC06460AE031
:100E9000286840F480202860F0E700BFFFF7BEFC20
:100EA000801B642873D828688003F7D50CE0FFF70F
:100EB000B5FC064605E000BFFFF7B0FC801B6428C8
:100EC000F0D828688003F7D420789A4E80074FF036
:100ED00001094FF0000839D5686810F00C0F07D0F1
:100EE0006868C0F38100022809D16868C00306D48D
:100EF0002868800714D52069012808D110E02069EE
:100F0000B0B1C6F80090FFF789FC074605E00AE19A
:100F1000FFF784FCC01B0228C4D828688007F7D5D7
:100F20002868616920F0F80040EAC10028600DE0FF
:100F3000C6F80080FFF772FC074604E0FFF76EFC7E
:100F4000C01B022823D828688007F7D42078000720
:100F50002CD57948A169D9B1C0F80090FFF75EFCA3
:100F6000074604E0FFF75AFCC01B02280FD8686A46
:100F70008007F7D571484FF4FA510068B0FBF1F0E3
:100F8000009000BF0098411E0091FAD20EE080E070
:100F9000C0F80080FFF742FC074604E0FFF73EFC84
:100FA000C01B022875D8686A8007F7D420784007EC
:100FB00060D5E8690027C00008D4E86940F0805097
:100FC000E861E869012700F0805000905C48016802
:100FD000C90513D40168834641F480710160FFF7AD
:100FE0001DFC824606E000BFFFF718FCA0EB0A00DC
:100FF00064284ED8DBF80000C005F5D5E06801286C
:101000000AD008B1052813D0286A20F00100286210
:10101000286A20F0040002E0286A40F001002862FB
:10102000E06841F2883B98B1FFF7F8FB82460BE09D
:10103000286A40F004002862EEE700BFFFF7EEFBED
:10104000A0EB0A0159455AD8286A8007F6D50CE06A
:10105000FFF7E4FB824605E0FFF7E0FBA0EB0A01A7
:1010600059454CD8286A8007F6D41FB1E86920F0AA
:101070008050E861E06988B36968C1F381010229A1
:1010800044D00228C6F8608004D0FFF7C7FB0446AE
:1010900038E034E0FFF7C2FB074604E0FFF7BEFB91
:1010A000C01B02282BD828688001F7D4206AB0F52D
:1010B000803F05D16868A16820F40030084368606B
:1010C000D4E908010843696821F474110843686091
:1010D000C6F86090FFF7A2FB044606E025E000BFDB
:1010E000FFF79CFB001B022809D828688001F7D570
:1010F0001BE000BFFFF792FB001B022802D9032070
:10110000BDE8F88F28688001F4D40EE00128F7D0FC
:101110006868226A00F48031914204D1616A00F467
:101120007010884201D00120EAE70020E8E70000C3
:101130000010024000004242800442423C02002073
:101140000070004010B5401EB0F1807F01D3012037
:1011500010BD4FF0E02460610F21601701F00FFA1D
:101160000020A06107202061002010BD704770475B
:1011700070B590F83C20012A26D0012480F83C402C
:10118000022280F83D2003685A689D6822F07006AC
:101190000A6832435A600D4B02689A4208D0B2F195
:1011A000804F05D00A4B9A4202D00A4B9A4204D192
:1011B000496825F080031943916080F83D40002183
:1011C00080F83C10084670BD022070BD002C014024
:1011D000000400400008004010B5040003D094F85B
:1011E0003D0010B107E0012010BD002084F83C0054
:1011F000204600F01FF8022084F83D00211D2068E1
:1012000001F000F8012084F8460084F83E0084F8DC
:101210003F0084F8400084F8410084F8420084F8DC
:10122000430084F8440084F8450084F83D00002021
:1012300010BD000008B50068B0F1804F12D10A4817
:10124000C16941F00101C161C069002200F00100E3
:10125000009011461C20FFF7D7FCBDE808401C2079
:10126000FFF7C4BC08BD00000010024090F83D101C
:10127000012901D001207047022180F83D1001684A
:10128000CA6842F00102CA6000680B49884208D06F
:10129000B0F1804F05D00949884202D00849884200
:1012A00004D1816801F00701062903D0016841F0EB
:1012B0000101016000207047002C01400004004043
:1012C0000008004070B5044690F83C000025012855
:1012D00017D0012684F83C60022084F83D00206885
:1012E000826822F0770222F47F42826008685028E8
:1012F00038D00DDC20284FD005DC90B3102811D158
:101300004AE0022070BD302846D040280AD13BE098
:1013100060282FD070280DD0B0F5805F03D0B0F5D5
:10132000005F12D0012584F83D60002084F83C0065
:10133000284670BDCB68D1E90121206800F098FFF4
:101340002068816841F0770109E0CB68D1E901218B
:10135000206800F08DFF2068816841F48041816041
:10136000E1E719E0CA684968206800F093FF50215E
:10137000206806E0CA684968206800F09CFF602188
:10138000206800F07FFFCEE7CA684968206800F057
:1013900081FF40212068F4E7226801461046F0E70B
:1013A000704770B50446006801694FF00005C943F5
:1013B000890715D4C168C943890711D4E91E0161A1
:1013C00001202077206880698007204602D0FFF73F
:1013D000E7FF04E000F098F8204600F096F8257743
:1013E00020680169C943490717D4C168C94349073F
:1013F00013D46FF004010161022020772068806916
:1014000010F4407F204602D0FFF7CAFF04E000F04E
:101410007BF8204600F079F8257720680169C943F8
:10142000090716D4C168C943090712D46FF008012F
:101430000161042020772068C0698007204602D01F
:10144000FFF7AEFF04E000F05FF8204600F05DF823
:10145000257720680169C943C90617D4C168C94303
:10146000C90613D46FF010010161082020772068AD
:10147000C06910F4407F204602D0FFF791FF04E0DE
:1014800000F042F8204600F040F825772068016916
:10149000C943C90708D1C168C943C90704D1891E16
:1014A0000161204600F032F820680169C94309064D
:1014B00009D4C168C943090605D46FF080010161F0
:1014C0002046FFF753FE20680169C943490609D445
:1014D000C168C943490605D46FF040010161204647
:1014E00000F03EF820680169C94389060BD4C16841
:1014F000C943890607D46FF0200101612046BDE889
:101500007040FFF734BE70BD70477047124910B588
:10151000884220D111488188C388D9421BD0826A71
:1015200001EB8114521C00218262944202D10162BB
:101530008180816203EB8312836A9A4203D1012284
:101540000262C18081628288C3881A4483899A4278
:1015500001D08162828110BD9402002090010020A0
:1015600070477047704770B5040004D094F841008C
:10157000002510B106E0012070BD84F840502046DF
:1015800000F024F8242084F841002068C16821F488
:101590000051C160204600F04DFF2068016921F430
:1015A000904101612068416921F02A014161206870
:1015B000C16841F40051C1606564202084F8410095
:1015C00084F842006563002070BD00002DE9F043FF
:1015D00085B00024009401940294039406463E4F83
:1015E00003683E48022103223D4DBB4222D183695C
:1015F00043F480438361836903F4804304938369E4
:1016000043F0040383618069039200F004000490B6
:101610000802CDE9000169462846FFF705F82815BC
:10162000CDE90004694628460294FEF7FDFF05B0A7
:10163000BDE8F0832B4FBB42F9D1C36943F40033BB
:10164000C361C36903F400330493836943F0040363
:1016500083618069039200F0040004900420CDE9C6
:10166000000169462846FEF7DFFF0820CDE90004A7
:10167000694628460294FEF7D7FF1C4D1A4880277A
:10168000C5E90004C5E9024705F114034FF020083D
:101690004FF400592C6183E810032846FEF710FF31
:1016A00008B1FEF760FEF5636E62104D0E484435DA
:1016B000143001C5102091C50C4845F8104905F1BA
:1016C0001401443081E81003FEF7FAFE08B1FEF77A
:1016D0004AFEB5636E62AAE700380140001002407E
:1016E00000080140004400406C0002406C030020F0
:1016F00090F84230202B01D00220704721B11AB15E
:101700000023036300F0F2BE0120704703498842C2
:1017100002D10349012088617047000024030020A2
:1017200090010020704700002DE9F05F002704467B
:1017300000788A469846934639463E46B9463D4625
:10174000AA2872D00220225C401CC0B21144172883
:10175000F9D3C8B2E17D884266D1A078E17800046F
:1017600000EB01202179A27901446079000400EBAB
:101770000220E2791044B1FBF0F001F0CAFE3A4ACF
:101780003A4B01F015FFCAE90001207A617A0004A2
:1017900000EB0120A17A227B0844E17A090401EBE5
:1017A0000221627B1144B0FBF1F001F0B2FECBE903
:1017B00000012078F02839D9F12800D10125002234
:1017C0001146C8F8002000BFC8F80410207D00F0C2
:1017D0008001494500D0761C617D300400EB01207A
:1017E000A17D4618384601F094FE1F4A1F4B01F0B8
:1017F000DFFE02460B464FF045401D4901F004FD57
:1018000001F05AFE42F210714E43B6FBF0F001F0C7
:1018100080FE0022174B01F0F7FC0A9AC2E9000192
:1018200018212046FEF7F0FC1AE018E0A07BE17BCF
:10183000000400EB0120217C4718607CA17C00049F
:1018400000EB0120E17C0844B7FBF0F001F061FE01
:10185000054A064B01F0ACFEC8F80000B4E70225CB
:101860002846BDE8F09F00003F355EBA490C0840AD
:1018700085318A420088C340FEE701684A69D24345
:1018800052050FD46FF480624A61002140F8301F86
:10189000202242738173026942F0040202610173E3
:1018A00001207047002070472DE9F8430446006886
:1018B0000D46DDE9089701689846164641F48071A7
:1018C00001604B4600224FF001112046009700F0C6
:1018D0006BF848B120680068C00502D54FF400706D
:1018E00020640320BDE8F883216805F0FE0008614C
:1018F0003B464A461549204600F09EF888B92068C4
:101900004169806900903A464946204600F0F2F865
:1019100048B1206C042804D12068016841F40071AA
:1019200001600120DEE7F5B2B8F1010F09D02168AE
:10193000300A08613A464946204600F0DBF80028A4
:10194000E7D1206805610020CCE70000020001001B
:1019500070B516460D4604461EE02046FFF78DFF83
:1019600008B1012070BD681C16D0FEF757FF801B20
:10197000A84200D885B920684069C04340070BD50C
:10198000002044F8300F20216173A073216941F0D9
:10199000200121612073E4E720684069C0434007CB
:1019A000DBD4002070BD00002DE9F04798461746B3
:1019B0000D460446C1F30746DDF820902AE000BF3B
:1019C000B8F1FF3F26D0FEF729FFA0EB0901414502
:1019D00002D8B8F1000F1DD12068012E16D0806901
:1019E00025EA00000004000C12D00020B84211D1FA
:1019F000002044F8300F20216173A073216941F069
:101A00002001216120730120BDE8F0874069E7E7EC
:101A10000120EBE72068012E0AD0806925EA00004A
:101A20000004000C06D00020B842C9D00020EBE72B
:101A30004069F3E70120F7E72DE9F047984616469D
:101A40000D4604464FF000094FF0200AC1F3074746
:101A500023E020684069C043400515D42068016830
:101A600041F40071016021686FF480604861C4F83E
:101A7000309084F83DA084F83E90216C41F0040140
:101A8000216484F83C9021E0701C06D0FEF7C6FE6D
:101A9000A0EB0800B04203D816B1012F1FD021E0FF
:101AA0002068012F15D0806925EA00000004000C91
:101AB00018D000BF44F8309F84F80DA084F80E9031
:101AC000216941F02001216184F80C900120BDE8DA
:101AD000F087406925EA00000004000CEAD1206884
:101AE000406901E02068806925EA00000004000CDC
:101AF000AFD1ECE770B516460D4604461EE0204611
:101B0000FFF7BBFE08B1012070BD681C16D0FEF7C0
:101B100085FE801BA84200D885B920684069C04373
:101B200000060BD5002044F8300F20216173A0730C
:101B3000216941F0200121612073E4E720684069B8
:101B4000C0430006DBD4002070BD00000D4808B57E
:101B5000416941F0010141614069002200F001004A
:101B600000900C211020FFF74FF81020FFF73EF8EF
:101B7000002211461120FFF747F8BDE80840112068
:101B8000FFF734B8001002402DE9F04385B000247F
:101B900036480094019402940394816941F0100145
:101BA0008161816901F010010491816941F0200196
:101BB0008161816901F020010491816941F0040192
:101BC0008161816901F004010491816941F008019A
:101BD00081618069DFF8989000F008004FF4806719
:101BE0000490002239464846FEF713FE214E40205D
:101BF000CDE90006DFF88080694602944046FEF792
:101C000013FD802001258DE8310069464046FEF72E
:101C10000BFD40F603008DE8310069464846FEF7AB
:101C200003FD0220CDE90240CDE900756946484632
:101C3000FEF7FAFCE803CDE900066946029448463F
:101C4000FEF7F2FC002209211720FEF7DDFF172026
:101C5000FEF7CCFF002208212820FEF7D5FF282020
:101C6000FEF7C4FF05B0BDE8F0830000001002409D
:101C7000000C014000001110000801400D4810B593
:101C80000B4901600C49416000214FF480428160A2
:101C9000C0E9031241618161C1610162FEF7C4FDC7
:101CA000002803D0BDE81040FEF75DBB10BD00006A
:101CB00000540040400200205FE3160010B586B0DB
:101CC00000241748009401940294039404944FF064
:101CD0008041059401604FF6FF71C0E901144EF692
:101CE0005F21C0E903148461FFF776FA08B1FEF7BB
:101CF0003AFB4FF48050009069460948FFF7E2FA3A
:101D000008B1FEF730FB049404A905480594FFF7D9
:101D10002FFA002801D0FEF726FB06B010BD000008
:101D2000940200200C4810B50A4901604FF4E131DB
:101D30004160002181600C22C160C0E90412816110
:101D4000C161FFF710FC002803D0BDE81040FEF78A
:101D50000ABB10BD00380140DC0200200C4810B561
:101D60000A4901604FF496514160002181600C22C4
:101D7000C160C0E904128161C161FFF7F4FB002872
:101D800003D0BDE81040FEF7EEBA10BD004400409D
:101D900024030020FEE7FEE770B5002404F1B00044
:101DA000C0B200F0CDF9002000F0CAF9102000F018
:101DB000C7F90025002000F0D5F96D1CEDB2802D8B
:101DC000F8D3641CE4B2082CE8D370BD2DE9F05FB1
:101DD0009846DDE90A9A1746834600240D4615E029
:101DE0002946584600F026F85E460BE019F8040034
:101DF000BAF1000F01D0C043C0B2641C00F0B2F9C8
:101E0000761CF6B2BE42F1D36D1CEDB24545E7D368
:101E1000BDE8F09F70B5C820FEF7B8FB044D002464
:101E2000285D00F08DF9641CE4B2172CF8D370BD66
:101E30000000002010B50446B031C8B200F080F9AF
:101E4000102040EA141000F07BF904F00F00BDE808
:101E5000104000F075B900002DE9F0411E4615460E
:101E60000F4680460024FFF7E5FF114905EB4500CA
:101E700001EBC005285D0EB1C043C0B200F072F99D
:101E8000641CE4B20C2CF5D37F1CF9B24046FFF77A
:101E9000D1FF002405EB0400007B0EB1C043C0B2AB
:101EA00000F060F9641CE4B20C2CF3D3BDE8F081BF
:101EB000DE4500082DE9F047203A0024089E0F4631
:101EC0008146D5B27F2803D900208F1C8146FFB2FE
:101ED000102B394612D0FFF7ADFF1B4905EB45002B
:101EE00001EB4005285D0EB1C043C0B200F03AF9E5
:101EF000641CE4B2062CF5D3BDE8F087FFF79AFF27
:101F0000DFF8488004EB051118F801000EB1C0435A
:101F1000C0B200F027F9641CE4B2082CF2D37F1C95
:101F2000F9B24846FFF786FF0024474604EB051048
:101F30003844007A0EB1C043C0B200F013F9641CFB
:101F4000E4B2082CF2D3D7E7D63D0008FE3F0008E4
:101F50002DE9FF4F81B00026DDE90EA91D4693460D
:101F6000804634464FEA5A0727E0281B401EC1B27C
:101F70000A2000F04FFEBBFBF0F00A21B0FBF1F2AB
:101F800001FB120026B9691E8C4201DA48B1012614
:101F90003030C2B207FB0480C0B25346CDF8009087
:101FA00006E007FB0480C0B253462022CDF8009023
:101FB0000299FFF77FFF641CE4B2AC42D5D305B0B1
:101FC000BDE8F08F2DE9F8431E46174689460446C2
:101FD0000025DDF8208014E0334649462046CDF840
:101FE0000080FFF767FF0C2E10D00834E4B27A2C83
:101FF00001D90C2E0CD0782C01D9102E08D06D1CD4
:10200000EDB27A5D002AE7D1BDE8F883A41DEDE7C3
:1020100009F10100002400F0FF09F0E72DE9FF4F6E
:1020200083B08146DDF840B0129F1C4690464FF0C9
:10203000000A104612F1FF4F06D35C1C88F00040E6
:10204000E4B24FF0010A804601F032FD0190119890
:102050000025460828E0601B401EC1B20A2000F09F
:10206000D9FD0199B1FBF0F10A20B1FBF0F200FBC0
:102070001210029929B9611E8D4202DA48B101217C
:1020800002913030C2B206FB0590C0B20097119B9E
:1020900005E006FB0590119BC0B200972022049931
:1020A000FFF708FF6D1CEDB2A542D4D306FB0490E8
:1020B000C0B200972E22119B0499FFF7FBFE5946F0
:1020C0000A2000F0A7FD01F027FD0546019801F068
:1020D0000BFD414601F000FE294601F031FD01F003
:1020E000E7FC804600251CE0ABEB0500401EC1B2BA
:1020F0000A2000F08FFDB8FBF0F10A20B1FBF0F2EE
:1021000000FB12112A1909F1050006FB020030310B
:10211000CAB2C0B20097119B0499FFF7CBFE6D1CA9
:10212000EDB25D45E0D3BAF1000F06D000972D2245
:102130004846119B0499FFF7BDFE07B0BDE8F08F3C
:1021400001B584B001214FF4807204A88DE8070026
:102150000B46002278210248FEF72AFC05B000BD9C
:102160004002002001B584B001214FF4807204A820
:102170008DE807000B46402278210248FEF718FC44
:1021800005B000BD4002002070477047FEF7D6BC86
:1021900030B58FB028216846FEF758F814210AA8F8
:1021A000FEF754F80920012100904FF480300024FC
:1021B00004910691CDE901040225CDE907504FF4C1
:1021C000E01009906846FEF72DFE08B172B6FEE7F2
:1021D0000F20CDE90A054FF48060CDE90C400221C3
:1021E0000AA80E94FEF742FD002801D072B6FEE761
:1021F0000FB030BD704700000148FFF7D2B80000B3
:1022000094020020F0B50268164B174C174D4FF0A2
:102210008047984205D0B84203D0A04201D0A842DE
:1022200003D122F070064A683243984205D0B84282
:1022300003D0A04201D0A84203D122F44074CA685E
:1022400022434C6922F08002224302608A68C26203
:102250000A688262984201D10969016301214161E2
:10226000F0BD0000002C01400004004000080040C8
:1022700010B5846842EA032224F47F440A432243CF
:10228000826010BD826822F070020A4342F00701AA
:102290008160704710B5036A046A24F00104046287
:1022A000846924F0F00444EA021423F00A020A4389
:1022B0008461026210BD10B5036A046A24F0100440
:1022C0000462846923F0A00324F4704444EA0232D7
:1022D00043EA01118261016210BD70B5446A206851
:1022E000406994F84110C0F3C0100025212904D1A1
:1022F00018B1E584204600F08EF82068406994F813
:102300004210C0F38010222904D118B1E58520467F
:1023100000F05AF8606C40F0100060642046FFF74F
:1023200021F970BD10B50146406A096809684FF08F
:10233000000289062ED4C28501680C3151E8003FA5
:1023400023F4807341E80034002CF5D10168143186
:1023500051E8003F23F0010341E80034002CF5D19F
:102360000168143151E8003F23F0400341E8003494
:10237000002CF5D1202180F84210016B012909D1F0
:1023800001680C3151E8003F23F0100341E80034AC
:10239000002CF5D14263016B012902D0FFF7B6F999
:1023A00010BD818DFFF7DDF810BD10B5406A012129
:1023B0004163016B012902D0FFF7B4F910BD818D93
:1023C0004908FFF7CEF810BD01680C3151E8002F25
:1023D00022F4907241E80023002BF5D101681431FA
:1023E00051E8002F22F0010241E80023002BF5D133
:1023F000016B012909D101680C3151E8002F22F04D
:10240000100241E80023002BF5D1202180F8421072
:1024100000210163704701680C3151E8002F22F060
:10242000C00241E80023002BF5D1202180F84110A3
:102430007047000070B5044600680169E26821F445
:102440004051114301612169A06808436169084353
:102450002168CA6841F20C639A430243CA6020684B
:102460004169A26921F44071114341611E4920680C
:10247000884202D1FEF7A0FC01E0FEF78DFC00EBE4
:10248000C00101EB0012606864218000B2FBF0F330
:10249000B3FBF1F36FF018067343B2FBF0F5B2FB38
:1024A000F0F605EB8305322303EB0515B5FBF1F5DB
:1024B000B6FBF1F605F0F00505EB0615B2FBF0F6FC
:1024C000B2FBF0F0B0FBF1F06FF01802504306EBF6
:1024D000800003EB0010B0FBF1F0216800F00F006A
:1024E0002844886070BD00000038014038B5816222
:1024F00004468285002013466064222284F842202C
:10250000E56B1B4AAA62E56B1A4AEA62E56B1A4A56
:102510002A63E26B50630A462168E06B091DFDF7F0
:10252000FDFF2068016840680090206948B120687C
:102530000C3050E8001F41F4807140E80012002A7E
:10254000F5D12068143050E8001F41F0010140E847
:102550000012002AF5D12068143050E8001F41F025
:10256000400140E80012002AF5D1002038BD0000EB
:1025700025230008AB230008DB220008FEE709073B
:10258000090E002804DB00F1E02080F800147047F9
:1025900000F00F0000F1E02080F8141D70470000EB
:1025A000084A09484FF48061D369012B08D0136AA7
:1025B000012B05D0526A012A02D00022FEF729B968
:1025C0000122FBE790010020000C014092B0FEF7D1
:1025D000BDFAFFF7DDFDFFF7D7FAFFF7B7FAFFF710
:1025E0004DFBFFF76BFBFFF79DFBFFF7B7FBFFF71B
:1025F00011FCFFF7D1FB0020CDE90200CDE904007A
:10260000CDE90600CDE908000B900A9018220CA92C
:10261000FE48FFF76DF801264FF0000BB046FC486E
:10262000CDF804B0FEF722FEDFF8E8934FF0000A81
:102630004C46D9F81800012816D1DDE9020100F056
:102640003BFF80B20B90DDE9040100F035FF80B262
:102650000A9008A8009004AB06AA02A90CA8FFF7EC
:1026600063F82080C4F818A0E08900F052FFDDE98B
:10267000022300F061FF07D8C4F824A0208840F0AE
:1026800008002080FFF78CFF208A00F042FFDDE980
:10269000062300F051FF07D8C4F824A0208840F09A
:1026A00010002080FFF77CFF608A00F032FFDDE938
:1026B000042300F041FF07D8C4F824A0208840F08C
:1026C00020002080FFF76CFFA08A00F022FFDDE9E8
:1026D000082300F031FF07D8C4F824A0208840F078
:1026E00040002080FFF75CFF0B9800F012FF0546CA
:1026F0000F46DDE902010022C74B01F08DF83B4691
:102700002A4601F053F807D2C4F824A0208840F0EC
:1027100080002080FFF744FF618A0A98A146884222
:1027200009D9C9F81CA0B9F8001041F48071A9F8C2
:102730000010FFF735FFB94D4FF400612846FEF752
:1027400063F8044601212846FEF75EF80746022199
:102750002846FEF759F805468021B148FEF754F89F
:102760000090B9F8080010B1012877D006E244B112
:102770001FB1009808B1002DF8D10F2000F044FAE5
:1027800015E00F2000F040FAB9F80210A34C01EB5D
:102790008102A049503101EB82010989A9F8021098
:1027A0004FF400612046FEF72FF80028F8D08FB9CB
:1027B000B9F80210994C01EB81029649503101EBB6
:1027C00082018989A9F8021001212046FEF71CF830
:1027D0000028F9D0C5B12AE002212046FEF714F8FE
:1027E0000028F9D0B9F802008A4900EB8002503184
:1027F00001EB820251681FFA81F8491C51600228DE
:1028000004D003280AD012E0844CE5E7B8F1020FA7
:102810000DD9804901205031C86206E0B8F1030F9C
:1028200005D97C490120503108644FF00108009817
:1028300000289BD1B9F80210794C01EB810275494F
:10284000503101EB8201098AA9F808108021204645
:10285000FDF7DAFF0028F9D090E1FFE7009838B9DA
:10286000A9F808A080216E48FDF7CEFF0028F9D016
:10287000B9F80210484611B101290FD0A0E0416A11
:1028800011B1012905D079E101214162A9F808A01F
:1028900074E1C0F824A0A9F808A06FE15D485030A9
:1028A0008069012840D154B9B9F80400401EA9F844
:1028B000040080215A48FDF7A7FF0400F9D057B95A
:1028C000B9F80400401CA9F8040001215348FDF7A1
:1028D0009BFF0700F9D055B9B9F804000A30A9F8F0
:1028E000040002214D48FDF78FFF0500F9D054EA9E
:1028F000050014D1B9F804100A39A9F8041000BF72
:10290000464D4FF400612846FDF77EFF0446022144
:102910002846FDF779FF054654EA0500F0D0B9F8DE
:10292000061009B1A9F806A0B9F8020000EB800171
:102930003848503000EB81004068022840D154B93B
:10294000B9F80610491EA9F8061080213448FDF791
:102950005BFF0400F9D057B9B9F80600401CA9F88C
:10296000060001212D48FDF74FFF0700F9D055B9AA
:10297000B9F806000A30A9F8060002212748FDF739
:1029800043FF0500F9D054EA050014D1B9F8061048
:102990000A39A9F8061000BF204D4FF400612846FF
:1029A000FDF732FF044602212846FDF72DFF0546BC
:1029B00054EA0500F0D0B9F8041009B1A9F804A050
:1029C000B9F8021002297DD112485030C06A01289E
:1029D00047D154B9B9F80E10491EA9F80E1080213C
:1029E0000F48FDF711FF0400F9D057B9B9F80E00F0
:1029F000401CA9F80E0001210848FDF705FF07005B
:102A0000F9D0BDB9B9F80E100A310BE0240300204B
:102A1000940200209001002000003640000C01408C
:102A200000080140A9F80E1002217448FDF7ECFEE1
:102A30000500F9D054EA050013D1B9F80E100A398F
:102A4000A9F80E106D4D4FF400612846FDF7DCFE2D
:102A5000044602212846FDF7D7FE054654EA050044
:102A6000F0D0B9F8020000EB8001654800EB81006E
:102A7000406802283DD154B9B9F81010491EA9F890
:102A8000101080215F48FDF7BFFE0400F9D057B950
:102A9000B9F81010491CA9F8101001215748FDF78A
:102AA000B3FE0700F9D055B9B9F810100A31A9F8EA
:102AB000101002215148FDF7A7FE0500F9D054EA95
:102AC000050000E05AE014D1B9F810100A39A9F84D
:102AD000101000BF494D4FF400612846FDF794FEE9
:102AE000044602212846FDF78FFE054654EA0500FC
:102AF000F0D0B9F8020000EB8001414800EB810002
:102B0000406803283AD154B9B9F81210491EA9F8FF
:102B1000121080213B48FDF777FE0400F9D05FB921
:102B2000B9F81210354F491CA9F812100121384686
:102B3000FDF76AFE0028F9D05DB9B9F812102F4FE1
:102B40000A31A9F8121002213846FDF75DFE050092
:102B5000F9D02C4312D1B9F81210284D0A39A9F82E
:102B600012104FF4006739462846FDF74DFE044623
:102B700002212846FDF748FE0443F4D0B9F80200CC
:102B80004C46864211D1C3450FD1E189228A1144B6
:102B9000628A1144A2881144E2880A4401998A4257
:102BA00003D161892289914217D0616A00F03AF815
:102BB00022894146608800F0F5F86088864201D09D
:102BC0004FF001082289414600F04EF960888642A4
:102BD00001D04FF0010800F0DBF9E089218A668816
:102BE0000144608AC3460844A1880844E188084437
:102BF00080B20190208960811AE50000000C01403C
:102C0000E00100200008014040F637414843401EE3
:102C1000FDD270470246012000E05043491EC9B270
:102C2000FBD270472DE9FE430C4600287DD1FFF70B
:102C3000B3F800231A4619461846FFF70DF900238A
:102C4000012219460C20FFF707F900231B22194621
:102C50001820FFF701F9524DD5E90C0100F0EEF90B
:102C600000264FF002080C27CDF80080CDE9017650
:102C70000246032331462020FFF7D0F900231A46ED
:102C800002211846FFF7E8F80222002311460C2023
:102C9000FFF7E2F800231B2202211820FFF7DCF8DF
:102CA000D5E90E0100F0CAF9CDF80080CDE9017632
:102CB0000246032302212020FFF7B0F9002303225C
:102CC00004211846FFF7C8F80422002311460C20FF
:102CD000FFF7C2F800231B2204211820FFF7BCF8DD
:102CE000D5E9100100F0AAF9CDF80080CDE9017610
:102CF0000246032304212020FFF790F90023092234
:102D000006211846FFF7A8F800230A2206210C2006
:102D1000FFF7A2F80023052206211820FFF79CF8F0
:102D2000002306211A46242000E036E0FFF794F83D
:102D300000231B2206213020FFF78EF8D5E912016F
:102D400000F07CF9CDF80080CDE90176024603233E
:102D500006213C20FFF762F9E3B20B220121662035
:102D6000FFF77AF8E3B2172201217220FFF774F817
:102D70007CB10023152203216620FFF76DF854B1C2
:102D8000002303B01622BDE8F04303217220FFF7B1
:102D900063B80123EEE70123F3E7BDE8FE830000FB
:102DA000900100207CB500250E462C46012A07D153
:102DB000012E02D0022E03D101E0012500E0012402
:102DC00001284DD1FEF7E8FF2B46132200210D20EC
:102DD000FFF742F82B46142200211920FFF73CF898
:102DE0002B46152200212520FFF736F82B46162208
:102DF00000213120FFF730F82346132202210D2055
:102E0000FFF72AF82346142202211920FFF724F89D
:102E10002346172202212520FFF71EF823461822F9
:102E200002213120FFF718F8FE2000EB4600C1B266
:102E3000002328221846FFF70FF800240C25094E1E
:102E4000CDE900540223B28821466E20FFF780F8B6
:102E5000CDE900540223F28819466E20FFF778F876
:102E60007CBD0000900100202DE9FC4100260F46AA
:102E700035463446012A0BD1012F04D0022F04D04D
:102E8000032F05D103E0012602E0012500E0012423
:102E9000022879D1FEF780FF3346262200210D203B
:102EA000FEF7DAFF3346272200211920FEF7D4FF70
:102EB0000022334611462520FEF7CEFF334601227D
:102EC00000213120FEF7C8FF2B46262202210D20CB
:102ED000FEF7C2FF2B46272202211920FEF7BCFF76
:102EE0002B46002202212520FEF7B6FF02222B46A8
:102EF00011463120FEF7B0FF2346262204210D2083
:102F0000FEF7AAFF2346272204211920FEF7A4FF7B
:102F10002346202204212520FEF79EFF234621225E
:102F200004213120FEF798FF2346032204213D208F
:102F3000FEF792FF0422234611464920FEF78CFF3C
:102F4000FE2000EB4700C1B2002328221846FEF7FE
:102F500083FF00240C250D4ECDE900540323F28994
:102F600021465620FEF7F4FFCDE900540523328AAE
:102F700002215620FEF7ECFFCDE900540523B28A6A
:102F800004215620FEF7E4FFBDE8FC8190010020FB
:102F90001CB5032849D1FEF7FFFE00242348CDE9E4
:102FA000000407232D2221462046FEF70FFF0023B1
:102FB0000B2219463020FEF74FFF00230C22194642
:102FC0003C20FEF749FF00230D2219464820FEF75A
:102FD00043FF00231B2219465420FEF73DFF0C231C
:102FE00013A2002160200094FEF7ECFF00230E22C4
:102FF00003213020FEF730FF00230F2203213C2065
:10300000FEF72AFF0023102203214820FEF724FFA9
:1030100000231B2203215420FEF71EFF0C2306A2CF
:10302000032160200094FEF7CDFF1CBD1700002097
:103030005765737000000000312E300021F000420F
:10304000A2F16052B2F5801F01F0004328BFD2F117
:103050007F6C0BD95FEA001C43EAC20242EB50705E
:1030600018BF704728BF20F001007047B2F5801FDD
:10307000BCBF184670474FEA410C1CF5001F02D236
:10308000084600F024BE70B500F03CFB000000894B
:10309000FFF7F6BF4FF00040A0F58000704700003A
:1030A00010B591EA030F48BF83F0004300F1BC83E1
:1030B000841A71EB030C05D2121943EB0C03001BAD
:1030C00061EB0C01DFF824E14FEA1154A4EB135C2F
:1030D0001EEA430F18BF9EEA445F73D023EA0E0333
:1030E000DCF1200E21EA045143F4801332D322FA9A
:1030F0000CFE10EB0E0023FA0CFE41EB0E01CCF19E
:10310000200E03FA0EFE10EB0E0051F10001B1F596
:10311000801FCCF1200E32D201EB045112FA0EF2D4
:10312000BDE8104058BF7047401C38BF5FEA4202FC
:1031300018BF7047002814BF20F0010041F10001C2
:103140004FEA410313F5001F38BF7047A1F1C0419A
:1031500000F026BB012A43EB0302ACF1200CDCF1AA
:103160001F0E32BF4FF0000E23FA0CF310EB0300DA
:1031700041EB0451B4EB115FD0D0A1EB045101F548
:10318000801149085FEA300001EB04510ED350F181
:10319000000038BF12FA0EFE08D1BDE81040C9E7A2
:1031A000401C38BF5FEA4202CAD1C3E7BDE8104005
:1031B0004FEA410313F5001F38BF7047A1F1C0412A
:1031C00000F0EEBA9EEA445F08D011EA5E0FBDE857
:1031D000104004BF01F0004100207047BDE81040DE
:1031E00070B500F08FFA00BF64FBBE3E0000E0FF48
:1031F000491058BFC1F140415B1058BFC3F1404373
:103200008B42EFF3008070472DE9C04130B4DFF806
:10321000A0C23CEA111418BF3CEA131400F0EC8081
:1032200081EA03051CEA111444EAD57418BF1CEAAC
:10323000131500F0C780A4EB05044FF0004545EAE4
:10324000C12145EAC32341EA505143EA525304F1F4
:103250007F74994204F500344FEAC0204FEAC2223D
:1032600008BF904200F09C804FEA13650FF24016B1
:10327000765D4FEA134506FB05F7C7F1807706FB3D
:1032800007F74FEAD737A7FB03687642C8F58038BF
:10329000A7FB06CE38BFA8F1010807FB08E64FF0F0
:1032A000000EA6FB028CE6FB03CEDCF1000CCEF197
:1032B000004E38BFAEF1010EA6FB0C584FF00007D0
:1032C0004FF00005E6FB0E87A1FB08C6A0FB07CE6A
:1032D00016EB0E0645F10005E1FB076515F1E04E22
:1032E0007EBFA4F580345FEA46066D4116F1800783
:1032F00045F100054FEA17274FEA066647EA0567DA
:10330000A6F1DE46B6F1805F4FEA15251FD9384693
:1033100024F0010C05EBC471BCF1FE6F01EB0C1144
:1033200002D8F0BCBDE8008124425CBF01F5801EDC
:103330009EEAC47F02D4F0BCBDE80081244238D4A8
:10334000F0BCA1F1C041BDE8004100F029BA4FEA4C
:10335000D22242EA43524FEAD323A7FB02864FEA26
:10336000D02040EA415007FB03661EEA0E0F4FEAE9
:10337000D12105FB026658BFA6EB0056B6EB0056FE
:103380004FEA520E4EEAC37E18EB0E0E56EB530E6A
:10339000BDD518EB02085E417F1C55F10005B6E76C
:1033A0004FF480154FF000074FF000064FF0000873
:1033B000ADE7F0BC4FF0000001F1C04101F0004169
:1033C000BDE8008111EA0C1F0CEA131500D00CE0D7
:1033D00013EA0C1F00F025804FF00000F0BC81EADA
:1033E000030101F00041BDE80081F0BCBDE80041EF
:1033F00081EA030100F0D4B9F0BCBDE8004170B52A
:1034000000F080F9097EFC3E00F007B881EA030174
:103410004FF0000001F00041704781EA030100F025
:10342000BFB9F0BCBDE800414FF000002149704732
:10343000FFFDFBF9F7F5F4F2F0EEEDEBE9E8E6E479
:10344000E3E1E0DEDDDBDAD8D7D5D4D3D1D0CFCD00
:10345000CCCBCAC8C7C6C5C4C2C1C0BFBEBDBCBB39
:10346000BAB9B8B7B6B5B4B3B2B1B0AFAEADACAB34
:10347000AAA9A8A8A7A6A5A4A3A3A2A1A09F9F9E0E
:103480009D9C9C9B9A9999989797969595949393C0
:10349000929191908F8F8E8E8D8C8C8B8B8A898957
:1034A00088888787868585848483838282818180DA
:1034B0000000FF070000F87F4FEA1153A3F5806377
:1034C000D3F11E03A8BFD3F1200C08DB4FF000425C
:1034D00042EAC12252EA505232FA03F070470942DE
:1034E0000BD4102BC4BF0020704703F5787CBCF1CF
:1034F000FF3F05D04FF0FF3070474FF0000070479E
:1035000070B500F0FFF800BF49922480002070479A
:10351000F0E7B0FA80F310FA03F10AD0C3F11D030B
:1035200003F580634FEA41504FEA035202EBD12189
:1035300070474FF00000704751EA030C17D41CF598
:10354000801F58BFBCF5801F00F10680994218BF4C
:10355000704708BF9042704707D711F5801F58BFCA
:1035600013F5801F19D499427047894270471CF5A2
:10357000801F08D5BCF5801FF7D58B4218BF704758
:1035800008BF824270474FF4001C1CEB410F38BF4C
:103590001CEB430F01D28B42704770B500F0B2F8BC
:1035A000922449004FF000514FF08053FFF720BEA6
:1035B000DFF848C170B51CEA111E1EBF1CEA1315C6
:1035C0009EEA0C0F95EA0C0F00F06F8081EA03046D
:1035D00023EA4C134EEAD47E21EA4C1141F48011C7
:1035E00043F48013AE44A1FB024CA0FB0365AEF193
:1035F0007F7E361955EB0C05A1FB034C4CF1000303
:10360000A0FB021C16EB0C06654153F100030942B6
:1036100018BF46F0010613F4007F0BD14FEA0331C7
:103620004FEA0530340341EA155140EA16506FF075
:1036300003020AE04FEAC3214FEAC520F40241EA3F
:10364000555140EA56506FF0020202EB2E4201EB58
:10365000025585EACE710AD05FEA440C18BF24F007
:10366000004450F1000041F1000120EAD47040F222
:10367000FE7C624500D270BDA84214BF4FF080446A
:103680004FF04044002E08BF0024BEF1806FA8BF59
:10369000A1F1C041BDE8704080F282804FF000008F
:1036A00001F1C04101F0004170479EEA0C0F0CEAA5
:1036B000131518BF95EA0C0F06D04FF0000081EAF1
:1036C000030E0EF0004170BD00F01CF88900013EB1
:1036D00000F007B800F009B84FEA430C5FEA5C5C01
:1036E00008D081EA030100F05BB84FEA410C5FEAC1
:1036F0005C5CF6D14FF00000014970470000FF0705
:103700000000F87F0EF1020E2EF0030E5EF8046B3F
:10371000364205D4012A43EB030515F5001F12D8E4
:10372000012841EB010C1CF5001F0CD80ED14FEA0B
:10373000D17C15F5001F0CEB4C0C0CF1020C08BFF2
:103740004CEBD37C04E04FF0080C01E04FEAD37C53
:103750000CEB4C0526FA05F606F00706B6F1040C4C
:1037600006D20EEB860CBDE870404CF0010C6047B1
:10377000DFE80CF0090B02024FF000414FF00000AF
:10378000A1F5002170BD19461046012851EB010436
:1037900018BFD4F5001484BF002001F0004170BDB3
:1037A0000808A0F500114FEA3101704753EA010CF7
:1037B00017D41CF5801F58BFBCF5801F00F1068090
:1037C0008B4218BF704708BF8242704707D713F576
:1037D000801F58BF11F5801F19D48B4270479B4240
:1037E00070471CF5801F08D5BCF5801FF7D599429E
:1037F00018BF704708BF904270474FF4001C1CEB85
:10380000430F38BF1CEB410F01D2994270470FB4F0
:103810000CBC03BCFFF7C1BE10B591EA030F48BF53
:1038200083F000433FF544AC841A71EB030C07D2DC
:1038300012198CF0004C43EB0C03001B61EB0C01E4
:10384000DFF8A4E14FEA1154A4EB135C1EEA430F26
:1038500018BF9EEA445F00F0B08023EA6E03524234
:1038600021EA0451C3EB6E0338BF5B1EDCF1200E6E
:1038700025D322FA0CFE10EB0E0043FA0CFE41EBAE
:103880000E01CCF1200E03FA0EFE10EB0E0051F1EA
:103890000001CCF1200E29D412FA0EF201EB0451F2
:1038A000BDE8104058BF7047401C1CBFB2F1004F2C
:1038B000704700280CBF491C20F00100704712EB34
:1038C000020E43EB030218BF4FF0010E4EEA420214
:1038D000ACF1200CDCF11E0E54D943FA0CFE10EBB7
:1038E0000E0051F1FF31CCF11E0ED5D50EF1010EB7
:1038F00012FA0EFE404141EB010101EB445C5FEA2C
:103900005C5C10D910EBDE7001EB045138BFBEF1E6
:10391000004FBDE8104018BF704700280CBF491C7D
:1039200020F00100704730D24FEAD42C11F500117D
:1039300024F400641BD0B1FA81F20B3AA41AA41E3D
:10394000D2F12003914030FA03F31943904001EB88
:10395000CC71002C01EB0451BDE81040A8BF7047AA
:1039600001F1C0414FF0000001F000417047B0FA92
:1039700080F310FA03F100D110BDE41A173C48059A
:10398000C90AE4E701EB045110BD491001EB0451F1
:10399000BDE810404FEA300002E04FF000017047F0
:1039A0004A0008BF0042F8D0B2F5001F28BF704798
:1039B00001F000414FF0000070479EEA445F07D0DD
:1039C00011EA5E0FBDE8104004BF002100207047DF
:1039D000BDE8104070B5FFF795FE00BF40DFF63E32
:1039E00083F00041104670470000E0FF90EA010FAD
:1039F00048BF81F0004100F18081421A3CBF801A2B
:103A000089184FEAD0524FF07F4C1CEA410FA2EBCD
:103A1000D15318BF9CEA026F00F03B804FF0004C7E
:103A20004CEA00204CEA012121FA03FC10EB0C0CBB
:103A30001ED202F1FF325FEA1C2040EBC25038BFB9
:103A400070471CF07F0F4FEA400C18BFBCF17F4F4E
:103A500038BF7047C3F12003994008BF20F0010030
:103A6000BCF17F4F38BF7047A0F1C04000F02FB9C4
:103A70004FEA3C00000A40EBC25028BF1CF0FF0F89
:103A80004FEA400CE6D018BFBCF17F4F38BF7047FB
:103A9000EAE79CEA026F05D010EA5C0F08BF00F06D
:103AA0000040704710B500F0CCF800BF64FBBE3E8C
:103AB00041000B0ED3F19E0208D950F400034FEAE7
:103AC000032323FA02F048BF4042704710B500F0CC
:103AD000B8F800BF49922480002070476FF0004280
:103AE00082EA20007047000010F0004148BF4042C9
:103AF000B0FA80F310FA03F2C3F19D030BD051EA40
:103B0000C35101EB1220530638BF704700F101008A
:103B100008BF20F001007047B0FA80F310FA03F2FA
:103B2000C3F19D030AD0D90501EB1220530638BF1B
:103B3000704700F1010008BF20F00100704700004D
:103B40004FF47F0C1CEAD0121EBF1CEAD11392EA7C
:103B50000C0F93EA0C0F00F0478090EA010F48BF6A
:103B600042F480724FF0004C4CEA00204CEA0121F4
:103B700002EB0302A0FB0113A2F50002002918BF0B
:103B800043F001035B0028BF4FEA330342EB2242BC
:103B90005FEA132C4CEBC2502EBFBCEB436FB2F567
:103BA0007C0F70474FEA036CBCF1004F08BF20F058
:103BB0000100B2F57C0F38BF70470BD582F0FF02D1
:103BC00012F5803FC8BF704700F1C040D8BF00F079
:103BD0000040704700F5000C5FEA4C0C48BF70478E
:103BE000B0F1C04000F073B890EA010F0CEAD113B5
:103BF00048BF42F48072624538BF634504D280EA10
:103C0000010000F00040704710B500F01AF800BF46
:103C10008900013E00F007B800F009B85FEA410CE6
:103C20005FEA1C6C08D080EA010000F050B85FEA3F
:103C3000400C5FEA1C6CF6D14FF00040A0F580000C
:103C400070470EF1020E2EF0030E5EF8044B244274
:103C500004D44FEA4102B2F17F4F11D84FEA40033A
:103C6000B3F17F4F0CD80ED14FEAD07CB2F17F4F29
:103C70000CEB4C0C0CF1020C08BF4CEBD17C04E0BB
:103C80004FF0080C01E04FEAD17C0CEB4C0324FA16
:103C900003F404F00704B4F1040C06D20EEB840C18
:103CA000BDE810404CF0010C6047DFE80CF007085D
:103CB00002024FF00040A0F5800010BD084642000F
:103CC00018BFD2F1807288BF00F0004010BDFF2104
:103CD00041EAD050C005704780F0004090EA010FE3
:103CE0007FF58BAE81F0004100F007B890EA010F3C
:103CF00048BF81F000413FF580AE421A04D882F0FF
:103D00000042A0EB020011444FEAD0524FF07F4C2A
:103D10001CEA410FA2EBD15318BF9CEA026F4AD0B4
:103D20004FF0004C4CEA00204CEA012121FA03FC40
:103D3000B0EB0C0C0FD412F0FE0F36D05FEA4C0043
:103D40001DD5001240EBC25038BF70471CF03F0F2A
:103D500018BF70470BE0A2F101025FEA1C2040EBA4
:103D6000C25038BF70471CF07F0F18BF7047C3F1B7
:103D70002003994014BF401E20F0010070478008C6
:103D80004FEA122308BF7047B0FA80FCA2EB0C0286
:103D9000CCF1280C60FA0CF093EA122F04BF00EB70
:103DA000C25070474FEAC3707047130A5FEADC10D5
:103DB00008BF7047F6E79CEA026F04D010EA5C0F78
:103DC00008BF0020704710B5FFF73BFF40DFF63E0D
:103DD00081F0004070470000000000000000002F4C
:103DE000000000000700070000147F147F14002467
:103DF0002A7F2A1200626408132300364955225094
:103E000000000503000000001C22410000004122C8
:103E10001C000014083E08140008083E08080000B2
:103E200000A06000000808080808000060600000AA
:103E3000002010080402003E5149453E0000427F28
:103E40004000004261514946002141454B31001874
:103E500014127F10002745454539003C4A49493036
:103E600000017109050300364949493600064949F0
:103E7000291E00003B3B00000000563600000008F1
:103E800014224100001414141414000041221408D8
:103E900000020151090600324959513E007C1211BD
:103EA000127C007F49494936003E41414122007F52
:103EB0004141221C007F49494941007F090909010C
:103EC000003E4149497A007F0808087F0000417F91
:103ED0004100002040413F01007F08142241007F43
:103EE00040404040007F020C027F007F0408107FAA
:103EF000003E4141413E007F09090906003E415113
:103F0000215E007F091929460046494949310001CF
:103F1000017F0101003F4040403F001F2040201F23
:103F2000003F4038403F00631408146300070870E6
:103F3000080700615149454300007F414100005599
:103F40002A552A55000041417F0000040201020465
:103F50000040404040400000010204000020545452
:103F60005478007F484444380038444444200038A2
:103F70004444487F00385454541800087E09010214
:103F80000018A4A4A47C007F080404780000447DE9
:103F90004000004080847D00007F10284400000025
:103FA000417F4000007C04180478007C08040478F9
:103FB00000384444443800FC2424241800182424E5
:103FC00018FC007C080404080048545454200004E1
:103FD0003F444020003C4040207C001C2040201CEE
:103FE000003C4030403C004428102844001CA0A065
:103FF000A07C004464544C441414141414140000A1
:1040000000000000000000000000000000000000B0
:1040100000F8000000000000003330000000001035
:104020000C06100C0600000000000000000040C05C
:104030007840C0784000043F04043F04040000704E
:1040400088FC08300000001820FF211E0000F00846
:10405000F000E018000000211C031E211E0000F0EB
:104060000888700000001E21232419272110101633
:104070000E00000000000000000000000000000032
:1040800000E01804020000000007182040000002B1
:104090000418E00000000040201807000000404025
:1040A00080F0804040000202010F01020200000087
:1040B00000F0000000000101011F010101000000EB
:1040C00000000000000080B0700000000000000050
:1040D00000000000000000010101010101010000D9
:1040E0000000000000000030300000000000000070
:1040F000000080601804006018060100000000E065
:1041000010080810E000000F102020100F00001011
:1041100010F8000000000020203F20200000007068
:104120000808088870000030282422213000003060
:104130000888884830000018202020110E00000058
:10414000C02010F8000000070424243F240000F8D9
:104150000888880808000019212020110E0000E0BE
:10416000108888180000000F112020110E00F80898
:1041700000F80008F800033C0700073C030000704B
:10418000880808887000001C222121221C0000E001
:1041900010080810E0000000312222110F0000007A
:1041A00000C0C0000000000000303000000000002F
:1041B000008000000000000080600000000000009F
:1041C0008040201008000001020408102000404038
:1041D000404040404000040404040404040000087B
:1041E0001020408000000020100804020100007030
:1041F00048080808F0000000003036010000C03018
:10420000C828E810E0000718272423140B0000003A
:10421000C038E0000000203C23020227382008F8C4
:10422000888888700000203F202020110E00C030B8
:10423000080808083800071820202010080008F88F
:1042400008080810E000203F202020100F0008F888
:104250008888E8081000203F20202320180008F854
:104260008888E8081000203F200003000000C030CC
:1042700008080838000007182020221E020008F84D
:1042800008000008F808203F210101213F20000814
:1042900008F8080800000020203F2020000000004F
:1042A0000808F8080800C08080807F00000008F837
:1042B00088C028180800203F20012638200008F870
:1042C000080000000000203F20202020300008F8D7
:1042D000F800F8F80800203F003F003F200008F8F1
:1042E00030C00008F808203F200007183F00E01009
:1042F00008080810E0000F10202020100F0008F818
:1043000008080808F000203F210101010000E0102A
:1043100008080810E0000F18242438504F0008F84F
:10432000888888887000203F2000030C30200070AF
:104330008808080838000038202121221C001808AD
:1043400008F8080818000000203F2000000008F8C6
:1043500008000008F808001F202020201F0008780F
:10436000880000C83808000007380E010000003837
:104370000808C83808000000003F000000000818C6
:1043800068808068180820302C03032C30200838FF
:10439000C800C83808000000203F200000001008B6
:1043A0000808C838080020382621202018000000FE
:1043B00000FE020202000000007F40404000000CAE
:1043C00030C000000000000000010638C0000002FC
:1043D0000202FE000000004040407F00000000009C
:1043E00004020202040000000000000000000000BF
:1043F00000000000000080808080808080800002BB
:1044000002040000000000000000000000000000A6
:104410008080808000000019242222223F2008F89A
:10442000008080000000003F112020110E000000DD
:10443000008080800000000E11202020110000006C
:1044400000808088F800000E112020103F2000001E
:10445000808080800000001F222222221300008022
:1044600080F0888888180020203F2020000000006D
:10447000808080808000006B94949493600008F8A2
:10448000008080800000203F210000203F2000802D
:104490009898000000000020203F2020000000002D
:1044A00000809898000000C08080807F000008F89D
:1044B000000080808000203F24022D302000000872
:1044C00008F8000000000020203F2020000080802D
:1044D000808080808000203F20003F20003F80803F
:1044E000008080800000203F210000203F2000004D
:1044F000808080800000001F202020201F008080FE
:1045000000808000000080FFA12020110E0000002C
:10451000008080808000000E112020A0FF8080801D
:1045200080008080800020203F21200001000000CA
:10453000808080808000003324242424190000809F
:1045400080E0808000000000001F202000008080AC
:10455000000000808000001F202020103F2080806D
:1045600080000080808000010E30080601008080FD
:104570000080008080800F300C030C300F00008022
:104580008000808080000020312E0E31200080804D
:1045900080000080808080818E701806010000807D
:1045A0008080808080000021302C2221300000009B
:1045B0000000807C020200000000003F404000023A
:1045C000027C800000000040403F0000000000002E
:1045D0000000FF00000000000000FF000000FC24BD
:1045E0002424FF242424FC00000003010101070906
:1045F000090909080E0000FE02424242FA42424204
:1046000002000807080808080F08090A08002244E1
:104610000024B42CA526A43464000402080403007A
:104620000F0007080E000404FC040408FF08080833
:10463000F800020201090503000008080700028AC9
:10464000529AD6B3D28A528A020002020202020FA2
:1046500002020202020000FE929292FE929292FEEA
:1046600000000807000000070008080F0000FC24F5
:104670002424FF242424FC00000003010101070975
:10468000090909080E0000FE0A8ABEAAABAABE8A62
:104690000A0008070008090A04040A090800482A51
:1046A000987F284A10EF08F80800090B05050B0051
:1046B000080502050800001F5575D55F5535951F83
:1046C000000000090501090F010105090000101192
:1046D000F200202020FF202020000000070201001F
:1046E000000F00000000404242FE424242FE4242B1
:1046F0004000000806010000000F000000000E0846
:104700008878CF484849CA08080004020908040507
:104710000205040808009094D454745F545C54D289
:10472000100000000F0505050505050F000000FE3F
:10473000909F10FE12F2129171000807000F0403FF
:104740000805020508000404846414FF146484044A
:10475000040002010202020F0202020102002020F4
:10476000AF69292929292F2020000000010101011A
:104770000109090700000088888889FA88888888E4
:10478000000008080808080F08080808080001F9D0
:1047900009090DCB090909F90100080904040201FE
:1047A0000202040508002C24A42425E62424242441
:1047B0002C0008040304080F090909090800FE2257
:1047C00022FE0008488808FF0800070202070000D0
:1047D0000009080F00004048494A48F8484A49483B
:1047E000400008080402010001020408080000F962
:1047F000022020A2FA222202FE00000F0002010481
:10480000070008080F000000FCA4A4A5A6A4A4A407
:10481000BC000806010F0404040404040F0010D2B5
:104820003292100008FF0808F80003020202030891
:104830000601080807001011F20050CF41414FD087
:1048400010000000070208080502050808001017FC
:10485000D555577D5755D517100008080F08080E75
:1048600008080F08080000000000000E0E000000FD
:1048700000000000000000070700000000001021F9
:104880000228E7212121A76808000402090804057D
:104890000205040808004424F45C5754545454F4AA
:1048A000040000000F0101010101090F000001F9DE
:1048B00009090DCB090909F90100080904040201DD
:1048C00002020405080002F21212FA5652F2121203
:1048D000F200000F04040705050704040F00868298
:1048E000A2CA9283FA828282860008080404020126
:1048F000000202040800FE2222FE0008488808FF89
:1049000008000702020700000009080F000098F7DE
:10491000948410D45F54545FD400000F0402000F3D
:10492000050505050F0011F280A0AFA9E9A9AFA008
:104930008000000702080402010204080800201099
:10494000FC031010FF10090A080000000F0000000F
:10495000000102040F0042F22EE2013D2121213F1D
:10496000E00000070207010101010908070010F03B
:104970005F55F51555D55FD01000040705050F02EA
:1049800008050205080010101010D03FD0101010BC
:104990001000080804030000000304080800006079
:1049A00060606060646CF8F060000000000000006F
:1049B00002030100000001020203040506070809C2
:1049C0000A0B0C0D0E0F101000000000000000007C
:1049D00001020304060708090000000001020304A5
:1049E000004A0008000000204002000028010008E2
:1049F000144B000840020020180800008401000841
:104A000017AED580A83FD3701140A1C8DA1281CF6C
:104A1000D9F1DB40A4A68D14AFA00C80707088760D
:104A20000101010EF0F0A00C80C060100808E61132
:104A300007F8F83812E0E01EC13E3E070606060EF3
:104A4000080F0FD8301001231C07780A20D8CF8F09
:104A5000081020FFFF2B3F1E070302030C019602E4
:104A6000C23232C125C0C030C05701020E3F3FE004
:104A70007478FC03180AFF2018DCC2C1C0C0FF21F3
:104A80001929280B4020C0FFFFC0C1DEDEE0573CE3
:104A9000011EE0305A0FA629141B1F2001463F03B8
:104AA0000302013A1F0F2A1F1947E01C21212E1073
:104AB0006823E1E1120C183020C3BF7FE6C6060E62
:104AC0001EFC9C1C0CCC1C9CFCDCEEEEBE12E2E638
:104AD0000F100C037E213B1E1F48111015030F1CE5
:104AE00018191B1B1B0E0F0F0E1A1B1B19190C0F6D
:104AF0000F04A0011F1E29BE29CE2908690469DE02
:104B0000290C5A02080A110420412920692C82101C
:044B10001324F40076
:04000005080000ED02
:00000001FF
