:020000040800F2
:10000000E80B0020C9010008D5210008D72100080D
:10001000D9210008DB210008DD21000800000000D4
:10002000000000000000000000000000DF210008C8
:10003000E121000800000000E3210008E52100089C
:10004000E3010008E3010008E3010008E301000800
:10005000E3010008E3010008E3010008E3010008F0
:10006000E3010008E9210008E3010008EF2100088E
:10007000E3010008E3010008E3010008F52100089E
:10008000E3010008E3010008FB210008E301000888
:10009000E3010008E3010008E30100080122000871
:1000A000E3010008E3010008E3010008E3010008A0
:1000B000072200080D220008E3010008E301000800
:1000C000E3010008E3010008E3010008E301000880
:1000D000E30100081322000819220008E3010008C8
:1000E000E3010008E3010008E301000800F002F862
:1000F00000F05AF80AA090E8000C82448344AAF168
:100100000107DA4501D100F04FF8AFF2090EBAE865
:100110000F0013F0010F18BFFB1A43F0010318473B
:10012000A0F70000C0F700000A444FF0000C10F8E0
:10013000013B13F0070408BF10F8014B1D1108BF65
:1001400010F8015B641E05D010F8016B641E01F805
:10015000016BF9D113F0080F1EBF10F8014BAD1C55
:100160000C1B09D16D1E58BF01F801CBFAD505E073
:1001700014F8016B01F8016B6D1EF9D59142D6D3CD
:10018000704700000023002400250026103A28BFF5
:1001900078C1FBD8520728BF30C148BF0B607047F9
:1001A0001FB51FBD10B510BD0DF0F0FC1146FFF7D7
:1001B000F7FF00F047FF0DF00EFD03B4FFF7F2FF6D
:1001C00003BC0DF015FD00000948804709480047B1
:1001D000FEE7FEE7FEE7FEE7FEE7FEE7FEE7FEE7F7
:1001E000FEE7FEE704480549054A064B7047000054
:1001F0008DDA0008ED000008E8050020E80B00207B
:10020000E8070020E807002001B584B001214FF481
:10021000807204A88DE807000B4600227821F94877
:1002200005F0FCFE05B000BD70B5C82000F0A3FAD3
:10023000F54D0024285DFFF7E7FF641CE4B2172C9E
:10024000F8D370BD01B584B001214FF4807204A8C9
:100250008DE807000B4640227821EA4805F0DEFED3
:10026000E0E770B55FF0000404F1B000C0B2FFF742
:10027000CBFF0020FFF7C8FF1020FFF7C5FF0025C8
:100280000120FFF7DFFF6D1CEDB2802DF8D3641C59
:10029000E4B2082CE8D370BD70B5002404F1B000BE
:1002A000C0B2FFF7B1FF0020FFF7AEFF1020FFF74D
:1002B000ABFF00250020FFF7C5FF6D1CEDB2802DC0
:1002C000F8D3641CE4B2082CE8D370BD10B58D20BF
:1002D000FFF79AFF1420FFF797FFBDE81040AF200B
:1002E00092E710B58D20FFF78FFF1020FFF78CFFEE
:1002F000BDE81040AE2087E710B50446B031C8B263
:10030000FFF782FF102040EA1410FFF77DFF04F092
:100310000F00BDE8104077E70246012000E050439F
:10032000491EC9B2FBD270472DE9F047203A00249C
:10033000089E0F468146D5B27F2803D900208F1C26
:100340008146FFB2102B394612D0FFF7D5FFAF49D7
:1003500005EB450001EB4005285D0EB1C043C0B27E
:10036000FFF770FF641CE4B2062CF5D3BDE8F087FC
:10037000FFF7C2FFDFF8988204EB051118F80100BF
:100380000EB1C043C0B2FFF75DFF641CE4B2082C9D
:10039000F2D37F1CF9B24846FFF7AEFF0024474670
:1003A00004EB05103844007A0EB1C043C0B2FFF729
:1003B00049FF641CE4B2082CF2D3D7E72DE9F843D7
:1003C0001E461746894604460025DDF8208014E0C5
:1003D000334649462046CDF80080FFF7A5FF0C2E96
:1003E00010D00834E4B27A2C01D90C2E0CD0782C21
:1003F00001D9102E08D06D1CEDB27A5D002AE7D12C
:10040000BDE8F883A41DEDE709F10100002400F028
:10041000FF09F0E72DE9FF4F81B00026DDE90EA9C5
:100420001D469346804634464FEA5A0727E0281B6C
:10043000401EC1B20A20FFF76FFFBBFBF0F00A219C
:10044000B0FBF1F201FB120026B9691E8C4201DA01
:1004500048B101263030C2B207FB0480C0B2534617
:10046000CDF8009006E007FB0480C0B2534620227E
:10047000CDF800900299FFF757FF641CE4B2AC423C
:10048000D5D305B0BDE8F08F2DE9FF4F83B081468D
:10049000DDF840B0129F1C4690464FF0000A10460F
:1004A00012F1FF4F06D35C1C88F00040E4B24FF01D
:1004B000010A80460EF01EF90190119800254608A9
:1004C00028E0601B401EC1B20A20FFF725FF0199FA
:1004D000B1FBF0F10A20B1FBF0F200FB121002991F
:1004E00029B9611E8D4202DA48B1012102913030F2
:1004F000C2B206FB0590C0B20097119B05E006FB57
:100500000590119BC0B2009720220499FFF70CFFC1
:100510006D1CEDB2A542D4D306FB0490C0B2009787
:100520002E22119B0499FFF7FFFE59460A20FFF780
:10053000F3FE0EF013F9054601980EF0F7F8414668
:100540000EF0ECF929460EF01DF90EF0D3F88046B6
:1005500000251CE0ABEB0500401EC1B20A20FFF7EE
:10056000DBFEB8FBF0F10A20B1FBF0F200FB121148
:100570002A1909F1050006FB02003031CAB2C0B2E7
:100580000097119B0499FFF7CFFE6D1CEDB25D45FE
:10059000E0D3BAF1000F06D000972D224846119BF8
:1005A0000499FFF7C1FE07B06CE72DE9F0411E4644
:1005B00015460F4680460024FFF79EFE154905EBC1
:1005C000450001EBC005285D0EB1C043C0B2FFF786
:1005D00039FE641CE4B20C2CF5D37F1CF9B2404602
:1005E000FFF78AFE5FF0000405EB0400007B0EB10C
:1005F000C043C0B2FFF726FE641CE4B20C2CF3D358
:10060000BDE8F08120030020000000201AEA000865
:1006100042EC000822F200082DE9F05F9846DDE97F
:100620000A9A1746834600240D4615E02946584687
:10063000FFF762FE5E460BE019F80400BAF1000F06
:1006400001D0C043C0B2641CFFF7FCFD761CF6B2BB
:10065000BE42F1D36D1CEDB24545E7D3BDE8F09F36
:1006600010B5FFF7D1FD0020FFF7CEFD0020FFF70A
:10067000CBFD0620FFF7C8FD0720FFF7C5FD0020D2
:10068000FFF7C2FDFF20FFF7BFFD2F20FFF7BCFDE6
:1006900041F6E84000F06FF8BDE810402E20B3E5C9
:1006A00070B5044615460E462E20FFF7ADFD2046D8
:1006B000FFF7AAFD0020FFF7A7FD3046FFF7A4FDD6
:1006C0000720FFF7A1FD2846FFF79EFD0020FFF75A
:1006D0009BFDFF20FFF798FDBDE870402F2093E5BC
:1006E00010B504462E20FFF78FFD2046FFF78CFD46
:1006F0000120FFF789FD0020FFF786FD0720FFF7A7
:1007000083FD0720FFF780FD0120FFF77DFD00201E
:10071000FFF77AFDFF20FFF777FDBDE810402F209F
:1007200072E571E510B504468120FFF76DFD2046A6
:10073000BDE8104068E50000FD4910B5401E488343
:1007400001F0CCFABDE81040FA4808F0C9BA704789
:100750000020704710B50068F74988420AD1182276
:10076000F649F7480CF005FDF6480068016821F0ED
:100770000401016010BD40F637414843401EFDD2E0
:10078000704740F637414843401EFDD2704770B570
:10079000E74CED4B0025A16A491CA16202681B6869
:1007A0009A421DD1A388E288D34219D0491C03EB99
:1007B0008313A1628B4202D12562A580A56202EB60
:1007C0008211A26A914203D101212162E580A562D2
:1007D000A188E2881144A289914201D0A562A18139
:1007E000DA490068096888420FD1A06B401CA063F9
:1007F00002280AD1E16B91FBF0F00DF097FF206326
:100800000120FFF7BEFFE563A56370BD10B5C84CBE
:10081000CF48E16901290BD0216A012908D0616A1A
:10082000012905D00022BDE81040102103F0AABC28
:100830000122102103F0A6FC0120FFF7A2FF0020F7
:10084000E06110BD70B54021C24803F096FCB84C81
:10085000012803D1E061E06B401CE063BC4D4FF424
:100860000041284603F089FC002808D10022291500
:10087000284603F087FC208840F00400208070BDEB
:1008800038B5AF49884226D1A94CD4E910010DF002
:10089000F5FBE082D4E914010DF0F0FB208304F1B4
:1008A0005800A0F10803A0F11002A0F11801009077
:1008B000A24801F00FFB20803221A0480DF01AF968
:1008C00018229E499E480CF054FC9E48006801681E
:1008D00021F00401016038BD2DE9FE430C460028DB
:1008E0007DD1FFF7D9FC00231A4619461846FFF7B9
:1008F0005CFE0023012219460C20FFF756FE002360
:100900001B2219461820FFF750FE894DD5E910012A
:100910000DF076F900264FF002080C27CDF8008084
:10092000CDE901760246032331462020FFF7ACFDD6
:1009300000231A4602211846FFF737FE0222002341
:1009400011460C20FFF731FE00231B220221182044
:10095000FFF72BFED5E912010DF052F9CDF800801A
:10096000CDE901760246032302212020FFF78CFD0A
:100970000023032204211846FFF717FE0422002358
:1009800011460C20FFF711FE00231B220421182022
:10099000FFF70BFED5E914010DF032F9CDF8008018
:1009A000CDE901760246032304212020FFF76CFDE8
:1009B0000023092206211846FFF7F7FD00230A222B
:1009C00006210C20FFF7F1FD002305220621182047
:1009D000FFF7EBFD002306211A46242000E036E055
:1009E000FFF7E3FD00231B2206213020FFF7DDFD8A
:1009F000D5E916010DF004F9CDF80080CDE90176B6
:100A00000246032306213C20FFF73EFDE3B20B2202
:100A100001216620FFF7C9FDE3B2172201217220F0
:100A2000FFF7C3FD7CB10023152203216620FFF7E9
:100A3000BCFD54B1002303B01622BDE8F0430321EE
:100A40007220FFF7B2BD0123EEE70123F3E7BDE813
:100A5000FE837CB500250E462C46012A07D1012EC7
:100A600002D0022E03D101E0012500E0012401287B
:100A70004DD1FFF711FC2B46132200210D20FFF76B
:100A800094FD2B46142200211920FFF78EFD2B46E2
:100A9000152200212520FFF788FD2B461622002174
:100AA0003120FFF782FD2346132202210D20FFF79C
:100AB0007CFD2346142202211920FFF776FD2346F0
:100AC000172202212520FFF770FD2346182202215C
:100AD0003120FFF76AFDFE2000EB4600C1B2002383
:100AE00028221846FFF761FD00240C25104ECDE9A1
:100AF00000540223B28821466E20FFF78BFCCDE91B
:100B000000540223F28819466E20FFF783FC7CBD57
:100B10002DE9FC4100260F4635463446012A20D1F6
:100B2000012F19D0022F19D0032F1AD118E000007D
:100B3000900100206C040020004400407802002056
:100B4000B404002044050020DC030020240400201D
:100B5000000C014000080140012602E0012500E0F0
:100B60000124022879D1FFF797FB33462622002182
:100B70000D20FFF71AFD3346272200211920FFF729
:100B800014FD0022334611462520FFF70EFD3346A3
:100B9000012200213120FFF708FD2B4626220221E9
:100BA0000D20FFF702FD2B46272202211920FFF717
:100BB000FCFC2B46002202212520FFF7F6FC022236
:100BC0002B4611463120FFF7F0FC23462622042154
:100BD0000D20FFF7EAFC2346272204211920FFF706
:100BE000E4FC2346202204212520FFF7DEFC2346D7
:100BF000212204213120FFF7D8FC234603220421BF
:100C00003D20FFF7D2FC0422234611464920FFF77E
:100C1000CCFCFE2000EB4700C1B20023282218467E
:100C2000FFF7C3FC00240C25F94ECDE90054032343
:100C3000F28921465620FFF7EDFBCDE9005405234C
:100C4000328A02215620FFF7E5FBCDE90054052347
:100C5000B28A04215620FFF7DDFBBDE8FC811CB5FC
:100C60000C4603287ED1FFF717FB0A2C45D2DFE89C
:100C700004F0440520DB7E879CA5D2C900233622E0
:100C800006211846FFF791FC0023372206210C208D
:100C9000FFF78BFC0023382206211820FFF785FC84
:100CA0000023222206212420FFF77FFC0023232299
:100CB000D4E00023392206211846FFF776FC0023F2
:100CC0003A2206210C20FFF770FC00233B2206216C
:100CD0001820FFF76AFC00233C2206212420FFF79E
:100CE00064FC00233D2206213020FFF75EFC002338
:100CF0003E2206213C20FFF758FC00231A461946E5
:100D00001846FFF752FC00232B2219460C20FFF750
:100D10004CFC0023342219461820FFF746FC002320
:100D2000352219462420FFF740FC0023222203210C
:100D30001846FFF73AFC0023232203210C20FFF77B
:100D400034FC00231B2203211820FFF72EFCB0489F
:100D5000006B0DF0CFFC024600210C200223CDE9F0
:100D6000000100E002E05620FFF754FB1CBD002309
:100D70001A4606211846FFF718FC0023012207E057
:100D800000231A4606211846FFF70FFC0023022213
:100D900006210C20FFF709FC00232D220621182034
:100DA000FFF703FC0023272252E000230322062141
:100DB0001846FFF7FAFB00230422E9E7002341224B
:100DC00006211846FFF7F1FB0023422206210C20E2
:100DD000FFF7EBFB0023192206211820FFF7E5FBA4
:100DE00000231A2206212420FFF7DFFB002307221D
:100DF00006213020FFF7D9FB0023082206213C20E2
:100E0000FFF7D3FB00232D2206211846FFF7CDFB69
:100E10000023402210E000232A2206211846FFF773
:100E2000C4FB00232B2207E00023292206211846B9
:100E3000FFF7BBFB00231A4606210C20FFF7B5FB8A
:100E40000023432206211820FFF7AFFB0023432293
:100E500006212420FFF7A9FB00234322062130208E
:100E6000FFF7A3FB0023432243E71CB5052849D124
:100E7000FFF712FA00246748CDE9000407232D226A
:100E800021462046FFF7C8FB00230B2219463020DD
:100E9000FFF78BFB00230C2219463C20FFF785FB54
:100EA00000230D2219464820FFF77FFB00231B2259
:100EB00019465420FFF779FB0C2357A2002160202C
:100EC0000094FFF77BFA00230E2203213020FFF766
:100ED0006CFB00230F2203213C20FFF766FB00235D
:100EE000102203214820FFF760FB00231B2203216F
:100EF0005420FFF75AFB0C2349A2032160200094E1
:100F0000FFF75CFA1CBD7CB504284BD1FFF7C4F990
:100F100000232F2219460D20FFF747FB0023302224
:100F200019461920FFF741FB0023312202210D2031
:100F3000FFF73BFB0023302202211920FFF735FB8E
:100F40000023322204210D20FFF72FFB0023332240
:100F500004211920FFF729FB00232F22042125203B
:100F6000FFF723FB0023302204213120FFF71DFB74
:100F700000240C25CDE900540523192221465620D2
:100F8000FFF748FACDE9005405231A220221562022
:100F9000FFF740FACDE9005402230E220421562027
:100FA000FFF738FA7CBD72B6FEE730B593B0282162
:100FB00068460CF0C1FD14210AA80CF0BDFD002408
:100FC0000F94109411940D204FF4803112948DE8F9
:100FD000130001200225CDE90605039004904FF48B
:100FE000E010CDE90810684602F091FB08B172B636
:100FF000FEE70F20CDE90A054FF48060CDE90C40F3
:1010000002210AA80E9402F035FD58B172B6FEE72F
:101010009001002017000020576573700000000049
:10102000312E300003200F904FF480701090C001DB
:1010300011900FA802F068FE002801D072B6FEE7FA
:1010400013B030BD1FB502F05BFAFFF7AEFF00F042
:10105000FDFB00F025FD00F0D8FF00F0EEFF00F0F2
:101060003DFE00F0E1FD00F052FD00F068FE00F0F2
:1010700075FCFFF7D9F8FFF70FF9002003900290F5
:101080004FF00108FE4807F02BFEFE4807F028FE4F
:101090001822FD49FD480CF06CF8FD480068016815
:1010A00021F004010160DFF8ECA3DFF8EC930027E6
:1010B0000C20CDE900070523192200215620FFF757
:1010C000A9F96420FFF75DFB4C46B9F80E000DF05E
:1010D00002F8D4E910230DF011F807D867622088D0
:1010E00040F008002080FFF791FB05E02088010711
:1010F00002D580F008002080208A0CF0ECFFD4E9B3
:1011000012230CF0FBFF07D86762208840F0100024
:101110002080FFF77BFB05E02088C10602D580F028
:1011200010002080608A0CF0D6FFD4E914230CF064
:10113000E5FF07D86762208840F020002080FFF795
:1011400065FB05E02088810602D580F02000208024
:10115000A08A0CF0C0FFD4E916230CF0CFFF07D80B
:101160006762208840F040002080FFF74FFB05E0D9
:101170002088410602D580F040002080E08A0CF0F3
:10118000AAFF05460E46D4E910010022C34B0DF01C
:1011900025F92A4633460DF0EBF807D2676220881E
:1011A00040F080002080FFF731FB05E02088010639
:1011B00002D580F080002080218B608AA146814288
:1011C000484608D94762018841F48071A9F80010A7
:1011D000FFF71CFB06E00188CA0503D581F4807186
:1011E000A9F800100121504602F0C7FF04468021F3
:1011F000AB4802F0C2FF06460221504602F0BDFF96
:1012000005464FF48051504602F0B7FFD9F82C1034
:10121000834641EA04003043284303D04A4601296B
:101220001ED03AE00A20FFF7ACFA0120C9F82C00E2
:101230000FE001215546504602F09FFF04468021F1
:10124000974802F09AFF06460221284602F095FFD1
:101250000546002CEDD0002EEBD0002DE9D01CE08F
:10126000DCB9D6B9CDB90A20FFF78BFAD7620121D4
:101270005546504602F081FF04468021884802F01E
:101280007CFF06460221284602F077FF0546002C27
:10129000EDD0002EEBD0002DE9D0B9F8080010B148
:1012A000012861D034E24CB126B1BBF1000F01D06E
:1012B000002DF7D11920FFF764FA14E01920FFF789
:1012C00060FAB9F80210544601EB810272496031AC
:1012D00001EB82010989A9F802100121204602F0E0
:1012E0004CFF0028F9D08EB9B9F802106C4C01EB14
:1012F00081026949603101EB82018989A9F80210F4
:101300008021204602F039FF0028F9D0ADB110E06D
:101310000221204602F031FF0028F9D0B9F802007E
:1013200000EB80015C48603000EB81014868401CA4
:101330004860BBF1000F02D0EAE15446E8E7B9F893
:1013400002104FF4805401EB81025349554660313D
:1013500001EB8201098AA9F808102146284602F00B
:101360000CFF0028F9D0D3E1BBF1000F0CD10A200B
:10137000FFF707FAA9F808704FF4805B594650460A
:1013800002F0FBFE0028F9D0B9F802004A4660B925
:101390000A20FFF7F6F9106A10B1012803D004E023
:1013A0000120106200E017621781508891460128E1
:1013B00078D139486030806901284CD16CB90A2055
:1013C000FFF7DFF9B9F80410491EA9F8041001214C
:1013D000504602F0D2FE0400F9D07EB90A20FFF791
:1013E000D0F9B9F80410DFF8B8B0491CA9F8041016
:1013F0008021584602F0C1FE0600F9D06DB90A20DE
:10140000FFF7BFF9B9F804100A31A9F80410022156
:10141000504602F0B2FE0500F9D054EA050015D19D
:101420000A20FFF7AEF9B9F804100A39A9F8041038
:1014300001215546504602F0A0FE044602212846EE
:1014400002F09BFE054654EA0500F1D0B9F80610FB
:1014500009B1A9F80670B9F8020000EB80010E4846
:10146000603000EB81004068022860D10CBB0A208C
:10147000FFF787F9B9F80610491EA9F8061012E01F
:10148000DC0300202404002078020020B4040020A3
:1014900044050020000C014090010020000036406F
:1014A0000008014043E00121504602F066FE0400BE
:1014B000E5D07EB90A20FFF764F9B9F80610DFF825
:1014C00084B3491CA9F806108021584602F055FE45
:1014D0000600F9D06DB90A20FFF753F9B9F80600F4
:1014E0000A30A9F806000221504602F046FE050027
:1014F000F9D054EA050015D10A20FFF742F9B9F8EE
:1015000006000A38A9F8060001215546504602F0A7
:1015100034FE04460221284602F02FFE054654EA16
:101520000500F1D0B9F8041009B1A9F80470B9F8B0
:10153000021002297ED1C448C06A012847D16CB983
:101540000A20FFF71EF9B9F80E00401EA9F80E0098
:101550000121504602F011FE0400F9D07EB90A20A4
:10156000FFF70FF9B9F80E00DFF8D8B2401CA9F860
:101570000E008021584602F000FE0600F9D06DB939
:101580000A20FFF7FEF8B9F80E000A30A9F80E009D
:101590000221504602F0F1FD0500F9D054EA0500A1
:1015A00015D10A20FFF7EDF8B9F80E000A38A9F8AE
:1015B0000E0001215546504602F0DFFD044602218F
:1015C000284602F0DAFD054654EA0500F1D0B9F8E4
:1015D0000200DFF874B200EB80010BEB8100406881
:1015E000022847D16CB90A20FFF7CBF8B9F81000F0
:1015F000401EA9F810000121504602F0BEFD040073
:10160000F9D06EB90A20FFF7BCF8B9F81000401CF9
:10161000A9F8100080218B4802F0AFFD0600F9D038
:101620007DB90A20FFF7ADF8B9F810000A30A9F823
:10163000100000E06CE00221504602F09EFD050023
:10164000F7D054EA050015D10A20FFF79AF8B9F847
:1016500010100A39A9F8101001215546504602F021
:101660008CFD04460221284602F087FD054654EA17
:101670000500F1D0B9F8020000EB80010BEB81000E
:101680004068032844D16CB90A20FFF77AF8B9F80A
:101690001210491EA9F812100121504602F06DFDEA
:1016A0000400F9D076B90A20FFF76BF8B9F81210E8
:1016B000644E491CA9F812108021304602F05DFDED
:1016C0000028F9D075B90A20FFF75BF8B9F81210B5
:1016D00056460A31A9F812100221304602F04DFD9B
:1016E0000500F9D02C4313D10A20FFF74AF8B9F8C6
:1016F000121055460A39A9F812100121284602F0A5
:101700003CFD04460221284602F037FD0443F4D094
:10171000B9F802004C4900EB800201EB82014C4613
:1017200089888DB2022D0DD9012802D0022804D05B
:1017300008E0454A0121916104E0032D02D9424AA3
:101740000121D162E16A012914D104280AD9B8F132
:10175000040F03D0B8F1000F02D00BE067800BE05C
:1017600004202EE0022805D1B8F1010F28D0B8F1ED
:10177000030F28D0804500D001256188884517D106
:101780000398A84214D1E189208A0144608A014467
:10179000A0880844E18801440298814208D1608908
:1017A0002189884204D1D4E90C100CF06FFF35D0A8
:1017B0000120FEF7E6FFE06A38B101281ED02DE0D7
:1017C00003206080D8E70120FBE76088216AFFF7EB
:1017D00083F8228929466088FFF73BF92289294648
:1017E0006088FFF795F939466088FFF738FA608816
:1017F000FFF789FB6088FFF738FB0FE06088216AFC
:10180000FFF76AF8228929466088FFF722F93946EE
:101810006088FFF724FA6088FFF775FBB4F8028050
:101820000395E089218A0844618A0144A08808441C
:10183000E188084480B2029020896081206B606357
:1018400036E4000000080140F00100202DE9F047D7
:1018500086B000243D480094019402940394816969
:1018600041F010018161816901F0100104918169E9
:1018700041F020018161816901F0200104918169B9
:1018800041F004018161816901F0040104918169E1
:1018900041F0080181618069DFF8B49000F0080030
:1018A0004FF40068049000224146484602F06AFC6A
:1018B000DFF8A0A000221021504602F063FC264F62
:1018C0002020CDE90007022569460295484602F02E
:1018D000F5FA802001268DE851006946484602F05D
:1018E000EDFA41F203008DE851006946504602F0DE
:1018F000E5FACDE9008669464846CDE9024502F0A1
:10190000DDFA0820CDE9000769460294504602F04E
:10191000D5FA10200090CDE901656946504603953F
:1019200002F0CCFA00221146092002F0B0FF092093
:1019300002F0CBFF00221146172002F0A8FF17206B
:1019400002F0C3FF06B0BDE8F087000000100240BF
:1019500000080140000C0140000011103EB50021BC
:101960004B4800910191494A0291026092158260B0
:1019700001240473017503254FF460220561C261DF
:10198000416000F0A5FC08B1FFF70DFB0420CDE994
:10199000000469463E48029401F0F3F808B1FFF7ED
:1019A00002FB10200090022001906946384801F0A7
:1019B000E8F808B1FFF7F7FA1120CDE9000569460C
:1019C000334801F0DEF8002801D0FFF7ECFA3EBD05
:1019D00070B586B0002506460095019502950395E1
:1019E00000682A49884237D12A49886940F4007042
:1019F0008861886900F400700490886940F00400F0
:101A000088618869694600F0040004901020009005
:101A100003200190204802F051FA1D4C1F48303439
:101A2000C4E900058020C4E90250800020618000E4
:101A300060612020C4E90605204602F0DDFB08B104
:101A4000FFF7B1FA3462002202211220666202F02E
:101A50001EFF122002F039FF06B070BD10B504461B
:101A600000680A49884210D10A48816921F400714E
:101A700081611021084802F000FB206A02F0E6FBB9
:101A8000BDE81040122002F02DBF10BD002401401F
:101A9000AC02002000100240000801400800024093
:101AA0000D4808B5416941F00101416140690022DA
:101AB00000F00100009011460B2002F0E8FE0B2020
:101AC00002F003FF002211460F2002F0E0FEBDE805
:101AD00008400F2002F0F9BE001002404D4810B53A
:101AE0004B4901604C49416000214FF480428160C4
:101AF000C0E9031241618161C161016203F08BF8A9
:101B0000002803D0BDE81040FFF74DBA10BD414892
:101B100010B55430414901603F49416000214FF404
:101B200080428160C0E9031241618161C16101624B
:101B300003F071F8002803D0BDE81040FFF733BA76
:101B400010BD30B585B00021009101910291039143
:101B50002F4D0368324C122103223248AB4216D17A
:101B6000A36943F00803A361A369039203F0080388
:101B70000493C023CDE90031694602F09FF9E06982
:101B800040F40010E061E06900F4001019E0234D1A
:101B9000AB4217D1A36943F00803A361A369039281
:101BA00003F0080304934FF44063CDE90031694624
:101BB00002F084F9E06940F48000E061E06900F43B
:101BC0008000049005B030BD10B50068104A14497B
:101BD000144C904209D1C86920F40010C86140211A
:101BE000204602F04AFA80210CE00C4A90420ED1C5
:101BF000C86920F48000C8611115204602F03DFA42
:101C00004FF400612046BDE8104002F036BA10BD26
:101C1000005400402003002030E60200005800403D
:101C200000100240000C01401CB50024284801941B
:101C3000264900940160611E41604FF4807181600B
:101C400006F07EFB08B1FFF7AEF912208DF8040014
:101C50008DF805008DF80640012201A91C4806F008
:101C600012FC08B1FFF79FF98DF8004011208DF8A4
:101C7000010029208DF8020023208DF803000122A5
:101C80006946134806F0FAFC002801D0FFF78BF9EB
:101C90001CBD08B500680D4988420DD102F0F3FE65
:101CA0000C48C16941F00061C161C0690A4900F096
:101CB000006000900120086008BD00680349884268
:101CC00002D105490020086070470000002800404C
:101CD000C8030020001002403C04424210B586B008
:101CE00000247748009401940294039404944FF0E4
:101CF0008041059401604FF6FF71C0E901144EF672
:101D00005F21C0E90314846106F05AFF08B1FFF7B0
:101D10004AF94FF4805000906946694809F0D5FAB5
:101D200008B1FFF740F9049404A9654805940AF046
:101D30006FFC002801D0FFF736F906B010BD10B5D2
:101D400086B000245E4800944830019402940394C5
:101D500004945C490594016041F61F41C0E90114F7
:101D600041F28731C0E90314846106F029FF08B10C
:101D7000FFF719F94FF480500090514869464830F8
:101D800009F0A3FA08B1FFF70EF94D48049404A92D
:101D9000483005940AF03CFC0028CED0FFF703F948
:101DA000CBE710B586B000244548009490300194EC
:101DB00002940394049444490594016041F61F4140
:101DC000C0E9011441490988C0E90314846106F09F
:101DD000F7FE08B1FFF7E7F84FF48050009038485D
:101DE0006946903009F071FA08B1FFF7DCF8344821
:101DF000049404A9483005940AF00AFC00289CD0F9
:101E0000FFF7D1F899E708B501683148B1F1804F83
:101E100011D02C4A91421DD1C16941F00201C1612A
:101E2000C069002200F00200009011461D2002F05F
:101E30002EFD1D201FE0C16941F00101C161C06993
:101E4000002200F00100009011461C2002F01FFD4E
:101E50001C2010E01C4A914211D1C16941F00401DB
:101E6000C161C069002200F00400009011461E20EC
:101E700002F00DFD1E20BDE8084002F026BD08BDA1
:101E800001681348B1F1804F08D00E4A91420BD13E
:101E9000C16921F00201C1611D200DE0C16921F07D
:101EA0000101C1611C2007E0074A914206D1C169C6
:101EB00021F00401C1611E2002F014BD7047000032
:101EC000DC0300200004004000080040AA010020BC
:101ED000001002402DE9F05F0027044600788A4692
:101EE0009846934639463E46B9463D46AA286ED0A6
:101EF0000220225C401CC0B211441728F9D3C8B29A
:101F0000E17D88427ED1A078E178000400EB0120D9
:101F10002179A27901446079000400EB0220E27982
:101F20001044B1FBF0F00CF0D6F8A04AA04B0CF036
:101F300021F9CAE90001207A617A000400EB01204E
:101F4000A17A227B0144E07A000400EB0220627B4C
:101F50001044B1FBF0F00CF0BEF8CBE900012078A2
:101F6000F02835D9F12800D1012500221146C8F802
:101F7000002000BFC8F80410207D00F08001494512
:101F800000D0761C617D300400EB0120A17D441857
:101F900038460CF0A0F8854A854B0CF0EBF8024669
:101FA0000B464FF0454083490BF010FF0CF066F8EC
:101FB00042F210714C43B4FBF0F00CF08CF80022AC
:101FC0007D4B0BF003FF0A9AC2E900011AE018E00A
:101FD000A07BE17B000400EB0120217C4718607CA2
:101FE000A17C000400EB0120E17C0844B7FBF0F089
:101FF0000CF071F86D4A6E4B0CF0BCF8C8F800009C
:10200000B8E702252846BDE8F09F6D4810B56B493A
:1020100001604FF496514160002181600422C1604B
:10202000C0E904128161C1610AF0D0FB002803D02D
:10203000BDE81040FEF7B7BF10BD614810B548308D
:10204000604901604FF4E1314160002181600C2260
:10205000C160C0E904128161C1610AF0B7FB0028C8
:1020600003D0BDE81040FEF79EBF10BDF0B585B0AF
:102070000024009401940294039406464F4F036891
:10208000514902200322514DBB423BD18B6943F49D
:1020900080438B618B6903F4804304938B6943F025
:1020A00004038B618969039201F004010491010228
:1020B000CDE900106946284601F000FF2815CDE95A
:1020C000000469462846029401F0F8FE3C4D404861
:1020D0009035C5E900048020C5E902402C618001EB
:1020E0006C61C5E90640284602F086F808B1FEF7A3
:1020F0005AFFF5630022114625206E6202F0C7FBED
:10210000252028E02F4EB34227D1CB6943F400337A
:10211000CB61CB6903F4003304938B6943F0040370
:102120008B618969039201F0040104910421CDE9D6
:1021300000106946284601F0C1FE0820CDE90004E0
:1021400069462846029401F0B9FE00221146262075
:1021500002F09DFB262002F0B8FB05B0F0BD10B5E3
:1021600004460068154B1849184A98420DD18869F1
:1021700020F4804088614FF4C061104601F07DFF7B
:10218000E06B02F063F825200BE00E4B98420CD177
:10219000C86920F40030C8610C21104601F06DFFC1
:1021A0002620BDE8104002F09DBB10BD3F355EBA51
:1021B000490C084085318A420088C34000380140FC
:1021C000B404002000440040001002400008014018
:1021D00058000240FEE7FEE7FEE7FEE7FEE7704735
:1021E0007047704701F0AAB9082001F0EABF0C4817
:1021F00002F042BA0B4802F03FBA0B4800F053BC61
:10220000202001F0DEBF094808F002BB084808F0B2
:10221000FFBA08480BF057BA07480BF054BA000051
:10222000DC02002044050020AC020020DC0300207A
:1022300024040020B4040020FC0400200C4808B54D
:10224000816941F001018161816901F00101009121
:10225000C16941F08051C161C06900F080500090B7
:102260000448416821F0E06141F00071416008BD1F
:10227000001002400000014070B50446006881680B
:10228000C943C90717D1816821F00101816001F0BC
:102290005BF905460AE000BF01F056F9401B022831
:1022A00004D920688068C043C00706D020688068D1
:1022B000C043C007F0D0002070BDA06A40F01000FD
:1022C000A062E06A40F00100E062012070BD70474A
:1022D0002DE9F0414FF0000704003D467ED0A06A92
:1022E000002628B9E66284F824602046FFF770FBD8
:1022F0002046FFF7C1FFA16AC90600D420B1A06A39
:1023000040F01000A06269E0A16A21F4885141F018
:102310000201A1626268E169237B0A4347EA430143
:102320000A43A1684FF48077B94209D0012907D048
:102330005FF0000194F814C0BCF1010F02D00AE074
:102340003946F7E7F3B1A36A43F02003A362E36AD7
:1023500043F00103E3622368D3F804C02CF4694C12
:102360004CEA010CC3F804C021688B68DFF818C47C
:1023700003EA0C0313438B60A168B9420BD0012917
:1023800009D00CE0DFF804C4A3690CEB43330B4322
:1023900043F40061DFE7218A0D05A5F5801521686A
:1023A000CB6A23F470032B43CB6221688968F84B16
:1023B0001940914208D1E662A16A21F0020141F080
:1023C0000101A162BDE8F081A06A20F0020040F0A6
:1023D0001000A062E06A40F00100E0620120F1E735
:1023E000704770B504000BD0A06A40F00200A062F4
:1023F0002046FFF741FF06004FF0000502D05AE0EB
:10240000012070BD21686FF01F00086020684168DE
:10241000E04A1140416020688168DF4A11408160D4
:102420002068C16801F07F41C1602068016901F046
:1024300040410161206841696FF30B0141612068EF
:1024400081696FF30B0181612068C1696FF30B0132
:10245000C1612068016A6FF30B0101622068416A63
:102460006FF30B0141622068816A6FF30B01816297
:102470002068C16A01F07F41C1622068C16A01F031
:102480007F41C1622068016B01F040410163206817
:10249000416B01F0404141632068816B6FF315018E
:1024A00081632068816B6FF3150181632046FFF71C
:1024B000D5FAE562A56284F82450304670BDF8B5BF
:1024C00000260446009600688168C943C9072CD0DD
:1024D000816841F001018160B048B1490068B0FBFA
:1024E000F1F000E0401E00900028FBD101F02CF834
:1024F000054615E001F028F8401B022810D9206895
:102500008068C043C0070BD0A06A40F01000A062F2
:10251000E06A40F00100E06284F824600120F8BD28
:1025200020688068C043C007E4D10020F8BD70B5C2
:10253000044690F8240001280DD0012084F82400DE
:102540002046FFF7BCFF02004FF0000005D084F8E2
:102550002400104670BD022070BDA16A40F2012324
:10256000994341F48071A1628E4D23688E49AB423C
:1025700018D10E6816F4702F14D0A66A46F480168F
:10258000A6620E68760505D5A66A26F4005646F4BE
:102590008056A662A66AF6040AD5E66A26F0060602
:1025A000E66206E0A66A26F48016A6625E68E9E79F
:1025B000E06284F824006FF00200186020688368ED
:1025C000C3F34243072B05D1A84208D1096811F48F
:1025D000702F04D0816841F480118160B9E781686F
:1025E00041F4A001F9E710B5044690F82400012851
:1025F00007D0012084F824002046FFF73DFE10B1EB
:1026000007E0022010BDA16A21F4885141F00101C8
:10261000A162002184F8241010BD2DE9F8430027A1
:102620000D460446009700F08FFF804620688168C1
:10263000C90508D5A06A40F02000A06284F8247083
:102640000120BDE8F8834168C90503D4C06A10F4CD
:10265000700F2AD0022001F0DBFB50490968B1FB62
:10266000F0F62068036951490B424FEA61014FEAD5
:10267000A1121FD1C3684FEA611C13EA0C0F19D1D4
:1026800003690B4225D1C068104222D1142023E0F7
:10269000681C0AD02DB100F057FFA0EB0800A8423B
:1026A00003D920680068800725D520680068800766
:1026B000EED52DE003690B4202D1C168114206D06C
:1026C00002693B490A4206D1C068084203D154203E
:1026D00002E0292000E0FC204643009816E0681C38
:1026E00011D02DB100F030FFA0EB0800A8420AD9AC
:1026F0000098B04207D2A06A40F00400A06284F8BB
:10270000247003209DE70098401C0090B042E6D35F
:1027100021686FF012000860A06A40F40070A062A7
:1027200020688068C0F3424007280CD1207B50B954
:10273000A06A20F48070A062A06AC00403D4A06ADA
:1027400040F00100A06200207BE72DE9F041164631
:102750000D46044600F0F8FE07462BE0701C29D019
:1027600026B100F0F1FEC01BB04223D920680068FA
:1027700035EA00001ED0A06A40F00400A0620020EC
:1027800084F8240003201DE6FDF7E1FF00E0FFFFD1
:10279000FE0E1FFF00003FFFF00601FF7402002045
:1027A00040420F00002801400424014024499224A3
:1027B000499224002068006835EA0000CED1A06A62
:1027C00040F48030A06221686FF0010008600020B2
:1027D000F8E570B5044690F8240001280DD00120DA
:1027E00084F824002046FFF76AFE02004FF0000044
:1027F00005D084F82400104670BD022070BDA16A87
:1028000040F60163994341F48071A162FD4D236854
:10281000FD49AB4218D10E6816F4702F14D0A66A89
:1028200046F48016A6620E68760505D5A66A26F4DB
:10283000005646F48056A662A66AF6040AD5E66AF1
:1028400026F00606E66206E0A66A26F48016A66270
:102850005E68E9E7E06284F824006FF00200186027
:102860002068436843F02003436020688368C3F313
:102870004243072B05D1A84208D1096811F4702FF3
:1028800004D0816841F480118160B4E7816841F42B
:10289000A001F9E710B5044690F82400012807D0FC
:1028A000012084F824002046FFF7E6FC10B10CE07C
:1028B000022010BD21684A6822F020024A60A16A05
:1028C00021F4885141F00101A162002184F8241013
:1028D00010BD704710B5406A816A41F040018162C5
:1028E000C16A41F00401C162FFF7F3FF10BD7047F8
:1028F00010B5406AFFF7FBFF10BD704710B50146E9
:10290000406A826A12F0500F05D0006A026BBDE87F
:10291000104008461047816A41F4007181620168E5
:102920008968C1F3424107290CD1017B51B9816A01
:1029300021F480718162816AC90403D4816A41F003
:1029400001018162FFF7D9FF10BD2DE9F0478946EB
:10295000AD4904460068091FAA4F0E1D90468842E3
:1029600001D0B84207D1306810F4702F03D0012590
:102970002846BDE8F08794F8240001280CD00120F7
:1029800084F824002046FFF79AFD05004FF0000070
:1029900004D084F82400EBE70220EAE7A16A40F6BD
:1029A0000162914341F48071A1622168B94218D15A
:1029B000326812F4702F14D0A16A41F48011A16220
:1029C0003168490505D5A16A21F4005141F48051CF
:1029D000A162A16AC9040AD5E16A21F00601E16297
:1029E00006E0A26A22F48012A2624968E9E7E06286
:1029F00084F82400AFF2FB00216A8862AFF20F1066
:102A0000216AC862AFF23310216A086321686FF04F
:102A1000020008602068816841F48071816021684B
:102A200043464A464C31206A01F077FC20688168B1
:102A3000C1F342410729816803D041F480118160CC
:102A400096E741F4A001FAE710B5044690F8240097
:102A5000012807D0012084F824002046FFF70CFC51
:102A600010B113E0022010BD21688A6822F4807240
:102A70008A60216A91F82120022A07D1084601F0D4
:102A800084FCA16A30B141F04001A162002184F8C8
:102A9000241010BD21F4885141F00101F5E70068D0
:102AA000C06C7047704770B504460068066845689A
:102AB000A90625D5B10723D5A16AC90603D4A16A01
:102AC00041F40071A1628168C1F34241072910D12C
:102AD000217B71B9416821F020014160A06A20F496
:102AE0008070A062A06AC00403D4A06A40F0010014
:102AF000A0622046FFF701FF21686FF01200086016
:102B000028062ED570072CD5A06AC00603D4A06A6B
:102B100040F40050A06220688168C1F302310729A7
:102B200009D04168490515D48168C1F3424107299C
:102B300010D1217B71B9416821F080014160A06A08
:102B400020F48050A062A06AC00503D4A06A40F0BF
:102B50000100A062204600F089FB21686FF00C00A4
:102B6000086068060CD5F0070AD0A06A40F48030EF
:102B7000A0622046FFF796FF21686FF00100086011
:102B800070BDF8B50024009490F824202546012A51
:102B900012D0012280F824204A681F23072A0DD270
:102BA0000668776B521E02EB820293409F430B68CC
:102BB00093401F43776319E00220F8BD06680D2A91
:102BC0000AD2376BD21F02EB820293409F430B68FD
:102BD00093401F43376309E0F76A0D3A02EB820224
:102BE00093409F430B6893401F43F7620A68072393
:102BF00006680A2A0FD3F7680A3A02EB42029340AA
:102C00009F4303E000280140042401408B68934067
:102C10001F43F76008E0376902EB420293409F438D
:102C20008B6893401F4337610A68102A01D0112A2C
:102C300020D1294B02689A4217D193681B0219D4FC
:102C4000936843F4000393600968102912D1234963
:102C5000234A0968B1FBF2F101EB8101490000E070
:102C6000491E00910029FBD104E0816A41F0200156
:102C70008162012480F824502046F8BD30B590F8D8
:102C80002420012A1ED0012280F824200A7A012A59
:102C90000268536818D023F040035360D1E9002341
:102CA0001A4303685C680F4D2C4022435A60036846
:102CB000CA685A62026809699162002180F824108A
:102CC000084630BD022030BD43F04003E5E7806A8E
:102CD0007047C06A70470000002401407402002061
:102CE00040420F00E0FD3FFFF8B500250446009587
:102CF00090F8240001280BD0012084F824002046FD
:102D0000FFF7BAFA2046FFF7DAFB060002D050E0E0
:102D10000220F8BDA06A20F4885040F00200A062B2
:102D2000022001F075F8FB490968B1FBF0F04000A2
:102D300000E0401E00900028FBD12068816841F02F
:102D40000801816000F000FC074608E000F0FCFB91
:102D5000C01B0A2803D920688068000715D42068A2
:102D600080680007F2D42068816841F00401816026
:102D700000F0EAFB074612E000F0E6FBC01B0A2861
:102D80000DD920688068400709D5A06A20F00200AC
:102D900040F01000A06284F824500120F8BD2068A3
:102DA00080684007E8D4A06A20F0020040F00100EB
:102DB000A06284F824503046F8BD70B5044690F8FF
:102DC000240001280DD0012084F824002046FFF7BC
:102DD00076FB01004FF0000005D084F8240008467F
:102DE00070BD022070BDA26A42F201039A4342F410
:102DF0008052A262C84A2568C84B95421AD11E6803
:102E000016F4702F16D0A66A46F48016A662A66A3B
:102E1000F60500D4E06284F824006FF00400286016
:102E2000206844686405DAD48468C4F30234072C4B
:102E300004D009E0A66A26F48016E7E7904208D19C
:102E40001A6812F4702F04D0826842F40042826043
:102E5000C5E7826842F40212F9E710B5044690F81B
:102E6000240001280ED0012084F82400A06AC005A7
:102E700011D42068406840050DD42046FFF7FCF9C6
:102E800010B10DE0022010BDA16A21F4885141F07B
:102E90000101A16204E0A06A40F02000A0620120CC
:102EA000002184F8241010BD2DE9F84300270D46B9
:102EB0000446009700F048FB80462068806B10F4C1
:102EC000401F2AD0022000F0A3FF92490968B1FBFD
:102ED000F0F62068036992490B424FEA61024FEA1B
:102EE000E1111FD1C3684FEA410C13EA0C0F19D14D
:102EF0000369134225D1C068084222D1142023E07F
:102F0000681C0AD02DB100F01FFBA0EB0800A842FE
:102F100003D920680068400725D52068006840076D
:102F2000EED52EE00369134202D1C2680A4206D0F0
:102F300002697C490A4206D1C068084203D1542084
:102F400002E0292000E0FC204643009817E0681CBE
:102F500012D02DB100F0F8FAA0EB0800A8420BD96E
:102F60000098B04208D2A06A40F00400A06284F841
:102F700024700320BDE8F8830098401C0090B04204
:102F8000E5D321686FF00E000860A06A40F400509D
:102F9000A06220688168C1F30231072909D0416825
:102FA000490511D48068C0F3424007280CD1207B2A
:102FB00050B9A06A20F48050A062A06AC00503D472
:102FC000A06A40F00100A0620020D3E770B504467B
:102FD00090F8240001280DD0012084F82400204618
:102FE000FFF76DFA01004FF0000005D084F82400CF
:102FF000084670BD022070BDA26A42F201039A43E6
:1030000042F48052A262444A2568444B95421FD143
:103010001E6816F4702F1BD0A66A46F48016A662AE
:10302000A66AF60500D4E06284F824006FF004007C
:1030300028602068456845F0800545602068446840
:103040006405D5D48468C4F30234072C04D009E0A5
:10305000A66A26F48016E2E7904208D11A6812F4B4
:10306000702F04D0826842F400428260C0E7826818
:1030700042F40212F9E710B5044690F82400012842
:103080000ED0012084F82400A06AC00516D4206860
:103090004068400512D42046FFF7EEF810B112E068
:1030A000022010BD21684A6822F080024A60A16AAD
:1030B00021F4885141F00101A16204E0A06A40F0CE
:1030C0002000A0620120002184F8241010BD2DE909
:1030D000F0418CB0884604461746302168460AF015
:1030E0002BFD94F8240001281ED0012084F8240030
:1030F0000948009080680026C0F34240072815D098
:10310000A06A40F02000A06284F8246001200CB086
:10311000BDE8F08174020020002801400424014031
:1031200024499224499224000220F0E72046FFF728
:10313000C6F9050004D16846FFF7C1F9050003D0C0
:1031400084F824602846E2E7A06AD749084040F4A2
:103150008070A06220684068400505D5A06A20F410
:10316000005040F48050A06284F82460E662216A36
:10317000CE488862216ACE48C862216ACD48086379
:1031800021686FF0020008602068816841F4807156
:10319000816021683B4642464C31206A01F0BDF80F
:1031A00020688168C1F342410729816803D041F456
:1031B00080118160C6E741F4A001FAE730B58DB017
:1031C0000446302168460AF0B7FC94F82400012830
:1031D00008D0012084F824002046FFF74DF8002590
:1031E00018B123E002200DB030BDB348009068460E
:1031F000FFF742F838B1A06A40F01000A06284F8EE
:1032000024500120EFE72068816821F480718160FB
:103210002068416821F470214160206A01F0B5F80E
:10322000A16A21F4885141F00101A16284F824507F
:10323000D9E70068012905D0022909D0032905D062
:10324000042901D0C06B7047806C7047406C704798
:10325000006C70470068C06C98490968C90504D4BF
:1032600095494C31096840EA014070477047F8B50C
:103270000022009290F8244083681646012C1CD04E
:10328000012480F82440D3B14D680B691F249D426E
:1032900026D81F055B1BC3F103030D6803EB8303F3
:1032A0009D40A7F580172F439C40036844F44015C8
:1032B0009C6BAC4327439F631EE00220F8BD4B6824
:1032C000012B05D0826A42F020028262012213E0C3
:1032D00003689C6B0D686FF3150444EAC5340AE07B
:1032E0005B1BC3F1030303EB83039C40036844F4BB
:1032F00040159C6BAC439C6303689C68E443E40703
:1033000006D09C6847F20105AC438D692C439C6054
:103310004B7D012B08D18B69B3F5E04F08D0826A51
:1033200042F02002826201220B7D012B06D00CE0CC
:1033300003685C6844F480645C60F5E74B7DA3B18E
:10334000826A42F02002826201220B68072405682B
:103350000A2B10D3EF680A3B03EB43039C40A743BF
:103360008C689C402743EF600EE003685C6844F47F
:1033700080545C60E9E72F6903EB43039C40A7435B
:103380008C689C4027432F610B68102B01D0112BB8
:1033900004D103689C6844F400049C604B68012BD2
:1033A00010D0022B16D0032B03681BD01C6ACD68EB
:1033B0006FF30B042C431C620B68102B19D0112BDC
:1033C00017D038E003685C69CD686FF30B042C43B9
:1033D0005C61F1E703689C69CD686FF30B042C43D3
:1033E0009C61E9E7DC69CD686FF30B042C43DC6179
:1033F000E2E7324C0368083CA34217D19C682402E0
:1034000019D49C6844F400049C600968102912D106
:103410002B492C4B0968B1FBF3F101EB8101490009
:1034200000E0491E00910029FBD104E0816A41F0CF
:1034300020018162012280F824601046F8BD70B539
:103440008CB00E4604460025302168460AF074FB15
:1034500094F82400012819D0012084F8240016488B
:10346000009020688168C943C90712D00099896813
:10347000C943C9070DD011490839884209D14168AB
:10348000326821F470211143416007E002200CB042
:1034900070BDA06A40F02000A0620125002084F8E1
:1034A00024002846F3E70000FEFDEFFFFD2800089A
:1034B000F1280008D5280008002801400824014010
:1034C0007402002040420F00704770B5564D04460C
:1034D0004FF47A712878B1FBF0F054490968B1FBD8
:1034E000F0F001F01EFA48B9102C07D20022214654
:1034F000501E01F0CCF900206C6070BD012070BD41
:103500004B4810B5016841F010010160032001F043
:10351000B1F90A20FFF7D9FFFEF790FE002010BD99
:103520007047444810B54FF0FF310161002202613D
:10353000C160C260FFF7F4FF002010BD3A48816807
:103540000278114481607047374880687047364878
:103550004068704770B5344C0146002025788D4294
:1035600006D021706068FFF7B0FF002800D02570FA
:1035700070BD2D480078704770B50446FFF7E4FF32
:103580000546601C02D0284800780444FFF7DCFFA1
:10359000401BA042FAD370BD4FF0E020016921F03A
:1035A0000201016170474FF0E020016941F0020122
:1035B000016170472048704720480068000C704740
:1035C0001E480068C0F30B0070471D480068704734
:1035D0001B48001D00687047194808300068704794
:1035E0001648416841F00101416070471348416845
:1035F00021F00101416070471048416841F002012B
:10360000416070470D48416821F0020141607047F8
:103610000A48416841F00401416070470748416829
:1036200021F004014160704768020020740200200C
:10363000002002400010024000090101002004E0C7
:10364000E8F7FF1F2DE9F041FFF77EFFFE4C05462E
:10365000206840F00100206005E000BFFFF774FF24
:10366000401B022843D820688007F7D5206820F047
:10367000F80040F080002060FFF766FF0025064656
:10368000656041F2883704E0FFF75EFF801BB842B7
:103690002DD8606810F00C0FF6D1ED49EB480860AA
:1036A000EC480068FFF711FF10B10120BDE8F08180
:1036B000FFF74AFF0646206820F08070206004E093
:1036C000FFF742FF801B022811D820688001F7D441
:1036D0006560FFF739FF0646206820F4102020605F
:1036E00007E000BFFFF730FF801B642801D90320EB
:1036F000DCE720688003F5D4206820F48020206077
:10370000606A40F080706062A5600020CEE72DE91D
:10371000F84F04006FD02078CB4DC00748D06868C0
:10372000C0F38100012807D06868C0F38100022837
:1037300009D16868C00306D52868800338D5606859
:103740000028E7D034E06068B0F5803F0BD010B1BE
:10375000B0F5A02F11D0286820F4803028602868A8
:1037600020F4802002E0286840F4803028606068FF
:1037700088B1FFF7E9FE064609E0286840F480209A
:103780002860F0E7FFF7E0FE801B642873D8286804
:103790008003F7D50CE0FFF7D7FE064605E000BF33
:1037A000FFF7D2FE801B6428F0D828688003F7D486
:1037B0002078A94E80074FF001094FF0000839D555
:1037C000686810F00C0F07D06868C0F38100022809
:1037D00009D16868C00306D42868800714D5206919
:1037E000012808D110E02069B0B1C6F80090FFF7B9
:1037F000ABFE074605E00AE1FFF7A6FEC01B022864
:10380000C4D828688007F7D52868616920F0F800D7
:1038100040EAC10028600DE0C6F80080FFF794FE82
:10382000074604E0FFF790FEC01B022823D8286853
:103830008007F7D4207800072CD58848A169D9B132
:10384000C0F80090FFF780FE074604E0FFF77CFE1B
:10385000C01B02280FD8686A8007F7D57C484FF450
:10386000FA510068B0FBF1F0009000BF0098411ED3
:103870000091FAD20EE080E0C0F80080FFF764FE0D
:10388000074604E0FFF760FEC01B022875D8686A8F
:103890008007F7D42078400760D5E8690027C0008A
:1038A00008D4E86940F08050E861E869012700F039
:1038B000805000906A480168C90513D401688346A6
:1038C00041F480710160FFF73FFE824606E000BFD1
:1038D000FFF73AFEA0EB0A0064284ED8DBF80000A0
:1038E000C005F5D5E06801280AD008B1052813D035
:1038F000286A20F001002862286A20F0040002E013
:10390000286A40F001002862E06841F2883B98B1E3
:10391000FFF71AFE82460BE0286A40F00400286296
:10392000EEE700BFFFF710FEA0EB0A0159455AD899
:10393000286A8007F6D50CE0FFF706FE824605E010
:10394000FFF702FEA0EB0A0159454CD8286A800710
:10395000F6D41FB1E86920F08050E861E06988B3CF
:103960006968C1F38101022944D00228C6F8608049
:1039700004D0FFF7E9FD044638E034E0FFF7E4FD4A
:10398000074604E0FFF7E0FDC01B02282BD828689B
:103990008001F7D4206AB0F5803F05D16868A1683E
:1039A00020F4003008436860D4E9080108436968DE
:1039B00021F4741108436860C6F86090FFF7C4FDF5
:1039C000044606E025E000BFFFF7BEFD001B02280D
:1039D00009D828688001F7D51BE000BFFFF7B4FDC8
:1039E000001B022802D90320BDE8F88F2868800157
:1039F000F4D40EE00128F7D06868226A00F4803120
:103A0000914204D1616A00F47010884201D0012013
:103A1000EAE70020E8E70C4A51680C4811F00C0373
:103A200024D0042B22D0082B20D10E48C1F383438D
:103A3000C903C05C1BD551680A4AC1F34041921EBC
:103A4000515C024A50430FE00010024000127A001D
:103A5000740200206C0200200000424280044242B6
:103A60000070004084F80008B0FBF1F070479D49F9
:103A7000484370472DE9F0470F46050061D09A4E44
:103A8000306800F00700B84209D2306820F0070023
:103A900038433060306800F00700B84251D12868E0
:103AA000924C810712D5400703D5606840F4E0606E
:103AB00060602878000703D5606840F4605060605B
:103AC0006068A96820F0F000084360602878C007AB
:103AD00028D06868012810D02168022810D08907F2
:103AE00000292EDA616821F0030101436160FFF7CC
:103AF0002BFD804641F288390DE021688903EFE70C
:103B00008901EDE7FFF720FDA0EB0801494502D947
:103B10000320BDE8F0876068696800F00C00B0EB36
:103B2000810FEFD1306800F00700B8420BD9306840
:103B300020F0070038433060306800F00700B842DA
:103B400001D00120E5E72878400705D56068E968DD
:103B500020F4E060084360602878000706D56068BC
:103B6000296920F4605040EAC1006060FFF753FF0C
:103B700061685F4AC1F30311515CC8405D49086048
:103B80005D480068FFF7A1FC0020C2E730B585B0B2
:103B9000002002900220019003200390534C4FF428
:103BA00080700090A0690D4640F00400A061A069FB
:103BB000694600F004000490504800F07FF9606806
:103BC00020F0E0602843606005B030BD4C49012022
:103BD000C86470474A490020C86470474548006877
:103BE00070474448414900684968464AC1F3022188
:103BF000515CC84070473F483C4900684968414AA9
:103C0000C1F3C221515CC840704710B50F2101605B
:103C100036490A6853034FF0000202D54FF4A0233F
:103C200004E00B68DB0303D54FF48033436000E00E
:103C300042604B6803F4003383600B68DC074FF08D
:103C4000010301D0036100E002610C68C4F3C40405
:103C500044610C6A640702D50524C46005E00C6A5F
:103C6000E40701D0C36000E0C2604C6AE40701D001
:103C7000836100E082610A68D20102D50222C2613A
:103C800000E0C3614A6802F480320262496801F4CC
:103C90007011416210BD0F220260144A536803F094
:103CA00003034360536803F0F0038360536803F435
:103CB000E063C36052684FF4E06303EAD20202613A
:103CC0000948006800F0070008607047704710B5A9
:103CD000064CA068000603D5FFF7F8FF8020A0720D
:103CE00010BD000000093D0000200240001002400D
:103CF000A6F80008740200206C02002000080140B1
:103D000000004242B6F800082DE9F8430546007865
:103D1000644CC00754D0E0690026C00008D4E069B4
:103D200040F08050E061E069012600F08050009092
:103D30005D480168C90512D40168804641F480716C
:103D40000160FFF701FC074605E000BFFFF7FCFB41
:103D5000C01B642823D8D8F80000C005F6D5206A17
:103D600010F4407021D0A98801F4407181421CD028
:103D7000206A4E49012220F440700A6000220A6045
:103D80002062C00711D0FFF7DFFB074641F28838F9
:103D900008E000BFFFF7D8FBC11B414502D9032053
:103DA000BDE8F883206A8007F4D5206A696820F4AA
:103DB0004070084320621EB1E06920F08050E0614D
:103DC0002878800705D56068A96820F4404008433A
:103DD00060602878C00605D56068E96820F4800036
:103DE000084360600020DBE7012101602D490A6A79
:103DF00002F440724260032202604A6802F44042C8
:103E0000826013220260496801F48001C16070473A
:103E100010B501460020234C012922D0022939D0B7
:103E200010291DD161682268D20119D52048C1F33B
:103E30008342C903805C0AD561681D4AC1F34041D1
:103E4000921E515C1B4AB2FBF1F1484301E01A4952
:103E500048436168490203D440000321B0FBF1F0FC
:103E600010BD226AC2F30121012903D1920701D5B5
:103E7000C80310BD022905D1626A920702D549F62E
:103E8000404010BD0329FCD121688903F9D54FF2C8
:103E9000244010BDFFF7AFFE6168C1F38131491CBA
:103EA0004900DBE70010024000700040400442423D
:103EB00096F8000800127A0000093D002DE9F84F3D
:103EC000DFF814930024A9F1040B23460F2709F10E
:103ED000040AABF1040EC9E00125A5402A40AA421C
:103EE0007DD1BE4ED1F804C0ACEB0608B44532D04B
:103EF00014DCBCF1030F3AD009DCBCF1000F2AD06E
:103F0000BCF1010F1CD0BCF1020F31D11DE0BCF19E
:103F1000110F17D0BCF1120F2AD119E0B8F5881F84
:103F200019D006DCB8F5803F15D0B8F5801F1FD139
:103F300011E0B8F5001F0ED0B8F5041F18D10AE043
:103F4000CB6815E0CB681B1D12E0CB6808330FE08F
:103F5000CB680C330CE08B682BB1012B4FF00803BE
:103F600003D0456104E0042302E0056100E0002382
:103F7000FF2A01D8064601E000F104064FEA840555
:103F800001D9A5F12005D6F8008007FA05FC28EA3A
:103F90000C0803FA05F548EA0508C6F800804D68E4
:103FA000ED0062D58E4DAE6946F00106AE61AD6999
:103FB00024F0030605F0010500958A4D06EB050C7B
:103FC000DCF80850A607360F07FA06F825EA0805B8
:103FD000DFF81482404503D14FF0000817E044E0B9
:103FE000DFF80882404502D14FF001080FE0DFF80A
:103FF0000082404502D14FF0020808E0DFF8F4816A
:10400000404502D14FF0030801E04FF0040808FAE0
:1040100006F848EA0508CCF808804D68D9F8006031
:10402000ED024D4601D5164300E096432E604D68E3
:10403000DAF80060AD02554601D5164300E096431C
:104040002E604D68DBF80060AD035D4601D5164378
:1040500000E096432E604D68DEF80060ED03754683
:1040600001D5164300E096432E60641C0D682A4675
:10407000E5407FF431AFBDE8F88F2DE9F043002330
:10408000584F0F2574E001229A400A406ED023F069
:104090000304E619D6F808809C074FEA147C05FA59
:1040A0000CF909EA0804DFF84081404502D14FF0DD
:1040B000000816E0DFF83481404502D14FF00108D6
:1040C0000FE0DFF82C81404502D14FF0020808E0F4
:1040D000DFF82081404502D14FF0030801E04FF0A6
:1040E000040808FA0CF8A04523D13B4C083CD4F84E
:1040F00000C02CEA020CC4F800C0241DD4F800C093
:104100002CEA020CC4F800C0334C241DD4F800C0C3
:104110002CEA020CC4F800C0241FD4F800C02CEA1A
:10412000020CC4F800C0D6F808C02CEA090CC6F886
:1041300008C0FF2A01D8064601E000F104064FEA54
:10414000830401D9A4F12004D6F800C005FA04F8CC
:104150002CEA080C4FF0040808FA04F84CEA080CA2
:10416000C6F800C0C46824EA0204C46003F1010375
:1041700031FA03F287D1BDE8F0838068084000D0AF
:10418000012070470AB1016170470904FBE7C2686A
:1041900021EA02030A4043EA02410161704708B57F
:1041A00041F480320092826181610099816181696C
:1041B00000918069C00301D5002008BD012008BD21
:1041C0007047054910B50C310A68024202D00860F8
:1041D000FCF738FB10BD000008040140000011107E
:1041E000001002400000014000080140000C0140A6
:1041F000001001400014014030B528B308C8F94947
:1042000014221944B1FBF2F18900C163F6498163BC
:10421000022141771A6843F6F0718A43D0E900140D
:104220002143D0E902452C432143046921434469D9
:104230002143846921431143196000214163012214
:1042400042770177084630BD012030BD10B528B354
:1042500001680A6822F001020A6002680021116008
:1042600002685160026891600268D160DD4B0268AB
:1042700001241A441423B2FBF3F29300DA4AC0E992
:104280000F239C4054608162C1620163416381637A
:1042900080F8211080F82010002010BD012010BDF2
:1042A00030B590F840500124AC40C56B6C60046898
:1042B00063604368102B036803D099600068C26094
:1042C00030BD9A600068C16030BD70B5044690F89A
:1042D0002000002501280CD0012084F8200094F84B
:1042E00021600020012E06D084F8200002252846F7
:1042F00070BD022070BD022684F82160A063206892
:10430000066826F0010606602046FFF7C9FF206810
:10431000016841F001010160E9E770B5044690F8D9
:104320002000002501280CD0012084F8200094F8FA
:1043300021600020012E06D084F8200002252846A6
:1043400070BD022070BD022684F82160A063206841
:10435000066826F0010606602046FFF7A1FFE06A26
:1043600000282068016802D041F00E0106E021F02B
:10437000040101602068016841F00A0101602068C1
:10438000016841F001010160D9E710B590F82110F2
:104390000022022905D00421816380F82020012019
:1043A00010BD01680B6823F00E030B6001680B68F9
:1043B00023F001030B6090F84030C46B012101FA37
:1043C00003F3636080F8211080F82020104610BDB0
:1043D00010B590F821100024022903D00421816334
:1043E00001243DE001680A6822F00E020A600168BB
:1043F0000A6822F001020A607B4A01680832914291
:1044000001D1012121E0784A1C32914201D11021D1
:104410001BE0754A3032914201D1891515E0724A8C
:104420004432914201D189140FE06F4A58329142CF
:1044300002D14FF4803108E06B4A6C32914202D1D4
:104440004FF4801101E04FF08071674A5160012103
:1044500080F82110002180F82010416B01B18847BD
:10446000204610BD2DE9F74F044690F8210082B098
:104470004FF0000B022802D00420A0639EE02068C9
:104480000168890603D54FF48070A06398E0564D0B
:10449000554E03991C353036DFF84C81DFF84891D2
:1044A000DFF844A10029514908F1440809F15809ED
:1044B0000AF16C0A03D0884220D1042738E08842F0
:1044C00001D1022734E0A84201D1202730E0B042D8
:1044D00002D14FF400772BE0404502D14FF4005752
:1044E00026E0484502D14FF4003721E0504502D183
:1044F0004FF400171CE04FF0007719E0A84201D1FB
:10450000402715E0B04202D14FF4806710E04045EB
:1045100002D14FF480470BE0484502D14FF4802789
:1045200006E0504502D14FF4800701E04FF080676C
:10453000FFF70AF8009047E002682C49206888429B
:1045400001D1082019E0A84201D1802015E0B04235
:1045500002D14FF4006010E0404502D14FF400401A
:104560000BE0484502D14FF4002006E0504502D14F
:104570004FF4000001E04FF0006002420BD094F8CD
:104580004010E26B012000FA01F15160A16B41F093
:104590000101A16310E00498401C15D0049830B1CB
:1045A000FEF7D2FF0099411A049881420CD9A06B02
:1045B00040F02000A063012084F8210084F820B09E
:1045C000012005B0BDE8F08F074801683942B3D03B
:1045D00003980649002820680AD088422CD104207C
:1045E00044E00000F8FFFDBF000002400800024068
:1045F000884201D1022019E0A84201D1202015E013
:10460000B04202D14FF4007010E0404502D14FF4A7
:1046100000500BE0484502D14FF4003006E0504511
:1046200002D14FF4001001E04FF000708A49486059
:10463000012084F821001BE0A84201D1402015E0B0
:10464000B04202D14FF4806010E0404502D14FF4F7
:1046500080400BE0484502D14FF4802006E05045F1
:1046600002D14FF4800001E04FF080607A49486049
:1046700084F820B00020A4E72DE9F05FC16B0C683E
:1046800001680B68D0F840C0042202FA0CF2734DA6
:10469000DFF8CCA1734E744FDFF8D0B1DFF8D0E172
:1046A00022422BD05A0729D50A68920603D40A68F9
:1046B00022F004020A600168A94201D1042219E033
:1046C000514501D1402215E0B14202D14FF4806240
:1046D00010E0B94202D14FF480420BE0594502D1BB
:1046E0004FF4802206E0714502D14FF4800201E0D0
:1046F0004FF0806258494A60C16A3AE04FF00208C0
:1047000008FA0CF818EA040F4FF000094FF0010204
:1047100034D05FEA837831D50B689B0605D40B68EB
:1047200023F00A030B6080F821200168A94201D11F
:10473000022219E0514501D1202215E0B14202D1F7
:104740004FF4007210E0B94202D14FF400520BE076
:10475000594502D14FF4003206E0714502D14FF4C1
:10476000001201E04FF000723B494A6080F820904F
:10477000816A00291AD0BDE8F05F0847082505FACC
:104780000CF5254212D01B0710D50B6823F00E0341
:104790000B6090F84010C36B02FA01F1596082631C
:1047A00080F8212080F82090016BE2E7BDE8F09FBF
:1047B00010B590F820400023012C07D0012480F888
:1047C000204090F82140012C02D008E0022010BDCA
:1047D00059B101290BD002290BD003290BD0012399
:1047E000002180F82010184610BD8262F8E7C262EE
:1047F000F6E70263F4E74263F2E710B590F8202091
:104800000023012A08D0012280F8202090F82140BE
:104810000022012C02D014E0022010BD052910D284
:10482000DFE801F0030507090B0082620AE0C262BB
:1048300008E0026306E0426304E08262C26202634F
:10484000F9E7012380F82020184610BD90F82100D8
:104850007047806B70470000000002400800024073
:104860001C00024030000240440002405800024058
:104870006C0002407B4900F0070208684FF6FF0316
:10488000184040EA0220784A104308607047F0B4AC
:10489000744B1B680C46C3F30223C3F10705042DB8
:1048A00000D90425191D072901D2002300E0DB1ED1
:1048B000012606FA05F1491E214099409E40761EC8
:1048C00016403143F0BC00F0BDB8002809DB00F011
:1048D0001F02012191404009800000F1E020C0F852
:1048E0000011704700280DDB00F01F0201219140EC
:1048F0004009800000F1E020C0F88011BFF34F8F25
:10490000BFF36F8F7047BFF34F8F56480168564A09
:1049100001F4E061121D11430160BFF34F8F00BF2E
:10492000FDE710B5401EB0F1807F01D3012010BD1E
:104930004FF0E02460610F21601700F083F8002041
:10494000A06107202061002010BD46480068C0F328
:104950000220704770B5002804DB00F1E02090F8D9
:10496000000405E000F00F0000F1E02090F8140DC5
:10497000040901F00700C0F10705042D00D9042542
:10498000011D072901D2002000E0C01E012124FAE8
:1049900000F601FA05F56D1E2E408140491E2140AA
:1049A0001660196070BD002809DB00F01F020121AC
:1049B00091404009800000F1E020C0F800127047EB
:1049C00000280DDB4109890001F1E021D1F8001236
:1049D00000F01F0201209040014201D001207047E9
:1049E00000207047002809DB00F01F0201219140E0
:1049F0004009800000F1E020C0F8801270470028D4
:104A00000DDB4109890001F1E021D1F8001300F02C
:104A10001F0201209040014201D001207047002078
:104A200070474FF0E0210428086903D020F004000B
:104A30000861704740F00400FAE7704710B5FFF7CF
:104A4000FCFF10BD0907090E002804DB00F1E0207F
:104A500080F80014704700F00F0000F1E02080F8AB
:104A6000141D70470CED00E00000FA0520BF00BFE8
:104A700070476348016941F080510161016921F08B
:104A80008051016170475F490120086270475D49AC
:104A900000200862704730B55B490A68036822F05D
:104AA000E0021A430A6059490A6822F480320A6017
:104AB0000C1F226822F480322260544A08321368A4
:104AC00023F4803313600B1D1D6825F480351D60B1
:104AD0004568ED0303D5256845F4803525604468B5
:104AE000A40303D50C6844F480340C600179C90731
:104AF00003D0196841F4803119600079800703D52B
:104B0000106840F48030106030BD3E4901200861DB
:104B100070473C4900200861704790FAA0F0394A7C
:104B2000B0FA80F002EB80000121C0F880107047DD
:104B300090FAA0F0334AB0FA80F002EB8000002136
:104B4000C0F8801070473248026822F00402026008
:104B5000012903D040BF20BF20BF704730BF70473E
:104B6000294A10B5136823F002031360136823F079
:104B7000010303431360264C206840F004002060CA
:104B8000012909D040BFFFF771FFFFF76FFF2068D1
:104B900020F00400206010BD30BFF8E71A4801681B
:104BA00041F0020101601A48016841F0040101600E
:104BB00030BF70471648016841F00201016070473C
:104BC0001348016821F00201016070471048016834
:104BD00041F01001016070470D48016821F010019B
:104BE00001607047704710B5084C10342068C0034E
:104BF00004D5FFF7F7FF4FF48030206010BD0000B0
:104C00000010024000000E42007000400404014009
:104C100010ED00E0704770B5040025D094F83D0019
:104C2000002520B984F83C502046FCF78AFF242058
:104C300084F83D002068016821F0010101602068CE
:104C4000016841F4004101602068016821F40041DD
:104C50000160FEF7C6FFFE4A6168914201D8FD4936
:104C600000E0FD49884201D2012070BDFB49236864
:104C7000B0FBF1F15E6826F03F060E435E606368AC
:104C8000934206D94FF4967359434FF47A73B1FBAC
:104C9000F3F12368491C1E6A26F03F06314319626E
:104CA0006168914210D84900401EB0FBF1F2521CDD
:104CB000C2F30B02042A01D2042023E0B0FBF1F07E
:104CC000401CC0F30B001DE0A268EAB301EBC10376
:104CD00003EB0116431EB3FBF6F35B1C43F4804366
:104CE0001B054AD08AB301EBC10202EB0111401E41
:104CF000B0FBF1F0401CC0F30B0040F4804000BF5B
:104D000040F400402168CA694CF6FF739A4310438F
:104D1000C861D4E9071001432068026822F0C0028C
:104D200011430160D4E9030101432068826848F21D
:104D3000FF339A4311438160D4E905010843216898
:104D4000CA6822F0FF0201E010E018E01043C860DA
:104D50002068016841F0010101602564202084F889
:104D60003D00256384F83E50002070BD01EB4106F4
:104D7000431EB3FBF6F35B1CB2E70120C2E701EB75
:104D80004101401EB0FBF1F0401CC0F30B00B7E73F
:104D9000704710B5040013D0242084F83D0020682B
:104DA000016821F0010101602046FCF70DFF0020A1
:104DB000206484F83D0044F8300FA073207310BDC8
:104DC000012010BD01684A69D24352050FD46FF427
:104DD00080624A61002140F8301F202242738173B3
:104DE000026942F004020261017301207047002051
:104DF000704770B516460D4604461EE02046FFF784
:104E0000E1FF08B1012070BD681C16D0FEF79CFBC5
:104E1000801BA84200D885B920684069C04340077C
:104E20000BD5002044F8300F20216173A073216955
:104E300041F0200121612073E4E720684069C0430C
:104E40004007DBD4002070BD70B516460D46044601
:104E50001EE02046FFF7B6FF08B1012070BD681CB8
:104E600016D0FEF771FB801BA84200D885B92068D8
:104E70004069C04300060BD5002044F8300F2021C4
:104E80006173A073216941F0200121612073E4E77F
:104E900020684069C0430006DBD4002070BD2DE9C6
:104EA000F047984616460D4604464FF000094FF06D
:104EB000200AC1F3074723E020684069C04340054A
:104EC00015D42068016841F40071016021686FF415
:104ED00080604861C4F8309084F83DA084F83E902A
:104EE000216C41F00401216484F83C9020E0701CA6
:104EF00006D0FEF729FBA0EB0800B04203D816B19C
:104F0000012F1ED020E02068012F14D0806925EAEF
:104F100000000004000C17D044F8309F84F80DA066
:104F200084F80E90216941F02001216184F80C90F1
:104F30000120BDE8F087406925EA00000004000C6C
:104F4000EAD12068406901E02068806925EA000014
:104F50000004000CB0D1ECE72DE9F0479846174665
:104F60000D460446C1F30746DDF8209029E000BF56
:104F7000B8F1FF3F25D0FEF7E7FAA0EB0901414564
:104F800002D8B8F1000F1CD12068012E15D080691D
:104F900025EA00000004000C11D00020B84210D116
:104FA000002044F8300F20216173A073216941F083
:104FB0002001216120730120BBE74069E8E701205F
:104FC000ECE72068012E0BD0D0F8180025EA00008D
:104FD0000004000C06D00020B842C9D00020A8E789
:104FE0004069F3E70120F7E72DE9F84F1F469046A7
:104FF0008A460446DDF82890FEF7A6FA054694F89E
:105000003D0020287DD11923012215492046009515
:10501000FFF7A2FF002874D194F83C0001287ED04D
:10502000012084F83C0020680168C90703D10168A9
:1050300041F0010101602068016821F40061016014
:10504000212084F83D00102084F83E00002609E06D
:10505000A086010080841E0000093D0040420F0030
:10506000020010002664C4F824806785608D2085C6
:10507000F848E0622B464A465146204602F09BFF24
:1050800090B9206841698069009036E02A46494617
:105090002046FFF7D9FE50B1206C042804D12068C7
:1050A000016841F4007101600120BDE8F88F606A79
:1050B000216800780861606A401C6062618D491E49
:1050C0006185218D491E89B2218522685369DB43A0
:1050D0005B070BD451B100781061606A401C6062BC
:1050E000608D401E6085208D401E20852A464946E1
:1050F0002046FFF77EFE0028CED1208D0028C5D1A6
:1051000000E00CE054F83D0B016841F400710160CF
:10511000202004F81E09E67766770020C5E7022004
:10512000C3E72DE9F041002590460E4604462027AE
:1051300028E04069C043C0060CD454F8301B6FF01F
:105140001000486144F810596777A577206A2062FB
:10515000257714E0FEF7F8F9A0EB0800B04200D87C
:1051600086B920684069C04340060BD544F8305FDB
:105170006773A573206940F020002061257301202A
:10518000BDE8F08120684169C9434906D1D40020B7
:10519000F6E72DE9F84F0446C06A1E4693460D46D1
:1051A00021680A6842F480620A60082807D0012852
:1051B00005D010F5803F02D0206B112804D1206863
:1051C000016841F4807101604FF001195B460022D3
:1051D000494620460096FFF7BFFE4FF4007838B1ED
:1051E00020680068C00501D5C4F8408003205CE752
:1051F0002069DFF864A2B0F5804F0FD00620216847
:1052000000EAD51747F0F000086133465A460AF124
:1052100006012046FFF743FE58BB03E0E8B240F02A
:1052200001001CE02168E8B2086133465A46514645
:105230002046FFF734FEE0B920684169816900919A
:10524000016841F4807101605B46002249462046B6
:105250000096FFF781FE0028C2D147F0F1002168D7
:10526000086133465A4651462046FFF718FE00288B
:10527000BDD0012019E72DE9F84F0025DDF8289071
:10528000984617468A4604460095FEF75DF906469D
:1052900094F83D0020287CD1192301226F49204633
:1052A0000096FFF759FE0028F5D194F83C0001283C
:1052B0006FD0012084F83C0020680168C90703D141
:1052C000016841F0010101602068016821F400617A
:1052D0000160222084F83D00102084F83E002564FF
:1052E0006762A4F82A80608D20855A48E0623346C0
:1052F0004A4651462046FFF74CFF00287ED1DFF892
:105300005881208D202708F1020868B1012814D0A7
:105310000228206801681ED041F480610160206885
:10532000416980690090C3E020684169816900910A
:10533000016841F400710160BAE02068016821F45D
:105340008061016072B620684169816900910168DD
:1053500041F400710AE041F40061016072B6206816
:10536000416981690091016821F48061016062B640
:105370009EE0032865D801280CD002284B464FF048
:1053800000024146204600960BD0FFF7E5FDA8BB82
:105390000CE098E0324649462046FFF7C2FE68BB63
:1053A00079E0FFF7D9FD48BB72B633E020680168A9
:1053B00021F48061016072B620680069616A08703A
:1053C000606A401C6062208D401E2085608D401EFA
:1053D0006085234846F2A8110068B0FBF1F0C0EBED
:1053E000C00000EB80000090401E009007D02068B5
:1053F0004069C04340070DD50098F5E727E044F821
:10540000305F6773A573206940F02000206162B6A9
:1054100025731CE02068016841F400710160206878
:105420000069616A0870606A401C6062218D491ED3
:105430002185618D491E618562B621680969017007
:105440002DE0324649462046FFF76BFE50B1012061
:105450002BE600000000FFFF020001000200100028
:105460007402002020680069616A0870606A401C4C
:105470006062208D401E81B22185608D401E608556
:1054800020684269D243520712D4032903D101682C
:1054900021F48061016020680069616A0870606AB7
:1054A000401C6062208D401E2085608D401E6085FE
:1054B000208D00287FF45DAF84F83D7084F83E5065
:1054C00084F83C50F1E50220EFE52DE9F84F9A46CB
:1054D00016460F460446FEF737F8054694F83D0099
:1054E00020287DD1002F55D0002E53D094F83C00B9
:1054F000012875D0012084F83C0020680168C907A4
:1055000003D1016841F0010101602068016821F4C4
:1055100000610160212084F83D004FF0200984F8EB
:105520003E904FF00008C4F8408067626685608D49
:105530002085F848E0622068016841F480610160DC
:10554000F54F53464246394620460095FFF704FD85
:1055500000BB206846464169806900902069B0F52B
:10556000404F37D153460022394620460095FFF779
:10557000F3FC78B920684169806900902AE02A46E6
:1055800051462046FFF760FC28B12068016821F4ED
:10559000806101602CE0606A216800780861606ABF
:1055A000401C6062618D491E6185218D491E89B252
:1055B000218522685369DB435B070BD469B100780E
:1055C0001061606A401C6062608D401E6085208DA5
:1055D000401E2085208D0028D1D15346002200E0B6
:1055E00019E04FF4823120460095FFF7B5FC08B171
:1055F00001205AE521686FF48060486120680168E5
:1056000021F48061016084F83D9084F83E6084F864
:105610003C60002049E5022047E52DE9F84F9A4615
:10562000154688460446FDF78FFF064694F83D0070
:1056300020287DD1B8F1000F32D08DB394F83C0012
:10564000012875D0012084F83C0020680168C90752
:1056500003D1016841F0010101602068016821F473
:1056600000610160222084F83D00202784F83E700C
:105670004FF00009C4F84090C4F824806585608D1F
:105680002085A448E0622068016841F480610160DF
:1056900053464A46A04920460096FFF75DFC08B1F4
:1056A000012002E520684D4641698069009024E0B0
:1056B000324651462046FFF734FDD0BB20680069D2
:1056C000616A0870606A401C6062218D491E89B25F
:1056D0002185628D521E628522685369DB435B0718
:1056E0000BD469B111690170606A401C6062208D41
:1056F000401E2085608D401E6085208D0028D7D1FA
:10570000D04624E02046FFF75DFB90B9FDF71CFF73
:10571000811B414502D8B8F1000F18D120684069BB
:10572000C043C00613D5204640F8305F477301E000
:1057300026E006E08573006940F02001216484F8CA
:105740003C502068016821F480610160A8E720686E
:105750004069C043C006D5D4206841690091016802
:1057600041F0010101602068016821F4806101605D
:1057700084F83D7084F83E5084F83C50002094E456
:10578000022092E478B50024009490F83D50202D3A
:105790004ED1624D46F2A8162D68B5FBF6F505EB25
:1057A000C50606EB051500956D1E009506D005682B
:1057B000AD69ED43AD070BD4009DF5E740F8304FE0
:1057C000202141738473016941F0200101612FE0C0
:1057D00090F83C50012D2BD0012580F83C500568F5
:1057E0002E68F60703D12E6846F001062E60056884
:1057F0002E6826F400662E60212580F83D50102585
:1058000080F83E50046442624385428D0285414ADD
:10581000C262416480F83C4001684A6842F4E06238
:105820004A600068016841F480710160002078BD21
:10583000022078BD78B50024009490F83D50202DCA
:1058400053D1364D46F2A8162D68B5FBF6F505EB9B
:10585000C50606EB051500956D1E009506D005687A
:10586000AD69ED43AD070BD4009DF5E740F8304F2F
:10587000202141738473016941F02001016134E00A
:1058800090F83C50012D30D0012580F83C5005683F
:105890002E68F60703D12E6846F001062E600568D3
:1058A0002E6826F400662E60222580F83D501025D3
:1058B00080F83E50046442624385428D0285154A59
:1058C000C262416480F83C4001684A6842F4E06288
:1058D0004A6001680A6842F480620A6000680168F0
:1058E00041F480710160002078BD022078BD10B5C0
:1058F00090F83D30202B3AD191B18AB190F83C30EC
:10590000012B34D0012380F83C3003681C68E40785
:1059100008D00BE00000FFFF02000100740200202D
:10592000012010BD1C6844F001041C6003681C6861
:1059300024F400641C60212380F83D30202380F88B
:105940003E300023036441624285418D0185FE495A
:10595000C16201680A6842F480620A6080F83C30E3
:105960000068416841F4E0614160002010BD022000
:1059700010BD10B590F83D30202B34D161B15AB133
:1059800090F83C30012B2ED0012380F83C30036886
:105990001C68E40702D005E0012010BD1C6844F03B
:1059A00001041C6003681C6824F400641C6022234A
:1059B00080F83D30202380F83E30002303644162AC
:1059C0004285418D0185E049C16201680A6842F45F
:1059D00080620A6080F83C300068416841F4E06110
:1059E0004160002010BD022010BD704710B5406A14
:1059F0000021426B02B19162826B02B19162026836
:105A0000136823F4806313604185202280F83D20D1
:105A100080F83E10016C41F010010164FFF7E5FFD2
:105A200010BD70477047704770472DE9F041446AD8
:105A300094F83D2094F83E50E16A2068436823F4CE
:105A400040734360636B002003B19862A36B03B1A2
:105A50009862212333EA02074FF022060CD036EA7F
:105A6000020701D1202D07D094F83E20002A21D032
:105A7000628D012A20D024E021684D6825F400655C
:105A80004D6060852820292A02D02A2A07D00CE000
:105A9000236384F83D002046FFF7C6FF05E0266338
:105AA00084F83D002046FFF7BEFF2068416841F4BE
:105AB00040714160BDE8F0812268136823F480637F
:105AC00013602268536823F44073536011F5803FDC
:105AD00006D0082904D0B1F12A4F01D0202904D1E1
