:020000040800F2
:10000000180C0020C90100080F2E00087D270008E9
:100010000D2E0008210400085938000800000000D7
:100020000000000000000000000000005333000842
:100030006704000800000000013200085533000882
:10004000E3010008E3010008E3010008E301000800
:10005000E3010008E3010008E3010008E3010008F0
:10006000E301000869040008E30100082504000812
:10007000E3010008E3010008E3010008310400087F
:10008000E3010008E3010008D1020008E3010008D1
:10009000E3010008E3010008E30100086F04000821
:1000A000E3010008E3010008E3010008E3010008A0
:1000B000E1330008ED330008E3010008E301000824
:1000C000E3010008E3010008E3010008E301000880
:1000D000E3010008413800084D380008E30100083A
:1000E000E3010008E3010008E301000800F002F862
:1000F00000F05AF80AA090E8000C82448344AAF168
:100100000107DA4501D100F04FF8AFF2090EBAE865
:100110000F0013F0010F18BFFB1A43F0010318473B
:10012000D8630000F86300000A444FF0000C10F898
:10013000013B13F0070408BF10F8014B1D1108BF65
:1001400010F8015B641E05D010F8016B641E01F805
:10015000016BF9D113F0080F1EBF10F8014BAD1C55
:100160000C1B09D16D1E58BF01F801CBFAD505E073
:1001700014F8016B01F8016B6D1EF9D59142D6D3CD
:10018000704700000023002400250026103A28BFF5
:1001900078C1FBD8520728BF30C148BF0B607047F9
:1001A0001FB51FBD10B510BD00F058F81146FFF780
:1001B000F7FF03F0B5FB00F076F803B4FFF7F2FFAA
:1001C00003BC00F07DF8000009488047094800475B
:1001D000FEE7FEE7FEE7FEE7FEE7FEE7FEE7FEE7F7
:1001E000FEE7FEE704480549054A064B7047000054
:1001F000DF330008ED00000818060020180C00206E
:1002000018080020180800204FF0000200B513461F
:1002100094469646203922BFA0E80C50A0E80C5026
:10022000B1F12001BFF4F7AF090728BFA0E80C50D7
:1002300048BF0CC05DF804EB890028BF40F8042BD0
:1002400008BF704748BF20F8022B11F0804F18BF3D
:1002500000F8012B7047704770477047754600F0F3
:100260002BF8AE4605006946534620F00700854648
:1002700018B020B5FFF7B6FFBDE820404FF00006EC
:100280004FF000074FF000084FF0000B21F007017E
:10029000AC46ACE8C009ACE8C009ACE8C009ACE8C1
:1002A000C0098D46704710B50446AFF30080204664
:1002B000BDE81040FFF781BF00487047B805002037
:1002C00001491820ABBEFEE726000200704700007F
:1002D000014800F0C0B900002403002070B50446B6
:1002E00000688168C943C90717D1816821F00101FD
:1002F000816000F041FE05460AE000BF00F03CFED0
:10030000401B022804D920688068C043C00706D07B
:1003100020688068C043C007F0D0002070BDA06A8C
:1003200040F01000A062E06A40F00100E0620120AD
:1003300070BD10B50146406A826A12F0500F05D0B8
:10034000006A026BBDE8104008461047816A41F41C
:100350000071816201688968C1F3424107290CD1AB
:10036000017B51B9816A21F480718162816AC9047B
:1003700003D4816A41F00101816200F069F910BD86
:1003800010B5406A816A41F040018162C16A41F062
:100390000401C16200F05EF910BD10B5406A00F0C2
:1003A00058F910BDF8B5002604460096006881682B
:1003B000C943C9072DD0816841F001018160164809
:1003C00016490068B0FBF1F000E0401E00900028E4
:1003D000FBD100F0D1FD054616E000BF00F0CCFDDA
:1003E000401B022810D920688068C043C0070BD08A
:1003F000A06A40F01000A062E06A40F00100E062F4
:1004000084F824600120F8BD20688068C043C007DC
:10041000E4D10020F8BD00007402002040420F002B
:10042000FEE70000014800F05BBB00005403002021
:10043000014800F055BB00007405002030B590F86D
:1004400040500124AC40C56B6C6004686360436835
:10045000102B036803D099600068C26030BD9A60B9
:100460000068C16030BD7047082000F07FBC2020CC
:1004700000F07CBC72B6FEE7F8B500250446009596
:1004800090F8240001280BD0012084F82400204695
:10049000FFF724FF2046FFF785FF060002D050E05B
:1004A0000220F8BDA06A20F4885040F00200A0624B
:1004B000022000F0ADFF25490968B1FBF0F04000D3
:1004C00000E0401E00900028FBD12068816841F0C8
:1004D0000801816000F050FD074608E000F04CFD87
:1004E000C01B0A2803D920688068000715D420683B
:1004F00080680007F2D42068816841F004018160BF
:1005000000F03AFD074612E000F036FDC01B0A2855
:100510000DD920688068400709D5A06A20F0020044
:1005200040F01000A06284F824500120F8BD20683B
:1005300080684007E8D4A06A20F0020040F0010083
:10054000A06284F824503046F8BD000074020020F8
:1005500070470000F8B50024009490F82420254648
:10056000012A12D0012280F824204A681F23072A7A
:100570000DD20668776B521E02EB820293409F43B6
:100580000B6893401F43776319E00220F8BD0668AB
:100590000D2A0AD2376BD21F02EB820293409F438F
:1005A0000B6893401F43376309E0F76A0D3A02EB8B
:1005B000820293409F430B6893401F43F7620A688F
:1005C000072306680A2A0AD3F7680A3A02EB4202AE
:1005D00093409F438B6893401F43F76008E037695F
:1005E00002EB420293409F438B6893401F43376165
:1005F0000A68102A01D0112A20D1124B02689A42AF
:1006000017D193681B0219D4936843F400039360D5
:100610000968102912D10C490C4A0968B1FBF2F1A2
:1006200001EB8101490000E0491E00910029FBD146
:1006300004E0816A41F020018162012480F82450A5
:100640002046F8BD002401407402002040420F0003
:1006500070477047704770B5044600680668456883
:10066000A90625D5B10723D5A16AC90603D4A16A75
:1006700041F40071A1628168C1F34241072910D1A0
:10068000217B71B9416821F020014160A06A20F40A
:100690008070A062A06AC00403D4A06A40F0010088
:1006A000A0622046FFF7D4FF21686FF012000860B7
:1006B00028062ED570072CD5A06AC00603D4A06AE0
:1006C00040F40050A06220688168C1F3023107291C
:1006D00009D04168490515D48168C1F34241072911
:1006E00010D1217B71B9416821F080014160A06A7D
:1006F00020F48050A062A06AC00503D4A06A40F034
:100700000100A0622046FFF723FF21686FF00C0074
:10071000086068060CD5F0070AD0A06A40F4803063
:10072000A062204600F094F821686FF00100086094
:1007300070BD00002DE9F0414FF0000704003D4678
:100740007ED0A06A002628B9E66284F8246020469C
:1007500000F080F82046FFF7C1FDA16AC90600D469
:1007600020B1A06A40F01000A06269E0A16A21F403
:10077000885141F00201A1626268E169237B0A436A
:1007800047EA43010A43A1684FF48077B94209D090
:10079000012907D05FF0000194F814C0BCF1010FEB
:1007A00002D00AE03946F7E7F3B1A36A43F0200329
:1007B000A362E36A43F00103E3622368D3F804C051
:1007C0002CF4694C4CEA010CC3F804C021688B6816
:1007D000DFF870C003EA0C0313438B60A168B942D1
:1007E0000BD0012909D00CE0DFF85CC0A3690CEB49
:1007F00043330B4343F40061DFE7218A0D05A5F580
:1008000080152168CB6A23F470032B43CB622168E7
:1008100089680E4B1940914208D1E662A16A21F025
:10082000020141F00101A162BDE8F081A06A20F05F
:10083000020040F01000A062E06A40F00100E062B7
:100840000120F1E7FDF7E1FF00E0FFFFFE0E1FFFD3
:100850007047000070B586B00025064600950195EA
:100860000295039500681E49884236D11D49886962
:1008700040F400708861886900F400700490886911
:1008800040F0040088618869694600F00400049023
:100890001020009003200190134800F073FA144CCC
:1008A0001248C4E900058020C4E90250800020619C
:1008B000800060612020C4E90605204600F0BAF9F6
:1008C00008B1FFF7D7FD34620022022112206662D0
:1008D00000F066FD122000F055FD06B070BD00006E
:1008E00000240140001002400008014008000240BE
:1008F000540300202DE9F047894604463B4900682F
:100900003B4F0E1D9046884201D0B84207D1306857
:1009100010F4702F03D001252846BDE8F08794F825
:10092000240001280CD0012084F824002046FFF781
:1009300039FD05004FF0000004D084F82400EBE7F7
:100940000220EAE7A16A40F60162914341F4807116
:10095000A1622168B94218D1326812F4702F14D004
:10096000A16A41F48011A1623168490505D5A16AE7
:1009700021F4005141F48051A162A16AC9040AD551
:10098000E16A21F00601E16206E0A26A22F4801227
:10099000A2624968E9E7E06284F82400216A154808
:1009A0008862216A1448C862216A14480863216871
:1009B0006FF0020008602068816841F480718160F6
:1009C000216843464A464C31206A00F061F92068AC
:1009D0008168C1F342410729816803D041F4801145
:1009E000816099E741F4A001FAE70000002401408A
:1009F00000280140330300089B030008810300081E
:100A000010B590F821100022022905D0042181633D
:100A100080F82020012010BD01680B6823F00E0330
:100A20000B6001680B6823F001030B6090F8403005
:100A3000C46B012101FA03F3636080F8211080F890
:100A40002020104610BD000010B590F821100024A1
:100A5000022903D00421816301243DE001680A6872
:100A600022F00E020A6001680A6822F001020A60A0
:100A70001A4A0168914201D1012121E0174A14323A
:100A8000914201D110211BE0144A2832914201D138
:100A9000891515E0114A3C32914201D189140FE0C9
:100AA0000E4A5032914202D14FF4803108E00B4A95
:100AB0006432914202D14FF4801101E04FF0807115
:100AC000064A083A5160012180F82110002180F87F
:100AD0002010416B01B18847204610BD080002403C
:100AE0002DE9F05FC16B0C6801680B68D0F840C05D
:100AF000042202FA0CF2494DDFF824A1494E4A4F74
:100B0000DFF828B1DFF828E122422CD05A072AD595
:100B10000A68920603D40A6822F004020A60016897
:100B2000A94201D1042219E0514501D1402215E02A
:100B3000B14202D14FF4806210E0B94202D14FF4C9
:100B400080420BE0594502D14FF4802206E0714506
:100B500002D14FF4800201E04FF080622F49083942
:100B60004A60C16A3BE04FF0020808FA0CF818EA44
:100B7000040F4FF000094FF0010235D05FEA83788F
:100B800032D50B689B0605D40B6823F00A030B6073
:100B900080F821200168A94201D1022219E05145C3
:100BA00001D1202215E0B14202D14FF4007210E0D1
:100BB000B94202D14FF400520BE0594502D14FF433
:100BC000003206E0714502D14FF4001201E04FF00F
:100BD0000072124908394A6080F82090816A002921
:100BE0001AD0BDE8F05F0847082505FA0CF5254244
:100BF00012D01B0710D50B6823F00E030B6090F882
:100C00004010C36B02FA01F15960826380F8212021
:100C100080F82090016BE2E7BDE8F09F08000240F9
:100C20001C000240300002404400024058000240D4
:100C30006C00024030B528B308C813491422194487
:100C4000B1FBF2F18900C163104981630221417750
:100C50001A6843F6F0718A43D0E900142143D0E9C1
:100C600002452C432143046921434469214384699B
:100C7000214311431960002141630122427701772A
:100C8000084630BD012030BDF8FFFDBF0000024026
:100C900070B5044690F82000002501280CD00120F2
:100CA00084F8200094F821600020012E06D084F8FA
:100CB00020000225284670BD022070BD022684F85F
:100CC0002160A0632068066826F0010606602046C1
:100CD000FFF7B4FBE06A00282068016802D041F009
:100CE0000E0106E021F0040101602068016841F076
:100CF0000A0101602068016841F001010160D9E743
:100D000070B5044600F038F90546601C02D004486E
:100D10000078044400F030F9401BA042FAD370BDC3
:100D20006802002070B540210D4800F01BF90D4C01
:100D3000012803D1E061E06B401CE0630A4D4FF4F1
:100D40000041284600F00EF9002808D1002229159C
:100D5000284600F00CF9208840F00400208070BD87
:100D60000008014090010020000C0140044910B52A
:100D70000A68024202D00860FFF7D4FF10BD0000ED
:100D8000140401402DE9F84FDFF8B8910024A9F1CF
:100D9000040B23460F2709F1040AABF1040EC9E046
:100DA0000125A5402A40AA427DD1674ED1F804C052
:100DB000ACEB0608B44532D014DCBCF1030F3AD0DA
:100DC00009DCBCF1000F2AD0BCF1010F1CD0BCF132
:100DD000020F31D11DE0BCF1110F17D0BCF1120F81
:100DE0002AD119E0B8F5881F19D006DCB8F5803F84
:100DF00015D0B8F5801F1FD111E0B8F5001F0ED037
:100E0000B8F5041F18D10AE0CB6815E0CB681B1DAC
:100E100012E0CB6808330FE0CB680C330CE08B6832
:100E20002BB1012B4FF0080303D0456104E00423EC
:100E300002E0056100E00023FF2A01D8064601E038
:100E400000F104064FEA840501D9A5F12005D6F882
:100E5000008007FA05FC28EA0C0803FA05F548EAC1
:100E60000508C6F800804D68ED0062D5374DAE69C3
:100E700046F00106AE61AD6924F0030605F00105F8
:100E80000095334D06EB050CDCF80850A607360F2D
:100E900007FA06F825EA0805DFF8B880404503D1CF
:100EA0004FF0000817E044E0DFF8AC80404502D185
:100EB0004FF001080FE0DFF8A480404502D14FF069
:100EC000020808E0DFF89880404502D14FF003089F
:100ED00001E04FF0040808FA06F848EA0508CCF8E3
:100EE00008804D68D9F80060ED024D4601D51643E3
:100EF00000E096432E604D68DAF80060AD0255467A
:100F000001D5164300E096432E604D68DBF8006083
:100F1000AD035D4601D5164300E096432E604D6853
:100F2000DEF80060ED03754601D5164300E09643F8
:100F30002E60641C0D682A46E5407FF431AFBDE8A1
:100F4000F88F00000804014000001110001002405A
:100F50000000014000080140000C01400010014069
:100F6000001401408068084000D0012070470AB199
:100F7000016170470904FBE7014880687047000081
:100F80006802002070B5040025D094F83D000025CB
:100F900020B984F83C50204600F050F9242084F811
:100FA0003D002068016821F00101016020680168AE
:100FB00041F4004101602068016821F400410160B2
:100FC00000F084FB4D4A6168914201D84C4900E031
:100FD0004C49884201D2012070BD4B492368B0FBC7
:100FE000F1F15E6826F03F060E435E60636893424F
:100FF00006D94FF4967359434FF47A73B1FBF3F16A
:101000002368491C1E6A26F03F0631431962616855
:10101000914210D84900401EB0FBF1F2521CC2F3BD
:101020000B02042A01D2042022E0B0FBF1F0401CA4
:10103000C0F30B001CE0A268F2B301EBC10303EBA9
:101040000116431EB3FBF6F35B1C43F480431B0500
:1010500049D092B301EBC10202EB0111401EB0FB7B
:10106000F1F0401CC0F30B0040F4804040F400401D
:101070002168CA694CF6FF739A431043C861D4E9EA
:10108000071001432068026822F0C002114301608A
:10109000D4E9030101432068826848F2FF339A4390
:1010A00011438160D4E9050108432168CA6822F030
:1010B000FF021043C86001E00EE016E020680168FE
:1010C00041F0010101602564202084F83D00256382
:1010D00084F83E50002070BD01EB4106431EB3FB77
:1010E000F6F35B1CB3E70120C2E701EB4101401EB0
:1010F000B0FBF1F0401CC0F30B00B7E7A086010085
:1011000080841E0000093D0040420F002DE9FF4F82
:1011100083B09A46DDE9119793460446DDF8408096
:10112000FFF72AFF054694F83D0020287FD11923B8
:10113000012240492046009501F0B8FB002876D1F5
:1011400094F83C00012872D0012084F83C0020680B
:101150000168C90703D1016841F0010101602068FD
:10116000016821F400610160212084F83D004020E5
:1011700084F83E0000262664C4F82480A4F82A904F
:10118000608D20852C48E062CDE9007553465A46B3
:101190002046049901F00AFB70B930E02A4639462E
:1011A000204601F029FC58B1206C042804D12068A5
:1011B000016841F400710160012007B0BDE8F08FC3
:1011C000606A216800780861606A401C6062218D55
:1011D000491E89B22185628D521E6285226853693B
:1011E000DB435B070BD469B100781061606A401C77
:1011F0006062208D401E2085608D401E6085208DA0
:101200000028CBD12A463946204601F023FB00288E
:10121000CAD154F83D0B016841F4007101602020EF
:1012200004F81E09E67766770020C6E7FFE702208C
:10123000C3E70000020010000000FFFF30B585B0DA
:10124000002100910191029103911E4D03681E4CF3
:10125000122103221D48AB4216D1A36943F00803B3
:10126000A361A369039203F008030493C023CDE9AB
:1012700000316946FFF786FDE06940F40010E06147
:10128000E06900F4001019E0114DAB4217D1A369D9
:1012900043F00803A361A369039203F008030493D6
:1012A0004FF44063CDE900316946FFF76BFDE0691B
:1012B00040F48000E061E06900F48000049005B033
:1012C00030BD00000054004000100240000C0140FE
:1012D00000580040024881680278114481607047DC
:1012E00068020020074810B5016841F01001016054
:1012F000032000F075F80A2000F006F800F024F84A
:10130000002010BD0020024070B50D4D04464FF482
:101310007A712878B1FBF0F00A490968B1FBF0F066
:1013200000F0E3FC48B9102C07D200222146501EE1
:1013300000F036F800206C6070BD012070BD000028
:1013400068020020740200200C4808B5816941F051
:1013500001018161816901F001010091C16941F0E0
:101360008051C161C06900F080500090044841681C
:1013700021F0E06141F00071416008BD00100240C1
:1013800000000140002809DB00F01F02012191400C
:101390004009800000F1E020C0F800117047000013
:1013A000F0B40E4B1B680C46C3F30223C3F10705D0
:1013B000042D00D90425191D072901D2002300E0BE
:1013C000DB1E012606FA05F1491E214099409E4088
:1013D000761E16403143F0BC02F03FBA0CED00E03F
:1013E000064900F0070208684FF6FF03184040EA7C
:1013F0000220034A10430860704700000CED00E033
:101400000000FA05014901200862704700000E4201
:1014100010B501460020234C012922D0022939D0E1
:1014200010291DD161682268D20119D51E48C1F367
:101430008342C903805C0AD561681B4AC1F34041FD
:10144000921E515C194AB2FBF1F1484301E0184980
:1014500048436168490203D440000321B0FBF1F026
:1014600010BD226AC2F30121012903D1920701D5DF
:10147000C80310BD022905D1626A920702D549F658
:10148000404010BD0329FCD121688903F9D54FF2F2
:10149000244010BD00F02AF96168C1F38131491C74
:1014A0004900DBE700100240CE64000800127A0019
:1014B00000093D002DE9F84305460078354CC0078A
:1014C00054D0E0690026C00008D4E06940F08050A4
:1014D000E061E069012600F0805000902E4801682C
:1014E000C90512D40168804641F480710160FFF79C
:1014F00043FD074605E000BFFFF73EFDC01B642823
:1015000023D8D8F80000C005F6D5206A10F4407042
:1015100021D0A98801F4407181421CD0206A1F4962
:10152000012220F440700A6000220A602062C00795
:1015300011D0FFF721FD074641F2883808E000BFCF
:10154000FFF71AFDC11B414502D90320BDE8F8830E
:10155000206A8007F4D5206A696820F44070084347
:1015600020621EB1E06920F08050E0612878800799
:1015700005D56068A96820F4404008436060287879
:10158000C00605D56068E96820F480000843606003
:101590000020DBE70010024000700040400442429F
:1015A0002DE9F0470F46050061D0434E306800F04A
:1015B0000700B84209D2306820F007003843306095
:1015C000306800F00700B84251D128683B4C8107D1
:1015D00012D5400703D5606840F4E0606060287869
:1015E000000703D5606840F4605060606068A968D7
:1015F00020F0F000084360602878C00728D06868B1
:10160000012810D02168022810D0890700292EDA7D
:10161000616821F0030101436160FFF7ADFC804682
:1016200041F288390DE021688903EFE78901EDE790
:10163000FFF7A2FCA0EB0801494502D90320BDE851
:10164000F0876068696800F00C00B0EB810FEFD1A3
:10165000306800F00700B8420BD9306820F007006E
:1016600038433060306800F00700B84201D00120F4
:10167000E5E72878400705D56068E96820F4E06070
:10168000084360602878000706D56068296920F45F
:10169000605040EAC100606000F038F86168084AB4
:1016A000C1F30311515CC840064908600648006850
:1016B000FFF72AFE0020C2E700200240001002408F
:1016C000DE640008740200206C0200200448054912
:1016D00000684968044AC1F30221515CC840704760
:1016E0007402002000100240EE640008044805491E
:1016F00000684968044AC1F3C221515CC840704780
:101700007402002000100240EE6400080E4A516886
:101710000E4801F00C03042B11D0082B0FD10C48FC
:10172000C1F38343C903C05C0AD55168084AC1F3B9
:101730004041921E515C054A5043B0FBF1F07047A6
:1017400004494843704700000010024000127A002C
:10175000BC64000800093D002DE9F84F040070D07A
:101760002078C04DC00749D06868C0F381000128C7
:1017700007D06868C0F38100022809D16868C003F7
:1017800006D52868800339D560680028E7D035E0A1
:101790006068B0F5803F0BD010B1B0F5A02F11D02C
:1017A000286820F480302860286820F4802002E037
:1017B000286840F480302860606890B1FFF7DCFB57
:1017C00006460AE0286840F480202860F0E700BF61
:1017D000FFF7D2FB801B642873D828688003F7D5F5
:1017E0000CE0FFF7C9FB064605E000BFFFF7C4FBAE
:1017F000801B6428F0D828688003F7D420789A4E9C
:1018000080074FF001094FF0000839D5686810F0E3
:101810000C0F07D06868C0F38100022809D16868FE
:10182000C00306D42868800714D52069012808D190
:1018300010E02069B0B1C6F80090FFF79DFB0746A5
:1018400005E00AE1FFF798FBC01B0228C4D828680E
:101850008007F7D52868616920F0F80040EAC100E8
:1018600028600DE0C6F80080FFF786FB074604E01D
:10187000FFF782FBC01B022823D828688007F7D413
:10188000207800072CD57948A169D9B1C0F800901B
:10189000FFF772FB074604E0FFF76EFBC01B022850
:1018A0000FD8686A8007F7D571484FF4FA5100687D
:1018B000B0FBF1F0009000BF0098411E0091FAD2F9
:1018C0000EE080E0C0F80080FFF756FB074604E01A
:1018D000FFF752FBC01B022875D8686A8007F7D44F
:1018E0002078400760D5E8690027C00008D4E8697F
:1018F00040F08050E861E869012700F080500090D6
:101900005C480168C90513D40168834641F48071BD
:101910000160FFF731FB824606E000BFFFF72CFBBA
:10192000A0EB0A0064284ED8DBF80000C005F5D50E
:10193000E06801280AD008B1052813D0286A20F0F1
:1019400001002862286A20F0040002E0286A40F0C2
:1019500001002862E06841F2883B98B1FFF70CFB78
:1019600082460BE0286A40F004002862EEE700BFE0
:10197000FFF702FBA0EB0A0159455AD8286A8007F5
:10198000F6D50CE0FFF7F8FA824605E0FFF7F4FA27
:10199000A0EB0A0159454CD8286A8007F6D41FB13C
:1019A000E86920F08050E861E06988B36968C1F3B4
:1019B0008101022944D00228C6F8608004D0FFF7D4
:1019C000DBFA044638E034E0FFF7D6FA074604E0D5
:1019D000FFF7D2FAC01B02282BD828688001F7D461
:1019E000206AB0F5803F05D16868A16820F4003016
:1019F00008436860D4E908010843696821F4741158
:101A000008436860C6F86090FFF7B6FA044606E03F
:101A100025E000BFFFF7B0FA001B022809D82868AC
:101A20008001F7D51BE000BFFFF7A6FA001B0228D4
:101A300002D90320BDE8F88F28688001F4D40EE0B5
:101A40000128F7D06868226A00F48031914204D1FD
:101A5000616A00F47010884201D00120EAE700209A
:101A6000E8E70000001002400000424280044242C9
:101A7000740200200070004070B5040003D0607C48
:101A8000002610B105E0012070BD2674204600F04C
:101A90003DF802206074204600F00AF9042550BB8E
:101AA000204601F0B7FB30BB2068416821F00701F8
:101AB0004160A06820B11448016821F00101016073
:101AC0001148001F0168A26821F460711143016090
:101AD0006068411C04D10120FFF79AFC58B1401EF8
:101AE0002268C0F303419160216880B2C86020463B
:101AF00001F0AAFB08B16574C5E7E67301206073C5
:101B0000A0736074002070BD306C004008B50068A0
:101B1000084988420DD1FFF775FC0748C16941F0BB
:101B20000061C161C069054900F0006000900120BA
:101B3000086008BD00280040001002403C044242FA
:101B40002DE9F0410D4604003BD0C5B3207C0128AF
:101B50003AD04FF0010884F8108002206074E878D1
:101B600072B301F04EFBE073687801F04AFB6073DA
:101B7000A87801F046FBA073C2B2617BE07B01F064
:101B800095FB20732870204601F080FB4FF46161C3
:101B9000B0FBF1F1002518292DD91822B1FBF2F183
:101BA000A1EB011101EB4101C1EB011100EBC116E9
:101BB0003146204601F0B9FB0427C8B90BE000E02C
:101BC00004E00120BDE8F0810220FBE7E0736878C3
:101BD0006073A878CFE7204601F051FB411C0AD082
:101BE000B04208D206490144204601F08AFB10B1F8
:101BF00067742574E5E784F8118025740020E1E717
:101C0000805101002DE9F0410D46040024D01DB3A0
:101C1000207C012823D04FF0010884F81080022096
:101C200060742878EAB101F0ECFA4FF4616100FBCE
:101C300001F6687801F0E5FAC0EB001006EB8006CB
:101C4000A87801F0DEFA35182946204601F06DFB30
:101C50000026042710BB0FE00120BDE8F081022020
:101C6000FBE74FF4616148436978C1EB011100EB78
:101C70008100A9784518E7E72068416821F005014F
:101C80004160204601F0FBFA411C0AD0A84208D26C
:101C900006490144204601F034FB10B167742674F4
:101CA000DAE784F8118026740020D6E7805101001D
:101CB00070B504000AD02068416821F00801416035
:101CC000FFF75AF905464FF47A7608E0012070BD17
:101CD000FFF752F9401BB04201D9032070BD2068C4
:101CE00040680007F4D5002070BD10B5401EB0F16B
:101CF000807F01D3012010BD4FF0E02460610F21EF
:101D0000601701F0AAFD0020A061072020610020DB
:101D100010BD70477047000070B590F83C20012A54
:101D200026D0012480F83C40022280F83D20036840
:101D30005A689D6822F070060A6832435A600D4B5B
:101D400002689A4208D0B2F1804F05D00A4B9A42FD
:101D500002D00A4B9A4204D1496825F08003194306
:101D6000916080F83D40002180F83C10084670BD2D
:101D7000022070BD002C014000040040000800401B
:101D800010B5040003D094F83D0010B107E0012025
:101D900010BD002084F83C00204600F01FF802200F
:101DA00084F83D00211D206801F026FB012084F805
:101DB000460084F83E0084F83F0084F8400084F830
:101DC000410084F8420084F8430084F8440084F819
:101DD000450084F83D00002010BD000008B50168F2
:101DE0001448B1F1804F14D0134A914220D1C169F7
:101DF00041F00201C161C069002200F002000090C0
:101E000011461D20FFF7CCFA1D20BDE80840FFF762
:101E1000B9BAC16941F00101C161C069002200F095
:101E20000100009011461C20FFF7BAFA1C20ECE7D5
:101E300008BD0000001002400004004090F83D1072
:101E4000012901D001207047022180F83D1001686E
:101E5000CA6842F00102CA6000680B49884208D093
:101E6000B0F1804F05D00949884202D00849884224
:101E700004D1816801F00701062903D0016841F00F
:101E80000101016000207047002C01400004004067
:101E90000008004070B5044690F83C000025012879
:101EA00017D0012684F83C60022084F83D002068A9
:101EB000826822F0770222F47F428260086850280C
:101EC00038D00DDC20284FD005DC90B3102811D17C
:101ED0004AE0022070BD302846D040280AD13BE0BD
:101EE00060282FD070280DD0B0F5805F03D0B0F5FA
:101EF000005F12D0012584F83D60002084F83C008A
:101F0000284670BDCB68D1E90121206801F0AAFA0A
:101F10002068816841F0770109E0CB68D1E90121AF
:101F2000206801F09FFA2068816841F48041816057
:101F3000E1E719E0CA684968206801F0A5FA502174
:101F4000206806E0CA684968206801F0AEFA60219E
:101F5000206801F091FACEE7CA684968206801F06C
:101F600093FA40212068F4E7226801461046F0E722
:101F7000704770B50446006801694FF00005C94319
:101F8000890715D4C168C943890711D4E91E0161C5
:101F900001202077206880698007204602D0FFF763
:101FA000E7FF04E000F098F8204600F096F8257767
:101FB00020680169C943490717D4C168C943490763
:101FC00013D46FF00401016102202077206880693A
:101FD00010F4407F204602D0FFF7CAFF04E000F073
:101FE0007BF8204600F079F8257720680169C9431D
:101FF000090716D4C168C943090712D46FF0080154
:102000000161042020772068C0698007204602D043
:10201000FFF7AEFF04E000F05FF8204600F05DF847
:10202000257720680169C943C90617D4C168C94327
:10203000C90613D46FF010010161082020772068D1
:10204000C06910F4407F204602D0FFF791FF04E002
:1020500000F042F8204600F040F82577206801693A
:10206000C943C90708D1C168C943C90704D1891E3A
:102070000161204600F032F820680169C943090671
:1020800009D4C168C943090605D46FF08001016114
:102090002046FFF73EFE20680169C943490609D47E
:1020A000C168C943490605D46FF04001016120466B
:1020B00000F05AF820680169C94389060BD4C16849
:1020C000C943890607D46FF0200101612046BDE8AD
:1020D0007040FFF71FBE70BD7047704770B51F4C52
:1020E0001F4B0025A16A491CA16202681B689A4225
:1020F0001DD1A388E288D34219D0491C03EB831376
:10210000A1628B4202D12562A580A56202EB8211F9
:10211000A26A914203D101212162E580A562A188D2
:10212000E2881144A289914201D0A562A1810D49A2
:102130000068096888420FD1A06B401CA063022888
:102140000AD1E16B91FBF0F003F00CF92063012060
:1021500002F000F8E563A56370BD00009001002067
:10216000540400209C040020704738B5044690F8C1
:102170004200202801D0022038BD61B15AB10120AF
:10218000206300206063204601F012FB0028F3D199
:10219000216B012901D0012038BD21680A684968F6
:1021A000009121680C3151E8002F42F0100241E803
:1021B0000023002BF5D138BD38B51549884226D10A
:1021C000144CD4E9100102F075FDE082D4E9140149
:1021D00002F070FD208304F15800A0F10803A0F183
:1021E0001002A0F1180100900B4800F023FA2080A3
:1021F00032210948FEF708F8182207490448FFF77A
:10220000B4FF06480068016821F00401016038BD90
:10221000E404002090010020F0020020740500205A
:1022200010B50068074988420AD1182206490748B4
:10223000FFF79BFF06480068016821F00401016078
:1022400010BD000000440040F0020020E404002023
:1022500074050020F8B5016804460868CA684B692F
:1022600010F00F0F4FF0000559D003F0010602F4F3
:102270009077374365D0C10705D0D10503D5616C90
:1022800041F001016164410705D5D90703D0616CB4
:1022900041F002016164810705D5D90703D0616C63
:1022A00041F004016164010707D502F020013143C8
:1022B00003D0616C41F008016164616C00293AD07F
:1022C000800604D5900602D5204601F0B4F92068B6
:1022D0004069616CC0F38010090700D460B32046E8
:1022E00001F074F920684069400621D52068143057
:1022F00050E8001F21F0400140E80012002AF5D10B
:10230000E06BA8B16D494163E06BFEF79DFB0028CF
:1023100011D0E06B416B01B0BDE8F0400847830687
:102320000FD593060DD52046BDE8F84001F083B9DE
:102330002046FFF775FFF8BD2046FFF771FF656483
:10234000F8BD266B2023012E7CD1C6067AD5D60691
:1023500078D508684868009048694FF00206400642
:1023600040D5E16B086840680004000CE8D0A28DFD
:102370008242E5D9E085886920282DD020680C307C
:1023800050E8001F21F4807140E80012002AF5D1C6
:102390002068143050E8001F21F0010140E80012CD
:1023A000002AF5D12068143050E8001F21F04001C8
:1023B00040E80012002AF5D184F8423025632068F5
:1023C0000C3050E8001F21F0100140E80012002AF4
:1023D000F5D1E06BFEF714FB6663A08DE18D401A2A
:1023E00081B22AE0A08DE18D401A81B2E08D0028F3
:1023F000A6D00029A4D022680C3252E8000F20F4A5
:10240000907042E80007002FF5D12068143050E8A2
:10241000002F22F0010240E80027002FF5D184F8B8
:102420004230256320680C3050E8002F22F0100263
:1024300040E80023002BF5D166632046FFF7BCFE81
:10244000F8BDFFE705062BD5150629D594F8410000
:102450002128F5D1A068B0F5805F01D12069B0B125
:10246000206A411C2162216800784860E08C401E8F
:102470000004000CE084E3D12068C16821F08001F1
:10248000C1602068C16841F04001C160D8E7206A9E
:102490000088C0F308004860206A801C2062E5E7DD
:1024A0004006CDD55006CBD5CA68204622F0400262
:1024B000CA6084F8413000F0BBF8C1E7CF340008AF
:1024C00070B5040004D094F84100002510B106E076
:1024D000012070BD84F84050204600F023F82420ED
:1024E00084F841002068C16821F40051C160204691
:1024F00001F002F92068016921F49041016120682E
:10250000416921F02A0141612068C16841F400510C
:10251000C1606564202084F8410084F8420065634E
:10252000002070BDF0B585B00024009401940294A1
:1025300003940646374F0368374902200322374D7C
:10254000BB423AD18B6943F480438B618B6903F4BE
:10255000804304938B6943F004038B618969039280
:1025600001F0040104910102CDE9001069462846FA
:10257000FEF708FC2815CDE90004694628460294B8
:10258000FEF700FC274D2648C5E900048020C5E978
:1025900002402C6180016C61C5E906402846FEF7C7
:1025A00049FB08B1FDF766FFF563002211462520BF
:1025B0006E62FEF7F5FE252028E01B4EB34227D1C0
:1025C000CB6943F40033CB61CB6903F4003304934C
:1025D0008B6943F004038B618969039201F0040164
:1025E00004910421CDE9001069462846FEF7CAFB94
:1025F0000820CDE90004694628460294FEF7C2FB94
:10260000002211462620FEF7CBFE2620FEF7BAFE5A
:1026100005B0F0BD00380140001002400008014044
:102620005800024074050020004400407047704785
:10263000704700002DE9F05F0027044600788A46C5
:102640009846934639463E46B9463D46AA286ED03E
:102650000220225C401CC0B211441728F9D3C8B232
:10266000E17D88427ED1A078E178000400EB012072
:102670002179A27901446079000400EB0220E2791B
:102680001044B1FBF0F002F042FB384A384B02F044
:102690008DFBCAE90001207A617A000400EB012079
:1026A000A17A227B0144E07A000400EB0220627BE5
:1026B0001044B1FBF0F002F02AFBCBE900012078D6
:1026C000F02835D9F12800D1012500221146C8F89B
:1026D000002000BFC8F80410207D00F080014945AB
:1026E00000D0761C617D300400EB0120A17D4418F0
:1026F000384602F00CFB1D4A1D4B02F057FB024608
:102700000B464FF045401B4902F07CF902F0D2FA2B
:1027100042F210714C43B4FBF0F002F0F8FA0022E0
:10272000154B02F06FF90A9AC2E900011AE018E0AD
:10273000A07BE17B000400EB0120217C4718607C3A
:10274000A17C000400EB0120E17C0844B7FBF0F021
:1027500002F0DDFA054A064B02F028FBC8F800003B
:10276000B8E702252846BDE8F09F00003F355EBA75
:10277000490C084085318A420088C340FEE7016861
:102780004A69D24352050FD46FF480624A61002136
:1027900040F8301F202242738173026942F0040224
:1027A0000261017301207047002070472DE9F84352
:1027B000044600680D46DDE908970168984616460C
:1027C00041F4807101604B4600224FF00111204618
:1027D000009700F06BF848B120680068C00502D58A
:1027E0004FF4007020640320BDE8F883216805F0F1
:1027F000FE0008613B464A461549204600F09EF817
:1028000088B920684169806900903A464946204667
:1028100000F0F2F848B1206C042804D12068016867
:1028200041F4007101600120DEE7F5B2B8F1010F5B
:1028300009D02168300A08613A464946204600F02E
:10284000DBF80028E7D1206805610020CCE7000014
:102850000200010070B516460D4604461EE02046F3
:10286000FFF78DFF08B1012070BD681C16D0FEF780
:1028700083FB801BA84200D885B920684069C0430B
:1028800040070BD5002044F8300F20216173A0735E
:10289000216941F0200121612073E4E7206840694B
:1028A000C0434007DBD4002070BD00002DE9F04795
:1028B000984617460D460446C1F30746DDF82090BA
:1028C0002AE000BFB8F1FF3F26D0FEF755FBA0EB92
:1028D0000901414502D8B8F1000F1DD12068012E31
:1028E00016D0806925EA00000004000C12D00020F8
:1028F000B84211D1002044F8300F20216173A07339
:10290000216941F02001216120730120BDE8F08799
:102910004069E7E70120EBE72068012E0AD08069D3
:1029200025EA00000004000C06D00020B842C9D0FF
:102930000020EBE74069F3E70120F7E72DE9F047D6
:10294000984616460D4604464FF000094FF0200AFF
:10295000C1F3074723E020684069C043400515D410
:102960002068016841F40071016021686FF48060A3
:102970004861C4F8309084F83DA084F83E90216C02
:1029800041F00401216484F83C9021E0701C06D0E1
:10299000FEF7F2FAA0EB0800B04203D816B1012FFF
:1029A0001FD021E02068012F15D0806925EA0000A2
:1029B0000004000C18D000BF44F8309F84F80DA02C
:1029C00084F80E90216941F02001216184F80C9077
:1029D0000120BDE8F087406925EA00000004000CF2
:1029E000EAD12068406901E02068806925EA00009A
:1029F0000004000CAFD1ECE770B516460D46044656
:102A00001EE02046FFF7BBFE08B1012070BD681C28
:102A100016D0FEF7B1FA801BA84200D885B920680D
:102A20004069C04300060BD5002044F8300F202138
:102A30006173A073216941F0200121612073E4E7F3
:102A400020684069C0430006DBD4002070BD000050
:102A50003EB500211C48009101911A4A0291026082
:102A60009215826001240473017503254FF46022DE
:102A70000561C2614160FDF75DFE08B1FDF7FAFC3A
:102A80000420CDE9000469460F480294FDF762FD79
:102A900008B1FDF7EFFC102000900220019069467C
:102AA0000948FDF757FD08B1FDF7E4FC1120CDE919
:102AB000000569460448FDF74DFD002801D0FDF7EB
:102AC000D9FC3EBD00240140240300200D4808B578
:102AD000416941F0010141614069002200F00100BB
:102AE000009011460B20FEF75BFC0B20FEF74AFC22
:102AF000002211460F20FEF753FCBDE808400F20CE
:102B0000FEF740BC001002402DE9F04786B00024DB
:102B10003D480094019402940394816941F01001AE
:102B20008161816901F010010491816941F0200106
:102B30008161816901F020010491816941F0040102
:102B40008161816901F004010491816941F008010A
:102B500081618069DFF8B49000F008004FF40068EC
:102B60000490002241464846FEF701FADFF8A0A093
:102B7000002210215046FEF7FAF9264F2020CDE919
:102B800000070225694602954846FEF7FBF88020BB
:102B900001268DE8510069464846FEF7F3F841F2F8
:102BA00003008DE8510069465046FEF7EBF8CDE989
:102BB000008669464846CDE90245FEF7E3F808205D
:102BC000CDE90007694602945046FEF7DBF8102075
:102BD0000090CDE90165694650460395FEF7D2F8AD
:102BE000002211460920FEF7DBFB0920FEF7CAFB95
:102BF000002211461720FEF7D3FB1720FEF7C2FB79
:102C000006B0BDE8F0870000001002400008014057
:102C1000000C0140000011100D4810B50B49016077
:102C20000C49416000214FF480428160C0E90312E9
:102C300041618161C1610162FEF7A4F9002803D0FE
:102C4000BDE81040FDF716BC10BD00000058004064
:102C5000EC03002030E602001CB500241A48019461
:102C6000184900940160611E41604FF480718160D9
:102C7000FEF702FF08B1FDF7FDFB12208DF80400FE
:102C80008DF805008DF80640012201A90E48FEF7D7
:102C9000B9FF08B1FDF7EEFB8DF8004011208DF86B
:102CA000010029208DF8020023208DF80300012265
:102CB00069460548FEF744FF002801D0FDF7DAFB1E
:102CC0001CBD0000002800404004002010B586B064
:102CD00000241748009401940294039404944FF044
:102CE0008041059401604FF6FF71C0E901144EF672
:102CF0005F21C0E903148461FFF742F808B1FDF7D2
:102D0000B9FB4FF48050009069460948FFF7C2F8BC
:102D100008B1FDF7AFFB049404A905480594FEF73C
:102D2000FBFF002801D0FDF7A5FB06B010BD000099
:102D30005404002010B586B0002417480094019474
:102D400002940394049413490594016041F61F41D1
:102D5000C0E9011441F28731C0E903148461FFF72F
:102D60000FF808B1FDF786FB4FF4805000906946DC
:102D70000948FFF78FF808B1FDF77CFB049404A91C
:102D800005480594FEF7C8FF002801D0FDF772FB47
:102D900006B010BD000400409C0400200C4810B593
:102DA0000A4901604FF4965141600021816004227C
:102DB000C160C0E904128161C161FFF781FB002895
:102DC00003D0BDE81040FDF755BB10BD00380140F1
:102DD000E40400200C4810B50A4901604FF4E131C9
:102DE0004160002181600C22C160C0E90412816150
:102DF000C161FFF765FB002803D0BDE81040FDF777
:102E000039BB10BD004400402C050020FEE7FEE762
:102E100070B5002404F1B000C0B200F0CDF900207C
:102E200000F0CAF9102000F0C7F90025002000F0DA
:102E3000D5F96D1CEDB2802DF8D3641CE4B2082CDA
:102E4000E8D370BD2DE9F05F9846DDE90A9A174690
:102E5000834600240D4615E02946584600F026F822
:102E60005E460BE019F80400BAF1000F01D0C04330
:102E7000C0B2641C00F0B2F9761CF6B2BE42F1D3C7
:102E80006D1CEDB24545E7D3BDE8F09F70B5C82095
:102E9000FDF736FF044D0024285D00F08DF9641C19
:102EA000E4B2172CF8D370BD0000002010B5044622
:102EB000B031C8B200F080F9102040EA141000F0E0
:102EC0007BF904F00F00BDE8104000F075B9000078
:102ED0002DE9F0411E4615460F4680460024FFF7B7
:102EE000E5FF114905EB450001EBC005285D0EB17A
:102EF000C043C0B200F072F9641CE4B20C2CF5D3EC
:102F00007F1CF9B24046FFF7D1FF002405EB040017
:102F1000007B0EB1C043C0B200F060F9641CE4B2A3
:102F20000C2CF3D3BDE8F0815A5E00082DE9F04780
:102F3000203A0024089E0F468146D5B27F2803D947
:102F400000208F1C8146FFB2102B394612D0FFF7AC
:102F5000ADFF1B4905EB450001EB4005285D0EB1B7
:102F6000C043C0B200F03AF9641CE4B2062CF5D3B9
:102F7000BDE8F087FFF79AFFDFF8488004EB051102
:102F800018F801000EB1C043C0B200F027F9641C6C
:102F9000E4B2082CF2D37F1CF9B24846FFF786FF53
:102FA0000024474604EB05103844007A0EB1C043B4
:102FB000C0B200F013F9641CE4B2082CF2D3D7E7D6
:102FC000525600087A5800082DE9FF4F81B00026BC
:102FD000DDE90EA91D469346804634464FEA5A075E
:102FE00027E0281B401EC1B20A2001F0B9F8BBFB44
:102FF000F0F00A21B0FBF1F201FB120026B9691EC4
:103000008C4201DA48B101263030C2B207FB04809D
:10301000C0B25346CDF8009006E007FB0480C0B272
:1030200053462022CDF800900299FFF77FFF641CE1
:10303000E4B2AC42D5D305B0BDE8F08F2DE9F8433A
:103040001E461746894604460025DDF8208014E018
:10305000334649462046CDF80080FFF767FF0C2E27
:1030600010D00834E4B27A2C01D90C2E0CD0782C74
:1030700001D9102E08D06D1CEDB27A5D002AE7D17F
:10308000BDE8F883A41DEDE709F10100002400F07C
:10309000FF09F0E72DE9FF4F83B08146DDF840B02E
:1030A000129F1C4690464FF0000A104612F1FF4F47
:1030B00006D35C1C88F00040E4B24FF0010A804661
:1030C00002F034F9019011980025460828E0601BB1
:1030D000401EC1B20A2001F043F80199B1FBF0F1A2
:1030E0000A20B1FBF0F200FB1210029929B9611E0F
:1030F0008D4202DA48B1012102913030C2B206FBA2
:103100000590C0B20097119B05E006FB0590119B4E
:10311000C0B2009720220499FFF708FF6D1CEDB2A2
:10312000A542D4D306FB0490C0B200972E22119B77
:103130000499FFF7FBFE59460A2001F011F802F04E
:1031400029F90546019802F00DF9414602F002FA0C
:10315000294602F033F902F0E9F8804600251CE028
:10316000ABEB0500401EC1B20A2000F0F9FFB8FB2E
:10317000F0F10A20B1FBF0F200FB12112A1909F15B
:10318000050006FB02003031CAB2C0B20097119BA5
:103190000499FFF7CBFE6D1CEDB25D45E0D3BAF1AB
:1031A000000F06D000972D224846119B0499FFF787
:1031B000BDFE07B0BDE8F08F01B584B001214FF42A
:1031C000807204A88DE807000B460022782102488F
:1031D000FDF79CFF05B000BD9803002001B584B049
:1031E00001214FF4807204A88DE807000B464022AD
:1031F00078210248FDF78AFF05B000BD9803002042
:103200007047010901EB810100F00F0000EB410064
:10321000C0B2704770B50446FDF7AEFE05464FF4E8
:103220007A7606E0FDF7A8FE401BB04201D90320E4
:1032300070BD206840688006F4D52068416841F080
:1032400010014160002070BD70B5044600684168FF
:1032500021F010014160FDF78FFE05464FF47A76AC
:1032600007E000BFFDF788FE401BB04201D90320F4
:1032700070BD206840688006F4D5002070BD0168EC
:10328000086A496A89B241EA00407047006881696A
:103290008AB2C1698BB2816989B28A4203D0C0699E
:1032A00061F31F40704743EA02407047F0B5642461
:1032B000C1EBC1030927A500072603EB011303296E
:1032C000B3FBF7F100F5FA60114401440AD2401E45
:1032D000B0FBF4F201EB9001B0FBF5F0891A084461
:1032E000001D08E0B0FBF4F201EB9001B0FBF5F03B
:1032F000891A0844801CB0FBF6F106FB1100C0B22D
:10330000F0BD70B50D4606460024FFF783FF48B9AF
:103310003168280C08623168A8B248623046FFF76D
:1033200093FF00B10124204670BD70B50D460646DE
:103330000024FFF76FFF48B93168280C88613168B5
:10334000A8B2C8613046FFF77FFF00B101242046D4
:1033500070BD7047FDF7BEBF30B593B028216846F9
:10336000FCF752FF14210AA8FCF74EFF00240F942B
:10337000109411940D204FF4803112948DE81300B5
:1033800001200225CDE90605039004904FF4E010DA
:10339000CDE908106846FEF7DFF908B172B6FEE71E
:1033A0000F20CDE90A054FF48060CDE90C400221E1
:1033B0000AA80E94FEF7F4F808B172B6FEE70320EF
:1033C0000F904FF480701090C00111900FA8FEF77D
:1033D00071F8002801D072B6FEE713B030BD704717
:1033E0000148FEF7C6BD0000540400200148FEF766
:1033F000C0BD00009C040020F0B50268164B174CBD
:10340000174D4FF08047984205D0B84203D0A042F4
:1034100001D0A84203D122F070064A683243984294
:1034200005D0B84203D0A04201D0A84203D122F473
:103430004074CA6822434C6922F080022243026031
:103440008A68C2620A688262984201D1096901638E
:1034500001214161F0BD0000002C0140000400404A
:103460000008004010B5846842EA032224F47F4437
:103470000A432243826010BD826822F070020A4330
:1034800042F007018160704710B5036A046A24F0B6
:1034900001040462846924F0F00444EA021423F075
:1034A0000A020A438461026210BD10B5036A046A0D
:1034B00024F010040462846923F0A00324F470440F
:1034C00044EA023243EA01118261016210BD10B583
:1034D000406A0021C185C184FEF7A2FE10BD70B50F
:1034E000446A2068406994F84110C0F3C010002578
:1034F000212904D118B1E584204600F08EF8206817
:10350000406994F84210C0F38010222904D118B108
:10351000E585204600F05AF8606C40F010006064C9
:103520002046FEF77DFE70BD10B50146406A096871
:1035300009684FF0000289062ED4C28501680C315B
:1035400051E8003F23F4807341E80034002CF5D1AA
:103550000168143151E8003F23F0010341E80034D1
:10356000002CF5D10168143151E8003F23F04003ED
:1035700041E80034002CF5D1202180F84210016B85
:10358000012909D101680C3151E8003F23F01003F3
:1035900041E80034002CF5D14263016B012902D0CF
:1035A000FFF744F810BD818DFEF706FE10BD10B583
:1035B000406A01214163016B012902D0FFF737F80E
:1035C00010BD818D4908FEF7F7FD10BD01680C3173
:1035D00051E8002F22F4907241E80023002BF5D12E
:1035E0000168143151E8002F22F0010241E8002364
:1035F000002BF5D1016B012909D101680C3151E88B
:10360000002F22F0100241E80023002BF5D12021E9
:1036100080F8421000210163704701680C3151E8C5
:10362000002F22F0C00241E80023002BF5D1202119
:1036300080F84110704708B590F84210222901D057
:10364000022008BD82684FF480539A4201D101697B
:1036500021B1816A9A421BD04AB10AE00268816AAC
:103660005268C2F308020A80816A891C08E0026974
:1036700072B10268526802F07F020A70816A491CC6
:103680008162C18D491E0904090CC18503D01BE06C
:1036900002685268F1E70168CA6822F02002CA6035
:1036A0000168CA6822F48072CA6001684A6922F01F
:1036B00001024A61202180F8421000214163026B1F
:1036C000012A03D0FEF7B2FF002008BD01630168A4
:1036D0000C3151E8002F22F0100241E80023002BAA
:1036E000F5D101680A68D20602D50A6849680091D6
:1036F000818DFEF761FDE7E770B50446006801695A
:10370000E26821F44051114301612169A068084336
:10371000616908432168CA6841F20C639A43024315
:10372000CA6020684169A26921F440711143416176
:103730001E492068884202D1FDF7D8FF01E0FDF75D
:10374000C5FF00EBC00101EB00126068642180003E
:10375000B2FBF0F3B3FBF1F36FF018067343B2FB67
:10376000F0F5B2FBF0F605EB8305322303EB05150C
:10377000B5FBF1F5B6FBF1F605F0F00505EB061526
:10378000B2FBF0F6B2FBF0F0B0FBF1F06FF0180214
:10379000504306EB800003EB0010B0FBF1F0216812
:1037A00000F00F002844886070BD00000038014020
:1037B00038B5816204468285002013466064222267
:1037C00084F84220E56B1B4AAA62E56B1A4AEA625A
:1037D000E56B1A4A2A63E26B50630A462168E06B84
:1037E000091DFDF755FA20680168406800902069BE
:1037F00048B120680C3050E8001F41F4807140E867
:103800000012002AF5D12068143050E8001F41F062
:10381000010140E80012002AF5D12068143050E878
:10382000001F41F0400140E80012002AF5D10020BD
:1038300038BD000029350008AF350008DF34000826
:103840000148FEF707BD0000E40400200148FEF730
:1038500001BD00002C050020FEE70907090E002825
:1038600004DB00F1E02080F80014704700F00F0046
:1038700000F1E02080F8141D7047000010B50D4CD9
:103880000D48E16901290BD0216A012908D0616A3C
:10389000012905D00022BDE810401021FDF767BBCB
:1038A00001221021FDF763FB012000F053FC0020F2
:1038B000E06110BD90010020000C014070B50500D2
:1038C0000E4616484FF000044FF4006120D001224C
:1038D000FDF74DFB03203080E80700D00124A80746
:1038E00000D50224680700D50324280700D5042446
:1038F000E80600D50524A80600D50624680600D5EC
:103900000724280600D50824E80504D5092402E088
:103910000022FDF72CFB204670BD0000000801408E
:103920001CB5FDF7DFFCFFF717FDFFF7EDF8FFF71C
:10393000CDF8FFF733FAFFF74DFAFFF7C7F9FFF7B6
:103940008BF9FFF769F9FFF7F5F9FFF781F8FFF752
:103950009DFAFFF75DFA0020019000900127FE48D4
:10396000FEF76CFAFD48FEF769FAFD48FCF784FDA6
:103970000A2000F0EFFB1E22FA49F948FCF7BAFFD3
:10398000F84918227831F848FEF7EFFBF74800684D
:10399000016821F004010160DFF8D4A3DFF8D483CB
:1039A0004FF00009F3494446891CB8F80000FFF7BE
:1039B00085FFE08901F0ABF9D4E9102301F0BAF9F1
:1039C00008D8C4F82490208840F008002080FFF731
:1039D00055FF05E02088010702D580F0080020800F
:1039E000208A01F094F9D4E9122301F0A3F908D850
:1039F000C4F82490208840F010002080FFF73EFF9C
:103A000005E02088C10602D580F010002080608A81
:103A100001F07DF9D4E9142301F08CF908D8C4F839
:103A20002490208840F020002080FFF727FF05E049
:103A30002088810602D580F020002080A08A01F035
:103A400066F9D4E9162301F075F908D8C4F8249072
:103A5000208840F040002080FFF710FF05E020881C
:103A6000410602D580F040002080E08A01F04FF945
:103A700005460E46D4E910010022BF4B01F0CAFAF8
:103A80002A46334601F090FA08D2C4F824902088E0
:103A900040F080002080FFF7F1FE05E0208801065D
:103AA00002D580F080002080218B608AA046814270
:103AB000404609D9C0F82490018841F48071A8F8E3
:103AC0000010FFF7DBFE06E00188CA0503D581F48C
:103AD0008071A8F8001001215046FDF743FA044612
:103AE0008021A648FDF73EFA064602215046FDF722
:103AF00039FA05464FF480515046FDF733FAD8F8AD
:103B00002C10834641EA04003043284303D0424648
:103B100001291ED03BE00A2000F01CFB0120C8F860
:103B20002C000FE0012155465046FDF71BFA0446D4
:103B300080219248FDF716FA064602212846FDF735
:103B400011FA0546002CEDD0002EEBD0002DE9D067
:103B50001DE0E4B9DEB9D5B90A2000F0FBFAC2F8DD
:103B60002C90012155465046FDF7FCF90446802172
:103B70008248FDF7F7F9064602212846FDF7F2F9DB
:103B80000546002CEDD0002EEBD0002DE9D0B8F882
:103B9000080010B1012861D039E24CB126B1BBF167
:103BA000000F01D0002DF7D1192000F0D3FA14E056
:103BB000192000F0CFFAB8F80210544601EB810248
:103BC0006C49603101EB82010989A8F802100121DA
:103BD0002046FDF7C7F90028F9D08EB9B8F80210D1
:103BE000664C01EB81026349603101EB82018989F6
:103BF000A8F8021080212046FDF7B4F90028F9D07A
:103C0000ADB110E002212046FDF7ACF90028F9D053
:103C1000B8F8020000EB80015648603000EB8101EB
:103C20004868401C4860BBF1000F02D0EFE15446E9
:103C3000E8E7B8F802104FF4805401EB81024D49D7
:103C40005546603101EB8201098AA8F80810214627
:103C50002846FDF787F90028F9D0D8E1BBF1000F1D
:103C60000CD10A2000F076FAA8F808904FF4805B97
:103C700059465046FDF776F90028F9D0B8F8020009
:103C8000424680B90A2000F065FA106A10B1012896
:103C900005D008E001201062A2F8089003E0C2F805
:103CA0002090A2F8089050889046012868D13148A9
:103CB0006030806901284CD16CB90A2000F04AFAC2
:103CC000B8F80400401EA8F8040001215046FDF792
:103CD00049F90400F9D07EB90A2000F03BFAB8F89F
:103CE0000410DFF898B0491CA8F804108021584649
:103CF000FDF738F90600F9D06DB90A2000F02AFA6C
:103D0000B8F804000A30A8F8040002215046FDF774
:103D100029F90500F9D054EA050015D10A2000F070
:103D200019FAB8F804100A39A8F804100121554608
:103D30005046FDF717F9044602212846FDF712F90F
:103D4000054654EA0500F1D0B8F8061009B1A8F804
:103D50000690B8F8020014E0540400209C040020EF
:103D60002403002078020020E404002074050020D1
:103D7000000C014090010020000036400008014086
:103D800054E000EB8001F14800EB8100406802281C
:103D90004CD16CB90A2000F0DDF9B8F80610491EC4
:103DA000A8F8061001215046FDF7DCF80400F9D010
:103DB0007EB90A2000F0CEF9B8F80610DFF890B30B
:103DC000491CA8F8061080215846FDF7CBF80600DC
:103DD000F9D06DB90A2000F0BDF9B8F806000A3034
:103DE000A8F8060002215046FDF7BCF80500F9D0FE
:103DF00054EA050015D10A2000F0ACF9B8F8061015
:103E00000A39A8F80610012155465046FDF7AAF8D0
:103E1000044602212846FDF7A5F8054654EA0500A8
:103E2000F1D0B8F8041009B1A8F80490B8F802105D
:103E300002297CD1C548C06A012847D16CB90A2043
:103E400000F088F9B8F80E00401EA8F80E00012115
:103E50005046FDF787F80400F9D07EB90A2000F03B
:103E600079F9B8F80E10DFF8E8B2491CA8F80E107E
:103E700080215846FDF776F80600F9D06DB90A2082
:103E800000F068F9B8F80E000A30A8F80E00022118
:103E90005046FDF767F80500F9D054EA050015D142
:103EA0000A2000F057F9B8F80E100A39A8F80E10D9
:103EB000012155465046FDF755F804460221284693
:103EC000FDF750F8054654EA0500F1D0B8F80200B5
:103ED000DFF878B200EB80010BEB8100406802282C
:103EE00047D16CB90A2000F035F9B8F81010491E16
:103EF000A8F8101001215046FDF734F80400F9D05D
:103F00006EB90A2000F026F9B8F81000401CA8F895
:103F1000100080218E48FDF725F80600F9D07DB904
:103F20000A2000F017F9B8F810100A3100E06EE02E
:103F3000A8F8101002215046FDF714F80500F9D03A
:103F400054EA050015D10A2000F004F9B8F8101061
:103F50000A39A8F81010012155465046FDF702F81D
:103F6000044602212846FCF7FDFF054654EA0500F9
:103F7000F1D0B8F8020000EB80010BEB8100406843
:103F8000032844D16CB90A2000F0E4F8B8F8120014
:103F9000401EA8F8120001215046FCF7E3FF040080
:103FA000F9D076B90A2000F0D5F8B8F81210684EAA
:103FB000491CA8F8121080213046FCF7D3FF0028D6
:103FC000F9D075B90A2000F0C5F8B8F812105646B5
:103FD0000A31A8F8121002213046FCF7C3FF050091
:103FE000F9D02C4313D10A2000F0B4F8B8F812101D
:103FF00055460A39A8F8121001212846FCF7B2FFED
:10400000044602212846FCF7ADFF0443F4D0B8F87B
:1040100002004E4900EB800201EB82014446898890
:104020008DB2022D0DD9012802D0022804D008E05B
:10403000464A0121916104E0032D02D9434A01213E
:10404000D162E16A012910D1042808D9042F01D0D6
:104050001FB10AE0A4F8029009E004202CE0022835
:1040600003D1012F27D0032F28D0874200D001256C
:104070006088874217D10198A84214D1E089218A2B
:104080000144608A0844A1880844E18808440099F2
:10409000884208D160892189884204D1D4E90C1072
:1040A00001F010F93FD0012000F054F8E06A38B177
:1040B000012823D037E003206080D8E70120FBE708
:1040C0006088216A00F054F822892946608800F04F
:1040D0000FF922892946608800F06CF91B49208875
:1040E0005E39FFF7EBFB0146608800F0F7F9608866
:1040F00000F0FCFA608800F049FB14E06088216A57
:1041000000F036F822892946608800F0F1F80F495E
:1041100020885E39FFF7D2FB0146608800F0DEF9A7
:10412000608800F0E3FA67880195E089218A0844F5
:10413000618A0844A1880144E088084480B2009064
:1041400020896081206B60632CE40000F001002076
:104150000008014040F637414843401EFDD27047F9
:104160000246012000E05043491EC9B2FBD270470D
:104170002DE9FE430C4600287DD1FEF749FE0023C1
:104180001A4619461846FEF7A3FE002301221946D7
:104190000C20FEF79DFE00231B2219461820FEF777
:1041A00097FE524DD5E9100100F046FB00264FF076
:1041B00002080C27CDF80080CDE9017602460323E2
:1041C00031462020FEF766FF00231A4602211846DA
:1041D000FEF77EFE0222002311460C20FEF778FE39
:1041E00000231B2202211820FEF772FED5E91201DE
:1041F00000F022FBCDF80080CDE9017602460323D2
:1042000002212020FEF746FF002303220421184646
:10421000FEF75EFE0422002311460C20FEF758FE36
:1042200000231B2204211820FEF752FED5E91401B9
:1042300000F002FBCDF80080CDE9017602460323B1
:1042400004212020FEF726FF00230922062118461C
:10425000FEF73EFE00230A2206210C20FEF738FE60
:104260000023052206211820FEF732FE0023062136
:104270001A46242000E036E0FEF72AFE00231B2227
:1042800006213020FEF724FED5E9160100F0D4FA0D
:10429000CDF80080CDE901760246032306213C20BB
:1042A000FEF7F8FEE3B20B2201216620FEF710FEB6
:1042B000E3B2172201217220FEF70AFE7CB100232F
:1042C000152203216620FEF703FE54B1002303B03C
:1042D0001622BDE8F04303217220FEF7F9BD012349
:1042E000EEE70123F3E7BDE8FE8300009001002024
:1042F0007CB500250E462C46012A07D1012E02D09E
:10430000022E03D101E0012500E0012401284DD156
:10431000FEF77EFD2B46132200210D20FEF7D8FD6F
:104320002B46142200211920FEF7D2FD2B46152220
:1043300000212520FEF7CCFD2B461622002131203E
:10434000FEF7C6FD2346132202210D20FEF7C0FD15
:104350002346142202211920FEF7BAFD2346172214
:1043600002212520FEF7B4FD234618220221312028
:10437000FEF7AEFDFE2000EB4600C1B2002328226E
:104380001846FEF7A5FD00240C25094ECDE9005482
:104390000223B28821466E20FEF716FECDE90054B6
:1043A0000223F28819466E20FEF70EFE7CBD000047
:1043B000900100202DE9FC4100260F463546344689
:1043C000012A0BD1012F04D0022F04D0032F05D1D5
:1043D00003E0012602E0012500E00124022879D152
:1043E000FEF716FD3346262200210D20FEF770FD54
:1043F0003346272200211920FEF76AFD00223346AA
:1044000011462520FEF764FD3346012200213120AC
:10441000FEF75EFD2B46262202210D20FEF758FDF9
:104420002B46272202211920FEF752FD2B4600229F
:1044300002212520FEF74CFD02222B461146312099
:10444000FEF746FD2346262204210D20FEF740FDFF
:104450002346272204211920FEF73AFD2346202275
:1044600004212520FEF734FD23462122042131209A
:10447000FEF72EFD2346032204213D20FEF728FDF2
:104480000422234611464920FEF722FDFE2000EBC0
:104490004700C1B2002328221846FEF719FD002468
:1044A0000C250D4ECDE900540323F28921465620F8
:1044B000FEF78AFDCDE900540523328A02215620F9
:1044C000FEF782FDCDE900540523B28A042156206F
:1044D000FEF77AFDBDE8FC81900100201CB50C467A
:1044E00003287CD1FEF794FC0A2C45D2DFE804F0C7
:1044F000440520DB7E879CA5D2C9002336220621F5
:104500001846FEF7E5FC0023372206210C20FEF7B3
:10451000DFFC0023382206211820FEF7D9FC0023F7
:10452000222206212420FEF7D3FC00232322D4E0FC
:104530000023392206211846FEF7CAFC00233A223E
:1045400006210C20FEF7C4FC00233B220621182084
:10455000FEF7BEFC00233C2206212420FEF7B8FC17
:1045600000233D2206213020FEF7B2FC00233E222C
:1045700006213C20FEF7ACFC00231A4619461846DB
:10458000FEF7A6FC00232B2219460C20FEF7A0FC08
:104590000023342219461820FEF79AFC0023352206
:1045A00019462420FEF794FC0023222203211846FA
:1045B000FEF78EFC0023232203210C20FEF788FC4B
:1045C00000231B2203211820FEF782FC4648006BC3
:1045D00000F0ACFE024600210C20022300E004E0C3
:1045E000CDE900015620FEF7EFFC1CBD00231A4662
:1045F00006211846FEF76CFC0023012207E0002389
:104600001A4606211846FEF763FC00230222062103
:104610000C20FEF75DFC00232D2206211820FEF75A
:1046200057FC0023272252E00023032206211846CC
:10463000FEF74EFC00230422E9E700234122062175
:104640001846FEF745FC0023422206210C20FEF707
:104650003FFC0023192206211820FEF739FC002315
:104660001A2206212420FEF733FC0023072206210C
:104670003020FEF72DFC0023082206213C20FEF707
:1046800027FC00232D2206211846FEF721FC0023DB
:10469000402210E000232A2206211846FEF718FCCB
:1046A00000232B2207E00023292206211846FEF7CB
:1046B0000FFC00231A4606210C20FEF709FC0023FC
:1046C000432206211820FEF703FC00234322062183
:1046D0002420FEF7FDFB0023432206213020FEF7B5
:1046E000F7FB0023432243E7900100207CB5042818
:1046F0004BD1FEF78DFB00232F2219460D20FEF72C
:10470000E7FB0023302219461920FEF7E1FB0023C6
:10471000312202210D20FEF7DBFB00233022022193
:104720001920FEF7D5FB0023322204210D20FEF7CD
:10473000CFFB0023332204211920FEF7C9FB0023FD
:104740002F2204212520FEF7C3FB00233022042161
:104750003120FEF7BDFB00240C25CDE900540523D4
:10476000192221465620FEF72FFCCDE900540523DF
:104770001A2202215620FEF727FCCDE9005402231D
:104780000E2204215620FEF71FFC7CBD1CB5052817
:1047900049D1FEF73DFB00242348CDE9000407235F
:1047A0002D2221462046FEF74DFB00230B22194601
:1047B0003020FEF78DFB00230C2219463C20FEF72B
:1047C00087FB00230D2219464820FEF781FB0023BA
:1047D0001B2219465420FEF77BFB0C2313A2002159
:1047E00060200094FEF72AFC00230E2203213020D3
:1047F000FEF76EFB00230F2203213C20FEF768FB2F
:104800000023102203214820FEF762FB00231B2215
:1048100003215420FEF75CFB0C2306A20321602039
:104820000094FEF70BFC1CBD170000205765737049
:1048300000000000312E300021F00042A2F1605251
:10484000B2F5801F01F0004328BFD2F17F6C0BD975
:104850005FEA001C43EAC20242EB507018BF704787
:1048600028BF20F001007047B2F5801FBCBF18467A
:1048700070474FEA410C1CF5001F02D2084600F0B9
:1048800064BE70B500F03CFB00000089FFF7F6BF86
:104890004FF00040A0F580007047000010B591EA8D
:1048A000030F48BF83F0004300F1BC83841A71EB0F
:1048B000030C05D2121943EB0C03001B61EB0C0136
:1048C000DFF824E14FEA1154A4EB135C1EEA430F16
:1048D00018BF9EEA445F73D023EA0E03DCF1200E7A
:1048E00021EA045143F4801332D322FA0CFE10EB78
:1048F0000E0023FA0CFE41EB0E01CCF1200E03FA60
:104900000EFE10EB0E0051F10001B1F5801FCCF14D
:10491000200E32D201EB045112FA0EF2BDE8104023
:1049200058BF7047401C38BF5FEA420218BF70474B
:10493000002814BF20F0010041F100014FEA4103BB
:1049400013F5001F38BF7047A1F1C04100F026BB2E
:10495000012A43EB0302ACF1200CDCF11F0E32BF45
:104960004FF0000E23FA0CF310EB030041EB04515F
:10497000B4EB115FD0D0A1EB045101F580114908CF
:104980005FEA300001EB04510ED350F1000038BF54
:1049900012FA0EFE08D1BDE81040C9E7401C38BF2E
:1049A0005FEA4202CAD1C3E7BDE810404FEA4103C3
:1049B00013F5001F38BF7047A1F1C04100F0EEBAF7
:1049C0009EEA445F08D011EA5E0FBDE8104004BFC4
:1049D00001F0004100207047BDE8104070B500F0C4
:1049E0008FFA00BF64FBBE3E0000E0FF491058BFD5
:1049F000C1F140415B1058BFC3F140438B42EFF31C
:104A0000008070472DE9C04130B4DFF8A0C23CEA15
:104A1000111418BF3CEA131400F0EC8081EA03057E
:104A20001CEA111444EAD57418BF1CEA131500F0EF
:104A3000C780A4EB05044FF0004545EAC12145EAD3
:104A4000C32341EA505143EA525304F17F7499421F
:104A500004F500344FEAC0204FEAC22208BF90425A
:104A600000F09C804FEA13650FF24016765D4FEA26
:104A7000134506FB05F7C7F1807706FB07F74FEAFA
:104A8000D737A7FB03687642C8F58038A7FB06CE68
:104A900038BFA8F1010807FB08E64FF0000EA6FB9F
:104AA000028CE6FB03CEDCF1000CCEF1004E38BFE9
:104AB000AEF1010EA6FB0C584FF000074FF00005B9
:104AC000E6FB0E87A1FB08C6A0FB07CE16EB0E0681
:104AD00045F10005E1FB076515F1E04E7EBFA4F549
:104AE00080345FEA46066D4116F1800745F1000506
:104AF0004FEA17274FEA066647EA0567A6F1DE4642
:104B0000B6F1805F4FEA15251FD9384624F0010C15
:104B100005EBC471BCF1FE6F01EB0C1102D8F0BCC7
:104B2000BDE8008124425CBF01F5801E9EEAC47F7F
:104B300002D4F0BCBDE80081244238D4F0BCA1F11D
:104B4000C041BDE8004100F029BA4FEAD22242EA52
:104B500043524FEAD323A7FB02864FEAD02040EA14
:104B6000415007FB03661EEA0E0F4FEAD12105FBF9
:104B7000026658BFA6EB0056B6EB00564FEA520E3F
:104B80004EEAC37E18EB0E0E56EB530EBDD518EB56
:104B900002085E417F1C55F10005B6E74FF4801511
:104BA0004FF000074FF000064FF00008ADE7F0BCF3
:104BB0004FF0000001F1C04101F00041BDE800816B
:104BC00011EA0C1F0CEA131500D00CE013EA0C1FBD
:104BD00000F025804FF00000F0BC81EA030101F0F5
:104BE0000041BDE80081F0BCBDE8004181EA03015D
:104BF00000F0D4B9F0BCBDE8004170B500F080F918
:104C0000097EFC3E00F007B881EA03014FF0000086
:104C100001F00041704781EA030100F0BFB9F0BC28
:104C2000BDE800414FF0000021497047FFFDFBF94E
:104C3000F7F5F4F2F0EEEDEBE9E8E6E4E3E1E0DECF
:104C4000DDDBDAD8D7D5D4D3D1D0CFCDCCCBCAC841
:104C5000C7C6C5C4C2C1C0BFBEBDBCBBBAB9B8B768
:104C6000B6B5B4B3B2B1B0AFAEADACABAAA9A8A85B
:104C7000A7A6A5A4A3A3A2A1A09F9F9E9D9C9C9B29
:104C80009A999998979796959594939392919190D4
:104C90008F8F8E8E8D8C8C8B8B8A89898888878765
:104CA0008685858484838382828181800000FF07DA
:104CB0000000F87F4FEA1153A3F58063D3F11E0380
:104CC000A8BFD3F1200C08DB4FF0004242EAC1221A
:104CD00052EA505232FA03F0704709420BD4102BBB
:104CE000C4BF0020704703F5787CBCF1FF3F05D0BE
:104CF0004FF0FF3070474FF00000704770B500F084
:104D0000FFF800BF4992248000207047F0E7B0FA16
:104D100080F310FA03F10AD0C3F11D0303F5806399
:104D20004FEA41504FEA035202EBD12170474FF056
:104D30000000704751EA030C17D41CF5801F58BFC0
:104D4000BCF5801F00F10680994218BF704708BF6C
:104D50009042704707D711F5801F58BF13F5801F89
:104D600019D499427047894270471CF5801F08D5B5
:104D7000BCF5801FF7D58B4218BF704708BF824231
:104D800070474FF4001C1CEB410F38BF1CEB430F66
:104D900001D28B42704770B500F0B2F892244900FE
:104DA0004FF000514FF08053FFF720BEDFF848C1AD
:104DB00070B51CEA111E1EBF1CEA13159EEA0C0FEB
:104DC00095EA0C0F00F06F8081EA030423EA4C138C
:104DD0004EEAD47E21EA4C1141F4801143F4801351
:104DE000AE44A1FB024CA0FB0365AEF17F7E3619F9
:104DF00055EB0C05A1FB034C4CF10003A0FB021C7E
:104E000016EB0C06654153F10003094218BF46F04A
:104E1000010613F4007F0BD14FEA03314FEA05304E
:104E2000340341EA155140EA16506FF003020AE0DC
:104E30004FEAC3214FEAC520F40241EA555140EA46
:104E400056506FF0020202EB2E4201EB025585EA4A
:104E5000CE710AD05FEA440C18BF24F0004450F130
:104E6000000041F1000120EAD47040F2FE7C62456E
:104E700000D270BDA84214BF4FF080444FF04044B0
:104E8000002E08BF0024BEF1806FA8BFA1F1C04171
:104E9000BDE8704080F282804FF0000001F1C04117
:104EA00001F0004170479EEA0C0F0CEA131518BF81
:104EB00095EA0C0F06D04FF0000081EA030E0EF0C9
:104EC000004170BD00F01CF88900013E00F007B8F9
:104ED00000F009B84FEA430C5FEA5C5C08D081EA55
:104EE000030100F05BB84FEA410C5FEA5C5CF6D16D
:104EF0004FF00000014970470000FF070000F87FF5
:104F00000EF1020E2EF0030E5EF8046B364205D44D
:104F1000012A43EB030515F5001F12D8012841EBC8
:104F2000010C1CF5001F0CD80ED14FEAD17C15F5F1
:104F3000001F0CEB4C0C0CF1020C08BF4CEBD37CAB
:104F400004E04FF0080C01E04FEAD37C0CEB4C0579
:104F500026FA05F606F00706B6F1040C06D20EEBAB
:104F6000860CBDE870404CF0010C6047DFE80CF0A7
:104F7000090B02024FF000414FF00000A1F50021A3
:104F800070BD19461046012851EB010418BFD4F535
:104F9000001484BF002001F0004170BD0808A0F596
:104FA00000114FEA3101704753EA010C17D41CF588
:104FB000801F58BFBCF5801F00F106808B4218BFD0
:104FC000704708BF8242704707D713F5801F58BF4C
:104FD00011F5801F19D48B4270479B4270471CF516
:104FE000801F08D5BCF5801FF7D5994218BF7047C0
:104FF00008BF904270474FF4001C1CEB430F38BFB2
:105000001CEB410F01D2994270470FB40CBC03BC9A
:10501000FFF7C1BE10B591EA030F48BF83F000430C
:105020003FF544AC841A71EB030C07D212198CF0D3
:10503000004C43EB0C03001B61EB0C01DFF8A4E117
:105040004FEA1154A4EB135C1EEA430F18BF9EEA0B
:10505000445F00F0B08023EA6E03524221EA04511B
:10506000C3EB6E0338BF5B1EDCF1200E25D322FAA2
:105070000CFE10EB0E0043FA0CFE41EB0E01CCF1DE
:10508000200E03FA0EFE10EB0E0051F10001CCF1E0
:10509000200E29D412FA0EF201EB0451BDE81040A3
:1050A00058BF7047401C1CBFB2F1004F704700282A
:1050B0000CBF491C20F00100704712EB020E43EBBD
:1050C000030218BF4FF0010E4EEA4202ACF1200C71
:1050D000DCF11E0E54D943FA0CFE10EB0E0051F118
:1050E000FF31CCF11E0ED5D50EF1010E12FA0EFED7
:1050F000404141EB010101EB445C5FEA5C5C10D98B
:1051000010EBDE7001EB045138BFBEF1004FBDE87B
:10511000104018BF704700280CBF491C20F0010048
:10512000704730D24FEAD42C11F5001124F40064FA
:105130001BD0B1FA81F20B3AA41AA41ED2F12003BB
:10514000914030FA03F31943904001EBCC71002CED
:1051500001EB0451BDE81040A8BF704701F1C04108
:105160004FF0000001F000417047B0FA80F310FAF0
:1051700003F100D110BDE41A173C4805C90AE4E761
:1051800001EB045110BD491001EB0451BDE8104082
:105190004FEA300002E04FF0000170474A0008BFBC
:1051A0000042F8D0B2F5001F28BF704701F000415F
:1051B0004FF0000070479EEA445F07D011EA5E0F8F
:1051C000BDE8104004BF002100207047BDE810403A
:1051D00070B5FFF795FE00BF40DFF63E83F000415B
:1051E000104670470000E0FF90EA010F48BF81F0D1
:1051F000004100F1C081421A3CBF801A89184FEA71
:10520000D0524FF07F4C1CEA410FA2EBD15318BF94
:105210009CEA026F00F03B804FF0004C4CEA00200B
:105220004CEA012121FA03FC10EB0C0C1ED202F116
:10523000FF325FEA1C2040EBC25038BF70471CF0C1
:105240007F0F4FEA400C18BFBCF17F4F38BF70474B
:10525000C3F12003994008BF20F00100BCF17F4F4B
:1052600038BF7047A0F1C04000F06FB94FEA3C0072
:10527000000A40EBC25028BF1CF0FF0F4FEA400C61
:10528000E6D018BFBCF17F4F38BF7047EAE79CEA11
:10529000026F05D010EA5C0F08BF00F000407047B5
:1052A00010B500F00CF900BF64FBBE3E401058BFC3
:1052B000C0F14040491058BFC1F140418142EFF375
:1052C0000080704750EA010C00F113801CF5000FBC
:1052D00058BFBCF5000F01D48842704707D710F5BE
:1052E000000F58BF11F5000F15D48842704789424E
:1052F00070471CF5000F04D5BCF5000FF7D58142AF
:1053000070474FF0807C1CEB400F38BF1CEB410F07
:1053100001D28142704710B500F0D1F892244900C3
:105320004FF000504FF08051FFF7C0BF41000B0E0F
:10533000D3F19E0208D950F400034FEA032323FA65
:1053400002F048BF4042704710B500F0B8F800BF07
:1053500049922480002070476FF0004282EA2000CA
:105360007047000010F0004148BF4042B0FA80F39F
:1053700010FA03F2C3F19D030BD051EAC35101EBC4
:105380001220530638BF704700F1010008BF20F01B
:1053900001007047B0FA80F310FA03F2C3F19D03E5
:1053A0000AD0D90501EB1220530638BF704700F12F
:1053B000010008BF20F00100704700004FF47F0C8F
:1053C0001CEAD0121EBF1CEAD11392EA0C0F93EA1A
:1053D0000C0F00F0478090EA010F48BF42F4807242
:1053E0004FF0004C4CEA00204CEA012102EB030292
:1053F000A0FB0113A2F50002002918BF43F001032E
:105400005B0028BF4FEA330342EB22425FEA132CD2
:105410004CEBC2502EBFBCEB436FB2F57C0F704714
:105420004FEA036CBCF1004F08BF20F00100B2F559
:105430007C0F38BF70470BD582F0FF0212F5803F1A
:10544000C8BF704700F1C040D8BF00F000407047AF
:1054500000F5000C5FEA4C0C48BF7047B0F1C0404B
:1054600000F073B890EA010F0CEAD11348BF42F480
:105470008072624538BF634504D280EA010000F0C3
:105480000040704710B500F01AF800BF8900013ED7
:1054900000F007B800F009B85FEA410C5FEA1C6C45
:1054A00008D080EA010000F050B85FEA400C5FEAE3
:1054B0001C6CF6D14FF00040A0F5800070470EF153
:1054C000020E2EF0030E5EF8044B244204D44FEA81
:1054D0004102B2F17F4F11D84FEA4003B3F17F4F41
:1054E0000CD80ED14FEAD07CB2F17F4F0CEB4C0CB4
:1054F0000CF1020C08BF4CEBD17C04E04FF0080C1F
:1055000001E04FEAD17C0CEB4C0324FA03F404F0E5
:105510000704B4F1040C06D20EEB840CBDE8104075
:105520004CF0010C6047DFE80CF0070802024FF076
:105530000040A0F5800010BD0846420018BFD2F11F
:10554000807288BF00F0004010BDFF2141EAD050BA
:10555000C005704780F0004090EA010F7FF54BAE28
:1055600081F0004100F007B890EA010F48BF81F0D8
:1055700000413FF540AE421A04D882F00042A0EB51
:10558000020011444FEAD0524FF07F4C1CEA410F09
:10559000A2EBD15318BF9CEA026F4AD04FF0004CE7
:1055A0004CEA00204CEA012121FA03FCB0EB0C0C80
:1055B0000FD412F0FE0F36D05FEA4C001DD500125A
:1055C00040EBC25038BF70471CF03F0F18BF704708
:1055D0000BE0A2F101025FEA1C2040EBC25038BF91
:1055E00070471CF07F0F18BF7047C3F1200399402C
:1055F00014BF401E20F00100704780084FEA1223BC
:1056000008BF7047B0FA80FCA2EB0C02CCF1280C6A
:1056100060FA0CF093EA122F04BF00EBC2507047FF
:105620004FEAC3707047130A5FEADC1008BF704787
:10563000F6E79CEA026F04D010EA5C0F08BF002076
:10564000704710B5FFF73BFF40DFF63E81F00040AA
:1056500070470000000000000000002F0000000064
:105660000700070000147F147F1400242A7F2A12E9
:1056700000626408132300364955225000000503D8
:10568000000000001C224100000041221C00001408
:10569000083E08140008083E0808000000A060004A
:1056A00000080808080800006060000000201008DA
:1056B0000402003E5149453E0000427F4000004246
:1056C00061514946002141454B31001814127F10A9
:1056D000002745454539003C4A49493000017109D8
:1056E000050300364949493600064949291E00008C
:1056F0003B3B000000005636000000081422410029
:105700000014141414140000412214080002015162
:10571000090600324959513E007C1211127C007F6B
:1057200049494936003E41414122007F4141221C06
:10573000007F49494941007F09090901003E41496B
:10574000497A007F0808087F0000417F410000205F
:1057500040413F01007F08142241007F404040400B
:10576000007F020C027F007F0408107F003E414151
:10577000413E007F09090906003E4151215E007F3C
:10578000091929460046494949310001017F0101B3
:10579000003F4040403F001F2040201F003F403856
:1057A000403F006314081463000708700807006195
:1057B0005149454300007F41410000552A552A5573
:1057C000000041417F00000402010204004040400B
:1057D0004040000001020400002054545478007F2F
:1057E0004844443800384444442000384444487F06
:1057F00000385454541800087E0901020018A4A46B
:10580000A47C007F080404780000447D4000004030
:1058100080847D00007F102844000000417F40000C
:10582000007C04180478007C0804047800384444A0
:10583000443800FC242424180018242418FC007C7C
:105840000804040800485454542000043F444020F5
:10585000003C4040207C001C2040201C003C40308C
:10586000403C004428102844001CA0A0A07C004418
:1058700064544C4414141414141400000000000068
:1058800000000000000000000000000000F8000020
:105890000000000000333000000000100C06100C67
:1058A0000600000000000000000040C07840C07802
:1058B0004000043F04043F040400007088FC0830EA
:1058C0000000001820FF211E0000F008F000E01882
:1058D000000000211C031E211E0000F0088870003B
:1058E00000001E2123241927211010160E0000008D
:1058F00000000000000000000000000000E01804AC
:105900000200000000071820400000020418E00018
:1059100000000040201807000000404080F0804058
:1059200040000202010F01020200000000F000002E
:1059300000000101011F0101010000000000000042
:10594000000080B0700000000000000000000000B7
:105950000000000101010101010100000000000040
:1059600000000030300000000000000000008060F7
:105970001804006018060100000000E0100808107C
:10598000E000000F102020100F00001010F80000A1
:1059900000000020203F2020000000700808088838
:1059A0007000003028242221300000300888884808
:1059B00030000018202020110E000000C02010F838
:1059C000000000070424243F240000F80888880809
:1059D00008000019212020110E0000E0108888180E
:1059E0000000000F112020110E00F80800F8000838
:1059F000F800033C0700073C030000708808088893
:105A00007000001C222121221C0000E01008081058
:105A1000E0000000312222110F00000000C0C00091
:105A20000000000000303000000000000080000096
:105A30000000000080600000000000008040201096
:105A4000080000010204081020004040404040408F
:105A500040000404040404040400000810204080F2
:105A60000000002010080402010000704808080827
:105A7000F0000000003036010000C030C828E810F7
:105A8000E0000718272423140B000000C038E000B2
:105A90000000203C23020227382008F888888870FC
:105AA0000000203F202020110E00C0300808080808
:105AB0003800071820202010080008F808080810EF
:105AC000E000203F202020100F0008F88888E80818
:105AD0001000203F20202320180008F88888E808BC
