:020000040800F2
:10000000080F00208D020008590F00085D0F00083E
:10001000610F0008650F0008690F0008000000006C
:100020000000000000000000000000006D0F00084C
:100030006F0F000800000000710F0008730F000828
:10004000A7020008A7020008A7020008A7020008EC
:10005000A7020008A7020008A7020008A7020008DC
:10006000A70200087B0F0008A7020008850F000800
:10007000A70200088F0F0008A7020008990F0008C8
:10008000A7020008A7020008A7020008A7020008AC
:10009000A7020008A7020008A7020008A30F000893
:1000A000A7020008A7020008A7020008A70200088C
:1000B000AD0F0008B70F0008A7020008A70200084C
:1000C000A7020008A7020008A7020008A70200086C
:1000D000A7020008C10F0008A7020008CB0F000804
:1000E000A7020008A7020008A702000800F002F813
:1000F00000F0BDF80AA090E8000C82448344AAF105
:100100000107DA4501D100F0B2F8AFF2090EBAE802
:100110000F0013F0010F18BFFB1A43F0010318473B
:1001200040B3010060B301000A444FF0000C10F826
:10013000013B13F0070408BF10F8014B1D1108BF65
:1001400010F8015B641E05D010F8016B641E01F805
:10015000016BF9D113F0080F1EBF10F8014BAD1C55
:100160000C1B09D16D1E58BF01F801CBFAD505E073
:1001700014F8016B01F8016B6D1EF9D59142D6D3CD
:10018000704700000023002400250026103A28BFF5
:1001900078C1FBD8520728BF30C148BF0B607047F9
:1001A0006E2913F05985702913F0B586662919F068
:1001B0001386652919F01086672919F00D866129C3
:1001C00019F00C8603681B0A28BF41F080016929D9
:1001D00013F00685642913F00385752913F0008553
:1001E0006F2913F04286782913F08186E92913F0EC
:1001F000DD85E42913F0DA85F52913F0D785EF2999
:1002000013F03F86F82913F080860368DB0928BFC6
:1002100041F08001632914F0FD87732915F00280F5
:10022000E32915F00D80F32915F0128000207047A6
:100230001FB59DE8030013F03BFC14F087FB04009E
:100240000020002118F03EF9401C606000200021D1
:1002500018F04EF9E06014F08BFA16F0F7FB1FBDB2
:1002600010B5002015F028FE14F0EBFA10BD13F0C5
:10027000D1FB1146FFF7DCFF00F05EFC14F01CFB25
:1002800003B4FFF7EDFF03BC13F0BAFB0948804746
:1002900009480047FEE7FEE7FEE7FEE7FEE7FEE768
:1002A000FEE7FEE7FEE7FEE704480549054A064B80
:1002B000704700008D130108ED00000808090020B8
:1002C000080F0020080B0020080B00200EB50020AE
:1002D0000090019002904E484E49086081154D48AB
:1002E000816001210173002101754FF46021C1611A
:1002F00000204849486003214648016101F02DFA79
:1003000008B100F0CEFB04200090012001900720EE
:10031000029069463F4801F0C0FF08B100F0C1FB00
:10032000102000900220019069463A4801F0B5FF84
:1003300008B100F0B6FB112000900320019069463F
:10034000344801F0AAFF08B100F0ABFB0EBD10B5B8
:1003500086B00446002002900390049005902C493A
:10036000206888423ED100BF2B48806940F400706D
:10037000294988610846806900F40070019000BF37
:1003800000BF00BF0846806940F00400886108464D
:10039000806900F00400019000BF00BF10200290AF
:1003A0000320039002A91D4803F026FC1C481D49A8
:1003B00008600020486000211A4881608021C160E7
:1003C0004900016189004161202181610021C161F1
:1003D00003F070FE08B100F064FB00BF114820621A
:1003E000446200BF06B010BD10B50446084920683D
:1003F00088420CD10848806920F400700649886161
:100400001021064803F077FD206A03F085FE10BD39
:100410000024014088030020001002400008014031
:1004200008000240B803002010B538483849086079
:1004300010204860002136488160C160016141613F
:10044000017641768176C1760177417704F0D3FC5D
:1004500008B100F026FB10BD10B586B004460020A0
:10046000029003900490059028492068884239D171
:1004700000BF2848C06940F000702649C86108469E
:10048000C06900F00070019000BF00BF00BF0846C7
:10049000806940F0080088610846806900F0080023
:1004A000019000BF00BF88150290002003900490C7
:1004B00002A9194803F0A0FB4FF40070029002203B
:1004C00003900320059002A9134803F095FB00BF99
:1004D0001249486820F4C04040F0E06040F4804099
:1004E000486000BF06B010BD10B50446074920683B
:1004F00088420AD10748C06920F000700549C861E8
:100500004FF44071044803F0F6FC10BD0064004055
:10051000FC03002000100240000C014000000140DC
:1005200008B500BF1248406940F001001049486119
:100530000846406900F00100009000BF00BF0022A3
:1005400011460B2004F0ECF90B2004F027FA0022EE
:1005500011460D2004F0E4F90D2004F01FFA0022EA
:1005600011460F2004F0DCF90F2004F017FA08BD43
:100570000010024000B585B0002001900290039069
:10058000049000BF4848806940F0100046498861E7
:100590000846806900F01000009000BF00BF00BF57
:1005A0000846806940F0200088610846806900F0B4
:1005B0002000009000BF00BF00BF0846806940F0E7
:1005C000040088610846806900F00400009000BFC4
:1005D00000BF00BF0846806940F0080088610846F7
:1005E000806900F00800009000BF00BF0022C9141D
:1005F0002E4803F018FD002210212D4803F013FDB2
:10060000202001902B4802900020039001A9274848
:1006100003F0F2FA80200190002002900120039064
:1006200001A9224803F0E8FA41F2030001900020FA
:1006300002900120039001A91D4803F0DDFA4FF458
:10064000006001900120029000200390022004909D
:1006500001A9164803F0D0FA08200190154802902D
:100660000020039001A9124803F0C6FA102001905F
:100670000120029002200390049001A90C4803F08D
:10068000BBFA00221146092004F04AF9092004F0BF
:1006900085F900221146172004F042F9172004F0D2
:1006A0007DF905B000BD00000010024000080140C7
:1006B000000C01400000211010B55B485B49086048
:1006C0005B484860002159488160C1604FF4804117
:1006D0000161002141618161C161016205F011F98F
:1006E00008B100F0DEF910BD10B55248524908605B
:1006F0004F484860002150488160C1604FF48041FC
:100700000161002141618161C161016205F0F9F877
:1007100008B100F0C6F910BD10B586B0044600203F
:1007200002900390049005903F492068884225D1AB
:1007300000BF4248806940F008004049886108468F
:10074000806900F00800019000BF00BF00BF0846AC
:10075000C06940F40010C8610846C06900F4001088
:10076000019000BF00BFC020029012200390032020
:10077000059002A9324803F03FFA29E02D4920688C
:10078000884225D100BF2D48806940F008002B49E0
:1007900088610846806900F00800019000BF00BF32
:1007A00000BF0846C06940F48000C8610846C069BF
:1007B00000F48000019000BF00BF4FF44060029041
:1007C000122003900320059002A91D4803F014FA9B
:1007D00006B010BD10B504461349206888420ED1FA
:1007E0001648C06920F400101449C861402114481B
:1007F00003F081FB8021124803F07DFB12E00D49DC
:10080000206888420ED10D48C06920F480000B4951
:10081000C86109150A4803F06EFB4FF400610848EF
:1008200003F069FB10BD00000054004024040020C8
:1008300030E602000058004078040020001002401A
:10084000000C014070B505460C46FE49FE480068A4
:1008500019F00EFA09D84FF4007008B9218809B1CF
:10086000012100E00021084600BF70BD40F637427C
:1008700000FB02F100BF0A1EA1F10101FBD170478C
:1008800010B50446F149206888420CD11822F0497D
:10089000F0480FF064FFF0480068006820F00400A2
:1008A000ED4909680860ED49206888420CD10522AD
:1008B000EB49EC480FF053FFEB480068006820F06C
:1008C0000400E9490968086010BD70B50446E748AE
:1008D0000078401CE5490870E549206809688842AD
:1008E0003CD1E4480088E44909880844002835D010
:1008F000DE480078401CDD490870DE48008800EBC7
:1009000080100978884206D10020DC490870D94956
:100910000880D6490870D848008800EB8010D34979
:100920000978884207D10120D44908700020D249B3
:100930000880CE490870CF480088CF49098808440C
:10094000CF490988884209D00020C8490870C948A1
:100950000088C94909880844C9490880C9492068EC
:10096000096888421AD1C8480078401CC6490870F6
:1009700008460078022811D1C4480078097890FB15
:10098000F1F5284619F048F8C1490860012012F035
:100990006EFA0020BD490870BB49087070BD10B5E3
:1009A00004460821BB4803F036FB012806D1BA49AA
:1009B0000870B6480078401CB44908702021B74838
:1009C00003F029FB58B900224FF48061B14803F0CD
:1009D0002AFBB348008840F00400B149088010BDEC
:1009E0007CB504460D469B48844226D1AD4903C9D7
:1009F00018F0D8FBAC490880AC4903C918F0D2FB09
:100A0000AB490880AB48A94BAB4AA6490090904837
:100A100000F008FCA249088018218D4812F02EFD34
:100A200018228B498B480FF09AFE8B4800680068AB
:100A300020F004008849096808608A4884421AD175
:100A40009E489F499F4BA04ACDE900109F4984488A
:100A500012F0FBF9824800210160017105227C49F6
:100A600080480FF07CFE80480068006820F0040099
:100A70007D49096808607CBD1CB5044694488442E1
:100A80000ED18E488E498F4B8F4ACDE900108F4989
:100A9000904812F0DAF905228E498D4805F0E8FFFA
:100AA0001CBD72B600BFFEE700B593B0282109A8AF
:100AB00012F006FD142104A812F002FD002000909F
:100AC0000190029003900D2009904FF480300A901D
:100AD00000200B9001200C900D900F9002201090A0
:100AE000C10311914FF4E011129109A802F03FFBEC
:100AF00008B1FFF7D6FF0F200490022005900020D8
:100B000006904FF48060079000200890022104A80E
:100B100002F08EFD08B1FFF7C4FF032000904FF4F0
:100B200080700190C0010290684602F037FF08B162
:100B3000FFF7B7FF13B000BD8EB002F0CAF9FFF7A0
:100B4000B3FFFFF717FDFFF7EBFC00F045FC00F0EB
:100B50005AFC00F04DFA00F073F9FFF7ADFD00F01C
:100B60007BFAFFF7B3FB10F0BCFD10F0F7FD404837
:100B70000AF097F843480AF094F8574801F08EFCC1
:100B800000BF554801F08AFC0028FAD118223049EC
:100B900030480FF0E4FD30480068006820F00400A1
:100BA0002D49096808602BE103224C494A4801F0AD
:100BB000EDF92548006818F00FFF86B23849304635
:100BC000FFF740FE40480088ADF82C003C48008804
:100BD000ADF82E003B480088ADF83000374800885B
:100BE000ADF8320030480088ADF834003048008855
:100BF000ADF836000DF136000BA9CDE904102D48F3
:100C000003C8CDE90201294803C8CDE900012A48FB
:100C100024490CC803C912F034F921490988084352
:100C20001F4908802E4A2F491D48008812F06DFA8E
:100C3000124802782A4801781748007812F010FA12
:100C4000294853E00020E4446800002000380140B7
:100C5000D6040020F4050020CC0600200048004007
:100C60008D00002084060020100700205B0000207B
:100C70001C0500204200002044000020320000201B
:100C80004A000020640500205C0000205D00002078
:100C900038000020000C0140310000200008014015
:100CA00034000020080000204E0000201800002022
:100CB0005000002020000020100000202E00002006
:100CC0002A0000202C0000202800002078000020AE
:100CD000780400209200002088030020700000208B
:100CE00033000020400000205F00002000780A212F
:100CF00090FBF1F043490870434800780A2190FBCB
:100D0000F1F04149087011F073FC01213F4812F0E5
:100D100097F804B240F29655AC4210DB661B002EE9
:100D200001DB304600E070422B2190FBF1F000F136
:100D30001907384618F070FE354908600FE02E1B81
:100D4000002E01DB304600E070422B2190FBF1F0D9
:100D500000F11907384618F05FFE2D49086002219E
:100D60002A4812F06DF8064618F06EFE2949086010
:100D70000321264812F064F8064618F065FE26495D
:100D800008602448006818F027FE86B223493046E0
:100D9000FFF758FD1E48006818F002FE06B21A4818
:100DA0000178304612F0D5F91D49087001208DF800
:100DB000240009A91B4810F0BDFB1B481B491C4A15
:100DC0001C4BCDE9002102901B4A1C49154810F02C
:100DD00048FC00200790089012F0E0F912F0E7F9C3
:100DE000642012F044F807A812F0E7F938B90A2095
:100DF00012F03DF8044A034907A812F00DFA00BFAB
:100E0000D2E600005F0000205E000020700000209D
:100E100064000020680000206C00002034000020E6
:100E2000600000208C0000202E0000202A000020FE
:100E30002C00002028000020CC040020000000200E
:100E40001CB50020019000902A482B4908604FF003
:100E5000FF3048604FF480712748816009F01FF926
:100E600008B1FFF71EFE12208DF804008DF8050072
:100E700000208DF80600012201A91F4809F0F5F9AC
:100E800008B1FFF70EFE00208DF8000011208DF84C
:100E9000010029208DF8020023208DF80300012293
:100EA0006946154809F0B0FB08B1FFF7FAFD1CBD13
:100EB00038B504460F492068884212D103F0A5FED8
:100EC00000BF0E48C06940F000600C49C861084688
:100ED000C06900F00060009000BF00BF0120084919
:100EE000086038BD034A0168914202D10021044ADA
:100EF00011607047002800400805002000100240E3
:100F00003C04424208B500BF1148806940F001002E
:100F10000F4988610846806900F00100009000BF19
:100F200000BF00BF0846C06940F08050C861084655
:100F3000C06900F08050009000BF00BF00BF0549AD
:100F4000486820F0E06040F00070486000BF08BDD5
:100F5000001002400000014000BFFEE700BFFEE7B6
:100F600000BFFEE700BFFEE700BFFEE77047704727
:100F7000704710B501F0CEFF10BD10B5082003F08A
:100F80007AF810BD10B5134803F06FFB10BD10B513
:100F9000114803F06AFB10BD10B5104803F065FB63
:100FA00010BD10B5202003F066F810BD10B50C4838
:100FB0000CF04DF910BD10B50A480CF048F910BD01
:100FC00010B509480FF0A5FF10BD10B507480FF088
:100FD000A0FF10BDB803002010070020CC060020A1
:100FE0001C05002064050020F40500208406002074
:100FF00000B587B000200390049005900690019002
:1010000002904FF08040814908604FF6FF704860C1
:1010100000217E4881604EF65F21C16000210161A0
:10102000816109F086FD08B1FFF73BFD4FF4805068
:10103000039003A975480DF050F808B1FFF731FD92
:1010400000200190029001A970480EF060FC08B1E8
:10105000FFF727FD07B000BD00B587B00020039063
:1010600004900590069001900290694869490860D3
:1010700041F61F40486000216648816041F2873197
:10108000C16000210161816109F053FD08B1FFF7E2
:1010900008FD4FF48050039003A95E480DF01DF841
:1010A00008B1FFF7FEFC00200190029001A9594809
:1010B0000EF02DFC08B1FFF7F4FC07B000BD00B541
:1010C00087B0002003900490059006900190029054
:1010D0005148524908604720486000214F488160CC
:1010E0004FF6FF71C16000210161816109F021FDAE
:1010F00008B1FFF7D6FC4FF48050039003A947488E
:101100000CF0EBFF08B1FFF7CCFC0020019002903F
:1011100001A942480EF0FBFB08B1FFF7C2FC07B083
:1011200000BD38B504462068B0F1804F16D100BF2D
:101130003B48C06940F001003949C8610846C069B0
:1011400000F00100009000BF00BF002211461C20EB
:1011500003F0E6FB1C2003F021FC2CE02C49206866
:10116000884216D100BF2E48C06940F002002C49C9
:10117000C8610846C06900F00200009000BF00BFCF
:10118000002211461D2003F0CBFB1D2003F006FCBE
:1011900011E02149206888420DD100BF2048C06974
:1011A00040F004001E49C8610846C06900F0040010
:1011B000009000BF00BF38BD10B504462068B0F1F4
:1011C000804F09D11648C06920F001001449C86158
:1011D0001C2003F0F3FB17E00D492068884209D179
:1011E0000F48C06920F002000D49C8611D2003F0BE
:1011F000E5FB09E008492068884205D10848C06934
:1012000020F004000649C86110BD00001C05002044
:10121000000400406405002000080040AC050020E8
:10122000001002402DE9F04F8FB004460E461746DD
:101230001D4600200E900D900C900B9080460A9059
:101240000990089081468246834607900690207850
:10125000AA287DD04FF0020A05E0A07881440AF167
:10126000010000F0FF0ABAF1170FF6DB09F0FF00EA
:10127000E17D88426DD1A0780104E07801EB002087
:10128000217908440E9060790104A07901EB0020D7
:10129000E17908440D90DDE90D10B0FBF1F0039009
:1012A00017F0ADFFF74AF84BCDE9040117F0F6FF50
:1012B000C6E90001207A0104607A01EB0020A17ADE
:1012C00008440C90E07A0104207B01EB0020617B54
:1012D00008440B90DDE90B10B0FBF1F0059017F01E
:1012E0008EFFC7E900012078F02808DD2078F1287A
:1012F00001D1012006900021296069601DE0A07BDA
:101300000104E07B01EB0020217C00EB0108607C04
:101310000104A07C01EB0020E17C08440A900A98BB
:10132000B8FBF0F0039017F06AFFD64AD64BCDE930
:10133000040117F0B3FFC5E90001207D00F0800132
:10134000079881420AD00BF1010000F0FF0B01E089
:1013500036E03CE0207D00F0800007904FEA0B4132
:10136000607D01EB0020A17D08440890404617F005
:1013700046FFC44AC44BCDE9000117F08FFF024677
:101380000B46CDE902014FF04540C04917F076FD0C
:10139000CDE9040117F006FF099042F21071089898
:1013A00048430999B0FBF1F0039017F028FF0022A1
:1013B000B74BCDE9040117F061FD189A03C206E0AE
:1013C0002078AA2803D1069840F0020006900698DB
:1013D000C0B20FB0BDE8F08F10B5AE48AE4908609E
:1013E0004FF4965048600021AB488160C1600161B4
:1013F0000421416100218161C1610EF09EFB08B1B1
:10140000FFF74FFB10BD10B5A448A54908604FF485
:10141000E13048600021A2488160C16001610C2177
:10142000416100218161C1610EF087FB08B1FFF7C6
:1014300038FB10BD10B59B489B4908604FF4E13064
:101440004860002198488160C16001610C214161C0
:1014500000218161C1610EF070FB08B1FFF721FB33
:1014600010BD10B586B00446002002900390049091
:10147000059088492068884252D100BF8B48806916
:1014800040F48040894988610846806900F48040C2
:10149000019000BF00BF00BF0846806940F0040013
:1014A00088610846806900F00400019000BF00BF19
:1014B00048150290022003900320059002A97C4861
:1014C00002F09AFB4FF48060029000200390049099
:1014D00002A9774802F090FB76487749086000201F
:1014E00048600021744881608021C1600021016151
:1014F000416181614FF40051C16102F0DBFD08B12F
:10150000FFF7CFFA00BF6C48E063446200BF0022DF
:101510001146252003F004FA252003F03FFA87E066
:101520005E49206888422ED100BF6048C06940F4FF
:1015300000305E49C8610846C06900F4003001907F
:1015400000BF00BF00BF0846806940F0040088610A
:101550000846806900F00400019000BF00BF04202D
:101560000290022003900320059002A9504802F047
:1015700043FB0820029000200390049002A94C48ED
:1015800002F03AFB54E047492068884250D100BF3E
:101590004648C06940F480204449C8610846C06993
:1015A00000F48020019000BF00BF00BF08468069A2
:1015B00040F0080088610846806900F0080001904A
:1015C00000BF00BF08150290022003900320059081
:1015D00002A93A4802F010FB4FF40060029000208C
:1015E0000390049002A9354802F006FB31482838E0
:1015F0003349086000204860002131488160802123
:10160000C1600021016141618161C16102F052FD4F
:1016100008B1FFF746FA00BF2948E063446200BF03
:1016200000221146272003F07BF9272003F0B6F9AA
:1016300006B010BD10B5044616492068884211D185
:101640001A48806920F48040184988614FF4C061CD
:10165000174802F050FCE06B02F05EFD252003F01D
:10166000ADF944E00D49206888422BD10F48C0698C
:1016700020F400300D49C8610C210D4802F03BFCFC
:1016800035E000003F355EBA490C084085318A429A
:101690000088C34000380140F405002000440040A9
:1016A0003C06002000480040840600200010024054
:1016B0000008014058000240CC060020000C014008
:1016C000100700200A492068884210D10948C069E3
:1016D00020F480200749C8614FF44061064802F0B9
:1016E0000AFCE06B02F018FD272003F067F910BD3B
:1016F0000048004000100240000C014070B5044654
:1017000000252068806800F0010018B32068806818
:1017100020F001002168886001F004FC054613E018
:1017200001F000FC401B02280ED92068806800F000
:10173000010048B1A06A40F01000A062E06A40F0E9
:101740000100E062012070BD2068806800F00100A7
:101750000028E5D10020F6E770472DE9F041044666
:10176000002700250026A84614B90120BDE8F08115
:10177000A06810B1207D00B100BFA06A30B9002080
:10178000E06284F824002046FEF7E1FD2046FFF7E2
:10179000B5FF0746A06A00F01000002873D1002FA3
:1017A00071D1A06A20F4885040F00200A062E16983
:1017B00060680843217B40EA41000643A068B0F519
:1017C000807F02D0A068012802D14FF4807000E031
:1017D00000200543207D012811D1207B38B9A06964
:1017E000401E4FF4006141EA4030054307E0A06A23
:1017F00040F02000A062E06A40F00100E062206852
:10180000406820F469402843216848602068806867
:10181000FB490840304321688860A068B0F5807FAC
:1018200002D0A068012802D14FF4807000E00020AF
:10183000B0F5807F03D1208A401E4FEA005820680F
:10184000C06A20F4700040EA08002168C86220687D
:101850008068EC490840B04208D10020E062A06AEC
:1018600020F0020040F00100A06211E0A06A20F028
:10187000020040F01000A062E06A40F00100E06267
:10188000012705E0FFE7A06A40F01000A0620127F1
:1018900038466BE7704770B5044600250CB9012047
:1018A00070BDA06A40F00200A0622046FFF726FF4C
:1018B0000546002D69D16FF01F002168086020687F
:1018C0004068D14908402168486020688068CF4955
:1018D0000840216888602068C06800F07F40216867
:1018E000C8602068006900F04040216808612068F5
:1018F00040696FF30B0021684861206880696FF3CD
:101900000B00216888612068C0696FF30B002168B3
:10191000C8612068006A6FF30B00216808622068C4
:10192000406A6FF30B00216848622068806A6FF399
:101930000B00216888622068C06A00F07F4021683F
:10194000C8622068C06A00F07F402168C8622068D1
:10195000006B00F04040216808632068406B00F095
:101960004040216848632068806B6FF31500216850
:1019700088632068806B6FF31500216888632046B8
:10198000FEF732FD0020E062A06200BF002084F874
:10199000240000BF284683E738B504460025002010
:1019A00000902068806800F0010078BB20688068A3
:1019B00040F0010021688860954800689549B0FBB7
:1019C000F1F0009002E00098401E0090009800287E
:1019D000F9D101F0A7FA054619E001F0A3FA401B7E
:1019E000022814D92068806800F0010078B9A06A44
:1019F00040F01000A062E06A40F00100E06200BF29
:101A0000002084F8240000BF012038BD05E02068D4
:101A1000806800F001000028DFD00020F5E770B5F5
:101A20000446002500BF94F82400012801D10220BB
:101A300070BD012084F8240000BF2046FFF7ACFFF2
:101A40000546002D77D1A06A40F20121884340F479
:101A50008070A06270492068884208D16F48006891
:101A600000F4702008B9012002E0002000E001200D
:101A700078B1A06A20F48010A0622068406800F469
:101A8000806000B3A06A20F4005040F48050A0624F
:101A900019E0A06A40F48010A0626049091F206824
:101AA000884203D05C492068884204D15B480068C2
:101AB00000F4806000E0002028B1A06A20F400500B
:101AC00040F48050A062A06A00F4805020B1E06A27
:101AD00020F00600E06201E00020E06200BF00208C
:101AE00084F8240000BFC01E216808602068806858
:101AF00000F46020B0F5602F16D147492068884275
:101B000008D14648006800F4702008B9012002E0BE
:101B1000002000E0012038B12068806840F4A00077
:101B2000216888600CE006E02068806840F480103E
:101B30002168886004E000BF002084F8240000BF12
:101B4000284675E770B50446002500BF94F82400C8
:101B5000012801D1022070BD012084F8240000BFBB
:101B60002046FFF7CBFD05462DB9A06A20F488502A
:101B700040F00100A06200BF002084F8240000BFF4
:101B80002846E8E7F8B504460D46002600200090F8
:101B9000002701F0C7F906462068806800F48070CD
:101BA00050B1A06A40F02000A06200BF002084F87D
:101BB000240000BF0120F8BD2068406800F4807058
:101BC000E8B92068C06A00F47000C0B928E0681C59
:101BD00030B325B101F0A6F9801BA84220D92068B6
:101BE000006800F00200D8B9A06A40F00400A062CA
:101BF00000BF002084F8240000BF0320DBE716E0CC
:101C0000FDF7E1FFFE0E1FFF00003FFFF00601FFA2
:101C10008800002040420F000028014004240140B9
:101C20002068006800F002000028D0D053E00220B5
:101C300001F060FFFD490968B1FBF0F02168096916
:101C4000FB4A114091B92168C9689211114069B9E4
:101C500021680969F74A114031B92168C9689211B0
:101C6000114009B9142117E0292115E021680969FB
:101C7000F04A114021B92168C9689211114041B15F
:101C800021680969EC4A114029B92168C9681140E5
:101C900009B9542100E0FC2100FB01F718E0681CA1
:101CA00098B125B101F03EF9801BA8420DD90098EA
:101CB000B8420AD2A06A40F00400A06200BF00202F
:101CC00084F8240000BF032075E70098401C0090B2
:101CD0000098B842E3D36FF0120021680860A06A50
:101CE00040F40070A0622068806800F46020B0F5C5
:101CF000602F0DD1207B58B9A06A20F48070A062BB
:101D0000A06A00F4805018B9A06A40F00100A062F7
:101D1000002050E72DE9F04104460D461646002705
:101D200001F000F907461CE0701CD0B126B101F0AB
:101D3000F9F8C01BB04214D9206800682840A842B6
:101D400001D1012000E0002058B9A06A40F0040051
:101D5000A06200BF002084F8240000BF0320BDE87B
:101D6000F081206800682840A84201D1012000E0ED
:101D700000200028D8D0A06A40F48030A0626FF024
:101D80000100216808600020E9E770B504460025DD
:101D900000BF94F82400012801D1022070BD012069
:101DA00084F8240000BF2046FFF7F6FD0546002D0D
:101DB0007DD1A06A40F60161884340F48070A06242
:101DC0009E492068884208D19D48006800F4702030
:101DD00008B9012002E0002000E0012078B1A06AEB
:101DE00020F48010A0622068406800F4806000B396
:101DF000A06A20F4005040F48050A06219E0A06A6C
:101E000040F48010A0628E49091F2068884203D0E8
:101E10008A492068884204D18948006800F48060BB
:101E200000E0002028B1A06A20F4005040F4805067
:101E3000A062A06A00F4805020B1E06A20F00600A1
:101E4000E06201E00020E06200BF002084F824008E
:101E500000BFC01E216808602068406840F0200074
:101E6000216848602068806800F46020B0F5602F29
:101E700016D172492068884208D17148006800F480
:101E8000702008B9012002E0002000E0012038B1F4
:101E90002068806840F4A000216888600CE006E0BB
:101EA0002068806840F480102168886004E000BFEA
:101EB000002084F8240000BF28466FE770B5044670
:101EC000002500BF94F82400012801D1022070BD34
:101ED000012084F8240000BF2046FFF70FFC0546D0
:101EE0005DB92068406820F0200021684860A06A41
:101EF00020F4885040F00100A06200BF002084F868
:101F0000240000BF2846E2E7704770B505466C6ABA
:101F1000A06A40F04000A062E06A40F00400E06285
:101F20002046FFF7F1FF70BD704770B50446656A43
:101F30002846FFF7F9FF70BD704770B505466C6A1B
:101F4000A06A00F05000E0B9A06A40F40070A062FE
:101F50002068806800F46020B0F5602F0DD1207BF0
:101F600058B9A06A20F48070A062A06A00F4805082
:101F700018B9A06A40F00100A0622046FFF7DCFF1C
:101F800003E0206A016B2846884770BD2DE9F041C7
:101F900004460D46164600272949091F2068884235
:101FA00003D026492068884204D12548006800F4FF
:101FB000702000E0002000287ED100BF94F82400AB
:101FC000012802D10220BDE8F081012084F824001C
:101FD00000BF2046FFF7E0FC0746002F6DD1A06A46
:101FE00040F60161884340F48070A0621349206884
:101FF000884208D11248006800F4702008B9012016
:1020000002E0002000E00120E0B1A06A20F480108E
:10201000A0622068406800F4806068B3A06A20F481
:10202000005040F48050A06226E0000088000020AC
:102030002449922492244912499224000028014004
:1020400004240140A06A40F48010A062F94920688D
:10205000884203D0F8492068884205D1F548001D20
:10206000006800F4806000E0002028B1A06A20F43D
:10207000005040F48050A062A06A00F4805020B16B
:10208000E06A20F00600E06201E00020E06200BFAC
:10209000002084F8240000BFAFF26110216A88623A
:1020A000AFF27910216AC862AFF2A110216A086309
:1020B0006FF00200216801E029E023E00860206859
:1020C000806840F4807021688860226802F14C01C9
:1020D00033462A46206A02F0A0F82068806800F49F
:1020E0006020B0F5602F06D12068806840F4A00021
:1020F000216888600CE02068806840F480102168C6
:10210000886005E000BF002084F8240000E001277B
:10211000384658E770B50446002500BF94F82400FF
:10212000012801D1022070BD012084F8240000BFE5
:102130002046FFF7E3FA0546D5B92068806820F409
:10214000807021688860206A90F8210002280FD1F1
:10215000206A02F0B0F8054635B9A06A20F488502C
:1021600040F00100A06203E0A06A40F04000A062DD
:1021700000BF002084F8240000BF2846D3E70146B2
:102180000868C06C7047704770B5044620680568E1
:102190002068466806F0200020282DD105F00200B6
:1021A000022829D1A06A00F0100018B9A06A40F4F2
:1021B0000070A0622068806800F46020B0F5602F95
:1021C00013D1207B88B92068406820F02000216866
:1021D0004860A06A20F48070A062A06A00F4805079
:1021E00018B9A06A40F00100A0622046FFF7A4FEE3
:1021F0006FF012002168086006F08000802839D155
:1022000005F00400042835D1A06A00F0100018B9C8
:10221000A06A40F40050A0622068806800F4E040AA
:10222000B0F5E04F0DD02068406800F48060D0B970
:102230002068806800F46020B0F5602F13D1207B07
:1022400088B92068406820F0800021684860A06A52
:1022500020F48050A062A06A00F4807018B9A06ACF
:1022600040F00100A062204600F09DFC6FF00C00E1
:102270002168086006F0400040280DD105F00100FB
:1022800050B1A06A40F48030A0622046FFF77BFF87
:102290006FF001002168086070BD38B50246002368
:1022A0000020009000BF92F82400012801D10220F4
:1022B00038BD012082F8240000BF4868072812D2E8
:1022C0001068406B0C79641E04EB84051F24AC403D
:1022D000A0430D796D1E05EB85050C68AC402043CD
:1022E0001468606327E048680D2812D21068006BFC
:1022F0000C79E41F04EB84051F24AC40A0430D7946
:10230000ED1F05EB85050C68AC4020431468206385
:1023100011E01068C06A0C790D3C04EB84051F24A1
:10232000AC40A0430D790D3D05EB85050C68AC4034
:1023300020431468E06208680A2812D31068C06855
:102340000C780A3C04EB44050724AC40A0430D780C
:102350000A3D05EB45058C68AC4020431468E060FD
:102360000FE0106800690C7804EB44050724AC40CA
:10237000A0430D7805EB45058C68AC4020431468FC
:1023800020610868102802D00868112827D1294C3C
:102390001068A0421ED11068806800F40000F0B9F7
:1023A0001068806840F400001468A0600868102875
:1023B00015D122480068224CB0FBF4F000EB8000FD
:1023C0004000009002E00098401E00900098002815
:1023D000F9D104E0906A40F020009062012300BF30
:1023E000002082F8240000BF184661E710B50246BD
:1023F000144B0868984207D0134B0868984203D0E2
:10240000124B0868984200D100BF00BF92F8240028
:10241000012801D1022010BD012082F8240000BF54
:10242000087A012814D11068406840F04000136811
:10243000586013E00024014000280140880000207B
:1024400040420F0000028000000240000002C00075
:102450001068406820F0400013685860D1E900031C
:10246000184313685B680C4C23401843136858608A
:10247000C8681368586208691368986200BF002032
:1024800082F8240000BF00BFC5E70146886A704794
:102490000146C86A70470000E0FD3FFFF8B50446FA
:1024A00000260020009000BF94F82400012801D1EC
:1024B0000220F8BD012084F8240000BF2046FFF769
:1024C0001DF906462046FFF767FA0646002E69D139
:1024D000A06A20F4885040F00200A062022001F0BF
:1024E00009FBFE490968B1FBF0F04000009002E0F2
:1024F0000098401E009000980028F9D1206880685C
:1025000040F008002168886000F00CFD054616E0E8
:1025100000F008FD401B0A2811D92068806800F0EF
:10252000080060B1A06A20F0020040F01000A06234
:1025300000BF002084F8240000BF0120B9E7206814
:10254000806800F008000028E2D12068806840F030
:1025500004002168886000F0E5FC054616E000F004
:10256000E1FC401B0A2811D92068806800F00400B3
:1025700060B1A06A20F0020040F01000A06200BF2D
:10258000002084F8240000BF012092E720688068C2
:1025900000F004000028E2D1A06A20F0020040F020
:1025A0000100A06200BF002084F8240000BF304674
:1025B0007FE770B50446002500BF94F82400012889
:1025C00001D1022070BD012084F8240000BF204604
:1025D000FFF7E2F90546002D55D1A06A42F201014C
:1025E000884340F48050A062BD492068884208D1E9
:1025F000BC48006800F4702008B9012002E0002007
:1026000000E0012020B1A06A20F48010A06203E065
:10261000A06A40F48010A062A06A00F4807008B93B
:102620000020E06200BF002084F8240000BF401FAB
:10263000216808602068406800F4806010BB206852
:10264000806800F4E040B0F5E04F15D1A44920685F
:10265000884208D1A348006800F4702008B901201E
:1026600002E0002000E0012030B12068806840F4E2
:102670000210216888600BE02068806840F4004008
:102680002168886004E000BF002084F8240000BFB7
:10269000284697E770B50446002500BF94F824004B
:1026A000012801D1022070BD012084F8240000BF60
:1026B000A06A00F4807080B92068406800F48060EF
:1026C00058B92046FFF71AF805465DB9A06A20F40C
:1026D000885040F00100A06204E0A06A40F02000B1
:1026E000A062012500BF002084F8240000BF284616
:1026F000D9E7F8B504460D4600200090002700F009
:1027000011FC06462068806B00F44010F8B917E011
:10271000681CA8B125B100F005FC801BA8420FD9A8
:102720002068006800F0040050B9A06A40F004007E
:10273000A06200BF002084F8240000BF0320F8BD81
:102740002068006800F004000028E1D053E0022077
:1027500001F0D0F961490968B1FBF0F0216809691D
:10276000614A114091B92168C9689211114069B953
:10277000216809695D4A114031B92168C96892111F
:10278000114009B9142117E0292115E021680969D0
:10279000564A114021B92168C9689211114041B1CE
:1027A00021680969524A114029B92168C968114054
:1027B00009B9542100E0FC2100FB01F718E0681C76
:1027C00098B125B100F0AEFB801BA8420DD900984E
:1027D000B8420AD2A06A40F00400A06200BF002004
:1027E00084F8240000BF0320A9E70098401C009053
:1027F0000098B842E3D36FF00E0021680860A06A29
:1028000040F40050A0622068806800F4E040B0F519
:10281000E04F0DD02068406800F48060A0B92068C7
:10282000806800F46020B0F5602F0DD1207B58B98E
:10283000A06A20F48050A062A06A00F4807018B9E9
:10284000A06A40F00100A062002078E770B504465D
:10285000002500BF94F82400012801D1022070BD9A
:10286000012084F8240000BF2046FFF795F80546B4
:10287000002D68D1A06A42F20101884340F48050E3
:10288000A06217492068884208D11648006800F401
:10289000702008B9012002E0002000E0012020B1F2
:1028A000A06A20F48010A06203E0A06A40F48010C7
:1028B000A062A06A00F4807008B90020E06200BF46
:1028C000002084F8240000BF401F216808602068B1
:1028D000406840F08000216848600BE088000020DC
:1028E00000280140042401402449922492244912E2
:1028F000499224002068406800F4806010BB206882
:10290000806800F4E040B0F5E04F15D1F849206848
:10291000884208D1F748006800F4702008B9012007
:1029200002E0002000E0012030B12068806840F41F
:102930000210216888600BE02068806840F4004045
:102940002168886004E000BF002084F8240000BFF4
:10295000284684E770B50446002500BF94F824009B
:10296000012801D1022070BD012084F8240000BF9D
:10297000A06A00F48070B0B92068406800F48060FC
:1029800088B92046FEF7BAFE05468DB92068406832
:1029900020F0800021684860A06A20F4885040F050
:1029A0000100A06204E0A06A40F02000A0620125BE
:1029B00000BF002084F8240000BF2846D3E7F0B50C
:1029C0008DB004460E4617460025302101A810F0B0
:1029D00077FD00BF94F82400012802D102200DB039
:1029E000F0BD012084F8240000BFC1480190019887
:1029F000806800F46020B0F5602F0AD0A06A40F033
:102A00002000A06200BF002084F8240000BF012045
:102A1000E5E72046FEF7C0FF05461DB901A8FEF711
:102A2000BBFF0546002D46D1A06AB349084040F4DB
:102A30008070A0622068406800F4806028B1A06ABD
:102A400020F4005040F48050A06200BF002084F8C1
:102A5000240000BFE062A948216A8862A848216A70
:102A6000C862A848216A08636FF002002168086004
:102A70002068806840F4807021688860226802F1D4
:102A80004C013B463246206A01F0C7FB2068806853
:102A900000F46020B0F5602F06D12068806840F413
:102AA000A000216888600BE02068806840F48010F6
:102AB0002168886004E000BF002084F8240000BF83
:102AC00028468CE730B58DB004460025302101A89A
:102AD00010F0F6FC00BF94F82400012802D1022077
:102AE0000DB030BD012084F8240000BF2046FEF761
:102AF00005FE05463DBB7E48019001A8FEF7FEFDA0
:102B0000054655B1A06A40F01000A06200BF002049
:102B100084F8240000BF0120E2E72068806820F4E8
:102B20008070216888602068406820F470202168E7
:102B30004860206A01F0BFFB0546A06A20F4885077
:102B400040F00100A06200BF002084F8240000BF14
:102B50002846C5E70246002001290ED0022909D0E7
:102B6000032904D0042909D11368986C09E013687B
:102B7000586C06E01368186C03E000BF1368D86B4C
:102B800000BF00BF7047014600200A68D06C594A58
:102B9000121D126802F4807222B9554A4C32126832
:102BA00040EA02407047704738B5024600230020D3
:102BB0000090906800B100BF00BF92F82400012887
:102BC00001D1022038BD012082F8240000BF9068A6
:102BD00090B94868012809D11068806B6FF315001F
:102BE0000C6840EAC4301468A06338E0906A40F092
:102BF00020009062012332E00C694868A0421ED890
:102C00004C680869001BC0F1030000EB80041F2022
:102C1000A04040F440141068806BA0434D680C69DC
:102C2000641BC4F1030404EB84050C68AC400D8AFA
:102C30006D1E44EA055420431468A0630FE04C68FD
:102C40000869001BC0F1030000EB80041F20A040B6
:102C500040F440141068806BA0431468A0631068AF
:102C6000806800F0010040B91068806847F20104F4
:102C7000A0438C6920431468A060487D01280FD1CF
:102C80008869B0F5E04F06D11068406840F4806074
:102C90001468606004E0906A40F0200090620123B4
:102CA000087D01280DD1487D30B91068406840F496
:102CB00080501468606004E0906A40F020009062E8
:102CC000012308680A281FD31068C0680C780A3CE2
:102CD00004EB44050724AC40A0430D780A3D05EB06
:102CE00045058C68AC4020431468E0601CE000009F
:102CF0000028014004240140FEFDEFFF3B1F0008B7
:102D00002B1F00080B1F0008106800690C7804EBEB
:102D100044050724AC40A0430D7805EB45058C68BD
:102D2000AC402043146820610868102802D008686D
:102D3000112805D11068806840F400001468A06074
:102D40004868012806D002280DD0032814D0042892
:102D50001CD11AE0106840696FF30B00CC68204367
:102D6000146860611BE0106880696FF30B00CC6829
:102D700020431468A06112E01068C0696FF30B0073
:102D8000CC6820431468E06109E000BF1068006A65
:102D90006FF30B00CC6820431468206200BF00BFB3
:102DA0000868102802D00868112827D1344C106810
:102DB000A0421ED11068806800F40000F0B91068CD
:102DC000806840F400001468A0600868102815D1DD
:102DD0002C4800682C4CB0FBF4F000EB8000400065
:102DE000009002E00098401E009000980028F9D161
:102DF00004E0906A40F020009062012300BF0020B0
:102E000082F8240000BF1846DCE670B58CB004469A
:102E10000D4600263021684610F052FB00BF94F8A2
:102E20002400012802D102200CB070BD012084F8DA
:102E3000240000BF154800902068806800F0010061
:102E400088B90098806800F0010060B90C492068DA
:102E5000884208D12068406820F47020296808431F
:102E60002168486004E0A06A40F02000A0620126CA
:102E700000BF002084F8240000BF3046D4E70000E3
:102E8000002401408800002040420F00002801403B
:102E9000704770B50446644800784FF47A71B1FB0E
:102EA000F0F062490968B1FBF0F5284601F0C5FD74
:102EB00008B1012070BD102C07D200222146501EFF
:102EC00001F02EFD5A48046001E00120F2E70020E5
:102ED000F0E710B55748006840F010005549086009
:102EE000032001F00BFD0A20FFF7D3FFFEF70AF8DD
:102EF000002010BD704710B54FF0FF304E490861FB
:102F000000200861401EC8600020C860FFF7F2FF83
:102F1000002010BD494800684349097808444749E2
:102F2000086070474548006870474148006870472E
:102F300070B5044600253C480078A0420AD03A48C3
:102F4000067804703A480068FFF7A3FF05460DB104
:102F500035480670284670BD33480078704770B514
:102F60000446FFF7DFFF06462546681C10B12E48D1
:102F70000078054400BFFFF7D5FF801BA842FAD3B5
:102F800070BD4FF0E020006920F002004FF0E0211A
:102F9000086170474FF0E020006940F002004FF0F8
:102FA000E021086170472648704726480068000CF9
:102FB000704724480068C0F30B007047224800683F
:102FC00070472148001D006870471F48083000689E
:102FD00070471C48406840F001001A49486070473B
:102FE0001848406820F001001649486070471548AD
:102FF000406840F00200134948607047114840683B
:1030000020F002000F49486070470E48406840F0C9
:1030100004000C49486070470A48406820F00400EA
:1030200008494860704700008400002088000020A4
:103030008000002000200240001002407C000020A0
:1030400000090101002004E0E8F7FF1F10B5FFF7B9
:1030500069FF0446F748006840F00100F549086040
:1030600006E0FFF75FFF001B022801D9032010BD17
:10307000F048006800F002000028F2D0ED48006837
:1030800020F0F80040F08000EA490860FFF74AFFAE
:1030900004460020E749486008E0FFF743FF001BB3
:1030A00041F28831884201D90320E0E7E1484068D5
:1030B00000F00C000028F0D1DF48E0490860E0484B
:1030C0000068FFF7E6FE08B10120D0E7FFF72AFF0E
:1030D0000446D848006820F08070D649086006E0B1
:1030E000FFF720FF001B022801D90320BFE7D148CA
:1030F000006800F000700028F2D1CE494860FFF768
:1031000011FF0446CB48006820F41020C94908602C
:1031100006E0FFF707FF001B642801D90320A6E79C
:10312000C448006800F400300028F2D1C1480068AB
:1031300020F48020BF4908600846406A40F0807053
:1031400048620020886000BF91E708B5BB49096864
:10315000C9084FF47A72B1FBF2F14143009100BF0C
:1031600000BF00994A1E00920029F9D108BDF8B5A8
:1031700004460CB90120F8BD207800F001000028B9
:1031800078D0AC48406800F00C0004280CD0A94866
:10319000406800F00C00082811D1A648406800F4EF
:1031A0008030B0F5803F0AD1A248006800F40030BA
:1031B00000285FD0606800285CD10120DBE700BFF9
:1031C0006068B0F5803F06D19A48006840F48030CE
:1031D0009849086028E0606858B99648006820F46B
:1031E0008030944908600846006820F48020086018
:1031F0001AE06068B0F5A02F0BD18E48006840F44B
:1032000080208C4908600846006840F480300860DF
:103210000AE08848006820F4803086490860084643
:10322000006820F48020086000BF606888B1FFF764
:1032300079FE054606E0FFF775FE401B642801D9BC
:10324000032098E77B48006800F400300028F2D0A3
:1032500010E0FFF767FE054606E0FFF763FE401B40
:10326000642801D9032086E77248006800F4003022
:103270000028F2D1207800F00200022857D16D48D2
:10328000406800F00C0050B16A48406800F00C0043
:10329000082818D16748406800F4803098B965481C
:1032A000006800F0020020B12069012801D001204F
:1032B00061E76048006820F0F800616940EAC100F9
:1032C0005C49086033E02069E8B101205D4908608D
:1032D000FFF728FE054606E0FFF724FE401B022804
:1032E00001D9032047E75348006800F00200002896
:1032F000F2D05048006820F0F800616940EAC1004F
:103300004C49086013E000204E490860FFF70AFEB0
:10331000054606E0FFF706FE401B022801D9032000
:1033200029E74448006800F002000028F2D1207824
:1033300000F0080008282DD1A069B8B10120424949
:103340000860FFF7EFFD054606E0FFF7EBFD401BC9
:10335000022801D903200EE73648406A00F0020037
:103360000028F2D00120FFF7F0FE13E000203649DC
:103370000860FFF7D7FD054606E0FFF7D3FD401BC9
:10338000022801D90320F6E62A48406A00F002002C
:103390000028F2D1207800F00400042879D1002719
:1033A0002448C06900F0805070B900BF2148C0694E
:1033B00040F080501F49C8610846C06900F0805045
:1033C000009000BF00BF01272048006800F4807013
:1033D000B0B91E48006840F480701C490860FFF7CF
:1033E000A1FD054606E0FFF79DFD401B642801D9BD
:1033F0000320C0E61548006800F480700028F2D071
:1034000000BFE068012806D10A48006A40F00100C8
:103410000849086236E0E068D0B90648006A20F042
:103420000100044908620846006A20F004000862AE
:1034300028E000000010024000127A0088000020FE
:1034400080000020000042428004424200700040A0
:10345000E06805280BD1F648006A40F00400F44902
:1034600008620846006A40F0010008620AE0F0487D
:10347000006A20F00100EE4908620846006A20F068
:103480000400086200BFE068A0B1FFF74BFD0546ED
:1034900009E02BE0FFF746FD401B41F288318842EE
:1034A00001D9032067E6E248006A00F00200002824
:1034B000F0D012E0FFF736FD054608E0FFF732FDD9
:1034C000401B41F28831884201D9032053E6D84895
:1034D000006A00F002000028F0D1012F05D1D44885
:1034E000C06920F08050D249C86100BFE069C8B30C
:1034F000CF48406800F00C00082857D0E069022847
:103500003FD10020CB490866FFF70CFD054606E0D9
:10351000FFF708FD401B022801D903202BE6C44811
:10352000006800F000700028F2D1206AB0F5803FFA
:1035300007D1BF48406820F40030A1680843BC4967
:103540004860D4E908010843B949496821F4741175
:103550000843B74948600120B6490866FFF7E2FC16
:10356000054607E034E0FFF7DDFC401B022801D9E7
:10357000032000E6AE48006800F000700028F2D09A
:1035800026E00020AB490866FFF7CCFC054606E0C4
:10359000FFF7C8FC401B022801D90320EBE5A44833
:1035A000006800F000700028F2D111E0E069012805
:1035B00000D1E0E59E48466806F48031206A8142E9
:1035C00004D106F47011606A814201D00120D2E575
:1035D0000020D0E570B50021002200240023002047
:1035E000934D696801F00C05EDB1042D02D0082D52
:1035F0001AD101E0904819E0904DC1F38346AB5DCC
:1036000001F4803555B18A4D6D68C5F340458C4E47
:10361000725D894D5D43B5FBF2F402E0894D03FB19
:1036200005F4204602E000BF834800BF00BF70BD24
:1036300070B504460D460CB9012070BD8248006883
:1036400000F00700A8420ED27F48006820F0070073
:1036500028437D4908600846006800F00700A8423A
:1036600001D00120E9E7207800F0020002281DD1F6
:10367000207800F00400042805D16D48406840F42B
:10368000E0606B494860207800F00800082805D108
:103690006748406840F46050654948606448406845
:1036A00020F0F000A168084361494860207800F0EC
:1036B000010078B36068012806D15D48006800F415
:1036C000003090B90120B8E76068022806D1584858
:1036D000006800F0007040B90120AEE7544800686F
:1036E00000F0020008B90120A7E75148406820F027
:1036F0000300616808434E494860FFF713FC064623
:1037000009E0FFF70FFC801B41F28831884202D9A3
:10371000032092E707E04648406800F00C0061682B
:10372000B0EB810FEDD14848006800F00700A842D7
:103730000ED94548006820F0070028434249086038
:103740000846006800F00700A84201D0012074E795
:10375000207800F00400042807D13548406820F4A0
:10376000E060E168084332494860207800F00800D2
:10377000082808D12E48406820F46050216940EAAA
:10378000C1002B494860FFF725FF29494968C1F36B
:1037900003112E4A515CC8402D4908602D4800682D
:1037A000FFF777FB002048E770B586B005460C466A
:1037B000164600200290039004900590022003908A
:1037C00003200590002004904FF48070029000BF09
:1037D0001748806940F004001549886108468069EF
:1037E00000F00400019000BF00BF02A91A4800F0D9
:1037F00003FA0F48406820F0E06020430C4948601D
:1038000006B070BD01200B49C8647047002009490B
:10381000C86470470E480068704700B5FFF7FAFFAC
:1038200003494968C1F302210C4A515CC84000BDFC
:10383000001002400000424200127A00DC9E0108A3
:10384000EC9E010800093D0000200240009F010895
:10385000880000208000002000080140109F01081F
:1038600000B5FFF7D7FF4A494968C1F3C221494A69
:10387000515CC84000BD0F2101604549096801F451
:103880008021B1F5802F03D14FF4A02141600CE0DD
:103890003F49096801F48031B1F5803F03D14FF40D
:1038A0008031416001E0002141603949496801F4FB
:1038B000003181603649096801F0010111B101212F
:1038C000016101E00021016131490968C1F3C401CE
:1038D00041612F49096A01F00401042902D105213F
:1038E000C16009E02A49096A01F0010111B1012111
:1038F000C16001E00021C1602549496A01F0010170
:1039000011B10121816101E0002181612049096833
:1039100001F08071B1F1807F02D10221C16101E02B
:103920000121C1611A49496801F4803202621849D3
:10393000496801F47012426270470F220260144A13
:10394000526802F003024260114A526802F0F0022B
:1039500082600F4A526802F4E062C2600C4A526808
:1039600002F46052D20802610B4A126802F00702A8
:103970000A607047704710B50548806800F0800005
:10398000802804D1FFF7F6FF80200149887210BD1E
:1039900000100240109F010800200240F8B50446C4
:1039A00000260025207800F0010000286BD00027B9
:1039B0008A48C06900F0805070B900BF8748C0696C
:1039C00040F080508549C8610846C06900F08050C9
:1039D000009000BF00BF01278148006800F480709C
:1039E000B0B97F48006840F480707D490860FFF7F7
:1039F00099FA064606E0FFF795FA801B642801D97C
:103A00000320F8BD7648006800F480700028F2D0EA
:103A10007248006A00F440752DB3A08800F440702D
:103A2000A84220D06D48006A20F4407501206D49FD
:103A30000860002008606948056205F0010090B147
:103A4000FFF770FA064608E0FFF76CFA801B41F2B8
:103A50008831884201D90320D3E76048006A00F02A
:103A600002000028F0D05D48006A20F440706168D0
:103A700008435A490862012F04D10846C06920F062
:103A80008050C86100BF207800F00200022807D1F2
:103A90005248406820F44040A16808434F494860BC
:103AA000207800F01000102807D14C48406820F41E
:103AB0008000E1680843494948600020A1E70021EF
:103AC00001220260454A126A02F4407141600268B4
:103AD00042F002020260414A526802F440428260AF
:103AE000026842F0100202603C4A526802F480020E
:103AF000C26070472DE9F04706464FF000080025E8
:103B000000270024A146012E31D0022E56D0102EBF
:103B10005FD132484468006800F0807008B33248D2
:103B2000C4F38341475C04F4803078B12B4840688B
:103B3000C0F340402D4911F8008004F4803040B1BA
:103B40002B48B0FBF8F000FB07F502E0294807FB23
:103B500000F52248406800F48000B0F5800F01D1E4
:103B6000A94603E068000321B0FBF1F932E01B48ED
:103B7000046A04F44070B0F5807F05D104F00200BF
:103B800010B14FF4004918E004F44070B0F5007F24
:103B900007D11248406A00F0020010B149F64049CE
:103BA0000BE004F44070B0F5407F06D10B4800688C
:103BB00000F4003008B14FF224490BE0FFF750FE4B
:103BC00006494968C1F38131491C4900B0FBF1F94C
:103BD00000E000BF00BF4846BDE8F087001002408B
:103BE0000070004040044242EE9E0108FE9E010823
:103BF00000127A0000093D002DE9F8470346002233
:103C000094466EE14FF0010808FA02F4D1F8008002
:103C100008EA0400A0427DD1DFF878A4D1F804803E
:103C2000A8EB0A09D0453AD014DCB8F1030F50D004
:103C300009DCB8F1000F31D0B8F1010F1CD0B8F198
:103C4000020F49D120E0B8F1110F18D0B8F1120FCE
:103C500042D11EE0B9F5881F25D006DCB9F5803FBA
:103C600020D0B9F5801F37D11AE0B9F5001F18D060
:103C7000B9F5041F30D117E0D1F80CC02DE0D1F810
:103C80000C8008F1040C28E0D1F80C8008F1080C35
:103C900023E0D1F80C8008F10C0C1EE000BF00BF3F
:103CA00000BF00BF00BF00BFD1F80880B8F1000F0F
:103CB00002D14FF0040C0BE0D1F80880B8F1010FED
:103CC00003D14FF0080C1C6102E04FF0080C5C615E
:103CD00003E04FF0000C00E000BF00BFFF2801D858
:103CE000984601E003F104084646FF2802D84FEA4F
:103CF000820803E0A2F108084FEA88084746D6F890
:103D000000804FF00F0909FA07F928EA09080CFAB0
:103D100007F900E088E048EA0908C6F80080D1F811
:103D2000048008F08058B8F1805F7DD100BFDFF8D3
:103D30006883D8F8188048F00108DFF85C93C9F868
:103D40001880C846D8F8188008F00108CDF800801F
:103D500000BF00BF4FEAB9384FEA920958F829501E
:103D60004FEA82784FEA18794FF00F0808FA09F8FD
:103D700025EA0805DFF82483434502D14FF0000807
:103D800016E0DFF81C83434502D14FF001080FE035
:103D9000DFF81083434502D14FF0020808E0DFF856
:103DA0000883434502D14FF0030801E04FF00408B7
:103DB0004FEA82794FEA197908FA09F848EA0505C5
:103DC000DFF8E8824FEA920948F82950D1F80480D8
:103DD00008F48018B8F5801F0AD1DFF8D482D8F82B
:103DE000008048EA0008DFF8C892C9F8008009E0BE
:103DF000DFF8BC82D8F8008028EA0008DFF8B0922B
:103E0000C9F80080D1F8048008F40018B8F5001F44
:103E100010D1DFF89C8208F10408D8F8008048EA45
:103E20000008DFF88C9200E05AE009F10409C9F8B3
:103E300000800DE0DFF8788208F10408D8F80080EF
:103E400028EA0008DFF8689209F10409C9F800803F
:103E5000D1F8048008F40038B8F5003F0ED1DFF83F
:103E60005082A8F10408D8F8008048EA0008DFF87A
:103E70004092A9F10409C9F800800DE0DFF8308212
:103E8000A8F10408D8F8008028EA0008DFF820929A
:103E9000A9F10409C9F80080D1F8048008F4803839
:103EA000B8F5803F0ED1DFF80882A8F10808D8F8ED
:103EB000008048EA0008DFF8F891A9F10809C9F87C
:103EC00000800DE0DFF8E881A8F10808D8F800804C
:103ED00028EA0008DFF8D891A9F10809C9F800809C
:103EE000521CD1F8008028FA02F8B8F1000F7FF4D4
:103EF00089AEBDE8F8872DE9F04102460B46002067
:103F000082E00127874007EA030100297BD0674F41
:103F10004FEA900C57F82C4087074FEA177C0F2781
:103F200007FA0CF73C405D4FBA4201D100270FE081
:103F30005B4FBA4201D101270AE05A4FBA4201D180
:103F4000022705E0584FBA4201D1032700E00427B9
:103F50004FEA807C4FEA1C7C07FA0CF7A74233D16A
:103F6000534F083F3F688F43DFF844C1ACF1080C62
:103F7000CCF800700CF104073F688F430CF1040C7F
:103F8000CCF800704A4F3F1D3F688F43DFF820C1D7
:103F90000CF1040CCCF80070454F3F688F43DFF8FC
:103FA00010C1CCF8007087074FEA177C0F2707FA7B
:103FB0000CF43E4F4FEA900C57F82CC02CEA040C3E
:103FC0004FEA900847F828C0FF2901D8174600E0BB
:103FD000171D3D46FF2901D8870002E0A0F1080720
:103FE000BF003E462F684FF00F0C0CFA06FC27EA84
:103FF0000C074FF0040C0CFA06FC47EA0C072F6084
:10400000D7688F43D760401C23FA00F7002F7FF456
:1040100078AFBDE8F081024693680B400BB10120F8
:1040200000E0002070470AB1016101E00B04036168
:10403000704710B5C26821EA020302EA010443EAAC
:104040000443036110BD08B502464FF48030009070
:1040500000980843009000989061916100989061E9
:1040600090690090906900F4803008B1002008BD8C
:104070000120FCE7704710B504460D480C3000687D
:10408000204028B10A480C3004602046FCF787FC29
:1040900010BD000000001110001002400008014097
:1040A000000C0140001001400014014008000140D4
:1040B000080401400146002209B901207047F94B6C
:1040C0000868C01A1423B0FBF3F080000864F548B8
:1040D0000838C863022081F821000868026843F6A6
:1040E000F0708243D1E901031843CB6818430B6990
:1040F00018434B6918438B691843CB691843024333
:104100000868026000208863012081F821000020F7
:1041100081F8200000BFD1E7014609B901207047AE
:104120000868006820F001000A68106000200A6832
:1041300010600A6850600A6890600A68D060D94AC6
:104140000868801A1422B0FBF2F080000864D54899
:104150000838C86391F8402001209040CA6B506035
:1041600000208862C86208634863886381F8210080
:1041700000BF81F8200000BF00BFD0E730B590F845
:1041800040500124AC40C56B6C60046863604468B7
:10419000102C04D10468A2600468E16003E00468A4
:1041A000A1600468E26030BD2DE9F04104460D468F
:1041B00016461F464FF0000800BF94F82000012863
:1041C00002D10220BDE8F081012084F8200000BF68
:1041D00094F82100012817D1022084F82100002042
:1041E000A0632068006820F00100216808603B4659
:1041F000324629462046FFF7C1FF2068006840F09C
:1042000001002168086006E000BF002084F820005B
:1042100000BF4FF002084046D4E72DE9F0410446C4
:104220000D4616461F464FF0000800BF94F82000C8
:10423000012802D10220BDE8F081012084F820008D
:1042400000BF94F8210001282CD1022084F821001D
:104250000020A0632068006820F001002168086049
:104260003B46324629462046FFF788FFE06A30B1D8
:104270002068006840F00E00216808600BE02068AC
:10428000006820F00400216808602068006840F0A1
:104290000A00216808602068006840F00100216879
:1042A000086006E000BF002084F8200000BF4FF047
:1042B00002084046BFE70146002291F8210002288B
:1042C00008D00420886300BF002081F8200000BFD0
:1042D000012070470868006820F00E000B68186025
:1042E0000868006820F001000B68186091F8403001
:1042F00001209840CB6B5860012081F8210000BF5D
:10430000002081F8200000BF1046E2E770B50446A7
:10431000002594F82100022803D00420A063012581
:1043200048E02068006820F00E00216808602068DE
:10433000006820F00100216808605A49206888421E
:1043400001D1012026E0574914312068884201D16B
:1043500010201FE0534928312068884201D1801580
:1043600018E050493C312068884201D1801411E0A6
:104370004C4950312068884202D14FF4803009E026
:10438000484964312068884202D14FF4801001E02E
:104390004FF08070434908394860012084F82100BB
:1043A00000BF002084F8200000BF606B10B12046E1
:1043B000616B8847284670BD2DE9F04104460E46E2
:1043C00015464FF0000894F82100022809D0042077
:1043D000A06300BF002084F8200000BF0120BDE8DA
:1043E000F0812068006800F0200020B14FF4807058
:1043F000A0630120F3E77EBB2A492068884201D1EF
:10440000022027E0274914312068884201D120206A
:1044100020E0244928312068884201D1401519E064
:1044200020493C312068884202D14FF4005011E00D
:104430001C4950312068884202D14FF4003009E015
:10444000184964312068884202D14FF4001001E01D
:104450004FF00070074631E0FFE7124920688842BC
:1044600001D1042029E00F4914312068884201D18C
:10447000402022E00B4928312068884201D10015F4
:104480001BE008493C312068884202D14FF480404B
:1044900013E0044950312068884205D14FF4802050
:1044A0000BE0000008000240FA492068884202D16F
:1044B0004FF4800001E04FF080600746FEF732FDC8
:1044C00080465DE0F3486C380068F24A643A21683F
:1044D000914201D1082126E0EE4A503A21689142EA
:1044E00001D180211FE0EB4A3C3A2168914201D181
:1044F000C91418E0E74A283A2168914202D14FF4E2
:10450000004110E0E34A143A2168914202D14FF48D
:10451000002108E0DF4A2168914202D14FF40001F6
:1045200001E04FF00061084098B194F8401001207C
:104530008840E16B4860A06B40F00100A06301205F
:1045400084F8210000BF002084F8200000BF012073
:1045500045E7681CA0B12DB1FEF7E4FCA0EB080014
:10456000A8420DD9A06B40F02000A063012084F880
:10457000210000BF002084F8200000BF01202EE7AA
:10458000C4486C380068384000289BD0A6BBC1499D
:1045900064392068884201D1022026E0BD495039A3
:1045A0002068884201D120201FE0BA493C392068A8
:1045B000884201D1401518E0B64928392068884260
:1045C00002D14FF4005010E0B249143920688842FB
:1045D00002D14FF4003008E0AE492068884202D191
:1045E0004FF4001001E04FF00070AA496C394860A8
:1045F000012084F8210031E0FFE7A64964392068F2
:10460000884201D1042026E0A2495039206888421E
:1046100001D140201FE09F493C392068884201D1E8
:10462000001518E09B4928392068884202D14FF4D0
:10463000804010E0974914392068884202D14FF435
:10464000802008E093492068884202D14FF480001E
:1046500001E04FF080608F496C39486000BF002056
:1046600084F8200000BF00BFB9E670B50446E06BD7
:1046700005682068066894F84010042088402840A7
:10468000002846D006F00400002842D020680068C8
:1046900000F0200028B92068006820F0040021689C
:1046A00008607C4964392068884201D1042026E0F2
:1046B000784950392068884201D140201FE075496F
:1046C0003C392068884201D1001518E07149283929
:1046D0002068884202D14FF4804010E06D491439BF
:1046E0002068884202D14FF4802008E069492068A0
:1046F000884202D14FF4800001E04FF080606549AC
:104700006C394860E06A00287AD02046E16A884720
:1047100076E094F84010022088402840A8B306F0C4
:10472000020090B32068006800F0200040B92068C3
:10473000006820F00A0021680860012084F8210048
:10474000544964392068884201D1022027E0514948
:1047500050392068884201D1202020E04D493C3961
:104760002068884201D1401519E04A49283920685B
:10477000884202D14FF4005011E0464914392068B4
:10478000884203D14FF4003009E016E04149206827
:10479000884202D14FF4001001E04FF000703D4913
:1047A0006C39486000BF002084F8200000BFA06A78
:1047B00030B32046A16A884722E094F840100820D0
:1047C00088402840E0B106F00800C8B120680068C1
:1047D00020F00E002168086094F840100120884005
:1047E000E16B48600120A06384F8210000BF002035
:1047F00084F8200000BF206B10B12046216B884751
:1048000070BD10B50346002400BF93F820000128B6
:1048100001D1022010BD012083F8200000BF93F8D1
:104820002100012812D131B1012906D0022906D078
:10483000032908D105E09A6207E0DA6205E01A630D
:1048400003E05A6301E0012400BF00E0012400BF3F
:10485000002083F8200000BF2046DBE7024600234B
:1048600000BF92F82000012801D1022070470120EA
:1048700082F8200000BF92F8210001281ED10529EE
:1048800019D2DFE801F003090C0F1200002090623A
:1048900013E000006C0002400020D0620DE0002018
:1048A00010630AE00020506307E000209062D062AD
:1048B0001063506301E0012300BF00E0012300BF4B
:1048C000002082F8200000BF1846CFE7014691F88B
:1048D000210070470146886B7047000010B5002822
:1048E00004DB0A07130EBC4A135406E00A07140E31
:1048F000BA4A00F00F031B1FD45410BD00BF00F0D4
:104900000702B64B0C3B19684FF6FF031940B44B36
:104910000B4343EA0221B14B0C3B196000BF7047C7
:104920002DE9F05F80460D461646002700F04EF94F
:10493000074639462A46334601F00700C0F1070A08
:10494000BAF1040F02D94FF0040A01E0C0F1070ADE
:10495000D14600F1040ABAF1070F02D24FF0000A63
:1049600001E0A0F1030AD4464FF0010A0AFA09FA5D
:10497000AAF1010A0AEA020A0AFA0CFA4FF0010B3C
:104980000BFA0CFBABF1010B0BEA030B4AEA0B042D
:1049900021464046FFF7A2FFBDE8F09F01460846CA
:1049A000002809DB00F01F0301229A4043099B0005
:1049B00003F1E023C3F8002100BF704710B50146A2
:1049C0000846002817DB00F01F0301229A40854BA0
:1049D000440943F8242000BF00BF00BFBFF34F8F3E
:1049E00000BF00BF00BF00BF00BF00BFBFF36F8F9D
:1049F00000BF00BF00BF00BF10BD00BF00BF00BFB1
:104A000000BF00BFBFF34F8F00BF00BF00BF7348A0
:104A10000C38006800F4E06071490843001D6F49DC
:104A20000C39086000BF00BF00BFBFF34F8F00BF4D
:104A300000BF00BF00BF00BFFDE770B504462546BC
:104A4000681EB0F1807F01D301200FE0681E4FF097
:104A5000E02148610F214FF0FF30FFF73FFF0020BA
:104A60004FF0E021886107200861002070BD10B57B
:104A700000F0ACF810BD2DE9F043044620460028B4
:104A800003DB554F3F5C3F0907E0544F00F00F0C2C
:104A9000ACF1040C17F80C703F093D460E4606F0C9
:104AA0000700C0F10708B8F1040F02D94FF004085D
:104AB00001E0C0F10708C44600F10408B8F1070F8F
:104AC00002D24FF0000801E0A0F10308474625FAA2
:104AD00007F84FF0010909FA0CF9A9F1010908EAF0
:104AE0000908C2F800804FF0010808FA07F8A8F199
:104AF000010808EA0508C3F8008000BFBDE8F0839C
:104B000010B501460846002808DB00F01F0301220B
:104B10009A40344B8033440943F8242000BF10BD31
:104B200010B50146084600280EDB2E4A80324309A4
:104B300052F8232000F01F040123A3401A400AB1B9
:104B4000012202E0002200E00022104610BD10B554
:104B500001460846002807DB00F01F0301229A40A7
:104B6000214B440943F8242000BF10BD10B5014675
:104B7000084600280EDB1C4A8032430952F82320E5
:104B800000F01F040123A3401A400AB1012202E0F1
:104B9000002200E00022104610BD042808D14FF08A
:104BA000E021096941F004014FF0E022116107E0C2
:104BB0004FF0E021096921F004014FF0E02211617A
:104BC0007047704710B5FFF7FCFF10BD03480C3865
:104BD0000068C0F30220704700E400E018ED00E038
:104BE0000000FA0580E100E080E200E020BF00BFA5
:104BF00070477B48006940F0805079490861084659
:104C0000006920F0805008617047012075490862F2
:104C1000704700207349086270477349096821F0A2
:104C2000E00102681143704A11607049096821F47B
:104C300080316E4A1160111F096821F48031121F02
:104C400011606A490831096821F48031674A0832E5
:104C50001160111F096821F48031121F1160416831
:104C600001F48031B1F5803F07D16049091F09681F
:104C700041F480315D4A121F1160416801F4003136
:104C8000B1F5003F05D15949096841F48031574ACF
:104C90001160017901F0010139B15449091D096818
:104CA00041F48031514A121D1160017901F0020175
:104CB000022907D14D490831096841F480314B4A36
:104CC0000832116070470120464908617047002092
:104CD000444908617047012190FAA0F2B2FA82F2C9
:104CE000404B03EB8202C2F880107047002190FA1B
:104CF000A0F2B2FA82F23B4B03EB8202C2F88010C0
:104D000070473B4A126822F00402394B1A600129AD
:104D100001D130BF02E040BF20BF20BF704770B557
:104D200004460D463048006820F002002E49086015
:104D30000846006820F00100204308602C48006805
:104D400040F004002A490860012D01D130BF04E081
:104D500040BFFFF74BFFFFF749FF2548006820F0F1
:104D600004002349086070BD1F48006840F002003D
:104D70001D4908601E48006840F004001C49086096
:104D800000BF00BF30BF70471948006840F0020004
:104D90001749086070471648006820F0020014495F
:104DA000086070471248006840F010001049086021
:104DB00070470F48006820F010000D4908607047E8
:104DC000704710B509481030006800F4803030B1E9
:104DD000FFF7F6FF4FF4803004491031086010BD32
:104DE0000010024000000E42007000400404014028
:104DF00010ED00E0704770B504460CB9012070BD9D
:104E000094F8200010B92046FBF726FB20680068C4
:104E100040F0010021680860FEF784F805460DE0C7
:104E2000FEF780F8401B0A2808D9606A40F4003079
:104E30006062052084F820000120E0E720684068D7
:104E400000F001000028EBD02068006820F002008C
:104E500021680860FEF766F805460DE0FEF762F887
:104E6000401B0A2808D9606A40F4003060620520BF
:104E700084F820000120C2E72068406800F00200AA
:104E80000028EBD1207E012806D12068006840F080
:104E900080002168086005E02068006820F080003C
:104EA00021680860607E012806D12068006840F013
:104EB00040002168086005E02068006820F040009C
:104EC00021680860A07E012806D12068006840F0B3
:104ED00020002168086005E02068006820F02000BC
:104EE00021680860E07E012806D12068006820F073
:104EF00010002168086005E02068006840F010009C
:104F000021680860207F012806D12068006840F0F1
:104F100008002168086005E02068006820F00800AB
:104F200021680860607F012806D12068006840F091
:104F300004002168086005E02068006820F0040093
:104F400021680860D4E902010843216908436169C6
:104F500008436168491E08432168C86100206062F7
:104F6000012084F82000002049E7704770B504460E
:104F700094F82000022828D12068006840F0010041
:104F800021680860FDF7CEFF05460DE0FDF7CAFF7A
:104F9000401B0A2808D9606A40F40030606205208E
:104FA00084F82000012070BD2068406800F00100F6
:104FB0000028EBD02068006820F00200216808601B
:104FC000012084F820000020EDE7606A40F48010A2
:104FD00060620120E7E710B504460CB9012010BD5E
:104FE0002046FFF7C3FF2046FBF77EFA20680068E3
:104FF00040F40040216808600020606284F82000CE
:1050000000BFECE7F0B504460A46216894F820504A
:10501000012D01D0022D74D1D1F8000240F0010021
:10502000C1F80002107D00F01F06012000FA06F30F
:10503000D1F81C029843C1F81C02D069C8B9D1F854
:105040000C029843C1F80C02908880B2968940EA1D
:10505000064601F51070576940F83760108880B235
:10506000168940EA064601F51070576900EBC70043
:105070004660D069012819D1D1F80C021843C1F853
:105080000C02908880B2168840EA064601F510703E
:10509000576940F83760908980B2168940EA064621
:1050A00001F51070576900EBC7004660906928B998
:1050B000D1F804029843C1F8040204E0D1F80402D4
:1050C0001843C1F80402106928B9D1F814029843B2
:1050D000C1F8140204E0D1F814021843C1F8140214
:1050E000106A012804D1D1F81C021843C1F81C022F
:1050F000D1F8000220F00100C1F800020020F0BD4C
:10510000FFE7606A40F4802060620120F7E770B535
:10511000044694F82000012822D1022084F82000BF
:105120002068006820F0010021680860FDF7FAFEA1
:1051300005460DE0FDF7F6FE401B0A2808D9606A17
:1051400040F400306062052084F82000012070BD2A
:105150002068406800F001000028EBD16062F6E7AB
:10516000606A40F4002060620120F0E7014691F897
:105170002020012A01D0022A07D10868006840F0E7
:1051800002000B68186000207047486A40F48020D5
:1051900048620120F8E718B5014600200090FE4B58
:1051A00091F82020012A01D0022A19D1086800684C
:1051B00020F002000C68206000BF0098401C0090A6
:1051C0000098984205D9486A40F4003048620120AE
:1051D00018BD0868406800F002000028EDD1F7E72C
:1051E000486A40F4802048620120F1E7014600202F
:1051F00091F82020012A01D0022A05D10B685B68B2
:1052000003F0020303B101207047F0B504460D46D8
:105210001E4694F8207020688368A86800B900E0F2
:1052200000BF012F01D0022F7ED103F0806030B982
:1052300003F0006018B903F0805000287ED0C3F35B
:105240000161012088403060A86860B9B5F800C0ED
:10525000E86840EA4C5C206800F5C07000EB011083
:10526000C0F800C00FE0D5E901C040EACC00D5F895
:105270000CC040EA0C00D4F800C00CF5C07C0CEB6C
:10528000011CCCF80000D5F810C0206800F5C070F3
:1052900000EB0110C0F804C0287D01280ED1206861
:1052A00000F5C07000EB0110406840F4807C20687D
:1052B00000F5C07000EB0110C0F804C0D079000602
:1052C00092F806C040EA0C4092F805C040EA0C2073
:1052D00092F804C040EA0C00D4F800C00CF5C07C81
:1052E0000CEB011CCCF80C00D078000692F802C040
:1052F00040EA0C4092F801C040EA0C2092F800C04D
:1053000040EA0C00D4F800C00CF5C07C0CEB011C8A
:10531000CCF80800206800F5C07000EB01100068B0
:1053200040F0010C206801E00EE007E000F5C070DD
:1053300000EB0110C0F800C00020F0BD606A40F42E
:10534000001060620120F8E7606A40F4802060622B
:105350000120F2E710B5024692F82030012B01D06F
:10536000022B1CD101F0010028B11068806840F0C8
:1053700080001468A06001F0020028B11068806805
:1053800040F400401468A06001F0040028B11068E7
:10539000806840F400001468A060002010BD506ACE
:1053A00040F4802050620120F8E70146002091F887
:1053B0002020012A01D0022A11D10B689B6803F03A
:1053C000806303B1401C0B689B6803F0006303B16A
:1053D000401C0B689B6803F0805303B1401C70476E
:1053E00010B50246002092F82030012B01D0022B8C
:1053F00007D11468A46804EA8164B4EB816F00D01B
:10540000012010BD30B50246002092F82040012C4A
:1054100001D0022C0AD191FAA1F5B5FA85F31568ED
:1054200005F5C07505EB03156D68280C30BD70B52A
:10543000044694F82050012D01D0022D7ED151B99F
:105440002068C06800F0030080B9606A40F4001072
:105450006062012070BD2068006900F0030028B977
:10546000606A40F4001060620120F3E7206800F5F4
:10547000D87000EB0110006800F0040090609068A4
:1054800040B9206800F5D87000EB01100068400DAD
:10549000106007E0206800F5D87000EB011000688C
:1054A000C0085060206800F5D87000EB011000685B
:1054B00000F00200D060206800F5D87000EB011009
:1054C000406800F00F00082802D30820106108E0AF
:1054D000206800F5D87000EB0110406800F00F0064
:1054E0001061206800F5D87000EB0110406800F4EE
:1054F0007F40000A9061206800F5D87000EB011031
:105500004068000C5061206800F5D87000EB011075
:1055100080681870206800F5D87000EB0110806872
:1055200000F47F40000A5870206800F5D87000EB46
:105530000110806800F47F00000C00E03EE09870ED
:10554000206800F5D87000EB01108068000ED8705C
:10555000206800F5D87000EB0110C0681871206851
:1055600000F5D87000EB0110C06800F47F40000A1D
:105570005871206800F5D87000EB0110C06800F485
:105580007F00000C9871206800F5D87000EB0110C6
:10559000C068000ED87101E040420F0031B92068A8
:1055A000C06840F020002668F06005E020680069CF
:1055B00040F020002668306100204BE7606A40F42C
:1055C00080206062012045E710B50246002092F875
:1055D0002030012B01D0022B09D121B91468E468D5
:1055E00004F0030003E01468246904F0030010BD14
:1055F00010B5024692F82030012B01D0022B06D1C3
:1056000010684069084314686061002010BD506A4A
:1056100040F4802050620120F8E710B5024692F86D
:105620002030012B01D0022B06D11068406988433D
:1056300014686061002010BD506A40F48020506200
:105640000120F8E770477047704770477047704710
:1056500070477047704770477047704770472DE933
:10566000F05F04460025206846692068D0F8049061
:10567000206887682068D0F80CA02068D0F810B0A7
:105680002068D0F8188006F00100002855D007F0F7
:105690000100C0B101202168886007F0020018B144
:1056A0002046FFF7DBFF0EE007F0040010B145F4E1
:1056B000006508E007F0080010B145F4805502E0ED
:1056C0002046FFF7CAFF07F48070C8B14FF480701E
:1056D0002168886007F4007018B12046FFF7BCFF0E
:1056E0000EE007F4806010B145F4005508E007F4BF
:1056F000006010B145F4804502E02046FFF7ABFFA3
:1057000007F48030C8B14FF480302168886007F416
:10571000003018B12046FFF79DFF0EE007F480200F
:1057200010B145F4004508E007F4002010B145F43D
:10573000803502E02046FFF78CFF06F0080038B104
:105740000AF0100020B145F4007510202168C860EF
:1057500006F0040040B10AF0080028B108202168D2
:10576000C8602046FFF774FF06F0020038B12068D9
:10577000C06800F0030010B12046FFF768FF06F094
:10578000400038B10BF0100020B145F480651020C6
:105790002168086106F0200040B10BF0080028B134
:1057A0000820216808612046FFF750FF06F010002E
:1057B00038B12068006900F0030010B12046FFF7FF
:1057C00044FF06F4003040B109F0100028B1102069
:1057D000216848602046FFF737FF06F4803040B16B
:1057E00009F0080028B10820216848602046FFF72A
:1057F0002AFF06F4004088B309F0040078B306F4E9
:10580000807020B108F0010008B145F0010506F4F0
:10581000007020B108F0020008B145F0020506F45E
:10582000806020B108F0040008B145F0040506F4DA
:105830000060A0B108F0700088B108F07000402846
:1058400017D006DC10280BD020280CD0302819D116
:105850000CE0502810D0602814D110E01DE019E0B1
:1058600045F008050FE045F010050CE045F0200577
:1058700009E045F0400506E045F0800503E045F409
:10588000807500E000BF00BF2068806920F07000D4
:10589000216888610420216848602DB1606A28432E
:1058A00060622046FFF7CEFEBDE8F09F014691F80A
:1058B0002000012801D002280CD10A68526802F0A9
:1058C00002020AB1042005E00A68126802F002022E
:1058D00002B1032070470146486A70470146002024
:1058E00091F82020012A01D0022A02D100234B6224
:1058F00004E04B6A43F480234B62012070470000B0
:10590000704770B504460CB9012070BD94F83D0095
:1059100028B9002084F83C002046FAF7FDFE242038
:1059200084F83D002068006820F0010021680860CC
:105930002068006840F40040216808602068006822
:1059400020F4004021680860FDF767FF0546FE4926
:105950006068884206D8FD48854201D2012007E0F0
:10596000002005E0FA48854201D2012000E0002035
:10597000012800D1C9E7F748B5FBF0F62068406878
:1059800020F03F00304321684860EF49606888425A
:1059900001D8701C07E04FF4967070434FF47A7191
:1059A000B0FBF1F0401C2168096A21F03F01084377
:1059B00021680862E4496068884214D8681E6168FA
:1059C0004900B0FBF1F0401CC0F30B00042801D2E9
:1059D00004203DE0681E61684900B0FBF1F0401C06
:1059E000C0F30B0034E0A06838B9681E616801EBB1
:1059F0004101B0FBF1F0401C0AE0681E616801EB58
:105A0000C10202EB0111B0FBF1F0401C40F48040F8
:105A1000C0F30B0008B901201AE0A06848B9681E5D
:105A2000616801EB4101B0FBF1F0401CC0F30B00D9
:105A30000CE0681E616801EBC10202EB0111B0FBD2
:105A4000F1F0401CC0F30B0040F4804040F40040F3
:105A50002168C9694CF6FF72914308432168C86107
:105A6000D4E9070108432168096821F0C00108430F
:105A700021680860D4E9031008432168896848F266
:105A8000FF329143084321688860D4E90501084347
:105A90002168C96821F0FF0108432168C8602068B7
:105AA000006840F001002168086000202064202088
:105AB00084F83D000020206384F83E0000BF24E706
:105AC000704710B504460CB9012010BD242084F89D
:105AD0003D002068006820F0010021680860204631
