:020000040800F2
:10000000900C0020C9010008011600080316000822
:100010000516000807160008091600080000000071
:100020000000000000000000000000000B160008A7
:100030000D160008000000000F1600081116000839
:10004000E3010008E3010008E3010008E301000800
:10005000E3010008E3010008E3010008E3010008F0
:10006000E301000815160008E30100081B1600084C
:10007000E3010008E3010008E3010008211600087D
:10008000E3010008E3010008E3010008E3010008C0
:10009000E3010008E3010008E30100082716000857
:1000A000E3010008E3010008E3010008E3010008A0
:1000B0002D16000833160008E3010008E3010008CC
:1000C000E3010008E3010008E3010008E301000880
:1000D000E301000839160008E3010008E301000805
:1000E000E3010008E3010008E301000800F002F862
:1000F00000F05AF80AA090E8000C82448344AAF168
:100100000107DA4501D100F04FF8AFF2090EBAE865
:100110000F0013F0010F18BFFB1A43F0010318473B
:1001200010FA000030FA00000A444FF0000C10F8FA
:10013000013B13F0070408BF10F8014B1D1108BF65
:1001400010F8015B641E05D010F8016B641E01F805
:10015000016BF9D113F0080F1EBF10F8014BAD1C55
:100160000C1B09D16D1E58BF01F801CBFAD505E073
:1001700014F8016B01F8016B6D1EF9D59142D6D3CD
:10018000704700000023002400250026103A28BFF5
:1001900078C1FBD8520728BF30C148BF0B607047F9
:1001A0001FB51FBD10B510BD0DF0F0FD1146FFF7D6
:1001B000F7FF00F018FC0DF00EFE03B4FFF7F2FF9E
:1001C00003BC0DF015FE00000948804709480047B0
:1001D000FEE7FEE7FEE7FEE7FEE7FEE7FEE7FEE7F7
:1001E000FEE7FEE704480549054A064B7047000054
:1001F000B1CE0008ED00000890060020900C002011
:10020000900800209008002001B584B001214FF42F
:10021000807204A88DE807000B4600227821F94877
:1002200005F008F905B000BD70B5C82000F0E3FA8C
:10023000F54D0024285DFFF7E7FF641CE4B2172C9E
:10024000F8D370BD01B584B001214FF4807204A8C9
:100250008DE807000B4640227821EA4805F0EAF8CD
:10026000E0E770B55FF0000404F1B000C0B2FFF742
:10027000CBFF0020FFF7C8FF1020FFF7C5FF0025C8
:100280000120FFF7DFFF6D1CEDB2802DF8D3641C59
:10029000E4B2082CE8D370BD70B5002404F1B000BE
:1002A000C0B2FFF7B1FF0020FFF7AEFF1020FFF74D
:1002B000ABFF00250020FFF7C5FF6D1CEDB2802DC0
:1002C000F8D3641CE4B2082CE8D370BD10B58D20BF
:1002D000FFF79AFF1420FFF797FFBDE81040AF200B
:1002E00092E710B58D20FFF78FFF1020FFF78CFFEE
:1002F000BDE81040AE2087E710B50446B031C8B263
:10030000FFF782FF102040EA1410FFF77DFF04F092
:100310000F00BDE8104077E70246012000E050439F
:10032000491EC9B2FBD270472DE9F047203A00249C
:10033000089E0F468146D5B27F2803D900208F1C26
:100340008146FFB2102B394612D0FFF7D5FFAF49D7
:1003500005EB450001EB4005285D0EB1C043C0B27E
:10036000FFF770FF641CE4B2062CF5D3BDE8F087FC
:10037000FFF7C2FFDFF8988204EB051118F80100BF
:100380000EB1C043C0B2FFF75DFF641CE4B2082C9D
:10039000F2D37F1CF9B24846FFF7AEFF0024474670
:1003A00004EB05103844007A0EB1C043C0B2FFF729
:1003B00049FF641CE4B2082CF2D3D7E72DE9F843D7
:1003C0001E461746894604460025DDF8208014E0C5
:1003D000334649462046CDF80080FFF7A5FF0C2E96
:1003E00010D00834E4B27A2C01D90C2E0CD0782C21
:1003F00001D9102E08D06D1CEDB27A5D002AE7D12C
:10040000BDE8F883A41DEDE709F10100002400F028
:10041000FF09F0E72DE9FF4F81B00026DDE90EA9C5
:100420001D469346804634464FEA5A0727E0281B6C
:10043000401EC1B20A20FFF76FFFBBFBF0F00A219C
:10044000B0FBF1F201FB120026B9691E8C4201DA01
:1004500048B101263030C2B207FB0480C0B2534617
:10046000CDF8009006E007FB0480C0B2534620227E
:10047000CDF800900299FFF757FF641CE4B2AC423C
:10048000D5D305B0BDE8F08F2DE9FF4F83B081468D
:10049000DDF840B0129F1C4690464FF0000A10460F
:1004A00012F1FF4F06D35C1C88F00040E4B24FF01D
:1004B000010A80460EF036FA019011980025460890
:1004C00028E0601B401EC1B20A20FFF725FF0199FA
:1004D000B1FBF0F10A20B1FBF0F200FB121002991F
:1004E00029B9611E8D4202DA48B1012102913030F2
:1004F000C2B206FB0590C0B20097119B05E006FB57
:100500000590119BC0B2009720220499FFF70CFFC1
:100510006D1CEDB2A542D4D306FB0490C0B2009787
:100520002E22119B0499FFF7FFFE59460A20FFF780
:10053000F3FE0EF04BFA054601980EF02FFA4146F5
:100540000EF024FB29460EF055FA0EF0EBF980462A
:1005500000251CE0ABEB0500401EC1B20A20FFF7EE
:10056000DBFEB8FBF0F10A20B1FBF0F200FB121148
:100570002A1909F1050006FB02003031CAB2C0B2E7
:100580000097119B0499FFF7CFFE6D1CEDB25D45FE
:10059000E0D3BAF1000F06D000972D224846119BF8
:1005A0000499FFF7C1FE07B06CE72DE9F0411E4644
:1005B00015460F4680460024FFF79EFE154905EBC1
:1005C000450001EBC005285D0EB1C043C0B2FFF786
:1005D00039FE641CE4B20C2CF5D37F1CF9B2404602
:1005E000FFF78AFE5FF0000405EB0400007B0EB10C
:1005F000C043C0B2FFF726FE641CE4B20C2CF3D358
:10060000BDE8F0817C030020000000208AEC000897
:10061000B2EE000892F400082DE9F05F9846DDE99B
:100620000A9A1746834600240D4615E02946584687
:10063000FFF762FE5E460BE019F80400BAF1000F06
:1006400001D0C043C0B2641CFFF7FCFD761CF6B2BB
:10065000BE42F1D36D1CEDB24545E7D3BDE8F09F36
:1006600010B5FFF7D1FD0020FFF7CEFD0020FFF70A
:10067000CBFD0620FFF7C8FD0720FFF7C5FD0020D2
:10068000FFF7C2FDFF20FFF7BFFD2F20FFF7BCFDE6
:1006900041F6E84000F0AFF8BDE810402E20B3E589
:1006A00070B5044615460E462E20FFF7ADFD2046D8
:1006B000FFF7AAFD0020FFF7A7FD3046FFF7A4FDD6
:1006C0000720FFF7A1FD2846FFF79EFD0020FFF75A
:1006D0009BFDFF20FFF798FDBDE870402F2093E5BC
:1006E00010B504462E20FFF78FFD2046FFF78CFD46
:1006F0000120FFF789FD0020FFF786FD0720FFF7A7
:1007000083FD0720FFF780FD0120FFF77DFD00201E
:10071000FFF77AFDFF20FFF777FDBDE810402F209F
:1007200072E571E510B504468120FFF76DFD2046A6
:10073000BDE8104068E50000704700F00EBD401EA7
:1007400081B2FF48002203685A620268136843F0CE
:10075000010313600068426A8A42FCD3016A41F2D5
:100760001112114207D1016A9210114203D101689E
:1007700021F0010101607047F0B5F24F0026B44648
:100780003E62048825460EE030F812E00CF1010CC0
:1007900076440CF0FF0CA64500D97446AE4500D255
:1007A00075461A44D2B28A42EED9301B401BACF1D6
:1007B000020CB0FBFCF040F6E44138624843C1173C
:1007C00000EB1150001300D5404280B23862F0BDFA
:1007D0000020704710B50068DB4988420AD1182212
:1007E000DA49DB480BF0D7FEDA480068016821F0EF
:1007F0000401016010BD40F637414843401EFDD260
:10080000704740F637414843401EFDD2704770B5EF
:10081000CC4CD14A0025E178491CC9B2E17000688E
:10082000126890421ED123896289D3421AD0491C92
:10083000C9B203EB8313E1708B4202D1657025814D
:10084000E57002EB8211E278914203D101216170DF
:100850006581E570218962891144A289914201D0A4
:10086000E570A181BD490968884210D12079401CFA
:10087000C0B2207102280AD16179B1FBF0F00EF00C
:10088000A5F8E0610120FFF7BCFF6571257170BD1F
:1008900010B5AC4CB248217801290BD06178012900
:1008A00008D0A178012905D00022BDE81040102110
:1008B00002F074BE0122102102F070FE0120FFF749
:1008C000A0FF0020207010BD70B5A54D082128465E
:1008D00002F05FFE9B4C012803D120706179491C16
:1008E000617120219F4802F054FE002809D10022A6
:1008F0004FF48061284602F051FEE08840F0040089
:10090000E08070BD38B59249884226D18D4CD4E93B
:100910000E010DF0B3FCE082D4E912010DF0AEFC43
:10092000208304F15000A0F10803A0F11002A0F10F
:1009300018010090854800F09DFCE080322183483A
:100940000DF0D8F91822814981480BF024FE814826
:100950000068016821F00401016038BD72B6FEE74D
:1009600030B593B0282168460DF0E6F914210AA8A5
:100970000DF0E2F900240F94109411940D204FF41F
:10098000803112948DE8130001200225CDE906057F
:10099000039004904FF4E010CDE90810684602F08F
:1009A000C2F808B172B6FEE70F20CDE90A054FF490
:1009B0008060CDE90C4002210AA80E9402F066FA8C
:1009C00008B172B6FEE703200F904FF480701090CC
:1009D000C00111900FA802F0A3FB002801D072B64D
:1009E000FEE713B030BD01F097FFFFF7B9FF00F04D
:1009F00015F900F031FA00F0D8FC00F0EEFC00F040
:100A000049FB00F0EDFA00F045FA00F074FB00F04D
:100A10008BF9FFF709FCFFF73FFC00F09EFB4E4807
:100A200007F070FB4D4807F06DFB4F4801F068FB85
:100A30004D4801F065FB0028FAD14449282250397D
:100A4000494801F08EF91822404941480BF0A3FDB6
:100A500040480068016821F004010160DFF80C8162
:100A6000384CDFF80CA1DFF80CB100254FF033391A
:100A7000E0890DF047FCD4E90E230DF057FC07D8B0
:100A8000A570E08840F00800E080FFF701FF05E076
:100A9000E088010702D580F00800E080208A0DF090
:100AA00031FCD4E910230DF041FC07D8A570E08893
:100AB00040F01000E080FFF7EBFE05E0E088C106A3
:100AC00002D580F01000E080608A0DF01BFCD4E9B4
:100AD00012230DF02BFC07D8A570E08840F0200011
:100AE000E080FFF7D5FE05E0E088810602D580F0C2
:100AF0002000E080A08A0DF005FCD4E914230DF05D
:100B000015FC07D8A570E08840F04000E080FFF7B2
:100B1000BFFE05E0E088410602D580F04000E0809D
:100B2000E08A0DF0EFFB06460F46D4E90E010022E5
:100B300043460DF06BFD32463B460DF031FD1BE0A8
:100B4000C80400209001002000440040D40200208E
:100B500010050020E8050020380400208004002053
:100B6000000C01400008014008030020000036404E
:100B7000333311400000394007D2A570E08840F0BF
:100B80008000E080FFF784FE05E0E088010602D5E2
:100B900080F08000E080208B618A884207D9A570B0
:100BA000E08840F48070E080FFF772FE05E0E088A6
:100BB000C10502D580F48070E0800CF014FD0323A1
:100BC000012228211448FFF7D7FD2063A0F2965098
:100BD000404200D540420DF07EFB4A4653460DF0A0
:100BE000F5F900225B460DF03DF90DF009F9606260
:100BF0000323002228210848FFF7BEFD0DF0E6FE82
:100C0000A0620323022228210348FFF7B5FD0DF05F
:100C1000DDFEE0622CE70000840200202DE9F043B5
:100C200085B000243C4800940194029403948169A7
:100C300041F010018161816901F010010491816925
:100C400041F020018161816901F0200104918169F5
:100C500041F004018161816901F00401049181691D
:100C600041F0080181618069DFF8B08000F0080080
:100C70004FF40066049000223146404602F08EFC9C
:100C8000DFF89C9000221021484602F087FC254F97
:100C90002020CDE9000769460294404602F01AFB85
:100CA000802001258DE831006946404602F012FBA4
:100CB00041F203008DE831006946484602F00AFB24
:100CC000CDE900650226CDE902466946404602F0BC
:100CD00001FB0820CDE9000769460294484602F06E
:100CE000F9FA10208DE8610069464846039602F043
:100CF000F1FA00221146092002F0D5FF092002F086
:100D0000F0FF00221146172002F0CDFF172002F05D
:100D1000E8FF05B0BDE8F083001002400008014084
:100D2000000C0140000021103EB500214648009112
:100D30000191444A0291026092158260017301752B
:100D400003244FF460220461C261416000F0CCFCD6
:100D500008B1FFF703FE0420009001200190072056
:100D600002906946384801F018F908B1FFF7F6FD1E
:100D700010200090022001906946334801F00DF9DF
:100D800008B1FFF7EBFD1120CDE9000469462E48BC
:100D900001F003F9002801D0FFF7E0FD3EBD70B57A
:100DA00086B00025064600950195029503950068DA
:100DB000244988422FD12549886940F40070886110
:100DC000886900F400700490886940F0040088612C
:100DD0008869694600F00400049010200090032008
:100DE00001901B4802F076FA174C1A483034C4E9D7
:100DF00000058020C4E9025040002061800060614D
:100E00002020C4E90605204602F002FC08B1FFF7E5
:100E1000A5FD3462666206B070BD10B50446006878
:100E2000084988420DD10948816921F40071816126
:100E30001021074802F02DFB206ABDE8104002F0A7
:100E400011BC10BD00240140080300200010024026
:100E500000080140080002400D4808B5416941F012
:100E6000010141614069002200F00100009011463B
:100E70000B2002F018FF0B2002F033FF0022114676
:100E80000F2002F010FFBDE808400F2002F029BF3C
:100E9000001002404D4810B54B4901604C4941607B
:100EA00000214FF480428160C0E9031241618161F9
:100EB000C161016203F0BBF8002803D0BDE8104017
:100EC000FFF74CBD10BD414810B554304149016099
:100ED0003F49416000214FF480428160C0E9031224
:100EE00041618161C161016203F0A1F8002803D072
:100EF000BDE81040FFF732BD10BD30B585B0002110
:100F000000910191029103912F4D0368324C1221FF
:100F100003223248AB4216D1A36943F00803A36110
:100F2000A369039203F008030493C023CDE90031C1
:100F3000694602F0CFF9E06940F40010E061E06931
:100F400000F4001019E0234DAB4217D1A36943F020
:100F50000803A361A369039203F0080304934FF409
:100F60004063CDE90031694602F0B4F9E06940F42C
:100F70008000E061E06900F48000049005B030BDBD
:100F800010B50068104A1449144C904209D1C86940
:100F900020F40010C8614021204602F07AFA802136
:100FA0000CE00C4A90420ED1C86920F48000C86160
:100FB0001115204602F06DFA4FF400612046BDE89D
:100FC000104002F066BA10BD005400407C030020BF
:100FD00030E602000058004000100240000C0140C2
:100FE0001CB5002428480194264900940160611E24
:100FF00041604FF48071816006F0B4FB08B1FFF7E7
:10100000ADFC12208DF804008DF805008DF8064027
:10101000012201A91C4806F048FC08B1FFF79EFC1C
:101020008DF8004011208DF8010029208DF8020074
:1010300023208DF8030001226946134806F030FD95
:10104000002801D0FFF78AFC1CBD08B500680D49D7
:1010500088420DD102F023FF0C48C16941F00061C4
:10106000C161C0690A4900F0006000900120086079
:1010700008BD00680349884202D105490020086084
:1010800070470000002800402404002000100240A7
:101090003C04424210B586B000247248009401948A
:1010A0000294039404944FF08041059401604FF63C
:1010B000FF71C0E901144EF65F21C0E90314846199
:1010C00006F090FF08B1FFF749FC4FF48050009004
:1010D0006946644809F00BFB08B1FFF73FFC049434
:1010E00004A9604805940AF0A5FC002801D0FFF788
:1010F00035FC06B010BD10B586B0002459480094E8
:101100004830019402940394049457490594016073
:1011100041F61F41C0E9011441F28731C0E90314CF
:10112000846106F05FFF08B1FFF718FC4FF48050B0
:1011300000904C486946483009F0D9FA08B1FFF7E9
:101140000DFC4848049404A9483005940AF072FC48
:101150000028CED0FFF702FCCBE710B586B0002404
:1011600040480094903001940294039404943F49C1
:10117000059401604721C0E901144FF6FF71C0E9F1
:101180000314846106F02EFF08B1FFF7E7FB4FF46C
:101190008050009033486946903009F0A8FA08B1B1
:1011A000FFF7DCFB2F48049404A9903005940AF063
:1011B00041FC00289DD0FFF7D1FB9AE708B50168F4
:1011C0002B48B1F1804F14D0274A914220D1C169F8
:1011D00041F00201C161C069002200F002000090EC
:1011E00011461D2002F05FFD1D20BDE8084002F001
:1011F00078BDC16941F00101C161C069002200F000
:101200000100009011461C2002F04DFD1C20ECE76F
:10121000164A914207D1C16941F00401C161C06918
:1012200000F00400009008BD01681148B1F1804F42
:101230000AD00D4A91420DD1C16921F00201C1616C
:101240005FF01D0002F05ABDC16921F00101C161CA
:101250001C20F7E7054A914203D1C16921F004013E
:10126000C1617047380400200004004000080040BD
:10127000001002402DE9F05F0027044600788A46FE
:101280009846934639463E46B9463D46AA286ED012
:101290000220225C401CC0B211441728F9D3C8B206
:1012A000E17D88427ED1A078E178000400EB012046
:1012B0002179A27901446079000400EB0220E279EF
:1012C0001044B1FBF0F00DF01DF8C14AC14B0DF018
:1012D00069F8CAE90001207A617A000400EB012074
:1012E000A17A227B0144E07A000400EB0220627BB9
:1012F0001044B1FBF0F00DF005F8CBE900012078C7
:10130000F02835D9F12800D1012500221146C8F86E
:10131000002000BFC8F80410207D00F0800149457E
:1013200000D0761C617D300400EB0120A17D4418C3
:1013300038460CF0E7FFA64AA64B0DF033F80246FC
:101340000B464FF04540A4490CF040FE0CF096FFD0
:1013500042F210714C43B4FBF0F00CF0D3FF0022CA
:101360009E4B0CF033FE0A9AC2E900011AE018E025
:10137000A07BE17B000400EB0120217C4718607C0E
:10138000A17C000400EB0120E17C0844B7FBF0F0F5
:101390000CF0B8FF8E4A8F4B0DF004F8C8F800002F
:1013A000B8E702252846BDE8F09F8E4810B58C4965
:1013B00001604FF496514160002181600422C160B8
:1013C000C0E904128161C1610AF012FC002803D057
:1013D000BDE81040FFF7C2BA10BD824810B54830D2
:1013E000814901604FF4E1314160002181600C22AC
:1013F000C160C0E904128161C1610AF0F9FB0028F3
:1014000003D0BDE81040FFF7A9BA10BD754810B56C
:101410009030764901604FF4E131416000218160F4
:101420000C22C160C0E904128161C1610AF0E0FBD5
:10143000002803D0BDE81040FFF790BA10BDF0B50A
:1014400085B0002400940194029403940546036837
:101450006748DFF88CC102210322664E07156345F9
:101460003DD1836943F480438361836903F48043FE
:101470000493836943F0040383618069039200F05D
:10148000040004900802CDE900016946304601F0ED
:1014900021FFCDE9007469463046029401F01AFF3D
:1014A000504E5548D836C6E900048020C6E90240AF
:1014B000346180017461C6E90640304602F0A8F844
:1014C00008B1FFF74BFAEE63002211462520756242
:1014D00002F0E9FB252002F004FC05B0F0BD424D0E
:1014E000AB421ED1C36943F40033C361C36903F443
:1014F00000330493836943F004038361806903929A
:1015000000F0040004900420CDE900016946304653
:1015100001F0E0FE0820CDE900046946304602945F
:1015200020E0324DAB42D8D1C36943F48023C3617C
:10153000C36903F480230493836943F00803836140
:101540008069CDE9007100F00800CDE903202B4D42
:101550006946284601F0BEFEE814CDE9000469465C
:101560002846029401F0B6FEB7E710B504460068BD
:101570001B4B1F491F4A984210D1886920F48040B4
:1015800088614FF4C061104601F083FFE06B02F008
:1015900069F8BDE81040252002F0B0BB124B98421C
:1015A00006D1C86920F40030C8610C21104609E05A
:1015B0000E4A90420AD1C86920F48020C8610F48C1
:1015C0004FF44061BDE8104001F063BF10BD000062
:1015D0003F355EBA490C084085318A420088C340D5
:1015E0000038014010050020004400400048004041
:1015F000001002400008014058000240000C014069
:10160000FEE7FEE7FEE7FEE7FEE77047704770473C
:1016100001F0A0B9082001F0E0BF094802F038BA93
:10162000084802F035BA202001F0D7BF064808F07C
:1016300001BB064808F0FEBA05480BF056BA000098
:1016400038030020E8050020380400208004002032
:10165000100500200C4808B5816941F00101816145
:10166000816901F001010091C16941F08051C161BE
:10167000C06900F0805000900448416821F0E061AA
:1016800041F00071416008BD0010024000000140BF
:1016900070B5044600688168C943C90717D18168DD
:1016A00021F00101816001F05BF905460AE000BF0D
:1016B00001F056F9401B022804D920688068C04315
:1016C000C00706D020688068C043C007F0D0002063
:1016D00070BDA06A40F01000A062E06A40F0010016
:1016E000E062012070BD70472DE9F0414FF0000726
:1016F00004003D467ED0A06A002628B9E66284F840
:1017000024602046FFF74BFB2046FFF7C1FFA16A8C
:10171000C90600D420B1A06A40F01000A06269E0C0
:10172000A16A21F4885141F00201A1626268E16975
:10173000237B0A4347EA43010A43A1684FF48077B9
:10174000B94209D0012907D05FF0000194F814C014
:10175000BCF1010F02D00AE03946F7E7F3B1A36A02
:1017600043F02003A362E36A43F00103E3622368CA
:10177000D3F804C02CF4694C4CEA010CC3F804C043
:1017800021688B68DFF818C403EA0C0313438B60ED
:10179000A168B9420BD0012909D00CE0DFF804C4DC
:1017A000A3690CEB43330B4343F40061DFE7218A69
:1017B0000D05A5F580152168CB6A23F470032B4332
:1017C000CB6221688968F84B1940914208D1E662E2
:1017D000A16A21F0020141F00101A162BDE8F0819E
:1017E000A06A20F0020040F01000A062E06A40F021
:1017F0000100E0620120F1E7704770B504000BD0F2
:10180000A06A40F00200A0622046FFF741FF0600F8
:101810004FF0000502D05AE0012070BD21686FF042
:101820001F00086020684168E04A1140416020685C
:101830008168DF4A114081602068C16801F07F4102
:10184000C1602068016901F040410161206841697F
:101850006FF30B014161206881696FF30B018161B6
:101860002068C1696FF30B01C1612068016A6FF3E1
:101870000B0101622068416A6FF30B01416220682D
:10188000816A6FF30B0181622068C16A01F07F41B8
:10189000C1622068C16A01F07F41C1622068016BAA
:1018A00001F0404101632068416B01F04041416318
:1018B0002068816B6FF3150181632068816B6FF382
:1018C000150181632046FFF7A8FAE562A56284F856
:1018D0002450304670BDF8B50026044600960068D6
:1018E0008168C943C9072CD0816841F0010181603A
:1018F000B048B1490068B0FBF1F000E0401E009034
:101900000028FBD101F02CF8054615E001F028F87D
:10191000401B022810D920688068C043C0070BD044
:10192000A06A40F01000A062E06A40F00100E062AE
:1019300084F824600120F8BD20688068C043C00797
:10194000E4D10020F8BD70B5044690F824000128C9
:101950000DD0012084F824002046FFF7BCFF0200D0
:101960004FF0000005D084F82400104670BD02201E
:1019700070BDA16A40F20123994341F48071A162D4
:101980008E4D23688E49AB4218D10E6816F4702F25
:1019900014D0A66A46F48016A6620E68760505D5B0
:1019A000A66A26F4005646F48056A662A66AF60495
:1019B0000AD5E66A26F00606E66206E0A66A26F47E
:1019C0008016A6625E68E9E7E06284F824006FF0A2
:1019D0000200186020688368C3F34243072B05D1D7
:1019E000A84208D1096811F4702F04D0816841F42D
:1019F00080118160B9E7816841F4A001F9E710B571
:101A0000044690F82400012807D0012084F824001F
:101A10002046FFF73DFE10B107E0022010BDA16A8D
:101A200021F4885141F00101A162002184F82410C1
:101A300010BD2DE9F84300270D460446009700F03D
:101A40008FFF804620688168C90508D5A06A40F0EC
:101A50002000A06284F824700120BDE8F88341686A
:101A6000C90503D4C06A10F4700F2AD0022001F017
:101A7000DBFB50490968B1FBF0F620680369514966
:101A80000B424FEA61014FEAA1121FD1C3684FEA2E
:101A9000611C13EA0C0F19D103690B4225D1C068F0
:101AA000104222D1142023E0681C0AD02DB100F08E
:101AB00057FFA0EB0800A84203D920680068800700
:101AC00025D5206800688007EED52DE003690B421C
:101AD00002D1C168114206D002693B490A4206D1CF
:101AE000C068084203D1542002E0292000E0FC2015
:101AF0004643009816E0681C11D02DB100F030FF6D
:101B0000A0EB0800A8420AD90098B04207D2A06A08
:101B100040F00400A06284F8247003209DE7009840
:101B2000401C0090B042E6D321686FF012000860BC
:101B3000A06A40F40070A06220688068C0F3424050
:101B400007280CD1207B50B9A06A20F48070A062D5
:101B5000A06AC00403D4A06A40F00100A062002083
:101B60007BE72DE9F04116460D46044600F0F8FEED
:101B700007462BE0701C29D026B100F0F1FEC01BF7
:101B8000B04223D92068006835EA00001ED0A06A60
:101B900040F00400A062002084F8240003201DE629
:101BA000FDF7E1FF00E0FFFFFE0E1FFF00003FFF1B
:101BB000F00601FF0802002040420F00002801400B
:101BC000042401402449922449922400206800689A
:101BD00035EA0000CED1A06A40F48030A0622168CE
:101BE0006FF0010008600020F8E570B5044690F839
:101BF000240001280DD0012084F824002046FFF79E
:101C00006AFE02004FF0000005D084F82400104660
:101C100070BD022070BDA16A40F60163994341F492
:101C20008071A162FD4D2368FD49AB4218D10E6859
:101C300016F4702F14D0A66A46F48016A6620E68B9
:101C4000760505D5A66A26F4005646F48056A662A7
:101C5000A66AF6040AD5E66A26F00606E66206E0FB
:101C6000A66A26F48016A6625E68E9E7E06284F858
:101C700024006FF0020018602068436843F02003DE
:101C8000436020688368C3F34243072B05D1A84211
:101C900008D1096811F4702F04D0816841F48011D3
:101CA0008160B4E7816841F4A001F9E710B504460A
:101CB00090F82400012807D0012084F82400204651
:101CC000FFF7E6FC10B10CE0022010BD21684A6865
:101CD00022F020024A60A16A21F4885141F00101FA
:101CE000A162002184F8241010BD704710B5406A2D
:101CF000816A41F040018162C16A41F00401C16220
:101D0000FFF7F3FF10BD704710B5406AFFF7FBFF08
:101D100010BD704710B50146406A826A12F0500F3C
:101D200005D0006A026BBDE8104008461047816A82
:101D300041F40071816201688968C1F34241072959
:101D40000CD1017B51B9816A21F480718162816A71
:101D5000C90403D4816A41F001018162FFF7D9FF10
:101D600010BD2DE9F0478946AD4904460068091FBA
:101D7000AA4F0E1D9046884201D0B84207D1306864
:101D800010F4702F03D001252846BDE8F08794F8A1
:101D9000240001280CD0012084F824002046FFF7FD
:101DA0009AFD05004FF0000004D084F82400EBE712
:101DB0000220EAE7A16A40F60162914341F4807192
:101DC000A1622168B94218D1326812F4702F14D080
:101DD000A16A41F48011A1623168490505D5A16A63
:101DE00021F4005141F48051A162A16AC9040AD5CD
:101DF000E16A21F00601E16206E0A26A22F48012A3
:101E0000A2624968E9E7E06284F82400AFF2FB00CF
:101E1000216A8862AFF20F10216AC862AFF23310F4
:101E2000216A086321686FF00200086020688168F9
:101E300041F480718160216843464A464C31206AF2
:101E400001F077FC20688168C1F34241072981686D
:101E500003D041F48011816096E741F4A001FAE7D4
:101E600010B5044690F82400012807D0012084F81A
:101E700024002046FFF70CFC10B113E0022010BD37
:101E800021688A6822F480728A60216A91F8212090
:101E9000022A07D1084601F084FCA16A30B141F062
:101EA0004001A162002184F8241010BD21F4885162
:101EB00041F00101F5E70068C06C7047704770B5EC
:101EC0000446006806684568A90625D5B10723D5EC
:101ED000A16AC90603D4A16A41F40071A1628168B4
:101EE000C1F34241072910D1217B71B9416821F02A
:101EF00020014160A06A20F48070A062A06AC00442
:101F000003D4A06A40F00100A0622046FFF701FF61
:101F100021686FF01200086028062ED570072CD5B6
:101F2000A06AC00603D4A06A40F40050A0622068F2
:101F30008168C1F30231072909D04168490515D4E8
:101F40008168C1F34241072910D1217B71B94168F1
:101F500021F080014160A06A20F48050A062A06A54
:101F6000C00503D4A06A40F00100A062204600F042
:101F700089FB21686FF00C00086068060CD5F0073B
:101F80000AD0A06A40F48030A0622046FFF796FF96
:101F900021686FF00100086070BDF8B5002400945E
:101FA00090F824202546012A12D0012280F824200E
:101FB0004A681F23072A0DD20668776B521E02EB70
:101FC000820293409F430B6893401F43776319E05D
:101FD0000220F8BD06680D2A0AD2376BD21F02EB29
:101FE000820293409F430B6893401F43376309E08D
:101FF000F76A0D3A02EB820293409F430B689340CD
:102000001F43F7620A68072306680A2A0FD3F76896
:102010000A3A02EB420293409F4303E0002801404A
:10202000042401408B6893401F43F76008E0376940
:1020300002EB420293409F438B6893401F433761FA
:102040000A68102A01D0112A20D1294B02689A422D
:1020500017D193681B0219D4936843F4000393606B
:102060000968102912D12349234A0968B1FBF2F10A
:1020700001EB8101490000E0491E00910029FBD1DC
:1020800004E0816A41F020018162012480F824503B
:102090002046F8BD30B590F82420012A1ED0012238
:1020A00080F824200A7A012A0268536818D023F0A5
:1020B00040035360D1E900231A4303685C680F4D65
:1020C0002C4022435A600368CA685A620268096950
:1020D0009162002180F82410084630BD022030BDF6
:1020E00043F04003E5E7806A7047C06A704700002C
:1020F000002401400802002040420F00E0FD3FFFA5
:10210000F8B500250446009590F8240001280BD06E
:10211000012084F824002046FFF7BAFA2046FFF792
:10212000DAFB060002D050E00220F8BDA06A20F4DD
:10213000885040F00200A062022001F075F8FB49CF
:102140000968B1FBF0F0400000E0401E009000285C
:10215000FBD12068816841F00801816000F000FC3B
:10216000074608E000F0FCFBC01B0A2803D92068E2
:102170008068000715D4206880680007F2D42068C2
:10218000816841F00401816000F0EAFB074612E03B
:1021900000F0E6FBC01B0A280DD9206880684007C4
:1021A00009D5A06A20F0020040F01000A06284F877
:1021B00024500120F8BD206880684007E8D4A06A58
:1021C00020F0020040F00100A06284F82450304664
:1021D000F8BD70B5044690F8240001280DD0012008
:1021E00084F824002046FFF776FB01004FF0000042
:1021F00005D084F82400084670BD022070BDA26A94
:1022000042F201039A4342F48052A262C84A25680E
:10221000C84B95421AD11E6816F4702F16D0A66AC4
:1022200046F48016A662A66AF60500D4E06284F839
:1022300024006FF004002860206844686405DAD444
:102240008468C4F30234072C04D009E0A66A26F49B
:102250008016E7E7904208D11A6812F4702F04D074
:10226000826842F400428260C5E7826842F402124A
:10227000F9E710B5044690F8240001280ED001209B
:1022800084F82400A06AC00511D420684068400585
:102290000DD42046FFF7FCF910B10DE0022010BD6F
:1022A000A16A21F4885141F00101A16204E0A06A11
:1022B00040F02000A0620120002184F8241010BD0D
:1022C0002DE9F84300270D460446009700F048FB2F
:1022D00080462068806B10F4401F2AD0022000F056
:1022E000A3FF92490968B1FBF0F62068036992499F
:1022F0000B424FEA61024FEAE1111FD1C3684FEA76
:10230000410C13EA0C0F19D10369134225D1C0689F
:10231000084222D1142023E0681C0AD02DB100F01D
:102320001FFBA0EB0800A84203D920680068400703
:1023300025D5206800684007EED52EE003691342DA
:1023400002D1C2680A4206D002697C490A4206D11B
:10235000C068084203D1542002E0292000E0FC209C
:102360004643009817E0681C12D02DB100F0F8FA2F
:10237000A0EB0800A8420BD90098B04208D2A06A8E
:1023800040F00400A06284F824700320BDE8F883C4
:102390000098401C0090B042E5D321686FF00E0019
:1023A0000860A06A40F40050A06220688168C1F310
:1023B0000231072909D04168490511D48068C0F36A
:1023C000424007280CD1207B50B9A06A20F48050ED
:1023D000A062A06AC00503D4A06A40F00100A06218
:1023E0000020D3E770B5044690F8240001280DD0F2
:1023F000012084F824002046FFF76DFA01004FF019
:10240000000005D084F82400084670BD022070BD8D
:10241000A26A42F201039A4342F48052A262444A01
:102420002568444B95421FD11E6816F4702F1BD0AF
:10243000A66A46F48016A662A66AF60500D4E06293
:1024400084F824006FF0040028602068456845F097
:1024500080054560206844686405D5D48468C4F369
:102460000234072C04D009E0A66A26F48016E2E7BD
:10247000904208D11A6812F4702F04D0826842F496
:1024800000428260C0E7826842F40212F9E710B5A8
:10249000044690F8240001280ED0012084F824007E
:1024A000A06AC00516D420684068400512D42046B2
:1024B000FFF7EEF810B112E0022010BD21684A6863
:1024C00022F080024A60A16A21F4885141F00101A2
:1024D000A16204E0A06A40F02000A0620120002177
:1024E00084F8241010BD2DE9F0418CB088460446D4
:1024F0001746302168460BF01FFC94F82400012891
:102500001ED0012084F8240009480090806800262D
:10251000C0F34240072815D0A06A40F02000A06216
:1025200084F8246001200CB0BDE8F081080200208E
:1025300000280140042401402449922449922400A7
:102540000220F0E72046FFF7C6F9050004D16846EF
:10255000FFF7C1F9050003D084F824602846E2E7BC
:10256000A06AD749084040F48070A06220684068A3
:10257000400505D5A06A20F4005040F48050A062C8
:1025800084F82460E662216ACE488862216ACE48D7
:10259000C862216ACD48086321686FF002000860B4
:1025A0002068816841F48071816021683B46424621
:1025B0004C31206A01F0BDF820688168C1F34241C6
:1025C0000729816803D041F480118160C6E741F496
:1025D000A001FAE730B58DB00446302168460BF013
:1025E000ABFB94F82400012808D0012084F82400D3
:1025F0002046FFF74DF8002518B123E002200DB06A
:1026000030BDB34800906846FFF742F838B1A06A81
:1026100040F01000A06284F824500120EFE7206809
:10262000816821F4807181602068416821F4702103
:102630004160206A01F0B5F8A16A21F4885141F0A7
:102640000101A16284F82450D9E70068012905D06E
:10265000022909D0032905D0042901D0C06B704795
:10266000806C7047406C7047006C70470068C06CAD
:1026700098490968C90504D495494C31096840EA6C
:10268000014070477047F8B50022009290F824404E
:1026900083681646012C1CD0012480F82440D3B155
:1026A0004D680B691F249D4226D81F055B1BC3F193
:1026B00003030D6803EB83039D40A7F580172F43A9
:1026C0009C40036844F440159C6BAC4327439F63D4
:1026D0001EE00220F8BD4B68012B05D0826A42F053
:1026E00020028262012213E003689C6B0D686FF385
:1026F000150444EAC5340AE05B1BC3F1030303EB92
:1027000083039C40036844F440159C6BAC439C637A
:1027100003689C68E443E40706D09C6847F201051F
:10272000AC438D692C439C604B7D012B08D18B6998
:10273000B3F5E04F08D0826A42F0200282620122A3
:102740000B7D012B06D00CE003685C6844F48064C8
:102750005C60F5E74B7DA3B1826A42F020028262A1
:1027600001220B68072405680A2B10D3EF680A3B87
:1027700003EB43039C40A7438C689C402743EF60D6
:102780000EE003685C6844F480545C60E9E72F69FC
:1027900003EB43039C40A7438C689C4027432F6175
:1027A0000B68102B01D0112B04D103689C6844F4F2
:1027B00000049C604B68012B10D0022B16D0032B19
:1027C00003681BD01C6ACD686FF30B042C431C629A
:1027D0000B68102B19D0112B17D038E003685C69F7
:1027E000CD686FF30B042C435C61F1E703689C69CF
:1027F000CD686FF30B042C439C61E9E7DC69CD687D
:102800006FF30B042C43DC61E2E7324C0368083CB5
:10281000A34217D19C68240219D49C6844F4000494
:102820009C600968102912D12B492C4B0968B1FB17
:10283000F3F101EB8101490000E0491E00910029FC
:10284000FBD104E0816A41F020018162012280F81D
:1028500024601046F8BD70B58CB00E4604460025C5
:10286000302168460BF068FA94F82400012819D04A
:10287000012084F824001648009020688168C9432C
:10288000C90712D000998968C943C9070DD01149F9
:102890000839884209D14168326821F47021114316
:1028A000416007E002200CB070BDA06A40F020003B
:1028B000A0620125002084F824002846F3E70000E8
:1028C000FEFDEFFF151D0008091D0008ED1C0008A6
:1028D00000280140082401400802002040420F0067
:1028E000704770B5564D04464FF47A712878B1FBA5
:1028F000F0F054490968B1FBF0F001F01EFA48B954
:10290000102C07D200222146501E01F0CCF90020E5
:102910006C6070BD012070BD4B4810B5016841F07E
:1029200010010160032001F0B1F90A20FFF7D9FF7F
:10293000FEF790FE002010BD7047444810B54FF0E0
:10294000FF31016100220261C160C260FFF7F4FF44
:10295000002010BD3A4881680278114481607047B8
:1029600037488068704736484068704770B5344CC7
:102970000146002025788D4206D021706068FFF75F
:10298000B0FF002800D0257070BD2D48007870473A
:1029900070B50446FFF7E4FF0546601C02D02848E6
:1029A00000780444FFF7DCFF401BA042FAD370BD5F
:1029B0004FF0E020016921F00201016170474FF002
:1029C000E020016941F00201016170472048704731
:1029D00020480068000C70471E480068C0F30B00D8
:1029E00070471D48006870471B48001D006870470D
:1029F00019480830006870471648416841F00101E5
:102A0000416070471348416821F0010141607047FF
:102A10001048416841F00201416070470D4841682B
:102A200021F00201416070470A48416841F0040109
:102A3000416070470748416821F0040141607047D8
:102A4000FC0100200802002000200240001002408B
:102A500000090101002004E0E8F7FF1F2DE9F04123
:102A6000FFF77EFFFE4C0546206840F00100206025
:102A700005E000BFFFF774FF401B022843D8206821
:102A80008007F7D5206820F0F80040F08000206033
:102A9000FFF766FF00250646656041F2883704E0CF
:102AA000FFF75EFF801BB8422DD8606810F00C0F56
:102AB000F6D1ED49EB480860EC480068FFF711FFDC
:102AC00010B10120BDE8F081FFF74AFF06462068FB
:102AD00020F08070206004E0FFF742FF801B022896
:102AE00011D820688001F7D46560FFF739FF0646EA
:102AF000206820F41020206007E000BFFFF730FFBF
:102B0000801B642801D90320DCE720688003F5D40A
:102B1000206820F480202060606A40F0807060624D
:102B2000A5600020CEE72DE9F84F04006FD0207893
:102B3000CB4DC00748D06868C0F38100012807D09A
:102B40006868C0F38100022809D16868C00306D50F
:102B50002868800338D560680028E7D034E06068D2
:102B6000B0F5803F0BD010B1B0F5A02F11D0286880
:102B700020F480302860286820F4802002E0286853
:102B800040F480302860606888B1FFF7E9FE0646AF
:102B900009E0286840F480202860F0E7FFF7E0FEB5
:102BA000801B642873D828688003F7D50CE0FFF7F2
:102BB000D7FE064605E000BFFFF7D2FE801B642863
:102BC000F0D828688003F7D42078A94E80074FF00A
:102BD00001094FF0000839D5686810F00C0F07D0D4
:102BE0006868C0F38100022809D16868C00306D470
:102BF0002868800714D52069012808D110E02069D1
:102C0000B0B1C6F80090FFF7ABFE074605E00AE159
:102C1000FFF7A6FEC01B0228C4D828688007F7D596
:102C20002868616920F0F80040EAC10028600DE0E2
:102C3000C6F80080FFF794FE074604E0FFF790FE19
:102C4000C01B022823D828688007F7D42078000703
:102C50002CD58848A169D9B1C0F80090FFF780FE53
:102C6000074604E0FFF77CFEC01B02280FD8686A05
:102C70008007F7D57C484FF4FA510068B0FBF1F0BB
:102C8000009000BF0098411E0091FAD20EE080E053
:102C9000C0F80080FFF764FE074604E0FFF760FE1F
:102CA000C01B022875D8686A8007F7D420784007CF
:102CB00060D5E8690027C00008D4E86940F080507A
:102CC000E861E869012700F0805000906A480168D7
:102CD000C90513D40168834641F480710160FFF790
:102CE0003FFE824606E000BFFFF73AFEA0EB0A0077
:102CF00064284ED8DBF80000C005F5D5E06801284F
:102D00000AD008B1052813D0286A20F001002862F3
:102D1000286A20F0040002E0286A40F001002862DE
:102D2000E06841F2883B98B1FFF71AFE82460BE05B
:102D3000286A40F004002862EEE700BFFFF710FEAB
:102D4000A0EB0A0159455AD8286A8007F6D50CE04D
:102D5000FFF706FE824605E0FFF702FEA0EB0A0140
:102D600059454CD8286A8007F6D41FB1E86920F08D
:102D70008050E861E06988B36968C1F38101022984
:102D800044D00228C6F8608004D0FFF7E9FD04466D
:102D900038E034E0FFF7E4FD074604E0FFF7E0FD2C
:102DA000C01B02282BD828688001F7D4206AB0F510
:102DB000803F05D16868A16820F40030084368604E
:102DC000D4E908010843696821F474110843686074
:102DD000C6F86090FFF7C4FD044606E025E000BF9A
:102DE000FFF7BEFD001B022809D828688001F7D52F
:102DF0001BE000BFFFF7B4FD001B022802D903202F
:102E0000BDE8F88F28688001F4D40EE00128F7D0DF
:102E10006868226A00F48031914204D1616A00F44A
:102E20007010884201D00120EAE70020E8E70C4A50
:102E300051680C4811F00C0324D0042B22D0082B2D
:102E400020D10E48C1F38343C903C05C1BD5516830
:102E50000A4AC1F34041921E515C024A50430FE0BE
:102E60000010024000127A00080200200002002038
:102E7000000042428004424200700040F4FA000820
:102E8000B0FBF1F070479D49484370472DE9F0478A
:102E90000F46050061D09A4E306800F00700B84236
:102EA00009D2306820F0070038433060306800F005
:102EB0000700B84251D12868924C810712D54007CB
:102EC00003D5606840F4E06060602878000703D5AF
:102ED000606840F4605060606068A96820F0F000AD
:102EE000084360602878C00728D06868012810D09F
:102EF0002168022810D0890700292EDA616821F0A4
:102F0000030101436160FFF72BFD804641F28839E0
:102F10000DE021688903EFE78901EDE7FFF720FD68
:102F2000A0EB0801494502D90320BDE8F08760689D
:102F3000696800F00C00B0EB810FEFD1306800F051
:102F40000700B8420BD9306820F0070038433060E2
:102F5000306800F00700B84201D00120E5E728788A
:102F6000400705D56068E96820F4E06008436060C8
:102F70002878000706D56068296920F4605040EA87
:102F8000C1006060FFF753FF61685F4AC1F303113E
:102F9000515CC8405D4908605D480068FFF7A1FCCE
:102FA0000020C2E730B585B00020029002200190D9
:102FB00003200390534C4FF480700090A0690D469D
:102FC00040F00400A061A069694600F0040004908C
:102FD000504800F07FF9606820F0E06028436060AE
:102FE00005B030BD4C490120C86470474A490020F3
:102FF000C8647047454800687047444841490068C4
:103000004968464AC1F30221515CC84070473F48B5
:103010003C4900684968414AC1F3C221515CC8403B
:10302000704710B50F21016036490A6853034FF00D
:10303000000202D54FF4A02304E00B68DB0303D5A4
:103040004FF48033436000E042604B6803F4003388
:1030500083600B68DC074FF0010301D0036100E0DF
:1030600002610C68C4F3C40444610C6A640702D5AD
:103070000524C46005E00C6AE40701D0C36000E0E9
:10308000C2604C6AE40701D0836100E082610A6893
:10309000D20102D50222C26100E0C3614A6802F493
:1030A00080320262496801F47011416210BD0F2242
:1030B0000260144A536803F003034360536803F04B
:1030C000F0038360536803F4E063C36052684FF415
:1030D000E06303EAD20202610948006800F00700D9
:1030E00008607047704710B5064CA068000603D50D
:1030F000FFF7F8FF8020A07210BD000000093D001E
:10310000002002400010024016FB000808020020C8
:1031100000020020000801400000424226FB000897
:103120002DE9F84305460078644CC00754D0E069A7
:103130000026C00008D4E06940F08050E061E069FA
:10314000012600F0805000905D480168C90512D446
:103150000168804641F480710160FFF701FC074679
:1031600005E000BFFFF7FCFBC01B642823D8D8F89C
:103170000000C005F6D5206A10F4407021D0A9885F
:1031800001F4407181421CD0206A4E49012220F492
:1031900040700A6000220A602062C00711D0FFF769
:1031A000DFFB074641F2883808E000BFFFF7D8FB95
:1031B000C11B414502D90320BDE8F883206A80077E
:1031C000F4D5206A696820F44070084320621EB17B
:1031D000E06920F08050E0612878800705D56068BC
:1031E000A96820F44040084360602878C00605D5EF
:1031F0006068E96820F48000084360600020DBE735
:10320000012101602D490A6A02F4407242600322E2
:1032100002604A6802F440428260132202604968F8
:1032200001F48001C160704710B501460020234CB5
:10323000012922D0022939D010291DD161682268C4
:10324000D20119D52048C1F38342C903805C0AD555
:1032500061681D4AC1F34041921E515C1B4AB2FB9A
:10326000F1F1484301E01A4948436168490203D437
:1032700040000321B0FBF1F010BD226AC2F301212E
:10328000012903D1920701D5C80310BD022905D138
:10329000626A920702D549F6404010BD0329FCD16D
:1032A00021688903F9D54FF2244010BDFFF7AFFE26
:1032B0006168C1F38131491C4900DBE7001002401D
:1032C000007000404004424206FB000800127A00F1
:1032D00000093D002DE9F84FDFF814930024A9F10F
:1032E000040B23460F2709F1040AABF1040EC9E0D1
:1032F0000125A5402A40AA427DD1BE4ED1F804C086
:10330000ACEB0608B44532D014DCBCF1030F3AD064
:1033100009DCBCF1000F2AD0BCF1010F1CD0BCF1BC
:10332000020F31D11DE0BCF1110F17D0BCF1120F0B
:103330002AD119E0B8F5881F19D006DCB8F5803F0E
:1033400015D0B8F5801F1FD111E0B8F5001F0ED0C1
:10335000B8F5041F18D10AE0CB6815E0CB681B1D37
:1033600012E0CB6808330FE0CB680C330CE08B68BD
:103370002BB1012B4FF0080303D0456104E0042377
:1033800002E0056100E00023FF2A01D8064601E0C3
:1033900000F104064FEA840501D9A5F12005D6F80D
:1033A000008007FA05FC28EA0C0803FA05F548EA4C
:1033B0000508C6F800804D68ED0062D58E4DAE69F7
:1033C00046F00106AE61AD6924F0030605F0010583
:1033D00000958A4D06EB050CDCF80850A607360F61
:1033E00007FA06F825EA0805DFF81482404503D1FC
:1033F0004FF0000817E044E0DFF80882404502D1B2
:103400004FF001080FE0DFF80082404502D14FF095
:10341000020808E0DFF8F481404502D14FF00308CC
:1034200001E04FF0040808FA06F848EA0508CCF86D
:1034300008804D68D9F80060ED024D4601D516436D
:1034400000E096432E604D68DAF80060AD02554604
:1034500001D5164300E096432E604D68DBF800600E
:10346000AD035D4601D5164300E096432E604D68DE
:10347000DEF80060ED03754601D5164300E0964383
:103480002E60641C0D682A46E5407FF431AFBDE82C
:10349000F88F2DE9F0430023584F0F2574E00122E7
:1034A0009A400A406ED023F00304E619D6F808804B
:1034B0009C074FEA147C05FA0CF909EA0804DFF8C6
:1034C0004081404502D14FF0000816E0DFF834811A
:1034D000404502D14FF001080FE0DFF82C81404554
:1034E00002D14FF0020808E0DFF82081404502D108
:1034F0004FF0030801E04FF0040808FA0CF8A0456B
:1035000023D13B4C083CD4F800C02CEA020CC4F890
:1035100000C0241DD4F800C02CEA020CC4F800C07E
:10352000334C241DD4F800C02CEA020CC4F800C0AF
:10353000241FD4F800C02CEA020CC4F800C0D6F84E
:1035400008C02CEA090CC6F808C0FF2A01D80646B4
:1035500001E000F104064FEA830401D9A4F120043C
:10356000D6F800C005FA04F82CEA080C4FF004085D
:1035700008FA04F84CEA080CC6F800C0C46824EA4B
:103580000204C46003F1010331FA03F287D1BDE8FC
:10359000F0838068084000D0012070470AB10161C3
:1035A00070470904FBE7C26821EA02030A4043EAC4
:1035B00002410161704708B541F480320092826196
:1035C000816100998161816900918069C00301D5A1
:1035D000002008BD012008BD7047054910B50C3119
:1035E0000A68024202D00860FDF76EF910BD0000C3
:1035F00008040140000011100010024000000140CA
:1036000000080140000C014000100140001401407E
:1036100030B528B308C8F94914221944B1FBF2F1B6
:103620008900C163F6498163022141771A6843F634
:10363000F0718A43D0E900142143D0E902452C43BC
:10364000214304692143446921438469214311438F
:10365000196000214163012242770177084630BD9D
:10366000012030BD10B528B301680A6822F00102BC
:103670000A6002680021116002685160026891606E
:103680000268D160DD4B026801241A441423B2FBA6
:10369000F3F29300DA4AC0E90F239C405460816240
:1036A000C16201634163816380F8211080F82010BA
:1036B000002010BD012010BD30B590F8405001240D
:1036C000AC40C56B6C60046863604368102B036892
:1036D00003D099600068C26030BD9A600068C16024
:1036E00030BD70B5044690F82000002501280CD0AC
:1036F000012084F8200094F821600020012E06D0DB
:1037000084F820000225284670BD022070BD0226E4
:1037100084F82160A0632068066826F00106066030
:103720002046FFF7C9FF2068016841F001010160F0
:10373000E9E770B5044690F82000002501280CD078
:10374000012084F8200094F821600020012E06D08A
:1037500084F820000225284670BD022070BD022694
:1037600084F82160A0632068066826F001060660E0
:103770002046FFF7A1FFE06A00282068016802D018
:1037800041F00E0106E021F00401016020680168AB
:1037900041F00A0101602068016841F00101016007
:1037A000D9E710B590F821100022022905D0042194
:1037B000816380F82020012010BD01680B6823F090
:1037C0000E030B6001680B6823F001030B6090F897
:1037D0004030C46B012101FA03F3636080F82110CB
:1037E00080F82020104610BD10B590F8211000245C
:1037F000022903D00421816301243DE001680A68A5
:1038000022F00E020A6001680A6822F001020A60D2
:103810007B4A01680832914201D1012121E0784AB6
:103820001C32914201D110211BE0754A3032914285
:1038300001D1891515E0724A4432914201D18914AF
:103840000FE06F4A5832914202D14FF4803108E0C4
:103850006B4A6C32914202D14FF4801101E04FF07B
:103860008071674A5160012180F82110002180F8A1
:103870002010416B01B18847204610BD2DE9F74F5C
:10388000044690F8210082B04FF0000B022802D0CD
:103890000420A0639EE020680168890603D54FF4E8
:1038A0008070A06398E0564D554E03991C35303614
:1038B000DFF84C81DFF84891DFF844A10029514935
:1038C00008F1440809F158090AF16C0A03D088424A
:1038D00020D1042738E0884201D1022734E0A842F1
:1038E00001D1202730E0B04202D14FF400772BE025
:1038F000404502D14FF4005726E0484502D14FF42D
:10390000003721E0504502D14FF400171CE04FF082
:10391000007719E0A84201D1402715E0B04202D15A
:103920004FF4806710E0404502D14FF480470BE030
:10393000484502D14FF4802706E0504502D14FF4AC
:10394000800701E04FF08067FFF70AF8009047E03A
:1039500002682C492068884201D1082019E0A84259
:1039600001D1802015E0B04202D14FF4006010E098
:10397000404502D14FF400400BE0484502D14FF4DE
:10398000002006E0504502D14FF4000001E04FF066
:10399000006002420BD094F84010E26B012000FA64
:1039A00001F15160A16B41F00101A16310E00498A5
:1039B000401C15D0049830B1FEF7D2FF0099411A8F
:1039C000049881420CD9A06B40F02000A063012034
:1039D00084F8210084F820B0012005B0BDE8F08F04
:1039E000074801683942B3D0039806490028206887
:1039F0000AD088422CD1042044E00000F8FFFDBF2B
:103A00000000024008000240884201D1022019E073
:103A1000A84201D1202015E0B04202D14FF400703D
:103A200010E0404502D14FF400500BE0484502D170
:103A30004FF4003006E0504502D14FF4001001E091
:103A40004FF000708A494860012084F821001BE093
:103A5000A84201D1402015E0B04202D14FF480606D
:103A600010E0404502D14FF480400BE0484502D1C0
:103A70004FF4802006E0504502D14FF4800001E071
:103A80004FF080607A49486084F820B00020A4E7B5
:103A90002DE9F05FC16B0C6801680B68D0F840C07D
:103AA000042202FA0CF2734DDFF8CCA1734E744F6E
:103AB000DFF8D0B1DFF8D0E122422BD05A0729D568
:103AC0000A68920603D40A6822F004020A600168B8
:103AD000A94201D1042219E0514501D1402215E04B
:103AE000B14202D14FF4806210E0B94202D14FF4EA
:103AF00080420BE0594502D14FF4802206E0714527
:103B000002D14FF4800201E04FF0806258494A60D0
:103B1000C16A3AE04FF0020808FA0CF818EA040FFC
:103B20004FF000094FF0010234D05FEA837831D5BD
:103B30000B689B0605D40B6823F00A030B6080F822
:103B400021200168A94201D1022219E0514501D189
:103B5000202215E0B14202D14FF4007210E0B942C8
:103B600002D14FF400520BE0594502D14FF400321C
:103B700006E0714502D14FF4001201E04FF00072EF
:103B80003B494A6080F82090816A00291AD0BDE83C
:103B9000F05F0847082505FA0CF5254212D01B07EF
:103BA00010D50B6823F00E030B6090F84010C36B28
:103BB00002FA01F15960826380F8212080F8209098
:103BC000016BE2E7BDE8F09F10B590F820400023BC
:103BD000012C07D0012480F8204090F82140012CCE
:103BE00002D008E0022010BD59B101290BD00229F2
:103BF0000BD003290BD00123002180F82010184698
:103C000010BD8262F8E7C262F6E70263F4E742633E
:103C1000F2E710B590F820200023012A08D00122F5
:103C200080F8202090F821400022012C02D014E0DE
:103C3000022010BD052910D2DFE801F003050709B5
:103C40000B0082620AE0C26208E0026306E042639F
:103C500004E08262C2620263F9E7012380F8202057
:103C6000184610BD90F821007047806B7047000027
:103C700000000240080002401C00024030000240E8
:103C800044000240580002406C0002407B4900F0B2
:103C9000070208684FF6FF03184040EA0220784AFE
:103CA000104308607047F0B4744B1B680C46C3F3B4
:103CB0000223C3F10705042D00D90425191D072986
:103CC00001D2002300E0DB1E012606FA05F1491EA1
:103CD000214099409E40761E16403143F0BC00F0D2
:103CE000BDB8002809DB00F01F0201219140400906
:103CF000800000F1E020C0F80011704700280DDBC3
:103D000000F01F02012191404009800000F1E020F5
:103D1000C0F88011BFF34F8FBFF36F8F7047BFF3B1
:103D20004F8F56480168564A01F4E061121D114355
:103D30000160BFF34F8F00BFFDE710B5401EB0F12B
:103D4000807F01D3012010BD4FF0E02460610F217E
:103D5000601700F083F80020A06107202061002098
:103D600010BD46480068C0F30220704770B50028B7
:103D700004DB00F1E02090F8000405E000F00F0003
:103D800000F1E02090F8140D040901F00700C0F1E3
:103D90000705042D00D90425011D072901D20020A3
:103DA00000E0C01E012124FA00F601FA05F56D1E9F
:103DB0002E408140491E21401660196070BD0028C8
:103DC00009DB00F01F02012191404009800000F151
:103DD000E020C0F80012704700280DDB410989007F
:103DE00001F1E021D1F8001200F01F020120904003
:103DF000014201D00120704700207047002809DBF4
:103E000000F01F02012191404009800000F1E020F4
:103E1000C0F88012704700280DDB4109890001F1CC
:103E2000E021D1F8001300F01F0201209040014270
:103E300001D001207047002070474FF0E021042896
:103E4000086903D020F004000861704740F00400C6
:103E5000FAE7704710B5FFF7FCFF10BD0907090E20
:103E6000002804DB00F1E02080F80014704700F027
:103E70000F0000F1E02080F8141D70470CED00E009
:103E80000000FA0520BF00BF70476348016941F098
:103E900080510161016921F08051016170475F49E2
:103EA0000120086270475D4900200862704730B504
:103EB0005B490A68036822F0E0021A430A60594924
:103EC0000A6822F480320A600C1F226822F48032D1
:103ED0002260544A0832136823F4803313600B1DA8
:103EE0001D6825F480351D604568ED0303D5256800
:103EF00045F4803525604468A40303D50C6844F478
:103F000080340C600179C90703D0196841F480310D
:103F100019600079800703D5106840F48030106084
:103F200030BD3E490120086170473C4900200861CE
:103F3000704790FAA0F0394AB0FA80F002EB8000A6
:103F40000121C0F88010704790FAA0F0334AB0FA0F
:103F500080F002EB80000021C0F8801070473248EA
:103F6000026822F004020260012903D040BF20BF92
:103F700020BF704730BF7047294A10B5136823F03F
:103F800002031360136823F0010303431360264CFC
:103F9000206840F004002060012909D040BFFFF7ED
:103FA00071FFFFF76FFF206820F00400206010BD54
:103FB00030BFF8E71A48016841F0020101601A4871
:103FC000016841F00401016030BF70471648016884
:103FD00041F00201016070471348016821F00201BD
:103FE000016070471048016841F01001016070479E
:103FF0000D48016821F0100101607047704710B54D
:10400000084C10342068C00304D5FFF7F7FF4FF4C5
:104010008030206010BD00000010024000000E4201
:10402000007000400404014010ED00E0704770B5DE
:10403000040025D094F83D00002520B984F83C50B8
:104040002046FCF75AFF242084F83D0020680168D0
:1040500021F0010101602068016841F40041016024
:104060002068016821F400410160FEF7C6FFFE4AA6
:104070006168914201D8FD4900E0FD49884201D2C2
:10408000012070BDFB492368B0FBF1F15E6826F0AA
:104090003F060E435E606368934206D94FF4967301
:1040A00059434FF47A73B1FBF3F12368491C1E6A3C
:1040B00026F03F06314319626168914210D84900E9
:1040C000401EB0FBF1F2521CC2F30B02042A01D2D3
:1040D000042023E0B0FBF1F0401CC0F30B001DE016
:1040E000A268EAB301EBC10303EB0116431EB3FB65
:1040F000F6F35B1C43F480431B054AD08AB301EB03
:10410000C10202EB0111401EB0FBF1F0401CC0F3F4
:104110000B0040F4804000BF40F400402168CA69B1
:104120004CF6FF739A431043C861D4E9071001436A
:104130002068026822F0C00211430160D4E9030143
:1041400001432068826848F2FF339A43114381603B
:10415000D4E9050108432168CA6822F0FF0201E0A2
:1041600010E018E01043C8602068016841F00101C8
:1041700001602564202084F83D00256384F83E50CA
:10418000002070BD01EB4106431EB3FBF6F35B1C40
:10419000B2E70120C2E701EB4101401EB0FBF1F0A4
:1041A000401CC0F30B00B7E7704710B5040013D0F4
:1041B000242084F83D002068016821F0010101609D
:1041C0002046FCF7DDFE0020206484F83D0044F822
:1041D000300FA073207310BD012010BD01684A6923
:1041E000D24352050FD46FF480624A61002140F837
:1041F000301F202242738173026942F0040202617F
:104200000173012070470020704770B516460D46B7
:1042100004461EE02046FFF7E1FF08B1012070BD13
:10422000681C16D0FEF79CFB801BA84200D885B9FD
:1042300020684069C04340070BD5002044F8300F88
:1042400020216173A073216941F020012161207355
:10425000E4E720684069C0434007DBD4002070BD1C
:1042600070B516460D4604461EE02046FFF7B6FF21
:1042700008B1012070BD681C16D0FEF771FB801BD1
:10428000A84200D885B920684069C04300060BD514
:10429000002044F8300F20216173A073216941F0A0
:1042A000200121612073E4E720684069C0430006D3
:1042B000DBD4002070BD2DE9F047984616460D4628
:1042C00004464FF000094FF0200AC1F3074723E0EE
:1042D00020684069C043400515D42068016841F456
:1042E0000071016021686FF480604861C4F830900B
:1042F00084F83DA084F83E90216C41F004012164D3
:1043000084F83C9020E0701C06D0FEF729FBA0EB5F
:104310000800B04203D816B1012F1ED020E020685B
:10432000012F14D0806925EA00000004000C17D08A
:1043300044F8309F84F80DA084F80E90216941F074
:104340002001216184F80C900120BDE8F0874069CC
:1043500025EA00000004000CEAD12068406901E071
:104360002068806925EA00000004000CB0D1ECE769
:104370002DE9F047984617460D460446C1F3074617
:10438000DDF8209029E000BFB8F1FF3F25D0FEF70F
:10439000E7FAA0EB0901414502D8B8F1000F1CD1A2
:1043A0002068012E15D0806925EA00000004000C69
:1043B00011D00020B84210D1002044F8300F202145
:1043C0006173A073216941F02001216120730120F4
:1043D000BBE74069E8E70120ECE72068012E0BD03D
:1043E000D0F8180025EA00000004000C06D00020D8
:1043F000B842C9D00020A8E74069F3E70120F7E7F9
:104400002DE9F84F1F4690468A460446DDF828906D
:10441000FEF7A6FA054694F83D0020287DD1192321
:104420000122154920460095FFF7A2FF002874D10C
:1044300094F83C0001287ED0012084F83C002068DC
:104440000168C90703D1016841F0010101602068DA
:10445000016821F400610160212084F83D001020F2
:1044600084F83E00002609E0A086010080841E003A
:1044700000093D0040420F00020010002664C4F80D
:1044800024806785608D2085F848E0622B464A4687
:104490005146204602F07EFF90B92068416980694C
:1044A000009036E02A4649462046FFF7D9FE50B133
:1044B000206C042804D12068016841F40071016077
:1044C0000120BDE8F88F606A216800780861606AA1
:1044D000401C6062618D491E6185218D491E89B233
:1044E000218522685369DB435B070BD451B1007807
:1044F0001061606A401C6062608D401E6085208D86
:10450000401E20852A4649462046FFF77EFE0028A9
:10451000CED1208D0028C5D100E00CE054F83D0B31
:10452000016841F400710160202004F81E09E6775B
:1045300066770020C5E70220C3E72DE9F04100259A
:1045400090460E460446202728E04069C043C00636
:104550000CD454F8301B6FF01000486144F8105927
:104560006777A577206A2062257714E0FEF7F8F9CF
:10457000A0EB0800B04200D886B920684069C0436B
:1045800040060BD544F8305F6773A573206940F08F
:104590002000206125730120BDE8F0812068416979
:1045A000C9434906D1D40020F6E72DE9F84F044667
:1045B000C06A1E4693460D4621680A6842F480622E
:1045C0000A60082807D0012805D010F5803F02D0E6
:1045D000206B112804D12068016841F480710160CA
:1045E0004FF001195B460022494620460096FFF72E
:1045F000BFFE4FF4007838B120680068C00501D5CF
:10460000C4F8408003205CE72069DFF864A2B0F5BD
:10461000804F0FD00620216800EAD51747F0F00040
:10462000086133465A460AF106012046FFF743FE69
:1046300058BB03E0E8B240F001001CE02168E8B29A
:10464000086133465A4651462046FFF734FEE0B92A
:104650002068416981690091016841F480710160BD
:104660005B460022494620460096FFF781FE00285F
:10467000C2D147F0F1002168086133465A465146DD
:104680002046FFF718FE0028BDD0012019E72DE9CC
:10469000F84F0025DDF82890984617468A460446CC
:1046A0000095FEF75DF9064694F83D0020287CD180
:1046B000192301226F4920460096FFF759FE002872
:1046C000F5D194F83C0001286FD0012084F83C001B
:1046D00020680168C90703D1016841F00101016048
:1046E0002068016821F400610160222084F83D0007
:1046F000102084F83E0025646762A4F82A80608D4B
:1047000020855A48E06233464A4651462046FFF724
:104710004CFF00287ED1DFF85881208D202708F13A
:10472000020868B1012814D00228206801681ED050
:1047300041F4806101602068416980690090C3E0B4
:104740002068416981690091016841F4007101604C
:10475000BAE02068016821F48061016072B62068C7
:10476000416981690091016841F400710AE041F4F6
:104770000061016072B62068416981690091016839
:1047800021F48061016062B69EE0032865D80128AB
:104790000CD002284B464FF00002414620460096BE
:1047A0000BD0FFF7E5FDA8BB0CE098E03246494688
:1047B0002046FFF7C2FE68BB79E0FFF7D9FD48BB92
:1047C00072B633E02068016821F48061016072B63E
:1047D00020680069616A0870606A401C6062208D10
:1047E000401E2085608D401E6085234846F2A8113A
:1047F0000068B0FBF1F0C0EBC00000EB800000905F
:10480000401E009007D020684069C04340070DD586
:104810000098F5E727E044F8305F6773A5732069D7
:1048200040F02000206162B625731CE0206801681A
:1048300041F40071016020680069616A0870606A73
:10484000401C6062218D491E2185618D491E618554
:1048500062B62168096901702DE03246494620465A
:10486000FFF76BFE50B101202BE600000000FFFFB8
:104870000200010002001000080200202068006908
:10488000616A0870606A401C6062208D401E81B2BF
:104890002185608D401E608520684269D2435207A1
:1048A00012D4032903D1016821F4806101602068DA
:1048B0000069616A0870606A401C6062208D401E59
:1048C0002085608D401E6085208D00287FF45DAFBF
:1048D00084F83D7084F83E5084F83C50F1E50220A5
:1048E000EFE52DE9F84F9A4616460F460446FEF7C7
:1048F00037F8054694F83D0020287DD1002F55D08B
:10490000002E53D094F83C00012875D0012084F883
:104910003C0020680168C90703D1016841F001012A
:1049200001602068016821F400610160212084F8A1
:104930003D004FF0200984F83E904FF00008C4F885
:10494000408067626685608D2085F848E062206857
:10495000016841F480610160F54F53464246394693
:1049600020460095FFF704FD00BB206846464169DC
:10497000806900902069B0F5404F37D1534600223E
:10498000394620460095FFF7F3FC78B92068416965
:10499000806900902AE02A4651462046FFF760FCD5
:1049A00028B12068016821F4806101602CE0606A10
:1049B000216800780861606A401C6062618D491E50
:1049C0006185218D491E89B2218522685369DB43A7
:1049D0005B070BD469B100781061606A401C6062AB
:1049E000608D401E6085208D401E2085208D002812
:1049F000D1D15346002200E019E04FF48231204625
:104A00000095FFF7B5FC08B101205AE521686FF465
:104A1000806048612068016821F48061016084F849
:104A20003D9084F83E6084F83C60002049E5022017
:104A300047E52DE9F84F9A46154688460446FDF7A6
:104A40008FFF064694F83D0020287DD1B8F1000F75
:104A500032D08DB394F83C00012875D0012084F841
:104A60003C0020680168C90703D1016841F00101D9
:104A700001602068016821F400610160222084F84F
:104A80003D00202784F83E704FF00009C4F84090A4
:104A9000C4F824806585608D2085A448E062206884
:104AA000016841F48061016053464A46A0492046AE
:104AB0000096FFF75DFC08B1012002E520684D4635
:104AC00041698069009024E0324651462046FFF754
:104AD00034FDD0BB20680069616A0870606A401CC0
:104AE0006062218D491E89B22185628D521E6285C8
:104AF00022685369DB435B070BD469B1116901700C
:104B0000606A401C6062208D401E2085608D401EC2
:104B10006085208D0028D7D1D04624E02046FFF7BD
:104B20005DFB90B9FDF71CFF811B414502D8B8F130
:104B3000000F18D120684069C043C00613D5204635
:104B400040F8305F477301E026E006E085730069B6
:104B500040F02001216484F83C502068016821F471
:104B600080610160A8E720684069C043C006D5D4D1
:104B7000206841690091016841F0010101602068ED
:104B8000016821F48061016084F83D7084F83E5032
:104B900084F83C50002094E4022092E478B500248C
:104BA000009490F83D50202D4ED1624D46F2A8164B
:104BB0002D68B5FBF6F505EBC50606EB051500956A
:104BC0006D1E009506D00568AD69ED43AD070BD4A9
:104BD000009DF5E740F8304F20214173847301694F
:104BE00041F0200101612FE090F83C50012D2BD0C5
:104BF000012580F83C5005682E68F60703D12E6821
:104C000046F001062E6005682E6826F400662E60C8
:104C1000212580F83D50102580F83E500464426202
:104C20004385428D0285414AC262416480F83C401E
:104C300001684A6842F4E0624A600068016841F431
:104C400080710160002078BD022078BD78B5002415
:104C5000009490F83D50202D53D1364D46F2A816C1
:104C60002D68B5FBF6F505EBC50606EB05150095B9
:104C70006D1E009506D00568AD69ED43AD070BD4F8
:104C8000009DF5E740F8304F20214173847301699E
:104C900041F02001016134E090F83C50012D30D00A
:104CA000012580F83C5005682E68F60703D12E6870
:104CB00046F001062E6005682E6826F400662E6018
:104CC000222580F83D50102580F83E500464426251
:104CD0004385428D0285154AC262416480F83C409A
:104CE00001684A6842F4E0624A6001680A6842F476
:104CF00080620A600068016841F4807101600020F0
:104D000078BD022078BD10B590F83D30202B3AD107
:104D100091B18AB190F83C30012B34D0012380F856
:104D20003C3003681C68E40708D00BE00000FFFF7C
:104D30000200010008020020012010BD1C6844F0A0
:104D400001041C6003681C6824F400641C602123B7
:104D500080F83D30202380F83E3000230364416218
:104D60004285418D0185FE49C16201680A6842F4AD
:104D700080620A6080F83C300068416841F4E0617C
:104D80004160002010BD022010BD10B590F83D30EC
:104D9000202B34D161B15AB190F83C30012B2ED088
:104DA000012380F83C3003681C68E40702D005E06A
:104DB000012010BD1C6844F001041C6003681C68DD
:104DC00024F400641C60222380F83D30202380F806
:104DD0003E300023036441624285418D0185E049F4
:104DE000C16201680A6842F480620A6080F83C305F
:104DF0000068416841F4E0614160002010BD02207C
:104E000010BD704710B5406A0021426B02B191623B
:104E1000826B02B191620268136823F480631360AD
:104E20004185202280F83D2080F83E10016C41F041
:104E300010010164FFF7E5FF10BD70477047704730
:104E400070472DE9F041446A94F83D2094F83E50B3
:104E5000E16A2068436823F440734360636B002079
:104E600003B19862A36B03B19862212333EA02076E
:104E70004FF022060CD036EA020701D1202D07D0D0
:104E800094F83E20002A21D0628D012A20D024E00F
:104E900021684D6825F400654D6060852820292A29
:104EA00002D02A2A07D00CE0236384F83D00204674
:104EB000FFF7C6FF05E0266384F83D002046FFF7B4
:104EC000BEFF2068416841F440714160BDE8F08157
:104ED0002268136823F4806313602268536823F404
:104EE0004073536011F5803F06D0082904D0B1F11A
:104EF0002A4F01D0202904D121680A6842F40072A7
:104F00000A6021684A6822F480524A6021684A682F
:104F100022F400624A606085216C19B12046FFF7D7
:104F200070FFD3E7202184F83D1094F83E1084F8F8
:104F30003E00402905D0122020632046FFF77DFF68
:104F4000C4E720632046FFF779FFBFE7F8B50025E7
:104F50000446009590F83D00202828D1814846F26B
:104F6000A8160068B0FBF6F000EBC00606EB0010D8
:104F7000202600900098401E009010D02068806984
:104F8000C0438007F6D594F83C0001280FD00120DB
:104F900084F83C0020680768FF070AD00DE044F859
:104FA000305F6673A573206940F020002061022005
:104FB000F8BD076847F0010707602068076827F415
:104FC00000670760212084F83D00102084F83E002F
:104FD000256462626385608D20856148E06261645A
:104FE000208DE8B3606BF0B15F498162616B5F480F
:104FF0000863606BC562606B45632268238D103265
:10500000616A606BFEF795FBB0B184F83D6084F88F
:105010003E5054F8400F40F0100000BF44F804091F
:1050200001202570F8BD84F83D6084F83E5054F8A6
:10503000400F40F08000F1E784F83C502068416860
:1050400041F4407141602068416841F40061416071
:105050002068016841F4806101602068016800E017
:1050600003E041F48071016010E02068016841F4C0
:10507000806101602068016841F48071016084F8FA
:105080003C502068416841F4E06141600020F8BD77
:10509000F8B500250446009590F83D00202828D159
:1050A000304846F2A8160068B0FBF6F000EBC006E8
:1050B00006EB0010202600900098401E009010D0B3
:1050C00020688069C0438007F6D594F83C00012829
:1050D0000FD0012084F83C0020680768FF070AD041
:1050E0000DE044F8305F6673A573206940F020003E
:1050F00020610220F8BD076847F0010707602068BB
:10510000076827F400670760222084F83D0010201C
:1051100084F83E00256462626385608D20851048B6
:10512000E0626164208D88B3A06B30B30E49816268
:10513000A16B0E480863A06BC562A06B4563216834
:10514000238D1031626AA06BFEF7F3FAF8B184F890
:105150003D6084F83E5054F8400F40F0100007E0E6
:105160000000FFFF08020020434E0008054E000823
:1051700044F8040901202570F8BD84F83D6084F8E6
:105180003E5054F8400F40F08000E8E716E02068F9
:10519000016841F4806101602068016841F4807118
:1051A000016084F83C502068416841F440714160DE
:1051B0002068416841F40061416010E084F83C508F
:1051C0002068416841F4E06141602068016841F471
:1051D000806101602068016841F4807101600020F5
:1051E000F8BD70B5044690F83D00202863D161B148
:1051F0005AB194F83C0001285DD0012084F83C00AD
:1052000020680368DB0702D005E0012070BD036859
:1052100043F0010303602068036823F40063036024
:10522000212084F83D00202684F83E600025256476
:1052300061626285608D2085FD48E062606BE8B147
:10524000FC498162616BFC480863606BC562606BFE
:1052500045632268238D1032616A606BFEF769FA3C
:10526000B0B184F83D6084F83E5054F8400F40F0EF
:10527000100000BF44F804092570C6E7282084F810
:105280003D0084F83E5054F8400F40F08000F1E7B4
:105290002068016841F48061016084F83C50206816
:1052A000416841F4407141602068416841F4006107
:1052B0004160002070BD022070BD70B5044690F8BA
:1052C0003D00202863D161B15AB194F83C00012817
:1052D0005DD0012084F83C0020680368DB0702D021
:1052E00005E0012070BD036843F0010303602068FE
:1052F000036823F400630360222084F83D00202625
:1053000084F83E600025256461626285608D208599
:10531000C748E062A06BE8B1C6498162A16BC6488C
:105320000863A06BC562A06B45632168238D1031B3
:10533000626AA06BFEF7FDF9B0B184F83D6084F8B5
:105340003E5054F8400F40F0100000BF44F80409EC
:105350002570C6E7282084F83D0084F83E5054F8B4
:10536000400F40F08000F1E72068016841F480615F
:10537000016084F83C502068416841F4407141600C
:105380002068416841F400614160002070BD022046
:1053900070BD2DE9F843044600680D46DDE9089725
:1053A00001689846164641F4807101604B46002220
:1053B0004FF0011120460097FEF7DAFF48B1206850
:1053C0000068C00502D54FF4007020640320BDE8DA
:1053D000F883216805F0FE0008613B464A4697497C
:1053E0002046FEF768FF88B920684169806900900F
:1053F0003A4649462046FEF733FF48B1206C042860
:1054000004D12068016841F4007101600120DEE7E9
:10541000F5B2B8F1010F09D02168300A08613A46A7
:1054200049462046FEF71CFF0028E7D120680561A9
:105430000020CCE72DE9FF4F83B09A46DDE91197B4
:1054400093460446DDF84080FDF78AFA054694F855
:105450003D0020287FD1192301227949204600955B
:10546000FEF786FF002876D194F83C00012872D020
:10547000012084F83C0020680168C90703D1016855
:1054800041F0010101602068016821F400610160C0
:10549000212084F83D00402084F83E000026266448
:1054A000C4F82480A4F82A90608D20856048E062CA
:1054B000CDE9007553465A4620460499FFF769FF27
:1054C00070B930E02A4639462046FEF7C9FE58B189
:1054D000206C042804D12068016841F40071016047
:1054E000012007B0BDE8F08F606A2168007808618C
:1054F000606A401C6062218D491E89B22185628DDF
:10550000521E628522685369DB435B070BD469B185
:1055100000781061606A401C6062208D401E20850A
:10552000608D401E6085208D0028CBD12A463946EB
:105530002046FEF76AFE0028CAD154F83D0B0168E8
:1055400041F400710160202004F81E09E6776677B7
:105550000020C6E7FFE70220C3E72DE9F84F044625
:10556000006889460B9D01689846174641F48061A2
:1055700001602068016841F48071016000954FF07E
:10558000011B0022594620460A9BFEF7F1FE4FF40C
:10559000007A40B120680068C00501D5C4F840A079
:1055A0000320BDE8F88F216809F0FE0008612B4652
:1055B000224920460A9AFEF77EFEC0BB2068416958
:1055C000806900902A4620460A99FEF749FE40B1BC
:1055D000206C042844D12068016841F40071016006
:1055E0003EE0FEB2B8F1010F09D02168380A086127
:1055F0002A4620460A99FEF733FE0028E8D12068A3
:1056000006612A4620460A99FEF72AFE0028DFD1C5
:105610002068016841F480710160009500225946BC
:1056200020460A9BFEF7A4FE0028B3D10AE017E04B
:105630000000FFFF434E0008054E00080200010075
:1056400002001000216809F0FF0040F0010008612D
:105650002B46F94920460A9AFEF72DFE0028A0D0D5
:1056600001209EE72DE9FF4F83B00025DDE9107989
:105670009A4693460446DDF848800095FDF770F998
:10568000064694F83D0020287ED119230122EB49DB
:1056900020460096FEF76CFE0028F5D194F83C00F9
:1056A000012871D0012084F83C0020680168C907F6
:1056B00003D1016841F0010101602068016821F413
:1056C00000610160222084F83D00402084F83E0003
:1056D00025646762A4F82A90608D2085D848E0622E
:1056E000CDE9008653465A4620460499FFF735FF18
:1056F00000287DD1DFF84093208D202709F1020991
:1057000068B1012814D00228206801681ED041F435
:10571000806101602068416980690090B4E0206880
:10572000416981690091016841F400710160ABE059
:105730002068016821F48061016072B620684169C7
:1057400081690091016841F400710AE041F400614F
:10575000016072B62068416981690091016821F495
:105760008061016062B68FE0032868D801280CD000
:10577000022843464FF000024946204600960FD0CB
:10578000FEF7F6FDA0BB10E089E032464146204618
:10579000FEF7D3FE60BB20680069616A08706AE0AA
:1057A000FEF7E6FD20BB72B634E02068016821F404
:1057B0008061016072B620680069616A0870606A81
:1057C000401C6062208D401E2085608D401E6085DB
:1057D0009C4846F2A8110068B0FBF1F0C0EBC00095
:1057E00000EB80000090401E009008D0206800E090
:1057F0002BE04069C04340070CD50098F3E744F81C
:10580000305F6773A573206940F02000206162B6A5
:1058100025731AE02068016841F400710160206876
:105820000069616A0870606A401C6062218D491ECF
:105830002185618D491E618562B6216819E0324675
:1058400041462046FEF779FE08B1012049E620686E
:105850000069616A0870606A401C6062218D491E9F
:105860002185618D491E618521684A69D2435207AD
:105870000AD409690170606A401C6062208D401E74
:105880002085608D401E6085208D00287FF46CAFE0
:1058900084F83D7084F83E5084F83C5021E60220A4
:1058A0001FE6F8B50024DDE90676009490F83D5037
:1058B000202D57D1634D46F2A81C2D68B5FBFCF591
:1058C00005EBC50C0CEB051500956D1E009506D07B
:1058D0000568AD69ED43AD070BD4009DF5E740F8D1
:1058E000304F202141738473016941F0200101612F
:1058F00038E090F83C50012D34D0012580F83C5020
:105900000568D5F800C05FEACC7C05D1D5F800C0A9
:105910004CF0010CC5F800C00568D5F800C02CF4A7
:10592000006CC5F800C0212580F83D50402580F866
:105930003E50046447624685458D0585404DC562ED
:1059400041648264C364046501680A6842F4807239
:105950000A6080F83C400068416841F4E0614160C1
:105960000020F8BD0220F8BDF8B50024DDE9067678
:10597000009490F83D50202D66D1324D46F2A81C7F
:105980002D68B5FBFCF505EBC50C0CEB051500957A
:105990006D1E009506D00568AD69ED43AD070BD4CB
:1059A000009DF5E740F8304F202141738473016971
:1059B00041F02001016147E090F83C50012D43D0B7
:1059C000012580F83C500568D5F800C05FEACC7C22
:1059D00005D1D5F800C04CF0010CC5F800C0056831
:1059E000D5F800C02CF4006CC5F800C0222580F862
:1059F0003D50402580F83E50046447624685458D01
:105A000005850F4DC56241648264C3640465016805
:105A10000A6842F480620A6001680A6842F480728F
:105A20000A6080F83C40018D21B10068416841F472
:105A3000E06141600020F8BD02000100020010009A
:105A40000000FFFF080200200220F4E72DE9FC5FC0
:105A50000025984691468A460446DDF830B0009508
:105A6000FCF77EFF074694F83D00202828D1FE4829
:105A700046F2A81120260068B0FBF1F000EBC0014F
:105A800001EB001000900098401E009010D020689C
:105A90008069C0438007F6D594F83C0001280FD0F8
:105AA000012084F83C0020680168C9070BD00EE093
:105AB00044F8305F6673A573206940F020002061D0
:105AC0000220BDE8FC9F016841F0010101602068EF
:105AD000016821F400610160212084F83D0040202C
